{"contracts/Treasury.sol":{"Treasury":{"abi":[{"inputs":[],"stateMutability":"nonpayable","type":"constructor"},{"inputs":[],"name":"ReentrancyGuardReentrantCall","type":"error"},{"anonymous":false,"inputs":[{"indexed":true,"internalType":"address","name":"asset","type":"address"},{"indexed":false,"internalType":"uint256","name":"target","type":"uint256"},{"indexed":false,"internalType":"uint256","name":"upper","type":"uint256"},{"indexed":false,"internalType":"uint256","name":"lower","type":"uint256"}],"name":"AllocationConfigured","type":"event"},{"anonymous":false,"inputs":[{"indexed":true,"internalType":"address","name":"token","type":"address"},{"indexed":false,"internalType":"uint256","name":"amount","type":"uint256"}],"name":"DefiDeposit","type":"event"},{"anonymous":false,"inputs":[{"indexed":true,"internalType":"address","name":"token","type":"address"},{"indexed":false,"internalType":"uint256","name":"amount","type":"uint256"}],"name":"DefiWithdrawal","type":"event"},{"anonymous":false,"inputs":[{"indexed":true,"internalType":"address","name":"token","type":"address"},{"indexed":false,"internalType":"uint256","name":"amount","type":"uint256"}],"name":"FundsDeposited","type":"event"},{"anonymous":false,"inputs":[{"indexed":true,"internalType":"address","name":"token","type":"address"},{"indexed":false,"internalType":"uint256","name":"amount","type":"uint256"}],"name":"FundsWithdrawn","type":"event"},{"anonymous":false,"inputs":[{"indexed":true,"internalType":"address","name":"triggerer","type":"address"},{"indexed":false,"internalType":"uint256","name":"totalValueBefore","type":"uint256"},{"indexed":false,"internalType":"uint256","name":"totalValueAfter","type":"uint256"},{"indexed":false,"internalType":"uint256","name":"wethBefore","type":"uint256"},{"indexed":false,"internalType":"uint256","name":"wethAfter","type":"uint256"}],"name":"RebalanceCycle","type":"event"},{"anonymous":false,"inputs":[{"indexed":false,"internalType":"uint256","name":"timestamp","type":"uint256"},{"indexed":false,"internalType":"address[]","name":"assets","type":"address[]"},{"indexed":false,"internalType":"uint256[]","name":"allocations","type":"uint256[]"}],"name":"RebalanceSuggested","type":"event"},{"anonymous":false,"inputs":[{"indexed":true,"internalType":"address","name":"assetSold","type":"address"},{"indexed":true,"internalType":"address","name":"assetBought","type":"address"},{"indexed":false,"internalType":"uint256","name":"amountSold","type":"uint256"},{"indexed":false,"internalType":"uint256","name":"amountBought","type":"uint256"}],"name":"SwapExecuted","type":"event"},{"anonymous":false,"inputs":[{"indexed":false,"internalType":"address","name":"token","type":"address"},{"indexed":false,"internalType":"uint256","name":"amount","type":"uint256"}],"name":"YieldEarned","type":"event"},{"inputs":[],"name":"AAVE_POOL","outputs":[{"internalType":"contract IAavePool","name":"","type":"address"}],"stateMutability":"view","type":"function"},{"inputs":[],"name":"DAI","outputs":[{"internalType":"address","name":"","type":"address"}],"stateMutability":"view","type":"function"},{"inputs":[],"name":"MAX_AAVE_EXPOSURE","outputs":[{"internalType":"uint256","name":"","type":"uint256"}],"stateMutability":"view","type":"function"},{"inputs":[],"name":"MAX_SLIPPAGE","outputs":[{"internalType":"uint256","name":"","type":"uint256"}],"stateMutability":"view","type":"function"},{"inputs":[],"name":"USDC","outputs":[{"internalType":"address","name":"","type":"address"}],"stateMutability":"view","type":"function"},{"inputs":[],"name":"WETH","outputs":[{"internalType":"contract IWETH","name":"","type":"address"}],"stateMutability":"view","type":"function"},{"inputs":[{"internalType":"address","name":"","type":"address"}],"name":"aTokenMapping","outputs":[{"internalType":"address","name":"","type":"address"}],"stateMutability":"view","type":"function"},{"inputs":[{"internalType":"uint256","name":"","type":"uint256"}],"name":"aaveAssets","outputs":[{"internalType":"address","name":"","type":"address"}],"stateMutability":"view","type":"function"},{"inputs":[{"internalType":"address","name":"","type":"address"}],"name":"aavePrincipal","outputs":[{"internalType":"uint256","name":"","type":"uint256"}],"stateMutability":"view","type":"function"},{"inputs":[],"name":"agentKitOperator","outputs":[{"internalType":"address","name":"","type":"address"}],"stateMutability":"view","type":"function"},{"inputs":[{"internalType":"address","name":"","type":"address"}],"name":"assetConfigs","outputs":[{"internalType":"uint256","name":"target","type":"uint256"},{"internalType":"uint256","name":"upperThreshold","type":"uint256"},{"internalType":"uint256","name":"lowerThreshold","type":"uint256"}],"stateMutability":"view","type":"function"},{"inputs":[],"name":"checkAndRebalance","outputs":[],"stateMutability":"nonpayable","type":"function"},{"inputs":[{"internalType":"address","name":"_asset","type":"address"},{"internalType":"uint256","name":"_target","type":"uint256"},{"internalType":"uint256","name":"_upperThreshold","type":"uint256"},{"internalType":"uint256","name":"_lowerThreshold","type":"uint256"},{"internalType":"address[]","name":"_swapPath","type":"address[]"}],"name":"configureAsset","outputs":[],"stateMutability":"nonpayable","type":"function"},{"inputs":[{"internalType":"address","name":"_token","type":"address"},{"internalType":"uint256","name":"_amount","type":"uint256"}],"name":"depositToAave","outputs":[],"stateMutability":"nonpayable","type":"function"},{"inputs":[{"internalType":"address","name":"_token","type":"address"},{"internalType":"uint256","name":"_amount","type":"uint256"}],"name":"emergencyWithdraw","outputs":[],"stateMutability":"nonpayable","type":"function"},{"inputs":[{"internalType":"address payable","name":"_to","type":"address"},{"internalType":"uint256","name":"_amount","type":"uint256"},{"internalType":"address","name":"_token","type":"address"}],"name":"executeTransfer","outputs":[],"stateMutability":"nonpayable","type":"function"},{"inputs":[{"internalType":"address","name":"_token","type":"address"}],"name":"getAavePositionValue","outputs":[{"internalType":"uint256","name":"","type":"uint256"}],"stateMutability":"view","type":"function"},{"inputs":[],"name":"getAaveTotalValue","outputs":[{"internalType":"uint256","name":"total","type":"uint256"}],"stateMutability":"view","type":"function"},{"inputs":[],"name":"getAllocations","outputs":[{"internalType":"uint256","name":"wethAllocation","type":"uint256"},{"internalType":"uint256","name":"usdcAllocation","type":"uint256"},{"internalType":"uint256","name":"daiAllocation","type":"uint256"},{"internalType":"uint256","name":"totalValue","type":"uint256"}],"stateMutability":"view","type":"function"},{"inputs":[{"internalType":"address","name":"token","type":"address"}],"name":"getAssetValue","outputs":[{"internalType":"uint256","name":"","type":"uint256"}],"stateMutability":"view","type":"function"},{"inputs":[],"name":"getBalance","outputs":[{"internalType":"uint256","name":"","type":"uint256"}],"stateMutability":"view","type":"function"},{"inputs":[],"name":"getTotalValue","outputs":[{"internalType":"uint256","name":"","type":"uint256"}],"stateMutability":"view","type":"function"},{"inputs":[],"name":"getWethAllocation","outputs":[{"internalType":"uint256","name":"","type":"uint256"}],"stateMutability":"view","type":"function"},{"inputs":[{"internalType":"address","name":"","type":"address"}],"name":"isAaveAsset","outputs":[{"internalType":"bool","name":"","type":"bool"}],"stateMutability":"view","type":"function"},{"inputs":[],"name":"owner","outputs":[{"internalType":"address","name":"","type":"address"}],"stateMutability":"view","type":"function"},{"inputs":[{"internalType":"address","name":"","type":"address"}],"name":"priceFeeds","outputs":[{"internalType":"contract AggregatorV3Interface","name":"","type":"address"}],"stateMutability":"view","type":"function"},{"inputs":[],"name":"proposalsContract","outputs":[{"internalType":"address","name":"","type":"address"}],"stateMutability":"view","type":"function"},{"inputs":[{"internalType":"address","name":"_operator","type":"address"}],"name":"setAgentKitOperator","outputs":[],"stateMutability":"nonpayable","type":"function"},{"inputs":[{"internalType":"address","name":"_proposals","type":"address"}],"name":"setProposalsContract","outputs":[],"stateMutability":"nonpayable","type":"function"},{"inputs":[],"name":"suggestRebalance","outputs":[],"stateMutability":"nonpayable","type":"function"},{"inputs":[{"internalType":"address","name":"","type":"address"}],"name":"tokenBalances","outputs":[{"internalType":"uint256","name":"","type":"uint256"}],"stateMutability":"view","type":"function"},{"inputs":[],"name":"uniswapRouter","outputs":[{"internalType":"contract IUniswapV2Router02","name":"","type":"address"}],"stateMutability":"view","type":"function"},{"inputs":[{"internalType":"address","name":"token","type":"address"},{"internalType":"address","name":"feed","type":"address"}],"name":"updatePriceFeed","outputs":[],"stateMutability":"nonpayable","type":"function"},{"inputs":[{"internalType":"address","name":"_token","type":"address"},{"internalType":"uint256","name":"_amount","type":"uint256"}],"name":"withdrawFromAave","outputs":[],"stateMutability":"nonpayable","type":"function"},{"inputs":[{"internalType":"address","name":"","type":"address"}],"name":"yieldGenerated","outputs":[{"internalType":"uint256","name":"","type":"uint256"}],"stateMutability":"view","type":"function"},{"stateMutability":"payable","type":"receive"}],"devdoc":{"errors":{"ReentrancyGuardReentrantCall()":[{"details":"Unauthorized reentrant call."}]},"kind":"dev","methods":{},"version":1},"evm":{"bytecode":{"linkReferences":{},"object":"608034620001ef5760016000818155600480546001600160a01b031990811673c532a74256d3db42d0bf7a0400fefdbad7694008178255600280548216331790556020939093527fdd30f26761a197a30f1122555d987c7244e5928edad3f9e0fff79501608e28908054841673694aa1769357215de4fac081bf1f309adc3253061790557f473f4e406f2e237914d6364ace7626ddbaa8a1b0939171d040c31cc1ea4f21768054841673a2f78ab2355fe2f984d808b5cee7fd0a93d5270e17905573e5118e47e061ab15ca972d045b35193f673bcc368083527f10d2883cd297bc708b0e9947825807175be535a6e959b869b4704eaa831cf9fe80549094167314866185b1962b63c3ea9e03bc1da838bab34c1917909355604093919073ebcc972b6b3eb15c0592be1871838963d0b9427873a1a245cc76414dc143687d9c3de1152396f352d6608085016001600160401b03811186821017620001dc57875260038552602085016060368237855115620001c95752835160011015620001b65785840152825160021015620001a3575050606001525161351b9081620001f58239f35b634e487b7160e01b825260329052602490fd5b634e487b7160e01b835260328252602483fd5b634e487b7160e01b855260328452602485fd5b634e487b7160e01b855260418452602485fd5b600080fdfe60806040818152600491823610156100c1575b50361561001e57600080fd5b73a1a245cc76414dc143687d9c3de1152396f352d691823b156100bc578151630d0e30db60e41b8152600091829082908134885af180156100b2579260209281927f543ba50a5eec5e6178218e364b1d0f396157b3c8fa278522c2cb7fd99407d474956100a3575b50858152600884522061009a3482546119f2565b905551348152a2005b6100ac90611a47565b38610086565b83513d84823e3d90fd5b600080fd5b600090813560e01c90816301f46670146119195750806308a01675146118ea578063098dbf5c1461178c57806312065fe0146116f15780631acb5390146116b957806326eff0f21461161957806329ab437b146115ce57806334dc9e32146115965780633ed55f0c146113d15780634158a94d1461119d5780634450c20314611174578063487ede0414610eb55780634f64d9d914610ce9578063523fba7f14610cb157806356ebec8814610c945780635b9f207914610c595780636073cb4114610c1857806365ed6e2314610b2f5780636e9fff5714610b06578063735de9f714610ade5780637609d7f614610a7e57806389a3027114610a4f5780638da5cb5b14610a2657806393e5e90f14610a0057806395a566bd146109e357806395ccea67146108955780639dcb511a1461085a578063ad5c46481461082b578063b7997da114610789578063caa648b41461076c578063dc133e891461071e578063dd41d050146106fa578063e0bab4c4146106cb578063eeb149e71461026a5763f9759518036100125790346102665781600319360112610266576020905160058152f35b5080fd5b509190346106c757806003193601126106c757610285611954565b602480359060018060a01b0380936102a282600354163314611ad4565b6102aa611b45565b16948451936370a0823160e01b85523082860152602094858185818b5afa80156106bd5785908a9061068c575b6102e392501015611b68565b6102eb6132d5565b611f409081810291818304149015171561067a57612710900461031585610310611c6d565b6119f2565b11610646579087929187845260088652868420610333868254611b38565b9055878452600b86528087852054161561046d575b5085519063095ea7b360e01b825273368eedf3f56ad10b9bc57eed4dac65b26bb667f691828282015285848201528681604481888d5af1801561046357610436575b50813b156104325760848891858094888b51978896879563e8eda9df60e01b87528601528401523060448401528160648401525af1801561042857610410575b5092847f61c74c7b35f6f1b220bb406a21982a8d0b6ec18192a649ff4aa205a3f858be6a9452600983528086206104028382546119f2565b905551908152a26001815580f35b61041990611a47565b6104245784386103ca565b8480fd5b85513d84823e3d90fd5b8380fd5b61045590873d891161045c575b61044d8183611a5b565b810190611b20565b503861038a565b503d610443565b88513d87823e3d90fd5b86516335ea6a7560e01b81528281018990526101008082868173368eedf3f56ad10b9bc57eed4dac65b26bb667f65afa91821561063c578692610546575b505060e08291015116888552600b8752878520906001600160601b0360a01b8254161790556007865260ff87852054166103485790919250600654600160401b81101561053457906105068260018b9695940160065561196a565b819291549060031b918a831b921b191617905586835260078552858320600160ff1982541617905538610348565b634e487b7160e01b8952604183528389fd5b818094959697508193503d8311610635575b6105628183611a5b565b8101031261063157875191820182811067ffffffffffffffff82111761061d57885280518252899493929190610599888201611bd4565b888301526105a8898201611bd4565b898301526105b860608201611bd4565b60608301526105c960808201611bd4565b60808301526105da60a08201611bd4565b60a083015260c08101519064ffffffffff821682036106195760e09160c084015201518281168103610615578160e0918285940152916104ab565b8580fd5b8680fd5b85604186634e487b7160e01b600052526000fd5b8980fd5b503d610558565b89513d88823e3d90fd5b5060106064928587519362461bcd60e51b85528401528201526f0457863656564732041617665206361760841b6044820152fd5b634e487b7160e01b8952601183528389fd5b50508581813d83116106b6575b6106a38183611a5b565b810103126100bc57846102e391516102d7565b503d610699565b87513d8b823e3d90fd5b8280fd5b5090346102665781600319360112610266576020905173e5118e47e061ab15ca972d045b35193f673bcc368152f35b509034610266578160031936011261026657602090610717613387565b9051908152f35b503461076957602036600319011261076957610738611954565b6002546001600160a01b03919061075290831633146119b7565b166001600160601b0360a01b600354161760035580f35b80fd5b5090346102665781600319360112610266576020906107176132d5565b509190346106c757806003193601126106c7576107a4611954565b6024356001600160a01b03818116949092918590036100bc576107cc836002541633146119b7565b84156107f157501683526001602052822080546001600160a01b031916909117905580f35b606490602085519162461bcd60e51b83528201526014602482015273496e76616c69642066656564206164647265737360601b6044820152fd5b5090346102665781600319360112610266576020905173a1a245cc76414dc143687d9c3de1152396f352d68152f35b509034610266576020366003190112610266576020916001600160a01b0390829082610884611954565b168152600185522054169051908152f35b508092346102665782600319360112610266576108b0611954565b6002546001600160a01b03908116926024359282906108d03387146119b7565b1673a1a245cc76414dc143687d9c3de1152396f352d694858214600014610974575050833b156104245782602486928389519788948593632e1a7d4d60e01b85528401525af192831561096a578493610952575b508291829160025416828215610949575bf11561093f575080f35b51903d90823e3d90fd5b506108fc610935565b61095e90939193611a47565b6106c757829138610924565b85513d86823e3d90fd5b875163a9059cbb60e01b81526001600160a01b03909116928101928352602083810195909552969593945086939092508391829060400103925af19081156109da57506109bf575080f35b6109d69060203d811161045c5761044d8183611a5b565b5080f35b513d84823e3d90fd5b50903461026657816003193601126102665760209051611f408152f35b50903461026657602036600319011261026657602090610717610a21611954565b6131d4565b50903461026657816003193601126102665760025490516001600160a01b039091168152602090f35b5090346102665781600319360112610266576020905173ebcc972b6b3eb15c0592be1871838963d0b942788152f35b509034610266576020366003190112610266579081906001600160a01b03610aa4611954565b168152600c6020522090610ada825491600260018501549401549051938493846040919493926060820195825260208201520152565b0390f35b5091346106c757826003193601126106c7575490516001600160a01b03909116815260209150f35b50903461026657816003193601126102665760055490516001600160a01b039091168152602090f35b509034610266578160031936011261026657610b496132d5565b610b51612e6a565b9160649283810290808204851490151715610c055782610b7091611bb4565b92610b79612fb0565b81810290808204831490151715610bf25783610b9491611bb4565b94610b9d613136565b828102928184041490151715610bdf575090610bbd83610ada9493611bb4565b9051948594859094939260609260808301968352602083015260408201520152565b634e487b7160e01b815260118752602490fd5b634e487b7160e01b865260118752602486fd5b634e487b7160e01b855260118652602485fd5b5091346106c75760203660031901126106c75735916006548310156107695750610c4360209261196a565b905491519160018060a01b039160031b1c168152f35b509034610266576020366003190112610266576020916001600160a01b0390829082610c83611954565b168152600b85522054169051908152f35b509034610266578160031936011261026657602090610717611c6d565b5090346102665760203660031901126102665760209181906001600160a01b03610cd9611954565b1681526008845220549051908152f35b5091346106c757826003193601126106c757610d1060018060a01b03600554163314611dd8565b815191610d1c83611a15565b600383526020808401926060368537610d33613387565b610d3c86611e14565b52610d45612fb0565b606481029080820460641490151715610ea257610d6a90610d646132d5565b90611bb4565b610d7386611e21565b52610d7c613136565b90606482029180830460641490151715610e8f5750610da090610d649392936132d5565b610da985611e31565b5281815194610db786611a15565b600386526060368388013773a1a245cc76414dc143687d9c3de1152396f352d6610de087611e14565b5273ebcc972b6b3eb15c0592be1871838963d0b94278610dff87611e21565b5273e5118e47e061ab15ca972d045b35193f673bcc36610e1e87611e31565b52610e388351964288526060848901526060880190612d55565b92868403908701525191828152019291855b828110610e7b57867f040415ba81f6d9a462e9c1ebaf5f5a401d1cec4f2558bf6b44a322bacf043f9587870388a180f35b835185529381019392810192600101610e4a565b634e487b7160e01b875260119052602486fd5b634e487b7160e01b875260118252602487fd5b5034610769578160031936011261076957610ece611954565b6003546001600160a01b03946024359491610eec9087163314611ad4565b610ef4611b45565b858316908185526020906009825286848720541061113357818697988460249852600b825285892054168551978880926370a0823160e01b825230868301525afa9586156110db578796611104575b5082875260098252838720548881610f5b818a611b38565b98116110e9575b505073368eedf3f56ad10b9bc57eed4dac65b26bb667f690813b156110e55783606489928388519586948593631a4ca37b60e21b85528401528d60248401523060448401525af180156110db5761107e575b50907f01c61f9ff609abec0166033e26ffdcb2501ae4e4ad8745b8f436ef6cf5c3b5b9611074939288611009887f8e91bbd74bb7a610e4d7e6988db773510a989fa93df46b4334535b9d6b286e2e9a9b6119f2565b848b526008835261101e868c209182546119f2565b9055838a5260098252848a20611035828254611b38565b9055838a52600a8252848a2061104c8982546119f2565b90558451908152a2516001600160a01b03909216825260208201929092529081906040820190565b0390a16001815580f35b6110749392917f8e91bbd74bb7a610e4d7e6988db773510a989fa93df46b4334535b9d6b286e2e976110d07f01c61f9ff609abec0166033e26ffdcb2501ae4e4ad8745b8f436ef6cf5c3b5b993611a47565b975091929350610fb4565b84513d89823e3d90fd5b8780fd5b6110f7906110fc9398611ac1565b611bb4565b943888610f62565b9095508181813d831161112c575b61111c8183611a5b565b8101031261061957519438610f43565b503d611112565b60649184519162461bcd60e51b8352820152601c60248201527f5769746864726177616c2065786365656473207072696e636970616c000000006044820152fd5b50903461026657816003193601126102665760035490516001600160a01b039091168152602090f35b5082346102665760a0366003190112610266576111b8611954565b92602480359160443593606435926084359167ffffffffffffffff918284116113cd57366023850112156113cd57838201359183831161063157818360051b860101903682116113c9576002546001600160a01b03939061121c90851633146119b7565b6127106112298c8c6119f2565b1161139257875161123981611a15565b8a8152602093848201908d82528a8301998c8b5261125689611a7d565b986112638d519a8b611a5b565b895284018689015b82821061137457505050898e9f879060608501998a52169e8f8152600c87522091518255519760019889830155516002820155600301945191825196871161136357600160401b871161136357505081908c86865491818855828210611333575b50505001928b52808b20918b5b8581106113205787518a8152602081018c9052604081018a90528d908d907f9ab15632c1e4bba227fef32bf0d208b02ce488d7e094f36d9a40fcf1f2d0e38390606090a280f35b84518216848201559382019386016112d9565b899150878152888582209384019301905b8382106113555790508891506112cc565b81558594508991018f611344565b634e487b7160e01b8e52604190528cfd5b8135898116810361138c57815290870190870161126b565b50508f80fd5b90601260649260208a519362461bcd60e51b855284015282015271496e76616c6964207468726573686f6c647360701b6044820152fd5b8a80fd5b8880fd5b5091346106c757826003193601126106c7576005546001600160a01b0391906113fd9083163314611dd8565b611405611b45565b61140d6132d5565b93611416612e6a565b9461141f6132d5565b95861561155a5761142f87611e55565b85519360a0850185811067ffffffffffffffff8211176115475787528452608036602086013773a1a245cc76414dc143687d9c3de1152396f352d661147385611e14565b5273ebcc972b6b3eb15c0592be1871838963d0b9427861149285611e21565b5273e5118e47e061ab15ca972d045b35193f673bcc366114b185611e31565b52825b84518110156114e157806114d789886114d06114dc958a611e41565b511661284f565b611bf1565b6114b4565b507feede213a34918d7c0b828ed3304be2754812c22e031ad24c7213a7224b65e24c908661153d6115106132d5565b91611519612e6a565b90519384933397859094939260609260808301968352602083015260408201520152565b0390a26001815580f35b634e487b7160e01b855260418252602485fd5b855162461bcd60e51b815260208186015260166024820152754e6f2061737365747320746f20726562616c616e636560501b6044820152606490fd5b5090346102665760203660031901126102665760209181906001600160a01b036115be611954565b1681526009845220549051908152f35b5034610769576020366003190112610769576115e8611954565b6002546001600160a01b03919061160290831633146119b7565b166001600160601b0360a01b600554161760055580f35b50903461026657602092836003193601126106c757836001600160a01b0380611640611954565b168552600b825283852054169160248451809481936370a0823160e01b835230908301525afa9283156116ae57809361167c575b505051908152f35b909192508382813d83116116a7575b6116958183611a5b565b81010312610769575051903880611674565b503d61168b565b8251903d90823e3d90fd5b5090346102665760203660031901126102665760209181906001600160a01b036116e1611954565b168152600a845220549051908152f35b509190346106c757826003193601126106c7578051916370a0823160e01b8352309083015260208260248173a1a245cc76414dc143687d9c3de1152396f352d65afa91821561178257839261174b575b6020838351908152f35b9091506020813d821161177a575b8161176660209383611a5b565b810103126106c75760209250519038611741565b3d9150611759565b81513d85823e3d90fd5b509190346106c75760603660031901126106c75781356001600160a01b0381811691829003610424576024359360443591808316809303610619576117d690600354163314611ad4565b6117de611b45565b818652602092600884528585882054106118a75784519063a9059cbb60e01b82528282015285602482015283816044818a875af190811561189d578791611880575b5015611845575061183c92916008918652528320918254611b38565b90556001815580f35b835162461bcd60e51b81529081018390526015602482015274151bdad95b881d1c985b9cd9995c8819985a5b1959605a1b6044820152606490fd5b6118979150843d861161045c5761044d8183611a5b565b38611820565b85513d89823e3d90fd5b845162461bcd60e51b8152808301859052601b60248201527f496e73756666696369656e74206c69717569642062616c616e636500000000006044820152606490fd5b5090346102665781600319360112610266576020905173368eedf3f56ad10b9bc57eed4dac65b26bb667f68152f35b905082346106c75760203660031901126106c75760209260ff91906001600160a01b03611944611954565b1681526007855220541615158152f35b600435906001600160a01b03821682036100bc57565b6006548110156119a15760066000527ff652222313e28459528d920b65115c16c04f3efc82aaedc97be59f3f377c0d3f0190600090565b634e487b7160e01b600052603260045260246000fd5b156119be57565b60405162461bcd60e51b815260206004820152600c60248201526b155b985d5d1a1bdc9a5e995960a21b6044820152606490fd5b919082018092116119ff57565b634e487b7160e01b600052601160045260246000fd5b6080810190811067ffffffffffffffff821117611a3157604052565b634e487b7160e01b600052604160045260246000fd5b67ffffffffffffffff8111611a3157604052565b90601f8019910116810190811067ffffffffffffffff821117611a3157604052565b67ffffffffffffffff8111611a315760051b60200190565b906069820291808304606914901517156119ff57565b90605f820291808304605f14901517156119ff57565b818102929181159184041417156119ff57565b15611adb57565b60405162461bcd60e51b815260206004820152601760248201527f4f6e6c792070726f706f73616c7320636f6e74726163740000000000000000006044820152606490fd5b908160209103126100bc575180151581036100bc5790565b919082039182116119ff57565b600260005414611b56576002600055565b604051633ee5aeb560e01b8152600490fd5b15611b6f57565b60405162461bcd60e51b815260206004820152601a60248201527f496e73756666696369656e7420746f6b656e2062616c616e63650000000000006044820152606490fd5b8115611bbe570490565b634e487b7160e01b600052601260045260246000fd5b51906fffffffffffffffffffffffffffffffff821682036100bc57565b60001981146119ff5760010190565b15611c0757565b60405162461bcd60e51b8152602060048201526014602482015273141c9a58d94819995959081b9bdd08199bdd5b9960621b6044820152606490fd5b908160209103126100bc575160ff811681036100bc5790565b60ff16604d81116119ff57600a0a90565b600080806006545b808310611c825750505090565b909192611c8e8461196a565b9060018060a01b03918291549060031b1c16808552602091600b8352604092818488205416908451926370a0823160e01b8452818460248160049630888301525afa938415611dce578994611d9d575b50611d008291868b5260018352878b205416611cfb811515611c00565b6133ca565b9486519384809263313ce56760e01b82525afa948515611d94575092611d4692611d4c9592611d5297958a94611d59575b5050610d6491611d4091611ac1565b91611c5c565b906119f2565b93611bf1565b9190611c75565b611d40929450610d64939181611d8392903d10611d8d575b611d7b8183611a5b565b810190611c43565b9391819350611d31565b503d611d71565b513d89823e3d90fd5b9093508181813d8311611dc7575b611db58183611a5b565b810103126113cd575192611d00611cde565b503d611dab565b86513d8b823e3d90fd5b15611ddf57565b60405162461bcd60e51b815260206004820152600d60248201526c13db9b1e481059d95b9d12da5d609a1b6044820152606490fd5b8051156119a15760200190565b8051600110156119a15760400190565b8051600210156119a15760600190565b80518210156119a15760209160051b010190565b73a1a245cc76414dc143687d9c3de1152396f352d6600090808252602090600c82526040808420815190611e8882611a15565b805482526001968782015486840190815260036002840154938686019485520193855180868a8298549384815201908c528a8c20928d8d905b8d8383106128305750505050611ed992500386611a5b565b6060810194855280511561241857611eef612e6a565b9361271094858102908082048714901517156127c457611f1285611f1d92611bb4565b9383519051906119f2565b8311156123fd5750611f3a9291611f35915190611b38565b611ac1565b0490805183519063313ce56760e01b91828152600491888284818b5afa9182156123f3578a926123d4575b50878a528a8952868a205487518581526001600160a01b03959093909186168b858781845afa9485156123ca578c8e96612397575b505090610d64611d40611faf611fb5946133ca565b8b611ac1565b82519092600019820191821161238457611fd18c928892611e41565b511691858a518094819382525afa9081156122455792610d64611d406120179461200c8f958f986064996120129892612367575b5050611c5c565b90611ac1565b611aab565b049251612022611b45565b868361202d83611e14565b5116036123245785516370a0823160e01b808252308483015260249590918a8188818d5afa90811561228357888b8e8e9381956122ef575b50612075836120ab961015611b68565b88548d5163095ea7b360e01b8152908b166001600160a01b0316818b019081526020810194909452948593849291839160400190565b03925af18015612283576122d2575b508251600019810190811161224f57908a866120d7899487611e41565b51168a5193848092878252308a8301525afa918215612283578c9261229f575b508585541690610384420180421161228d5786928e92838c6121318f958b9651988997889687956338ed173960e01b875230938701612d92565b03925af1801561228357612261575b508251600019810190811161224f578561215b8c9286611e41565b511692878a5180958193825230898301525afa8015612245578b90612214575b6121859250611b38565b93878a5260088952868a2061219b878254611b38565b905581516000198101939084116122035750507fdd36740e2a012d93061a0d99eaa9107860955de4e90027d3cf465a055026c40795949392916121dd91611e41565b511695868852600881528388206121f58382546119f2565b90558351928352820152a355565b634e487b7160e01b8b526011905289fd5b50908981813d831161223e575b61222b8183611a5b565b810103126113c95790612185915161217b565b503d612221565b88513d8d823e3d90fd5b634e487b7160e01b8c5260118552868cfd5b61227c903d808e833e6122748183611a5b565b810190612cdb565b5038612140565b89513d8e823e3d90fd5b634e487b7160e01b8e5260118752888efd5b9091508a81813d83116122cb575b6122b78183611a5b565b810103126122c7575190386120f7565b8b80fd5b503d6122ad565b6122e8908b3d8d1161045c5761044d8183611a5b565b50386120ba565b945050505081813d831161231d575b6123088183611a5b565b810103126122c757518a888b8e612075612065565b503d6122fe565b855162461bcd60e51b8152808301899052601a60248201527f50617468206d757374207374617274207769746820746f6b656e0000000000006044820152606490fd5b61237d9250803d10611d8d57611d7b8183611a5b565b8f80612005565b634e487b7160e01b8d526011865260248dfd5b611fb593929650611faf6123be610d649383611d4094903d10611d8d57611d7b8183611a5b565b9793945050508c611f9a565b8a513d8f823e3d90fd5b6123ec919250893d8b11611d8d57611d7b8183611a5b565b9038611f65565b87513d8c823e3d90fd5b815190519798959792939261241191611b38565b8310612424575b50505050505050505050565b61243292611f359151611b38565b049261243d84612dcb565b8587528783528387205490946001600160a01b039161245d9083166133ca565b670de0b6b3a764000080830290838204148315171561281c5761248560649261248a92611bb4565b611a95565b04925190612496611b45565b82806124a184611e14565b511697168097036127d857815160001994908581019081116127c457846124c98b9286611e41565b51160361278057878a526008865280878b20541061273c5760048054885163095ea7b360e01b81529086166001600160a01b03168183015260248101839052909695949392919086816044818f8e5af1801561228357908a9493929161271f575b5088519487866024816370a0823160e01b988982528d30908301525afa9586156123ca578d966126ec575b508854169161038442018042116126d957918d80949261258f8c999897958e519a8b9788968795634401edf760e11b875230938701612d92565b03925af19283156123f3578a936126bd575b508651908152308682015284816024818b5afa9081156123f3578a9161268e575b506125cc91611b38565b93868952600884528589206125e2868254611b38565b9055815183810190811161267b576125fa9083611e41565b51888a5260088552612610878b209182546119f2565b9055815192830192831161266857507fdd36740e2a012d93061a0d99eaa9107860955de4e90027d3cf465a055026c4079493929161264d91611e41565b51908351928352820152a35538808080808080808080612418565b634e487b7160e01b895260119052602488fd5b634e487b7160e01b8a526011825260248afd5b90508481813d83116126b6575b6126a58183611a5b565b8101031261063157516125cc6125c2565b503d61269b565b6126d29193503d808c833e6122748183611a5b565b91386125a1565b634e487b7160e01b8e5260118a5260248efd5b9095508781813d8311612718575b6127048183611a5b565b8101031261271457519438612555565b8c80fd5b503d6126fa565b61273590883d8a1161045c5761044d8183611a5b565b503861252a565b865162461bcd60e51b815260048101879052601b60248201527f496e73756666696369656e7420737461626c652062616c616e636500000000006044820152606490fd5b865162461bcd60e51b815260048101879052601960248201527f50617468206d75737420656e64207769746820746172676574000000000000006044820152606490fd5b634e487b7160e01b8b52601160045260248bfd5b855162461bcd60e51b815260048101869052601f60248201527f50617468206d757374207374617274207769746820737461626c65636f696e006044820152606490fd5b634e487b7160e01b8a52601160045260248afd5b86546001600160a01b03168552958101958b955090930192018e611ec1565b9060018060a01b03808316600092818452602092600c8452836040928387209084519861287b8a611a15565b82548a526001998a840154918582019283528a8c60036002880154978b8601988952018a5180998a93818454938481520193865281862095915b838310612cbb57505050506128cc92500387611a5b565b60608201958652815115612cad576128e3906131d4565b936127109485810290808204871490151715612c9957611f128561290692611bb4565b8311156129a5575061291e9291611f35915190611b38565b04918151845163313ce56760e01b91828252600492898385818c5afa928315612245578b93612986575b50888b528b8a5284888c205416928851938285528b858781845afa9485156123ca578c8e9661239757505090610d64611d40611faf611fb5946133ca565b61299e9193508a3d8c11611d8d57611d7b8183611a5b565b9138612948565b81519051989996989293926129b991611b38565b83106129cd575b5050505050505050505050565b6129db92611f359151611b38565b04936129e685612dcb565b948688528884526129fb82868a2054166133ca565b670de0b6b3a764000080830290838204148315171561281c57612485606492612a2392611bb4565b04925190612a2f611b45565b8280612a3a84611e14565b511697168097036127d857815160001994908581019081116127c45784612a628b9286611e41565b51160361278057878a526008865280878b20541061273c5760048054885163095ea7b360e01b81529086166001600160a01b03168183015260248101839052909695949392919086816044818f8e5af1801561228357908a94939291612c7c575b5088519487866024816370a0823160e01b988982528d30908301525afa9586156123ca578d96612c4d575b508854169161038442018042116126d957918d809492612b288c999897958e519a8b9788968795634401edf760e11b875230938701612d92565b03925af19283156123f3578a93612c31575b508651908152308682015284816024818b5afa9081156123f3578a91612c02575b50612b6591611b38565b9386895260088452858920612b7b868254611b38565b9055815183810190811161267b57612b939083611e41565b51888a5260088552612ba9878b209182546119f2565b9055815192830192831161266857507fdd36740e2a012d93061a0d99eaa9107860955de4e90027d3cf465a055026c40794939291612be691611e41565b51908351928352820152a35538808080808080808080806129c0565b90508481813d8311612c2a575b612c198183611a5b565b810103126106315751612b65612b5b565b503d612c0f565b612c469193503d808c833e6122748183611a5b565b9138612b3a565b9095508781813d8311612c75575b612c658183611a5b565b8101031261271457519438612aee565b503d612c5b565b612c9290883d8a1161045c5761044d8183611a5b565b5038612ac3565b634e487b7160e01b8c52601160045260248cfd5b505050505050505050505050565b909294508291938d87541681520194019101918f928a938f9593956128b5565b60209081818403126100bc5780519067ffffffffffffffff82116100bc57019180601f840112156100bc578251612d1181611a7d565b93612d1f6040519586611a5b565b818552838086019260051b8201019283116100bc578301905b828210612d46575050505090565b81518152908301908301612d38565b90815180825260208080930193019160005b828110612d75575050505090565b83516001600160a01b031685529381019392810192600101612d67565b9192608093612db792979695978452602084015260a0604084015260a0830190612d55565b6001600160a01b0390951660608201520152565b73ebcc972b6b3eb15c0592be1871838963d0b94278806000526008602052816040600020541015612e65575073e5118e47e061ab15ca972d045b35193f673bcc3690816000526040600020541015612e625760405162461bcd60e51b815260206004820152601d60248201527f496e73756666696369656e7420737461626c65206c69717569646974790000006044820152606490fd5b90565b905090565b73a1a245cc76414dc143687d9c3de1152396f352d660008181527ff20bb01390725c28690acd1018971a600597a48c38159ed84a30d1508ce2c1d054600b60209081527f8987d145e819df1ad8b63cf99bc82f2c85f3df17fea972e1eb0d591ea3796b5b54604093926001600160a01b0391821680612f1c575b5050916008612f189492612f0d8795670de0b6b3a76400009885526001835285852054166133ca565b948352522054611ac1565b0490565b90836024928751938480926370a0823160e01b82523060048301525afa918215612fa6578592612f75575b5092612f0d670de0b6b3a7640000979593612f68600894612f1899976119f2565b5093959750509294612ee4565b9091508381813d8311612f9f575b612f8d8183611a5b565b81010312610424575190612f0d612f47565b503d612f83565b86513d87823e3d90fd5b73ebcc972b6b3eb15c0592be1871838963d0b9427860008181527fc1ebfa9e119f39d0f2b4058535707cb7c4559009232b7bac5d6df8da9bbbbb9054600b60209081527f1789710189d8ad726c0ffa590185d3c318ad757466784ff3ff59378d73f38464549294939290916040916001600160a01b039084908216806130bc575b505061304f9150848752600184528287205416611cfb811515611c00565b91815163313ce56760e01b81528181600481885afa9081156130b2576110f794939261308a8993600893612e629a9b91613095575b50611c5c565b968352522054611ac1565b6130ac9150833d8511611d8d57611d7b8183611a5b565b38613084565b83513d89823e3d90fd5b84516370a0823160e01b81523060048201529190829060249082905afa90811561312c5788916130fd575b506130f59061304f936119f2565b508338613031565b90508481813d8311613125575b6131148183611a5b565b810103126110e5575161304f6130e7565b503d61310a565b84513d8a823e3d90fd5b73e5118e47e061ab15ca972d045b35193f673bcc3660008181527f34f46d3d44eabc4fe5c321d97614173c54824ad3eb0bbf65ffc23aee173994b454600b60209081527f9e374fd2b0e993ac2ac8aff60bb48807b33b46ce9e8fad0c2655bda98083425d549294939290916040916001600160a01b039084908216806130bc57505061304f9150848752600184528287205416611cfb811515611c00565b9060018060a01b038092166000928184526020906008825260409081862054600b8452818388205416908482613267575b50505073a1a245cc76414dc143687d9c3de1152396f352d6808514613240575061304f90848752600184528287205416611cfb811515611c00565b612f189493612f0d8893600893670de0b6b3a7640000999a526001835285852054166133ca565b84516370a0823160e01b815230600482015292839060249082905afa90811561312c5788916132a4575b61329b92506119f2565b50388084613205565b90508482813d83116132ce575b6132bb8183611a5b565b810103126110e55761329b915190613291565b503d6132b1565b6132dd612e6a565b6040516060810181811067ffffffffffffffff821117611a315760405260028152604036602083013773ebcc972b6b3eb15c0592be1871838963d0b9427861332482611e14565b5273e5118e47e061ab15ca972d045b35193f673bcc3661334382611e21565b526000915b81518310156133815761337b9061337590611d466001600160a01b0361336e8787611e41565b51166131d4565b92611bf1565b91613348565b91505090565b61338f612e6a565b6133976132d5565b6064820291808304606414901517156119ff57612e6291611bb4565b519069ffffffffffffffffffff821682036100bc57565b604051633fabe5a360e21b81529060a090829060049082906001600160a01b03165afa80156134d9576000918291613485575b5060008213156134505761012b194201904282116119ff571061341d5790565b60405162461bcd60e51b815260206004820152600b60248201526a5374616c6520707269636560a81b6044820152606490fd5b60405162461bcd60e51b815260206004820152600d60248201526c496e76616c696420707269636560981b6044820152606490fd5b91905060a0823d82116134d1575b816134a060a09383611a5b565b8101031261076957506134b2816133b3565b5060208101516134c96080606084015193016133b3565b5090386133fd565b3d9150613493565b6040513d6000823e3d90fdfea2646970667358221220baf553f960002173de9e974d4488248b920695266e8bd362a013f608ae016f1164736f6c63430008140033","opcodes":"PUSH1 0x80 CALLVALUE PUSH3 0x1EF JUMPI PUSH1 0x1 PUSH1 0x0 DUP2 DUP2 SSTORE PUSH1 0x4 DUP1 SLOAD PUSH1 0x1 PUSH1 0x1 PUSH1 0xA0 SHL SUB NOT SWAP1 DUP2 AND PUSH20 0xC532A74256D3DB42D0BF7A0400FEFDBAD7694008 OR DUP3 SSTORE PUSH1 0x2 DUP1 SLOAD DUP3 AND CALLER OR SWAP1 SSTORE PUSH1 0x20 SWAP4 SWAP1 SWAP4 MSTORE PUSH32 0xDD30F26761A197A30F1122555D987C7244E5928EDAD3F9E0FFF79501608E2890 DUP1 SLOAD DUP5 AND PUSH20 0x694AA1769357215DE4FAC081BF1F309ADC325306 OR SWAP1 SSTORE PUSH32 0x473F4E406F2E237914D6364ACE7626DDBAA8A1B0939171D040C31CC1EA4F2176 DUP1 SLOAD DUP5 AND PUSH20 0xA2F78AB2355FE2F984D808B5CEE7FD0A93D5270E OR SWAP1 SSTORE PUSH20 0xE5118E47E061AB15CA972D045B35193F673BCC36 DUP1 DUP4 MSTORE PUSH32 0x10D2883CD297BC708B0E9947825807175BE535A6E959B869B4704EAA831CF9FE DUP1 SLOAD SWAP1 SWAP5 AND PUSH20 0x14866185B1962B63C3EA9E03BC1DA838BAB34C19 OR SWAP1 SWAP4 SSTORE PUSH1 0x40 SWAP4 SWAP2 SWAP1 PUSH20 0xEBCC972B6B3EB15C0592BE1871838963D0B94278 PUSH20 0xA1A245CC76414DC143687D9C3DE1152396F352D6 PUSH1 0x80 DUP6 ADD PUSH1 0x1 PUSH1 0x1 PUSH1 0x40 SHL SUB DUP2 GT DUP7 DUP3 LT OR PUSH3 0x1DC JUMPI DUP8 MSTORE PUSH1 0x3 DUP6 MSTORE PUSH1 0x20 DUP6 ADD PUSH1 0x60 CALLDATASIZE DUP3 CALLDATACOPY DUP6 MLOAD ISZERO PUSH3 0x1C9 JUMPI MSTORE DUP4 MLOAD PUSH1 0x1 LT ISZERO PUSH3 0x1B6 JUMPI DUP6 DUP5 ADD MSTORE DUP3 MLOAD PUSH1 0x2 LT ISZERO PUSH3 0x1A3 JUMPI POP POP PUSH1 0x60 ADD MSTORE MLOAD PUSH2 0x351B SWAP1 DUP2 PUSH3 0x1F5 DUP3 CODECOPY RETURN JUMPDEST PUSH4 0x4E487B71 PUSH1 0xE0 SHL DUP3 MSTORE PUSH1 0x32 SWAP1 MSTORE PUSH1 0x24 SWAP1 REVERT JUMPDEST PUSH4 0x4E487B71 PUSH1 0xE0 SHL DUP4 MSTORE PUSH1 0x32 DUP3 MSTORE PUSH1 0x24 DUP4 REVERT JUMPDEST PUSH4 0x4E487B71 PUSH1 0xE0 SHL DUP6 MSTORE PUSH1 0x32 DUP5 MSTORE PUSH1 0x24 DUP6 REVERT JUMPDEST PUSH4 0x4E487B71 PUSH1 0xE0 SHL DUP6 MSTORE PUSH1 0x41 DUP5 MSTORE PUSH1 0x24 DUP6 REVERT JUMPDEST PUSH1 0x0 DUP1 REVERT INVALID PUSH1 0x80 PUSH1 0x40 DUP2 DUP2 MSTORE PUSH1 0x4 SWAP2 DUP3 CALLDATASIZE LT ISZERO PUSH2 0xC1 JUMPI JUMPDEST POP CALLDATASIZE ISZERO PUSH2 0x1E JUMPI PUSH1 0x0 DUP1 REVERT JUMPDEST PUSH20 0xA1A245CC76414DC143687D9C3DE1152396F352D6 SWAP2 DUP3 EXTCODESIZE ISZERO PUSH2 0xBC JUMPI DUP2 MLOAD PUSH4 0xD0E30DB PUSH1 0xE4 SHL DUP2 MSTORE PUSH1 0x0 SWAP2 DUP3 SWAP1 DUP3 SWAP1 DUP2 CALLVALUE DUP9 GAS CALL DUP1 ISZERO PUSH2 0xB2 JUMPI SWAP3 PUSH1 0x20 SWAP3 DUP2 SWAP3 PUSH32 0x543BA50A5EEC5E6178218E364B1D0F396157B3C8FA278522C2CB7FD99407D474 SWAP6 PUSH2 0xA3 JUMPI JUMPDEST POP DUP6 DUP2 MSTORE PUSH1 0x8 DUP5 MSTORE KECCAK256 PUSH2 0x9A CALLVALUE DUP3 SLOAD PUSH2 0x19F2 JUMP JUMPDEST SWAP1 SSTORE MLOAD CALLVALUE DUP2 MSTORE LOG2 STOP JUMPDEST PUSH2 0xAC SWAP1 PUSH2 0x1A47 JUMP JUMPDEST CODESIZE PUSH2 0x86 JUMP JUMPDEST DUP4 MLOAD RETURNDATASIZE DUP5 DUP3 RETURNDATACOPY RETURNDATASIZE SWAP1 REVERT JUMPDEST PUSH1 0x0 DUP1 REVERT JUMPDEST PUSH1 0x0 SWAP1 DUP2 CALLDATALOAD PUSH1 0xE0 SHR SWAP1 DUP2 PUSH4 0x1F46670 EQ PUSH2 0x1919 JUMPI POP DUP1 PUSH4 0x8A01675 EQ PUSH2 0x18EA JUMPI DUP1 PUSH4 0x98DBF5C EQ PUSH2 0x178C JUMPI DUP1 PUSH4 0x12065FE0 EQ PUSH2 0x16F1 JUMPI DUP1 PUSH4 0x1ACB5390 EQ PUSH2 0x16B9 JUMPI DUP1 PUSH4 0x26EFF0F2 EQ PUSH2 0x1619 JUMPI DUP1 PUSH4 0x29AB437B EQ PUSH2 0x15CE JUMPI DUP1 PUSH4 0x34DC9E32 EQ PUSH2 0x1596 JUMPI DUP1 PUSH4 0x3ED55F0C EQ PUSH2 0x13D1 JUMPI DUP1 PUSH4 0x4158A94D EQ PUSH2 0x119D JUMPI DUP1 PUSH4 0x4450C203 EQ PUSH2 0x1174 JUMPI DUP1 PUSH4 0x487EDE04 EQ PUSH2 0xEB5 JUMPI DUP1 PUSH4 0x4F64D9D9 EQ PUSH2 0xCE9 JUMPI DUP1 PUSH4 0x523FBA7F EQ PUSH2 0xCB1 JUMPI DUP1 PUSH4 0x56EBEC88 EQ PUSH2 0xC94 JUMPI DUP1 PUSH4 0x5B9F2079 EQ PUSH2 0xC59 JUMPI DUP1 PUSH4 0x6073CB41 EQ PUSH2 0xC18 JUMPI DUP1 PUSH4 0x65ED6E23 EQ PUSH2 0xB2F JUMPI DUP1 PUSH4 0x6E9FFF57 EQ PUSH2 0xB06 JUMPI DUP1 PUSH4 0x735DE9F7 EQ PUSH2 0xADE JUMPI DUP1 PUSH4 0x7609D7F6 EQ PUSH2 0xA7E JUMPI DUP1 PUSH4 0x89A30271 EQ PUSH2 0xA4F JUMPI DUP1 PUSH4 0x8DA5CB5B EQ PUSH2 0xA26 JUMPI DUP1 PUSH4 0x93E5E90F EQ PUSH2 0xA00 JUMPI DUP1 PUSH4 0x95A566BD EQ PUSH2 0x9E3 JUMPI DUP1 PUSH4 0x95CCEA67 EQ PUSH2 0x895 JUMPI DUP1 PUSH4 0x9DCB511A EQ PUSH2 0x85A JUMPI DUP1 PUSH4 0xAD5C4648 EQ PUSH2 0x82B JUMPI DUP1 PUSH4 0xB7997DA1 EQ PUSH2 0x789 JUMPI DUP1 PUSH4 0xCAA648B4 EQ PUSH2 0x76C JUMPI DUP1 PUSH4 0xDC133E89 EQ PUSH2 0x71E JUMPI DUP1 PUSH4 0xDD41D050 EQ PUSH2 0x6FA JUMPI DUP1 PUSH4 0xE0BAB4C4 EQ PUSH2 0x6CB JUMPI DUP1 PUSH4 0xEEB149E7 EQ PUSH2 0x26A JUMPI PUSH4 0xF9759518 SUB PUSH2 0x12 JUMPI SWAP1 CALLVALUE PUSH2 0x266 JUMPI DUP2 PUSH1 0x3 NOT CALLDATASIZE ADD SLT PUSH2 0x266 JUMPI PUSH1 0x20 SWAP1 MLOAD PUSH1 0x5 DUP2 MSTORE RETURN JUMPDEST POP DUP1 REVERT JUMPDEST POP SWAP2 SWAP1 CALLVALUE PUSH2 0x6C7 JUMPI DUP1 PUSH1 0x3 NOT CALLDATASIZE ADD SLT PUSH2 0x6C7 JUMPI PUSH2 0x285 PUSH2 0x1954 JUMP JUMPDEST PUSH1 0x24 DUP1 CALLDATALOAD SWAP1 PUSH1 0x1 DUP1 PUSH1 0xA0 SHL SUB DUP1 SWAP4 PUSH2 0x2A2 DUP3 PUSH1 0x3 SLOAD AND CALLER EQ PUSH2 0x1AD4 JUMP JUMPDEST PUSH2 0x2AA PUSH2 0x1B45 JUMP JUMPDEST AND SWAP5 DUP5 MLOAD SWAP4 PUSH4 0x70A08231 PUSH1 0xE0 SHL DUP6 MSTORE ADDRESS DUP3 DUP7 ADD MSTORE PUSH1 0x20 SWAP5 DUP6 DUP2 DUP6 DUP2 DUP12 GAS STATICCALL DUP1 ISZERO PUSH2 0x6BD JUMPI DUP6 SWAP1 DUP11 SWAP1 PUSH2 0x68C JUMPI JUMPDEST PUSH2 0x2E3 SWAP3 POP LT ISZERO PUSH2 0x1B68 JUMP JUMPDEST PUSH2 0x2EB PUSH2 0x32D5 JUMP JUMPDEST PUSH2 0x1F40 SWAP1 DUP2 DUP2 MUL SWAP2 DUP2 DUP4 DIV EQ SWAP1 ISZERO OR ISZERO PUSH2 0x67A JUMPI PUSH2 0x2710 SWAP1 DIV PUSH2 0x315 DUP6 PUSH2 0x310 PUSH2 0x1C6D JUMP JUMPDEST PUSH2 0x19F2 JUMP JUMPDEST GT PUSH2 0x646 JUMPI SWAP1 DUP8 SWAP3 SWAP2 DUP8 DUP5 MSTORE PUSH1 0x8 DUP7 MSTORE DUP7 DUP5 KECCAK256 PUSH2 0x333 DUP7 DUP3 SLOAD PUSH2 0x1B38 JUMP JUMPDEST SWAP1 SSTORE DUP8 DUP5 MSTORE PUSH1 0xB DUP7 MSTORE DUP1 DUP8 DUP6 KECCAK256 SLOAD AND ISZERO PUSH2 0x46D JUMPI JUMPDEST POP DUP6 MLOAD SWAP1 PUSH4 0x95EA7B3 PUSH1 0xE0 SHL DUP3 MSTORE PUSH20 0x368EEDF3F56AD10B9BC57EED4DAC65B26BB667F6 SWAP2 DUP3 DUP3 DUP3 ADD MSTORE DUP6 DUP5 DUP3 ADD MSTORE DUP7 DUP2 PUSH1 0x44 DUP2 DUP9 DUP14 GAS CALL DUP1 ISZERO PUSH2 0x463 JUMPI PUSH2 0x436 JUMPI JUMPDEST POP DUP2 EXTCODESIZE ISZERO PUSH2 0x432 JUMPI PUSH1 0x84 DUP9 SWAP2 DUP6 DUP1 SWAP5 DUP9 DUP12 MLOAD SWAP8 DUP9 SWAP7 DUP8 SWAP6 PUSH4 0xE8EDA9DF PUSH1 0xE0 SHL DUP8 MSTORE DUP7 ADD MSTORE DUP5 ADD MSTORE ADDRESS PUSH1 0x44 DUP5 ADD MSTORE DUP2 PUSH1 0x64 DUP5 ADD MSTORE GAS CALL DUP1 ISZERO PUSH2 0x428 JUMPI PUSH2 0x410 JUMPI JUMPDEST POP SWAP3 DUP5 PUSH32 0x61C74C7B35F6F1B220BB406A21982A8D0B6EC18192A649FF4AA205A3F858BE6A SWAP5 MSTORE PUSH1 0x9 DUP4 MSTORE DUP1 DUP7 KECCAK256 PUSH2 0x402 DUP4 DUP3 SLOAD PUSH2 0x19F2 JUMP JUMPDEST SWAP1 SSTORE MLOAD SWAP1 DUP2 MSTORE LOG2 PUSH1 0x1 DUP2 SSTORE DUP1 RETURN JUMPDEST PUSH2 0x419 SWAP1 PUSH2 0x1A47 JUMP JUMPDEST PUSH2 0x424 JUMPI DUP5 CODESIZE PUSH2 0x3CA JUMP JUMPDEST DUP5 DUP1 REVERT JUMPDEST DUP6 MLOAD RETURNDATASIZE DUP5 DUP3 RETURNDATACOPY RETURNDATASIZE SWAP1 REVERT JUMPDEST DUP4 DUP1 REVERT JUMPDEST PUSH2 0x455 SWAP1 DUP8 RETURNDATASIZE DUP10 GT PUSH2 0x45C JUMPI JUMPDEST PUSH2 0x44D DUP2 DUP4 PUSH2 0x1A5B JUMP JUMPDEST DUP2 ADD SWAP1 PUSH2 0x1B20 JUMP JUMPDEST POP CODESIZE PUSH2 0x38A JUMP JUMPDEST POP RETURNDATASIZE PUSH2 0x443 JUMP JUMPDEST DUP9 MLOAD RETURNDATASIZE DUP8 DUP3 RETURNDATACOPY RETURNDATASIZE SWAP1 REVERT JUMPDEST DUP7 MLOAD PUSH4 0x35EA6A75 PUSH1 0xE0 SHL DUP2 MSTORE DUP3 DUP2 ADD DUP10 SWAP1 MSTORE PUSH2 0x100 DUP1 DUP3 DUP7 DUP2 PUSH20 0x368EEDF3F56AD10B9BC57EED4DAC65B26BB667F6 GAS STATICCALL SWAP2 DUP3 ISZERO PUSH2 0x63C JUMPI DUP7 SWAP3 PUSH2 0x546 JUMPI JUMPDEST POP POP PUSH1 0xE0 DUP3 SWAP2 ADD MLOAD AND DUP9 DUP6 MSTORE PUSH1 0xB DUP8 MSTORE DUP8 DUP6 KECCAK256 SWAP1 PUSH1 0x1 PUSH1 0x1 PUSH1 0x60 SHL SUB PUSH1 0xA0 SHL DUP3 SLOAD AND OR SWAP1 SSTORE PUSH1 0x7 DUP7 MSTORE PUSH1 0xFF DUP8 DUP6 KECCAK256 SLOAD AND PUSH2 0x348 JUMPI SWAP1 SWAP2 SWAP3 POP PUSH1 0x6 SLOAD PUSH1 0x1 PUSH1 0x40 SHL DUP2 LT ISZERO PUSH2 0x534 JUMPI SWAP1 PUSH2 0x506 DUP3 PUSH1 0x1 DUP12 SWAP7 SWAP6 SWAP5 ADD PUSH1 0x6 SSTORE PUSH2 0x196A JUMP JUMPDEST DUP2 SWAP3 SWAP2 SLOAD SWAP1 PUSH1 0x3 SHL SWAP2 DUP11 DUP4 SHL SWAP3 SHL NOT AND OR SWAP1 SSTORE DUP7 DUP4 MSTORE PUSH1 0x7 DUP6 MSTORE DUP6 DUP4 KECCAK256 PUSH1 0x1 PUSH1 0xFF NOT DUP3 SLOAD AND OR SWAP1 SSTORE CODESIZE PUSH2 0x348 JUMP JUMPDEST PUSH4 0x4E487B71 PUSH1 0xE0 SHL DUP10 MSTORE PUSH1 0x41 DUP4 MSTORE DUP4 DUP10 REVERT JUMPDEST DUP2 DUP1 SWAP5 SWAP6 SWAP7 SWAP8 POP DUP2 SWAP4 POP RETURNDATASIZE DUP4 GT PUSH2 0x635 JUMPI JUMPDEST PUSH2 0x562 DUP2 DUP4 PUSH2 0x1A5B JUMP JUMPDEST DUP2 ADD SUB SLT PUSH2 0x631 JUMPI DUP8 MLOAD SWAP2 DUP3 ADD DUP3 DUP2 LT PUSH8 0xFFFFFFFFFFFFFFFF DUP3 GT OR PUSH2 0x61D JUMPI DUP9 MSTORE DUP1 MLOAD DUP3 MSTORE DUP10 SWAP5 SWAP4 SWAP3 SWAP2 SWAP1 PUSH2 0x599 DUP9 DUP3 ADD PUSH2 0x1BD4 JUMP JUMPDEST DUP9 DUP4 ADD MSTORE PUSH2 0x5A8 DUP10 DUP3 ADD PUSH2 0x1BD4 JUMP JUMPDEST DUP10 DUP4 ADD MSTORE PUSH2 0x5B8 PUSH1 0x60 DUP3 ADD PUSH2 0x1BD4 JUMP JUMPDEST PUSH1 0x60 DUP4 ADD MSTORE PUSH2 0x5C9 PUSH1 0x80 DUP3 ADD PUSH2 0x1BD4 JUMP JUMPDEST PUSH1 0x80 DUP4 ADD MSTORE PUSH2 0x5DA PUSH1 0xA0 DUP3 ADD PUSH2 0x1BD4 JUMP JUMPDEST PUSH1 0xA0 DUP4 ADD MSTORE PUSH1 0xC0 DUP2 ADD MLOAD SWAP1 PUSH5 0xFFFFFFFFFF DUP3 AND DUP3 SUB PUSH2 0x619 JUMPI PUSH1 0xE0 SWAP2 PUSH1 0xC0 DUP5 ADD MSTORE ADD MLOAD DUP3 DUP2 AND DUP2 SUB PUSH2 0x615 JUMPI DUP2 PUSH1 0xE0 SWAP2 DUP3 DUP6 SWAP5 ADD MSTORE SWAP2 PUSH2 0x4AB JUMP JUMPDEST DUP6 DUP1 REVERT JUMPDEST DUP7 DUP1 REVERT JUMPDEST DUP6 PUSH1 0x41 DUP7 PUSH4 0x4E487B71 PUSH1 0xE0 SHL PUSH1 0x0 MSTORE MSTORE PUSH1 0x0 REVERT JUMPDEST DUP10 DUP1 REVERT JUMPDEST POP RETURNDATASIZE PUSH2 0x558 JUMP JUMPDEST DUP10 MLOAD RETURNDATASIZE DUP9 DUP3 RETURNDATACOPY RETURNDATASIZE SWAP1 REVERT JUMPDEST POP PUSH1 0x10 PUSH1 0x64 SWAP3 DUP6 DUP8 MLOAD SWAP4 PUSH3 0x461BCD PUSH1 0xE5 SHL DUP6 MSTORE DUP5 ADD MSTORE DUP3 ADD MSTORE PUSH16 0x4578636565647320416176652063617 PUSH1 0x84 SHL PUSH1 0x44 DUP3 ADD MSTORE REVERT JUMPDEST PUSH4 0x4E487B71 PUSH1 0xE0 SHL DUP10 MSTORE PUSH1 0x11 DUP4 MSTORE DUP4 DUP10 REVERT JUMPDEST POP POP DUP6 DUP2 DUP2 RETURNDATASIZE DUP4 GT PUSH2 0x6B6 JUMPI JUMPDEST PUSH2 0x6A3 DUP2 DUP4 PUSH2 0x1A5B JUMP JUMPDEST DUP2 ADD SUB SLT PUSH2 0xBC JUMPI DUP5 PUSH2 0x2E3 SWAP2 MLOAD PUSH2 0x2D7 JUMP JUMPDEST POP RETURNDATASIZE PUSH2 0x699 JUMP JUMPDEST DUP8 MLOAD RETURNDATASIZE DUP12 DUP3 RETURNDATACOPY RETURNDATASIZE SWAP1 REVERT JUMPDEST DUP3 DUP1 REVERT JUMPDEST POP SWAP1 CALLVALUE PUSH2 0x266 JUMPI DUP2 PUSH1 0x3 NOT CALLDATASIZE ADD SLT PUSH2 0x266 JUMPI PUSH1 0x20 SWAP1 MLOAD PUSH20 0xE5118E47E061AB15CA972D045B35193F673BCC36 DUP2 MSTORE RETURN JUMPDEST POP SWAP1 CALLVALUE PUSH2 0x266 JUMPI DUP2 PUSH1 0x3 NOT CALLDATASIZE ADD SLT PUSH2 0x266 JUMPI PUSH1 0x20 SWAP1 PUSH2 0x717 PUSH2 0x3387 JUMP JUMPDEST SWAP1 MLOAD SWAP1 DUP2 MSTORE RETURN JUMPDEST POP CALLVALUE PUSH2 0x769 JUMPI PUSH1 0x20 CALLDATASIZE PUSH1 0x3 NOT ADD SLT PUSH2 0x769 JUMPI PUSH2 0x738 PUSH2 0x1954 JUMP JUMPDEST PUSH1 0x2 SLOAD PUSH1 0x1 PUSH1 0x1 PUSH1 0xA0 SHL SUB SWAP2 SWAP1 PUSH2 0x752 SWAP1 DUP4 AND CALLER EQ PUSH2 0x19B7 JUMP JUMPDEST AND PUSH1 0x1 PUSH1 0x1 PUSH1 0x60 SHL SUB PUSH1 0xA0 SHL PUSH1 0x3 SLOAD AND OR PUSH1 0x3 SSTORE DUP1 RETURN JUMPDEST DUP1 REVERT JUMPDEST POP SWAP1 CALLVALUE PUSH2 0x266 JUMPI DUP2 PUSH1 0x3 NOT CALLDATASIZE ADD SLT PUSH2 0x266 JUMPI PUSH1 0x20 SWAP1 PUSH2 0x717 PUSH2 0x32D5 JUMP JUMPDEST POP SWAP2 SWAP1 CALLVALUE PUSH2 0x6C7 JUMPI DUP1 PUSH1 0x3 NOT CALLDATASIZE ADD SLT PUSH2 0x6C7 JUMPI PUSH2 0x7A4 PUSH2 0x1954 JUMP JUMPDEST PUSH1 0x24 CALLDATALOAD PUSH1 0x1 PUSH1 0x1 PUSH1 0xA0 SHL SUB DUP2 DUP2 AND SWAP5 SWAP1 SWAP3 SWAP2 DUP6 SWAP1 SUB PUSH2 0xBC JUMPI PUSH2 0x7CC DUP4 PUSH1 0x2 SLOAD AND CALLER EQ PUSH2 0x19B7 JUMP JUMPDEST DUP5 ISZERO PUSH2 0x7F1 JUMPI POP AND DUP4 MSTORE PUSH1 0x1 PUSH1 0x20 MSTORE DUP3 KECCAK256 DUP1 SLOAD PUSH1 0x1 PUSH1 0x1 PUSH1 0xA0 SHL SUB NOT AND SWAP1 SWAP2 OR SWAP1 SSTORE DUP1 RETURN JUMPDEST PUSH1 0x64 SWAP1 PUSH1 0x20 DUP6 MLOAD SWAP2 PUSH3 0x461BCD PUSH1 0xE5 SHL DUP4 MSTORE DUP3 ADD MSTORE PUSH1 0x14 PUSH1 0x24 DUP3 ADD MSTORE PUSH20 0x496E76616C696420666565642061646472657373 PUSH1 0x60 SHL PUSH1 0x44 DUP3 ADD MSTORE REVERT JUMPDEST POP SWAP1 CALLVALUE PUSH2 0x266 JUMPI DUP2 PUSH1 0x3 NOT CALLDATASIZE ADD SLT PUSH2 0x266 JUMPI PUSH1 0x20 SWAP1 MLOAD PUSH20 0xA1A245CC76414DC143687D9C3DE1152396F352D6 DUP2 MSTORE RETURN JUMPDEST POP SWAP1 CALLVALUE PUSH2 0x266 JUMPI PUSH1 0x20 CALLDATASIZE PUSH1 0x3 NOT ADD SLT PUSH2 0x266 JUMPI PUSH1 0x20 SWAP2 PUSH1 0x1 PUSH1 0x1 PUSH1 0xA0 SHL SUB SWAP1 DUP3 SWAP1 DUP3 PUSH2 0x884 PUSH2 0x1954 JUMP JUMPDEST AND DUP2 MSTORE PUSH1 0x1 DUP6 MSTORE KECCAK256 SLOAD AND SWAP1 MLOAD SWAP1 DUP2 MSTORE RETURN JUMPDEST POP DUP1 SWAP3 CALLVALUE PUSH2 0x266 JUMPI DUP3 PUSH1 0x3 NOT CALLDATASIZE ADD SLT PUSH2 0x266 JUMPI PUSH2 0x8B0 PUSH2 0x1954 JUMP JUMPDEST PUSH1 0x2 SLOAD PUSH1 0x1 PUSH1 0x1 PUSH1 0xA0 SHL SUB SWAP1 DUP2 AND SWAP3 PUSH1 0x24 CALLDATALOAD SWAP3 DUP3 SWAP1 PUSH2 0x8D0 CALLER DUP8 EQ PUSH2 0x19B7 JUMP JUMPDEST AND PUSH20 0xA1A245CC76414DC143687D9C3DE1152396F352D6 SWAP5 DUP6 DUP3 EQ PUSH1 0x0 EQ PUSH2 0x974 JUMPI POP POP DUP4 EXTCODESIZE ISZERO PUSH2 0x424 JUMPI DUP3 PUSH1 0x24 DUP7 SWAP3 DUP4 DUP10 MLOAD SWAP8 DUP9 SWAP5 DUP6 SWAP4 PUSH4 0x2E1A7D4D PUSH1 0xE0 SHL DUP6 MSTORE DUP5 ADD MSTORE GAS CALL SWAP3 DUP4 ISZERO PUSH2 0x96A JUMPI DUP5 SWAP4 PUSH2 0x952 JUMPI JUMPDEST POP DUP3 SWAP2 DUP3 SWAP2 PUSH1 0x2 SLOAD AND DUP3 DUP3 ISZERO PUSH2 0x949 JUMPI JUMPDEST CALL ISZERO PUSH2 0x93F JUMPI POP DUP1 RETURN JUMPDEST MLOAD SWAP1 RETURNDATASIZE SWAP1 DUP3 RETURNDATACOPY RETURNDATASIZE SWAP1 REVERT JUMPDEST POP PUSH2 0x8FC PUSH2 0x935 JUMP JUMPDEST PUSH2 0x95E SWAP1 SWAP4 SWAP2 SWAP4 PUSH2 0x1A47 JUMP JUMPDEST PUSH2 0x6C7 JUMPI DUP3 SWAP2 CODESIZE PUSH2 0x924 JUMP JUMPDEST DUP6 MLOAD RETURNDATASIZE DUP7 DUP3 RETURNDATACOPY RETURNDATASIZE SWAP1 REVERT JUMPDEST DUP8 MLOAD PUSH4 0xA9059CBB PUSH1 0xE0 SHL DUP2 MSTORE PUSH1 0x1 PUSH1 0x1 PUSH1 0xA0 SHL SUB SWAP1 SWAP2 AND SWAP3 DUP2 ADD SWAP3 DUP4 MSTORE PUSH1 0x20 DUP4 DUP2 ADD SWAP6 SWAP1 SWAP6 MSTORE SWAP7 SWAP6 SWAP4 SWAP5 POP DUP7 SWAP4 SWAP1 SWAP3 POP DUP4 SWAP2 DUP3 SWAP1 PUSH1 0x40 ADD SUB SWAP3 GAS CALL SWAP1 DUP2 ISZERO PUSH2 0x9DA JUMPI POP PUSH2 0x9BF JUMPI POP DUP1 RETURN JUMPDEST PUSH2 0x9D6 SWAP1 PUSH1 0x20 RETURNDATASIZE DUP2 GT PUSH2 0x45C JUMPI PUSH2 0x44D DUP2 DUP4 PUSH2 0x1A5B JUMP JUMPDEST POP DUP1 RETURN JUMPDEST MLOAD RETURNDATASIZE DUP5 DUP3 RETURNDATACOPY RETURNDATASIZE SWAP1 REVERT JUMPDEST POP SWAP1 CALLVALUE PUSH2 0x266 JUMPI DUP2 PUSH1 0x3 NOT CALLDATASIZE ADD SLT PUSH2 0x266 JUMPI PUSH1 0x20 SWAP1 MLOAD PUSH2 0x1F40 DUP2 MSTORE RETURN JUMPDEST POP SWAP1 CALLVALUE PUSH2 0x266 JUMPI PUSH1 0x20 CALLDATASIZE PUSH1 0x3 NOT ADD SLT PUSH2 0x266 JUMPI PUSH1 0x20 SWAP1 PUSH2 0x717 PUSH2 0xA21 PUSH2 0x1954 JUMP JUMPDEST PUSH2 0x31D4 JUMP JUMPDEST POP SWAP1 CALLVALUE PUSH2 0x266 JUMPI DUP2 PUSH1 0x3 NOT CALLDATASIZE ADD SLT PUSH2 0x266 JUMPI PUSH1 0x2 SLOAD SWAP1 MLOAD PUSH1 0x1 PUSH1 0x1 PUSH1 0xA0 SHL SUB SWAP1 SWAP2 AND DUP2 MSTORE PUSH1 0x20 SWAP1 RETURN JUMPDEST POP SWAP1 CALLVALUE PUSH2 0x266 JUMPI DUP2 PUSH1 0x3 NOT CALLDATASIZE ADD SLT PUSH2 0x266 JUMPI PUSH1 0x20 SWAP1 MLOAD PUSH20 0xEBCC972B6B3EB15C0592BE1871838963D0B94278 DUP2 MSTORE RETURN JUMPDEST POP SWAP1 CALLVALUE PUSH2 0x266 JUMPI PUSH1 0x20 CALLDATASIZE PUSH1 0x3 NOT ADD SLT PUSH2 0x266 JUMPI SWAP1 DUP2 SWAP1 PUSH1 0x1 PUSH1 0x1 PUSH1 0xA0 SHL SUB PUSH2 0xAA4 PUSH2 0x1954 JUMP JUMPDEST AND DUP2 MSTORE PUSH1 0xC PUSH1 0x20 MSTORE KECCAK256 SWAP1 PUSH2 0xADA DUP3 SLOAD SWAP2 PUSH1 0x2 PUSH1 0x1 DUP6 ADD SLOAD SWAP5 ADD SLOAD SWAP1 MLOAD SWAP4 DUP5 SWAP4 DUP5 PUSH1 0x40 SWAP2 SWAP5 SWAP4 SWAP3 PUSH1 0x60 DUP3 ADD SWAP6 DUP3 MSTORE PUSH1 0x20 DUP3 ADD MSTORE ADD MSTORE JUMP JUMPDEST SUB SWAP1 RETURN JUMPDEST POP SWAP2 CALLVALUE PUSH2 0x6C7 JUMPI DUP3 PUSH1 0x3 NOT CALLDATASIZE ADD SLT PUSH2 0x6C7 JUMPI SLOAD SWAP1 MLOAD PUSH1 0x1 PUSH1 0x1 PUSH1 0xA0 SHL SUB SWAP1 SWAP2 AND DUP2 MSTORE PUSH1 0x20 SWAP2 POP RETURN JUMPDEST POP SWAP1 CALLVALUE PUSH2 0x266 JUMPI DUP2 PUSH1 0x3 NOT CALLDATASIZE ADD SLT PUSH2 0x266 JUMPI PUSH1 0x5 SLOAD SWAP1 MLOAD PUSH1 0x1 PUSH1 0x1 PUSH1 0xA0 SHL SUB SWAP1 SWAP2 AND DUP2 MSTORE PUSH1 0x20 SWAP1 RETURN JUMPDEST POP SWAP1 CALLVALUE PUSH2 0x266 JUMPI DUP2 PUSH1 0x3 NOT CALLDATASIZE ADD SLT PUSH2 0x266 JUMPI PUSH2 0xB49 PUSH2 0x32D5 JUMP JUMPDEST PUSH2 0xB51 PUSH2 0x2E6A JUMP JUMPDEST SWAP2 PUSH1 0x64 SWAP3 DUP4 DUP2 MUL SWAP1 DUP1 DUP3 DIV DUP6 EQ SWAP1 ISZERO OR ISZERO PUSH2 0xC05 JUMPI DUP3 PUSH2 0xB70 SWAP2 PUSH2 0x1BB4 JUMP JUMPDEST SWAP3 PUSH2 0xB79 PUSH2 0x2FB0 JUMP JUMPDEST DUP2 DUP2 MUL SWAP1 DUP1 DUP3 DIV DUP4 EQ SWAP1 ISZERO OR ISZERO PUSH2 0xBF2 JUMPI DUP4 PUSH2 0xB94 SWAP2 PUSH2 0x1BB4 JUMP JUMPDEST SWAP5 PUSH2 0xB9D PUSH2 0x3136 JUMP JUMPDEST DUP3 DUP2 MUL SWAP3 DUP2 DUP5 DIV EQ SWAP1 ISZERO OR ISZERO PUSH2 0xBDF JUMPI POP SWAP1 PUSH2 0xBBD DUP4 PUSH2 0xADA SWAP5 SWAP4 PUSH2 0x1BB4 JUMP JUMPDEST SWAP1 MLOAD SWAP5 DUP6 SWAP5 DUP6 SWAP1 SWAP5 SWAP4 SWAP3 PUSH1 0x60 SWAP3 PUSH1 0x80 DUP4 ADD SWAP7 DUP4 MSTORE PUSH1 0x20 DUP4 ADD MSTORE PUSH1 0x40 DUP3 ADD MSTORE ADD MSTORE JUMP JUMPDEST PUSH4 0x4E487B71 PUSH1 0xE0 SHL DUP2 MSTORE PUSH1 0x11 DUP8 MSTORE PUSH1 0x24 SWAP1 REVERT JUMPDEST PUSH4 0x4E487B71 PUSH1 0xE0 SHL DUP7 MSTORE PUSH1 0x11 DUP8 MSTORE PUSH1 0x24 DUP7 REVERT JUMPDEST PUSH4 0x4E487B71 PUSH1 0xE0 SHL DUP6 MSTORE PUSH1 0x11 DUP7 MSTORE PUSH1 0x24 DUP6 REVERT JUMPDEST POP SWAP2 CALLVALUE PUSH2 0x6C7 JUMPI PUSH1 0x20 CALLDATASIZE PUSH1 0x3 NOT ADD SLT PUSH2 0x6C7 JUMPI CALLDATALOAD SWAP2 PUSH1 0x6 SLOAD DUP4 LT ISZERO PUSH2 0x769 JUMPI POP PUSH2 0xC43 PUSH1 0x20 SWAP3 PUSH2 0x196A JUMP JUMPDEST SWAP1 SLOAD SWAP2 MLOAD SWAP2 PUSH1 0x1 DUP1 PUSH1 0xA0 SHL SUB SWAP2 PUSH1 0x3 SHL SHR AND DUP2 MSTORE RETURN JUMPDEST POP SWAP1 CALLVALUE PUSH2 0x266 JUMPI PUSH1 0x20 CALLDATASIZE PUSH1 0x3 NOT ADD SLT PUSH2 0x266 JUMPI PUSH1 0x20 SWAP2 PUSH1 0x1 PUSH1 0x1 PUSH1 0xA0 SHL SUB SWAP1 DUP3 SWAP1 DUP3 PUSH2 0xC83 PUSH2 0x1954 JUMP JUMPDEST AND DUP2 MSTORE PUSH1 0xB DUP6 MSTORE KECCAK256 SLOAD AND SWAP1 MLOAD SWAP1 DUP2 MSTORE RETURN JUMPDEST POP SWAP1 CALLVALUE PUSH2 0x266 JUMPI DUP2 PUSH1 0x3 NOT CALLDATASIZE ADD SLT PUSH2 0x266 JUMPI PUSH1 0x20 SWAP1 PUSH2 0x717 PUSH2 0x1C6D JUMP JUMPDEST POP SWAP1 CALLVALUE PUSH2 0x266 JUMPI PUSH1 0x20 CALLDATASIZE PUSH1 0x3 NOT ADD SLT PUSH2 0x266 JUMPI PUSH1 0x20 SWAP2 DUP2 SWAP1 PUSH1 0x1 PUSH1 0x1 PUSH1 0xA0 SHL SUB PUSH2 0xCD9 PUSH2 0x1954 JUMP JUMPDEST AND DUP2 MSTORE PUSH1 0x8 DUP5 MSTORE KECCAK256 SLOAD SWAP1 MLOAD SWAP1 DUP2 MSTORE RETURN JUMPDEST POP SWAP2 CALLVALUE PUSH2 0x6C7 JUMPI DUP3 PUSH1 0x3 NOT CALLDATASIZE ADD SLT PUSH2 0x6C7 JUMPI PUSH2 0xD10 PUSH1 0x1 DUP1 PUSH1 0xA0 SHL SUB PUSH1 0x5 SLOAD AND CALLER EQ PUSH2 0x1DD8 JUMP JUMPDEST DUP2 MLOAD SWAP2 PUSH2 0xD1C DUP4 PUSH2 0x1A15 JUMP JUMPDEST PUSH1 0x3 DUP4 MSTORE PUSH1 0x20 DUP1 DUP5 ADD SWAP3 PUSH1 0x60 CALLDATASIZE DUP6 CALLDATACOPY PUSH2 0xD33 PUSH2 0x3387 JUMP JUMPDEST PUSH2 0xD3C DUP7 PUSH2 0x1E14 JUMP JUMPDEST MSTORE PUSH2 0xD45 PUSH2 0x2FB0 JUMP JUMPDEST PUSH1 0x64 DUP2 MUL SWAP1 DUP1 DUP3 DIV PUSH1 0x64 EQ SWAP1 ISZERO OR ISZERO PUSH2 0xEA2 JUMPI PUSH2 0xD6A SWAP1 PUSH2 0xD64 PUSH2 0x32D5 JUMP JUMPDEST SWAP1 PUSH2 0x1BB4 JUMP JUMPDEST PUSH2 0xD73 DUP7 PUSH2 0x1E21 JUMP JUMPDEST MSTORE PUSH2 0xD7C PUSH2 0x3136 JUMP JUMPDEST SWAP1 PUSH1 0x64 DUP3 MUL SWAP2 DUP1 DUP4 DIV PUSH1 0x64 EQ SWAP1 ISZERO OR ISZERO PUSH2 0xE8F JUMPI POP PUSH2 0xDA0 SWAP1 PUSH2 0xD64 SWAP4 SWAP3 SWAP4 PUSH2 0x32D5 JUMP JUMPDEST PUSH2 0xDA9 DUP6 PUSH2 0x1E31 JUMP JUMPDEST MSTORE DUP2 DUP2 MLOAD SWAP5 PUSH2 0xDB7 DUP7 PUSH2 0x1A15 JUMP JUMPDEST PUSH1 0x3 DUP7 MSTORE PUSH1 0x60 CALLDATASIZE DUP4 DUP9 ADD CALLDATACOPY PUSH20 0xA1A245CC76414DC143687D9C3DE1152396F352D6 PUSH2 0xDE0 DUP8 PUSH2 0x1E14 JUMP JUMPDEST MSTORE PUSH20 0xEBCC972B6B3EB15C0592BE1871838963D0B94278 PUSH2 0xDFF DUP8 PUSH2 0x1E21 JUMP JUMPDEST MSTORE PUSH20 0xE5118E47E061AB15CA972D045B35193F673BCC36 PUSH2 0xE1E DUP8 PUSH2 0x1E31 JUMP JUMPDEST MSTORE PUSH2 0xE38 DUP4 MLOAD SWAP7 TIMESTAMP DUP9 MSTORE PUSH1 0x60 DUP5 DUP10 ADD MSTORE PUSH1 0x60 DUP9 ADD SWAP1 PUSH2 0x2D55 JUMP JUMPDEST SWAP3 DUP7 DUP5 SUB SWAP1 DUP8 ADD MSTORE MLOAD SWAP2 DUP3 DUP2 MSTORE ADD SWAP3 SWAP2 DUP6 JUMPDEST DUP3 DUP2 LT PUSH2 0xE7B JUMPI DUP7 PUSH32 0x40415BA81F6D9A462E9C1EBAF5F5A401D1CEC4F2558BF6B44A322BACF043F95 DUP8 DUP8 SUB DUP9 LOG1 DUP1 RETURN JUMPDEST DUP4 MLOAD DUP6 MSTORE SWAP4 DUP2 ADD SWAP4 SWAP3 DUP2 ADD SWAP3 PUSH1 0x1 ADD PUSH2 0xE4A JUMP JUMPDEST PUSH4 0x4E487B71 PUSH1 0xE0 SHL DUP8 MSTORE PUSH1 0x11 SWAP1 MSTORE PUSH1 0x24 DUP7 REVERT JUMPDEST PUSH4 0x4E487B71 PUSH1 0xE0 SHL DUP8 MSTORE PUSH1 0x11 DUP3 MSTORE PUSH1 0x24 DUP8 REVERT JUMPDEST POP CALLVALUE PUSH2 0x769 JUMPI DUP2 PUSH1 0x3 NOT CALLDATASIZE ADD SLT PUSH2 0x769 JUMPI PUSH2 0xECE PUSH2 0x1954 JUMP JUMPDEST PUSH1 0x3 SLOAD PUSH1 0x1 PUSH1 0x1 PUSH1 0xA0 SHL SUB SWAP5 PUSH1 0x24 CALLDATALOAD SWAP5 SWAP2 PUSH2 0xEEC SWAP1 DUP8 AND CALLER EQ PUSH2 0x1AD4 JUMP JUMPDEST PUSH2 0xEF4 PUSH2 0x1B45 JUMP JUMPDEST DUP6 DUP4 AND SWAP1 DUP2 DUP6 MSTORE PUSH1 0x20 SWAP1 PUSH1 0x9 DUP3 MSTORE DUP7 DUP5 DUP8 KECCAK256 SLOAD LT PUSH2 0x1133 JUMPI DUP2 DUP7 SWAP8 SWAP9 DUP5 PUSH1 0x24 SWAP9 MSTORE PUSH1 0xB DUP3 MSTORE DUP6 DUP10 KECCAK256 SLOAD AND DUP6 MLOAD SWAP8 DUP9 DUP1 SWAP3 PUSH4 0x70A08231 PUSH1 0xE0 SHL DUP3 MSTORE ADDRESS DUP7 DUP4 ADD MSTORE GAS STATICCALL SWAP6 DUP7 ISZERO PUSH2 0x10DB JUMPI DUP8 SWAP7 PUSH2 0x1104 JUMPI JUMPDEST POP DUP3 DUP8 MSTORE PUSH1 0x9 DUP3 MSTORE DUP4 DUP8 KECCAK256 SLOAD DUP9 DUP2 PUSH2 0xF5B DUP2 DUP11 PUSH2 0x1B38 JUMP JUMPDEST SWAP9 GT PUSH2 0x10E9 JUMPI JUMPDEST POP POP PUSH20 0x368EEDF3F56AD10B9BC57EED4DAC65B26BB667F6 SWAP1 DUP2 EXTCODESIZE ISZERO PUSH2 0x10E5 JUMPI DUP4 PUSH1 0x64 DUP10 SWAP3 DUP4 DUP9 MLOAD SWAP6 DUP7 SWAP5 DUP6 SWAP4 PUSH4 0x1A4CA37B PUSH1 0xE2 SHL DUP6 MSTORE DUP5 ADD MSTORE DUP14 PUSH1 0x24 DUP5 ADD MSTORE ADDRESS PUSH1 0x44 DUP5 ADD MSTORE GAS CALL DUP1 ISZERO PUSH2 0x10DB JUMPI PUSH2 0x107E JUMPI JUMPDEST POP SWAP1 PUSH32 0x1C61F9FF609ABEC0166033E26FFDCB2501AE4E4AD8745B8F436EF6CF5C3B5B9 PUSH2 0x1074 SWAP4 SWAP3 DUP9 PUSH2 0x1009 DUP9 PUSH32 0x8E91BBD74BB7A610E4D7E6988DB773510A989FA93DF46B4334535B9D6B286E2E SWAP11 SWAP12 PUSH2 0x19F2 JUMP JUMPDEST DUP5 DUP12 MSTORE PUSH1 0x8 DUP4 MSTORE PUSH2 0x101E DUP7 DUP13 KECCAK256 SWAP2 DUP3 SLOAD PUSH2 0x19F2 JUMP JUMPDEST SWAP1 SSTORE DUP4 DUP11 MSTORE PUSH1 0x9 DUP3 MSTORE DUP5 DUP11 KECCAK256 PUSH2 0x1035 DUP3 DUP3 SLOAD PUSH2 0x1B38 JUMP JUMPDEST SWAP1 SSTORE DUP4 DUP11 MSTORE PUSH1 0xA DUP3 MSTORE DUP5 DUP11 KECCAK256 PUSH2 0x104C DUP10 DUP3 SLOAD PUSH2 0x19F2 JUMP JUMPDEST SWAP1 SSTORE DUP5 MLOAD SWAP1 DUP2 MSTORE LOG2 MLOAD PUSH1 0x1 PUSH1 0x1 PUSH1 0xA0 SHL SUB SWAP1 SWAP3 AND DUP3 MSTORE PUSH1 0x20 DUP3 ADD SWAP3 SWAP1 SWAP3 MSTORE SWAP1 DUP2 SWAP1 PUSH1 0x40 DUP3 ADD SWAP1 JUMP JUMPDEST SUB SWAP1 LOG1 PUSH1 0x1 DUP2 SSTORE DUP1 RETURN JUMPDEST PUSH2 0x1074 SWAP4 SWAP3 SWAP2 PUSH32 0x8E91BBD74BB7A610E4D7E6988DB773510A989FA93DF46B4334535B9D6B286E2E SWAP8 PUSH2 0x10D0 PUSH32 0x1C61F9FF609ABEC0166033E26FFDCB2501AE4E4AD8745B8F436EF6CF5C3B5B9 SWAP4 PUSH2 0x1A47 JUMP JUMPDEST SWAP8 POP SWAP2 SWAP3 SWAP4 POP PUSH2 0xFB4 JUMP JUMPDEST DUP5 MLOAD RETURNDATASIZE DUP10 DUP3 RETURNDATACOPY RETURNDATASIZE SWAP1 REVERT JUMPDEST DUP8 DUP1 REVERT JUMPDEST PUSH2 0x10F7 SWAP1 PUSH2 0x10FC SWAP4 SWAP9 PUSH2 0x1AC1 JUMP JUMPDEST PUSH2 0x1BB4 JUMP JUMPDEST SWAP5 CODESIZE DUP9 PUSH2 0xF62 JUMP JUMPDEST SWAP1 SWAP6 POP DUP2 DUP2 DUP2 RETURNDATASIZE DUP4 GT PUSH2 0x112C JUMPI JUMPDEST PUSH2 0x111C DUP2 DUP4 PUSH2 0x1A5B JUMP JUMPDEST DUP2 ADD SUB SLT PUSH2 0x619 JUMPI MLOAD SWAP5 CODESIZE PUSH2 0xF43 JUMP JUMPDEST POP RETURNDATASIZE PUSH2 0x1112 JUMP JUMPDEST PUSH1 0x64 SWAP2 DUP5 MLOAD SWAP2 PUSH3 0x461BCD PUSH1 0xE5 SHL DUP4 MSTORE DUP3 ADD MSTORE PUSH1 0x1C PUSH1 0x24 DUP3 ADD MSTORE PUSH32 0x5769746864726177616C2065786365656473207072696E636970616C00000000 PUSH1 0x44 DUP3 ADD MSTORE REVERT JUMPDEST POP SWAP1 CALLVALUE PUSH2 0x266 JUMPI DUP2 PUSH1 0x3 NOT CALLDATASIZE ADD SLT PUSH2 0x266 JUMPI PUSH1 0x3 SLOAD SWAP1 MLOAD PUSH1 0x1 PUSH1 0x1 PUSH1 0xA0 SHL SUB SWAP1 SWAP2 AND DUP2 MSTORE PUSH1 0x20 SWAP1 RETURN JUMPDEST POP DUP3 CALLVALUE PUSH2 0x266 JUMPI PUSH1 0xA0 CALLDATASIZE PUSH1 0x3 NOT ADD SLT PUSH2 0x266 JUMPI PUSH2 0x11B8 PUSH2 0x1954 JUMP JUMPDEST SWAP3 PUSH1 0x24 DUP1 CALLDATALOAD SWAP2 PUSH1 0x44 CALLDATALOAD SWAP4 PUSH1 0x64 CALLDATALOAD SWAP3 PUSH1 0x84 CALLDATALOAD SWAP2 PUSH8 0xFFFFFFFFFFFFFFFF SWAP2 DUP3 DUP5 GT PUSH2 0x13CD JUMPI CALLDATASIZE PUSH1 0x23 DUP6 ADD SLT ISZERO PUSH2 0x13CD JUMPI DUP4 DUP3 ADD CALLDATALOAD SWAP2 DUP4 DUP4 GT PUSH2 0x631 JUMPI DUP2 DUP4 PUSH1 0x5 SHL DUP7 ADD ADD SWAP1 CALLDATASIZE DUP3 GT PUSH2 0x13C9 JUMPI PUSH1 0x2 SLOAD PUSH1 0x1 PUSH1 0x1 PUSH1 0xA0 SHL SUB SWAP4 SWAP1 PUSH2 0x121C SWAP1 DUP6 AND CALLER EQ PUSH2 0x19B7 JUMP JUMPDEST PUSH2 0x2710 PUSH2 0x1229 DUP13 DUP13 PUSH2 0x19F2 JUMP JUMPDEST GT PUSH2 0x1392 JUMPI DUP8 MLOAD PUSH2 0x1239 DUP2 PUSH2 0x1A15 JUMP JUMPDEST DUP11 DUP2 MSTORE PUSH1 0x20 SWAP4 DUP5 DUP3 ADD SWAP1 DUP14 DUP3 MSTORE DUP11 DUP4 ADD SWAP10 DUP13 DUP12 MSTORE PUSH2 0x1256 DUP10 PUSH2 0x1A7D JUMP JUMPDEST SWAP9 PUSH2 0x1263 DUP14 MLOAD SWAP11 DUP12 PUSH2 0x1A5B JUMP JUMPDEST DUP10 MSTORE DUP5 ADD DUP7 DUP10 ADD JUMPDEST DUP3 DUP3 LT PUSH2 0x1374 JUMPI POP POP POP DUP10 DUP15 SWAP16 DUP8 SWAP1 PUSH1 0x60 DUP6 ADD SWAP10 DUP11 MSTORE AND SWAP15 DUP16 DUP2 MSTORE PUSH1 0xC DUP8 MSTORE KECCAK256 SWAP2 MLOAD DUP3 SSTORE MLOAD SWAP8 PUSH1 0x1 SWAP9 DUP10 DUP4 ADD SSTORE MLOAD PUSH1 0x2 DUP3 ADD SSTORE PUSH1 0x3 ADD SWAP5 MLOAD SWAP2 DUP3 MLOAD SWAP7 DUP8 GT PUSH2 0x1363 JUMPI PUSH1 0x1 PUSH1 0x40 SHL DUP8 GT PUSH2 0x1363 JUMPI POP POP DUP2 SWAP1 DUP13 DUP7 DUP7 SLOAD SWAP2 DUP2 DUP9 SSTORE DUP3 DUP3 LT PUSH2 0x1333 JUMPI JUMPDEST POP POP POP ADD SWAP3 DUP12 MSTORE DUP1 DUP12 KECCAK256 SWAP2 DUP12 JUMPDEST DUP6 DUP2 LT PUSH2 0x1320 JUMPI DUP8 MLOAD DUP11 DUP2 MSTORE PUSH1 0x20 DUP2 ADD DUP13 SWAP1 MSTORE PUSH1 0x40 DUP2 ADD DUP11 SWAP1 MSTORE DUP14 SWAP1 DUP14 SWAP1 PUSH32 0x9AB15632C1E4BBA227FEF32BF0D208B02CE488D7E094F36D9A40FCF1F2D0E383 SWAP1 PUSH1 0x60 SWAP1 LOG2 DUP1 RETURN JUMPDEST DUP5 MLOAD DUP3 AND DUP5 DUP3 ADD SSTORE SWAP4 DUP3 ADD SWAP4 DUP7 ADD PUSH2 0x12D9 JUMP JUMPDEST DUP10 SWAP2 POP DUP8 DUP2 MSTORE DUP9 DUP6 DUP3 KECCAK256 SWAP4 DUP5 ADD SWAP4 ADD SWAP1 JUMPDEST DUP4 DUP3 LT PUSH2 0x1355 JUMPI SWAP1 POP DUP9 SWAP2 POP PUSH2 0x12CC JUMP JUMPDEST DUP2 SSTORE DUP6 SWAP5 POP DUP10 SWAP2 ADD DUP16 PUSH2 0x1344 JUMP JUMPDEST PUSH4 0x4E487B71 PUSH1 0xE0 SHL DUP15 MSTORE PUSH1 0x41 SWAP1 MSTORE DUP13 REVERT JUMPDEST DUP2 CALLDATALOAD DUP10 DUP2 AND DUP2 SUB PUSH2 0x138C JUMPI DUP2 MSTORE SWAP1 DUP8 ADD SWAP1 DUP8 ADD PUSH2 0x126B JUMP JUMPDEST POP POP DUP16 DUP1 REVERT JUMPDEST SWAP1 PUSH1 0x12 PUSH1 0x64 SWAP3 PUSH1 0x20 DUP11 MLOAD SWAP4 PUSH3 0x461BCD PUSH1 0xE5 SHL DUP6 MSTORE DUP5 ADD MSTORE DUP3 ADD MSTORE PUSH18 0x496E76616C6964207468726573686F6C6473 PUSH1 0x70 SHL PUSH1 0x44 DUP3 ADD MSTORE REVERT JUMPDEST DUP11 DUP1 REVERT JUMPDEST DUP9 DUP1 REVERT JUMPDEST POP SWAP2 CALLVALUE PUSH2 0x6C7 JUMPI DUP3 PUSH1 0x3 NOT CALLDATASIZE ADD SLT PUSH2 0x6C7 JUMPI PUSH1 0x5 SLOAD PUSH1 0x1 PUSH1 0x1 PUSH1 0xA0 SHL SUB SWAP2 SWAP1 PUSH2 0x13FD SWAP1 DUP4 AND CALLER EQ PUSH2 0x1DD8 JUMP JUMPDEST PUSH2 0x1405 PUSH2 0x1B45 JUMP JUMPDEST PUSH2 0x140D PUSH2 0x32D5 JUMP JUMPDEST SWAP4 PUSH2 0x1416 PUSH2 0x2E6A JUMP JUMPDEST SWAP5 PUSH2 0x141F PUSH2 0x32D5 JUMP JUMPDEST SWAP6 DUP7 ISZERO PUSH2 0x155A JUMPI PUSH2 0x142F DUP8 PUSH2 0x1E55 JUMP JUMPDEST DUP6 MLOAD SWAP4 PUSH1 0xA0 DUP6 ADD DUP6 DUP2 LT PUSH8 0xFFFFFFFFFFFFFFFF DUP3 GT OR PUSH2 0x1547 JUMPI DUP8 MSTORE DUP5 MSTORE PUSH1 0x80 CALLDATASIZE PUSH1 0x20 DUP7 ADD CALLDATACOPY PUSH20 0xA1A245CC76414DC143687D9C3DE1152396F352D6 PUSH2 0x1473 DUP6 PUSH2 0x1E14 JUMP JUMPDEST MSTORE PUSH20 0xEBCC972B6B3EB15C0592BE1871838963D0B94278 PUSH2 0x1492 DUP6 PUSH2 0x1E21 JUMP JUMPDEST MSTORE PUSH20 0xE5118E47E061AB15CA972D045B35193F673BCC36 PUSH2 0x14B1 DUP6 PUSH2 0x1E31 JUMP JUMPDEST MSTORE DUP3 JUMPDEST DUP5 MLOAD DUP2 LT ISZERO PUSH2 0x14E1 JUMPI DUP1 PUSH2 0x14D7 DUP10 DUP9 PUSH2 0x14D0 PUSH2 0x14DC SWAP6 DUP11 PUSH2 0x1E41 JUMP JUMPDEST MLOAD AND PUSH2 0x284F JUMP JUMPDEST PUSH2 0x1BF1 JUMP JUMPDEST PUSH2 0x14B4 JUMP JUMPDEST POP PUSH32 0xEEDE213A34918D7C0B828ED3304BE2754812C22E031AD24C7213A7224B65E24C SWAP1 DUP7 PUSH2 0x153D PUSH2 0x1510 PUSH2 0x32D5 JUMP JUMPDEST SWAP2 PUSH2 0x1519 PUSH2 0x2E6A JUMP JUMPDEST SWAP1 MLOAD SWAP4 DUP5 SWAP4 CALLER SWAP8 DUP6 SWAP1 SWAP5 SWAP4 SWAP3 PUSH1 0x60 SWAP3 PUSH1 0x80 DUP4 ADD SWAP7 DUP4 MSTORE PUSH1 0x20 DUP4 ADD MSTORE PUSH1 0x40 DUP3 ADD MSTORE ADD MSTORE JUMP JUMPDEST SUB SWAP1 LOG2 PUSH1 0x1 DUP2 SSTORE DUP1 RETURN JUMPDEST PUSH4 0x4E487B71 PUSH1 0xE0 SHL DUP6 MSTORE PUSH1 0x41 DUP3 MSTORE PUSH1 0x24 DUP6 REVERT JUMPDEST DUP6 MLOAD PUSH3 0x461BCD PUSH1 0xE5 SHL DUP2 MSTORE PUSH1 0x20 DUP2 DUP7 ADD MSTORE PUSH1 0x16 PUSH1 0x24 DUP3 ADD MSTORE PUSH22 0x4E6F2061737365747320746F20726562616C616E6365 PUSH1 0x50 SHL PUSH1 0x44 DUP3 ADD MSTORE PUSH1 0x64 SWAP1 REVERT JUMPDEST POP SWAP1 CALLVALUE PUSH2 0x266 JUMPI PUSH1 0x20 CALLDATASIZE PUSH1 0x3 NOT ADD SLT PUSH2 0x266 JUMPI PUSH1 0x20 SWAP2 DUP2 SWAP1 PUSH1 0x1 PUSH1 0x1 PUSH1 0xA0 SHL SUB PUSH2 0x15BE PUSH2 0x1954 JUMP JUMPDEST AND DUP2 MSTORE PUSH1 0x9 DUP5 MSTORE KECCAK256 SLOAD SWAP1 MLOAD SWAP1 DUP2 MSTORE RETURN JUMPDEST POP CALLVALUE PUSH2 0x769 JUMPI PUSH1 0x20 CALLDATASIZE PUSH1 0x3 NOT ADD SLT PUSH2 0x769 JUMPI PUSH2 0x15E8 PUSH2 0x1954 JUMP JUMPDEST PUSH1 0x2 SLOAD PUSH1 0x1 PUSH1 0x1 PUSH1 0xA0 SHL SUB SWAP2 SWAP1 PUSH2 0x1602 SWAP1 DUP4 AND CALLER EQ PUSH2 0x19B7 JUMP JUMPDEST AND PUSH1 0x1 PUSH1 0x1 PUSH1 0x60 SHL SUB PUSH1 0xA0 SHL PUSH1 0x5 SLOAD AND OR PUSH1 0x5 SSTORE DUP1 RETURN JUMPDEST POP SWAP1 CALLVALUE PUSH2 0x266 JUMPI PUSH1 0x20 SWAP3 DUP4 PUSH1 0x3 NOT CALLDATASIZE ADD SLT PUSH2 0x6C7 JUMPI DUP4 PUSH1 0x1 PUSH1 0x1 PUSH1 0xA0 SHL SUB DUP1 PUSH2 0x1640 PUSH2 0x1954 JUMP JUMPDEST AND DUP6 MSTORE PUSH1 0xB DUP3 MSTORE DUP4 DUP6 KECCAK256 SLOAD AND SWAP2 PUSH1 0x24 DUP5 MLOAD DUP1 SWAP5 DUP2 SWAP4 PUSH4 0x70A08231 PUSH1 0xE0 SHL DUP4 MSTORE ADDRESS SWAP1 DUP4 ADD MSTORE GAS STATICCALL SWAP3 DUP4 ISZERO PUSH2 0x16AE JUMPI DUP1 SWAP4 PUSH2 0x167C JUMPI JUMPDEST POP POP MLOAD SWAP1 DUP2 MSTORE RETURN JUMPDEST SWAP1 SWAP2 SWAP3 POP DUP4 DUP3 DUP2 RETURNDATASIZE DUP4 GT PUSH2 0x16A7 JUMPI JUMPDEST PUSH2 0x1695 DUP2 DUP4 PUSH2 0x1A5B JUMP JUMPDEST DUP2 ADD SUB SLT PUSH2 0x769 JUMPI POP MLOAD SWAP1 CODESIZE DUP1 PUSH2 0x1674 JUMP JUMPDEST POP RETURNDATASIZE PUSH2 0x168B JUMP JUMPDEST DUP3 MLOAD SWAP1 RETURNDATASIZE SWAP1 DUP3 RETURNDATACOPY RETURNDATASIZE SWAP1 REVERT JUMPDEST POP SWAP1 CALLVALUE PUSH2 0x266 JUMPI PUSH1 0x20 CALLDATASIZE PUSH1 0x3 NOT ADD SLT PUSH2 0x266 JUMPI PUSH1 0x20 SWAP2 DUP2 SWAP1 PUSH1 0x1 PUSH1 0x1 PUSH1 0xA0 SHL SUB PUSH2 0x16E1 PUSH2 0x1954 JUMP JUMPDEST AND DUP2 MSTORE PUSH1 0xA DUP5 MSTORE KECCAK256 SLOAD SWAP1 MLOAD SWAP1 DUP2 MSTORE RETURN JUMPDEST POP SWAP2 SWAP1 CALLVALUE PUSH2 0x6C7 JUMPI DUP3 PUSH1 0x3 NOT CALLDATASIZE ADD SLT PUSH2 0x6C7 JUMPI DUP1 MLOAD SWAP2 PUSH4 0x70A08231 PUSH1 0xE0 SHL DUP4 MSTORE ADDRESS SWAP1 DUP4 ADD MSTORE PUSH1 0x20 DUP3 PUSH1 0x24 DUP2 PUSH20 0xA1A245CC76414DC143687D9C3DE1152396F352D6 GAS STATICCALL SWAP2 DUP3 ISZERO PUSH2 0x1782 JUMPI DUP4 SWAP3 PUSH2 0x174B JUMPI JUMPDEST PUSH1 0x20 DUP4 DUP4 MLOAD SWAP1 DUP2 MSTORE RETURN JUMPDEST SWAP1 SWAP2 POP PUSH1 0x20 DUP2 RETURNDATASIZE DUP3 GT PUSH2 0x177A JUMPI JUMPDEST DUP2 PUSH2 0x1766 PUSH1 0x20 SWAP4 DUP4 PUSH2 0x1A5B JUMP JUMPDEST DUP2 ADD SUB SLT PUSH2 0x6C7 JUMPI PUSH1 0x20 SWAP3 POP MLOAD SWAP1 CODESIZE PUSH2 0x1741 JUMP JUMPDEST RETURNDATASIZE SWAP2 POP PUSH2 0x1759 JUMP JUMPDEST DUP2 MLOAD RETURNDATASIZE DUP6 DUP3 RETURNDATACOPY RETURNDATASIZE SWAP1 REVERT JUMPDEST POP SWAP2 SWAP1 CALLVALUE PUSH2 0x6C7 JUMPI PUSH1 0x60 CALLDATASIZE PUSH1 0x3 NOT ADD SLT PUSH2 0x6C7 JUMPI DUP2 CALLDATALOAD PUSH1 0x1 PUSH1 0x1 PUSH1 0xA0 SHL SUB DUP2 DUP2 AND SWAP2 DUP3 SWAP1 SUB PUSH2 0x424 JUMPI PUSH1 0x24 CALLDATALOAD SWAP4 PUSH1 0x44 CALLDATALOAD SWAP2 DUP1 DUP4 AND DUP1 SWAP4 SUB PUSH2 0x619 JUMPI PUSH2 0x17D6 SWAP1 PUSH1 0x3 SLOAD AND CALLER EQ PUSH2 0x1AD4 JUMP JUMPDEST PUSH2 0x17DE PUSH2 0x1B45 JUMP JUMPDEST DUP2 DUP7 MSTORE PUSH1 0x20 SWAP3 PUSH1 0x8 DUP5 MSTORE DUP6 DUP6 DUP9 KECCAK256 SLOAD LT PUSH2 0x18A7 JUMPI DUP5 MLOAD SWAP1 PUSH4 0xA9059CBB PUSH1 0xE0 SHL DUP3 MSTORE DUP3 DUP3 ADD MSTORE DUP6 PUSH1 0x24 DUP3 ADD MSTORE DUP4 DUP2 PUSH1 0x44 DUP2 DUP11 DUP8 GAS CALL SWAP1 DUP2 ISZERO PUSH2 0x189D JUMPI DUP8 SWAP2 PUSH2 0x1880 JUMPI JUMPDEST POP ISZERO PUSH2 0x1845 JUMPI POP PUSH2 0x183C SWAP3 SWAP2 PUSH1 0x8 SWAP2 DUP7 MSTORE MSTORE DUP4 KECCAK256 SWAP2 DUP3 SLOAD PUSH2 0x1B38 JUMP JUMPDEST SWAP1 SSTORE PUSH1 0x1 DUP2 SSTORE DUP1 RETURN JUMPDEST DUP4 MLOAD PUSH3 0x461BCD PUSH1 0xE5 SHL DUP2 MSTORE SWAP1 DUP2 ADD DUP4 SWAP1 MSTORE PUSH1 0x15 PUSH1 0x24 DUP3 ADD MSTORE PUSH21 0x151BDAD95B881D1C985B9CD9995C8819985A5B1959 PUSH1 0x5A SHL PUSH1 0x44 DUP3 ADD MSTORE PUSH1 0x64 SWAP1 REVERT JUMPDEST PUSH2 0x1897 SWAP2 POP DUP5 RETURNDATASIZE DUP7 GT PUSH2 0x45C JUMPI PUSH2 0x44D DUP2 DUP4 PUSH2 0x1A5B JUMP JUMPDEST CODESIZE PUSH2 0x1820 JUMP JUMPDEST DUP6 MLOAD RETURNDATASIZE DUP10 DUP3 RETURNDATACOPY RETURNDATASIZE SWAP1 REVERT JUMPDEST DUP5 MLOAD PUSH3 0x461BCD PUSH1 0xE5 SHL DUP2 MSTORE DUP1 DUP4 ADD DUP6 SWAP1 MSTORE PUSH1 0x1B PUSH1 0x24 DUP3 ADD MSTORE PUSH32 0x496E73756666696369656E74206C69717569642062616C616E63650000000000 PUSH1 0x44 DUP3 ADD MSTORE PUSH1 0x64 SWAP1 REVERT JUMPDEST POP SWAP1 CALLVALUE PUSH2 0x266 JUMPI DUP2 PUSH1 0x3 NOT CALLDATASIZE ADD SLT PUSH2 0x266 JUMPI PUSH1 0x20 SWAP1 MLOAD PUSH20 0x368EEDF3F56AD10B9BC57EED4DAC65B26BB667F6 DUP2 MSTORE RETURN JUMPDEST SWAP1 POP DUP3 CALLVALUE PUSH2 0x6C7 JUMPI PUSH1 0x20 CALLDATASIZE PUSH1 0x3 NOT ADD SLT PUSH2 0x6C7 JUMPI PUSH1 0x20 SWAP3 PUSH1 0xFF SWAP2 SWAP1 PUSH1 0x1 PUSH1 0x1 PUSH1 0xA0 SHL SUB PUSH2 0x1944 PUSH2 0x1954 JUMP JUMPDEST AND DUP2 MSTORE PUSH1 0x7 DUP6 MSTORE KECCAK256 SLOAD AND ISZERO ISZERO DUP2 MSTORE RETURN JUMPDEST PUSH1 0x4 CALLDATALOAD SWAP1 PUSH1 0x1 PUSH1 0x1 PUSH1 0xA0 SHL SUB DUP3 AND DUP3 SUB PUSH2 0xBC JUMPI JUMP JUMPDEST PUSH1 0x6 SLOAD DUP2 LT ISZERO PUSH2 0x19A1 JUMPI PUSH1 0x6 PUSH1 0x0 MSTORE PUSH32 0xF652222313E28459528D920B65115C16C04F3EFC82AAEDC97BE59F3F377C0D3F ADD SWAP1 PUSH1 0x0 SWAP1 JUMP JUMPDEST PUSH4 0x4E487B71 PUSH1 0xE0 SHL PUSH1 0x0 MSTORE PUSH1 0x32 PUSH1 0x4 MSTORE PUSH1 0x24 PUSH1 0x0 REVERT JUMPDEST ISZERO PUSH2 0x19BE JUMPI JUMP JUMPDEST PUSH1 0x40 MLOAD PUSH3 0x461BCD PUSH1 0xE5 SHL DUP2 MSTORE PUSH1 0x20 PUSH1 0x4 DUP3 ADD MSTORE PUSH1 0xC PUSH1 0x24 DUP3 ADD MSTORE PUSH12 0x155B985D5D1A1BDC9A5E9959 PUSH1 0xA2 SHL PUSH1 0x44 DUP3 ADD MSTORE PUSH1 0x64 SWAP1 REVERT JUMPDEST SWAP2 SWAP1 DUP3 ADD DUP1 SWAP3 GT PUSH2 0x19FF JUMPI JUMP JUMPDEST PUSH4 0x4E487B71 PUSH1 0xE0 SHL PUSH1 0x0 MSTORE PUSH1 0x11 PUSH1 0x4 MSTORE PUSH1 0x24 PUSH1 0x0 REVERT JUMPDEST PUSH1 0x80 DUP2 ADD SWAP1 DUP2 LT PUSH8 0xFFFFFFFFFFFFFFFF DUP3 GT OR PUSH2 0x1A31 JUMPI PUSH1 0x40 MSTORE JUMP JUMPDEST PUSH4 0x4E487B71 PUSH1 0xE0 SHL PUSH1 0x0 MSTORE PUSH1 0x41 PUSH1 0x4 MSTORE PUSH1 0x24 PUSH1 0x0 REVERT JUMPDEST PUSH8 0xFFFFFFFFFFFFFFFF DUP2 GT PUSH2 0x1A31 JUMPI PUSH1 0x40 MSTORE JUMP JUMPDEST SWAP1 PUSH1 0x1F DUP1 NOT SWAP2 ADD AND DUP2 ADD SWAP1 DUP2 LT PUSH8 0xFFFFFFFFFFFFFFFF DUP3 GT OR PUSH2 0x1A31 JUMPI PUSH1 0x40 MSTORE JUMP JUMPDEST PUSH8 0xFFFFFFFFFFFFFFFF DUP2 GT PUSH2 0x1A31 JUMPI PUSH1 0x5 SHL PUSH1 0x20 ADD SWAP1 JUMP JUMPDEST SWAP1 PUSH1 0x69 DUP3 MUL SWAP2 DUP1 DUP4 DIV PUSH1 0x69 EQ SWAP1 ISZERO OR ISZERO PUSH2 0x19FF JUMPI JUMP JUMPDEST SWAP1 PUSH1 0x5F DUP3 MUL SWAP2 DUP1 DUP4 DIV PUSH1 0x5F EQ SWAP1 ISZERO OR ISZERO PUSH2 0x19FF JUMPI JUMP JUMPDEST DUP2 DUP2 MUL SWAP3 SWAP2 DUP2 ISZERO SWAP2 DUP5 DIV EQ OR ISZERO PUSH2 0x19FF JUMPI JUMP JUMPDEST ISZERO PUSH2 0x1ADB JUMPI JUMP JUMPDEST PUSH1 0x40 MLOAD PUSH3 0x461BCD PUSH1 0xE5 SHL DUP2 MSTORE PUSH1 0x20 PUSH1 0x4 DUP3 ADD MSTORE PUSH1 0x17 PUSH1 0x24 DUP3 ADD MSTORE PUSH32 0x4F6E6C792070726F706F73616C7320636F6E7472616374000000000000000000 PUSH1 0x44 DUP3 ADD MSTORE PUSH1 0x64 SWAP1 REVERT JUMPDEST SWAP1 DUP2 PUSH1 0x20 SWAP2 SUB SLT PUSH2 0xBC JUMPI MLOAD DUP1 ISZERO ISZERO DUP2 SUB PUSH2 0xBC JUMPI SWAP1 JUMP JUMPDEST SWAP2 SWAP1 DUP3 SUB SWAP2 DUP3 GT PUSH2 0x19FF JUMPI JUMP JUMPDEST PUSH1 0x2 PUSH1 0x0 SLOAD EQ PUSH2 0x1B56 JUMPI PUSH1 0x2 PUSH1 0x0 SSTORE JUMP JUMPDEST PUSH1 0x40 MLOAD PUSH4 0x3EE5AEB5 PUSH1 0xE0 SHL DUP2 MSTORE PUSH1 0x4 SWAP1 REVERT JUMPDEST ISZERO PUSH2 0x1B6F JUMPI JUMP JUMPDEST PUSH1 0x40 MLOAD PUSH3 0x461BCD PUSH1 0xE5 SHL DUP2 MSTORE PUSH1 0x20 PUSH1 0x4 DUP3 ADD MSTORE PUSH1 0x1A PUSH1 0x24 DUP3 ADD MSTORE PUSH32 0x496E73756666696369656E7420746F6B656E2062616C616E6365000000000000 PUSH1 0x44 DUP3 ADD MSTORE PUSH1 0x64 SWAP1 REVERT JUMPDEST DUP2 ISZERO PUSH2 0x1BBE JUMPI DIV SWAP1 JUMP JUMPDEST PUSH4 0x4E487B71 PUSH1 0xE0 SHL PUSH1 0x0 MSTORE PUSH1 0x12 PUSH1 0x4 MSTORE PUSH1 0x24 PUSH1 0x0 REVERT JUMPDEST MLOAD SWAP1 PUSH16 0xFFFFFFFFFFFFFFFFFFFFFFFFFFFFFFFF DUP3 AND DUP3 SUB PUSH2 0xBC JUMPI JUMP JUMPDEST PUSH1 0x0 NOT DUP2 EQ PUSH2 0x19FF JUMPI PUSH1 0x1 ADD SWAP1 JUMP JUMPDEST ISZERO PUSH2 0x1C07 JUMPI JUMP JUMPDEST PUSH1 0x40 MLOAD PUSH3 0x461BCD PUSH1 0xE5 SHL DUP2 MSTORE PUSH1 0x20 PUSH1 0x4 DUP3 ADD MSTORE PUSH1 0x14 PUSH1 0x24 DUP3 ADD MSTORE PUSH20 0x141C9A58D94819995959081B9BDD08199BDD5B99 PUSH1 0x62 SHL PUSH1 0x44 DUP3 ADD MSTORE PUSH1 0x64 SWAP1 REVERT JUMPDEST SWAP1 DUP2 PUSH1 0x20 SWAP2 SUB SLT PUSH2 0xBC JUMPI MLOAD PUSH1 0xFF DUP2 AND DUP2 SUB PUSH2 0xBC JUMPI SWAP1 JUMP JUMPDEST PUSH1 0xFF AND PUSH1 0x4D DUP2 GT PUSH2 0x19FF JUMPI PUSH1 0xA EXP SWAP1 JUMP JUMPDEST PUSH1 0x0 DUP1 DUP1 PUSH1 0x6 SLOAD JUMPDEST DUP1 DUP4 LT PUSH2 0x1C82 JUMPI POP POP POP SWAP1 JUMP JUMPDEST SWAP1 SWAP2 SWAP3 PUSH2 0x1C8E DUP5 PUSH2 0x196A JUMP JUMPDEST SWAP1 PUSH1 0x1 DUP1 PUSH1 0xA0 SHL SUB SWAP2 DUP3 SWAP2 SLOAD SWAP1 PUSH1 0x3 SHL SHR AND DUP1 DUP6 MSTORE PUSH1 0x20 SWAP2 PUSH1 0xB DUP4 MSTORE PUSH1 0x40 SWAP3 DUP2 DUP5 DUP9 KECCAK256 SLOAD AND SWAP1 DUP5 MLOAD SWAP3 PUSH4 0x70A08231 PUSH1 0xE0 SHL DUP5 MSTORE DUP2 DUP5 PUSH1 0x24 DUP2 PUSH1 0x4 SWAP7 ADDRESS DUP9 DUP4 ADD MSTORE GAS STATICCALL SWAP4 DUP5 ISZERO PUSH2 0x1DCE JUMPI DUP10 SWAP5 PUSH2 0x1D9D JUMPI JUMPDEST POP PUSH2 0x1D00 DUP3 SWAP2 DUP7 DUP12 MSTORE PUSH1 0x1 DUP4 MSTORE DUP8 DUP12 KECCAK256 SLOAD AND PUSH2 0x1CFB DUP2 ISZERO ISZERO PUSH2 0x1C00 JUMP JUMPDEST PUSH2 0x33CA JUMP JUMPDEST SWAP5 DUP7 MLOAD SWAP4 DUP5 DUP1 SWAP3 PUSH4 0x313CE567 PUSH1 0xE0 SHL DUP3 MSTORE GAS STATICCALL SWAP5 DUP6 ISZERO PUSH2 0x1D94 JUMPI POP SWAP3 PUSH2 0x1D46 SWAP3 PUSH2 0x1D4C SWAP6 SWAP3 PUSH2 0x1D52 SWAP8 SWAP6 DUP11 SWAP5 PUSH2 0x1D59 JUMPI JUMPDEST POP POP PUSH2 0xD64 SWAP2 PUSH2 0x1D40 SWAP2 PUSH2 0x1AC1 JUMP JUMPDEST SWAP2 PUSH2 0x1C5C JUMP JUMPDEST SWAP1 PUSH2 0x19F2 JUMP JUMPDEST SWAP4 PUSH2 0x1BF1 JUMP JUMPDEST SWAP2 SWAP1 PUSH2 0x1C75 JUMP JUMPDEST PUSH2 0x1D40 SWAP3 SWAP5 POP PUSH2 0xD64 SWAP4 SWAP2 DUP2 PUSH2 0x1D83 SWAP3 SWAP1 RETURNDATASIZE LT PUSH2 0x1D8D JUMPI JUMPDEST PUSH2 0x1D7B DUP2 DUP4 PUSH2 0x1A5B JUMP JUMPDEST DUP2 ADD SWAP1 PUSH2 0x1C43 JUMP JUMPDEST SWAP4 SWAP2 DUP2 SWAP4 POP PUSH2 0x1D31 JUMP JUMPDEST POP RETURNDATASIZE PUSH2 0x1D71 JUMP JUMPDEST MLOAD RETURNDATASIZE DUP10 DUP3 RETURNDATACOPY RETURNDATASIZE SWAP1 REVERT JUMPDEST SWAP1 SWAP4 POP DUP2 DUP2 DUP2 RETURNDATASIZE DUP4 GT PUSH2 0x1DC7 JUMPI JUMPDEST PUSH2 0x1DB5 DUP2 DUP4 PUSH2 0x1A5B JUMP JUMPDEST DUP2 ADD SUB SLT PUSH2 0x13CD JUMPI MLOAD SWAP3 PUSH2 0x1D00 PUSH2 0x1CDE JUMP JUMPDEST POP RETURNDATASIZE PUSH2 0x1DAB JUMP JUMPDEST DUP7 MLOAD RETURNDATASIZE DUP12 DUP3 RETURNDATACOPY RETURNDATASIZE SWAP1 REVERT JUMPDEST ISZERO PUSH2 0x1DDF JUMPI JUMP JUMPDEST PUSH1 0x40 MLOAD PUSH3 0x461BCD PUSH1 0xE5 SHL DUP2 MSTORE PUSH1 0x20 PUSH1 0x4 DUP3 ADD MSTORE PUSH1 0xD PUSH1 0x24 DUP3 ADD MSTORE PUSH13 0x13DB9B1E481059D95B9D12DA5D PUSH1 0x9A SHL PUSH1 0x44 DUP3 ADD MSTORE PUSH1 0x64 SWAP1 REVERT JUMPDEST DUP1 MLOAD ISZERO PUSH2 0x19A1 JUMPI PUSH1 0x20 ADD SWAP1 JUMP JUMPDEST DUP1 MLOAD PUSH1 0x1 LT ISZERO PUSH2 0x19A1 JUMPI PUSH1 0x40 ADD SWAP1 JUMP JUMPDEST DUP1 MLOAD PUSH1 0x2 LT ISZERO PUSH2 0x19A1 JUMPI PUSH1 0x60 ADD SWAP1 JUMP JUMPDEST DUP1 MLOAD DUP3 LT ISZERO PUSH2 0x19A1 JUMPI PUSH1 0x20 SWAP2 PUSH1 0x5 SHL ADD ADD SWAP1 JUMP JUMPDEST PUSH20 0xA1A245CC76414DC143687D9C3DE1152396F352D6 PUSH1 0x0 SWAP1 DUP1 DUP3 MSTORE PUSH1 0x20 SWAP1 PUSH1 0xC DUP3 MSTORE PUSH1 0x40 DUP1 DUP5 KECCAK256 DUP2 MLOAD SWAP1 PUSH2 0x1E88 DUP3 PUSH2 0x1A15 JUMP JUMPDEST DUP1 SLOAD DUP3 MSTORE PUSH1 0x1 SWAP7 DUP8 DUP3 ADD SLOAD DUP7 DUP5 ADD SWAP1 DUP2 MSTORE PUSH1 0x3 PUSH1 0x2 DUP5 ADD SLOAD SWAP4 DUP7 DUP7 ADD SWAP5 DUP6 MSTORE ADD SWAP4 DUP6 MLOAD DUP1 DUP7 DUP11 DUP3 SWAP9 SLOAD SWAP4 DUP5 DUP2 MSTORE ADD SWAP1 DUP13 MSTORE DUP11 DUP13 KECCAK256 SWAP3 DUP14 DUP14 SWAP1 JUMPDEST DUP14 DUP4 DUP4 LT PUSH2 0x2830 JUMPI POP POP POP POP PUSH2 0x1ED9 SWAP3 POP SUB DUP7 PUSH2 0x1A5B JUMP JUMPDEST PUSH1 0x60 DUP2 ADD SWAP5 DUP6 MSTORE DUP1 MLOAD ISZERO PUSH2 0x2418 JUMPI PUSH2 0x1EEF PUSH2 0x2E6A JUMP JUMPDEST SWAP4 PUSH2 0x2710 SWAP5 DUP6 DUP2 MUL SWAP1 DUP1 DUP3 DIV DUP8 EQ SWAP1 ISZERO OR ISZERO PUSH2 0x27C4 JUMPI PUSH2 0x1F12 DUP6 PUSH2 0x1F1D SWAP3 PUSH2 0x1BB4 JUMP JUMPDEST SWAP4 DUP4 MLOAD SWAP1 MLOAD SWAP1 PUSH2 0x19F2 JUMP JUMPDEST DUP4 GT ISZERO PUSH2 0x23FD JUMPI POP PUSH2 0x1F3A SWAP3 SWAP2 PUSH2 0x1F35 SWAP2 MLOAD SWAP1 PUSH2 0x1B38 JUMP JUMPDEST PUSH2 0x1AC1 JUMP JUMPDEST DIV SWAP1 DUP1 MLOAD DUP4 MLOAD SWAP1 PUSH4 0x313CE567 PUSH1 0xE0 SHL SWAP2 DUP3 DUP2 MSTORE PUSH1 0x4 SWAP2 DUP9 DUP3 DUP5 DUP2 DUP12 GAS STATICCALL SWAP2 DUP3 ISZERO PUSH2 0x23F3 JUMPI DUP11 SWAP3 PUSH2 0x23D4 JUMPI JUMPDEST POP DUP8 DUP11 MSTORE DUP11 DUP10 MSTORE DUP7 DUP11 KECCAK256 SLOAD DUP8 MLOAD DUP6 DUP2 MSTORE PUSH1 0x1 PUSH1 0x1 PUSH1 0xA0 SHL SUB SWAP6 SWAP1 SWAP4 SWAP1 SWAP2 DUP7 AND DUP12 DUP6 DUP8 DUP2 DUP5 GAS STATICCALL SWAP5 DUP6 ISZERO PUSH2 0x23CA JUMPI DUP13 DUP15 SWAP7 PUSH2 0x2397 JUMPI JUMPDEST POP POP SWAP1 PUSH2 0xD64 PUSH2 0x1D40 PUSH2 0x1FAF PUSH2 0x1FB5 SWAP5 PUSH2 0x33CA JUMP JUMPDEST DUP12 PUSH2 0x1AC1 JUMP JUMPDEST DUP3 MLOAD SWAP1 SWAP3 PUSH1 0x0 NOT DUP3 ADD SWAP2 DUP3 GT PUSH2 0x2384 JUMPI PUSH2 0x1FD1 DUP13 SWAP3 DUP9 SWAP3 PUSH2 0x1E41 JUMP JUMPDEST MLOAD AND SWAP2 DUP6 DUP11 MLOAD DUP1 SWAP5 DUP2 SWAP4 DUP3 MSTORE GAS STATICCALL SWAP1 DUP2 ISZERO PUSH2 0x2245 JUMPI SWAP3 PUSH2 0xD64 PUSH2 0x1D40 PUSH2 0x2017 SWAP5 PUSH2 0x200C DUP16 SWAP6 DUP16 SWAP9 PUSH1 0x64 SWAP10 PUSH2 0x2012 SWAP9 SWAP3 PUSH2 0x2367 JUMPI JUMPDEST POP POP PUSH2 0x1C5C JUMP JUMPDEST SWAP1 PUSH2 0x1AC1 JUMP JUMPDEST PUSH2 0x1AAB JUMP JUMPDEST DIV SWAP3 MLOAD PUSH2 0x2022 PUSH2 0x1B45 JUMP JUMPDEST DUP7 DUP4 PUSH2 0x202D DUP4 PUSH2 0x1E14 JUMP JUMPDEST MLOAD AND SUB PUSH2 0x2324 JUMPI DUP6 MLOAD PUSH4 0x70A08231 PUSH1 0xE0 SHL DUP1 DUP3 MSTORE ADDRESS DUP5 DUP4 ADD MSTORE PUSH1 0x24 SWAP6 SWAP1 SWAP2 DUP11 DUP2 DUP9 DUP2 DUP14 GAS STATICCALL SWAP1 DUP2 ISZERO PUSH2 0x2283 JUMPI DUP9 DUP12 DUP15 DUP15 SWAP4 DUP2 SWAP6 PUSH2 0x22EF JUMPI JUMPDEST POP PUSH2 0x2075 DUP4 PUSH2 0x20AB SWAP7 LT ISZERO PUSH2 0x1B68 JUMP JUMPDEST DUP9 SLOAD DUP14 MLOAD PUSH4 0x95EA7B3 PUSH1 0xE0 SHL DUP2 MSTORE SWAP1 DUP12 AND PUSH1 0x1 PUSH1 0x1 PUSH1 0xA0 SHL SUB AND DUP2 DUP12 ADD SWAP1 DUP2 MSTORE PUSH1 0x20 DUP2 ADD SWAP5 SWAP1 SWAP5 MSTORE SWAP5 DUP6 SWAP4 DUP5 SWAP3 SWAP2 DUP4 SWAP2 PUSH1 0x40 ADD SWAP1 JUMP JUMPDEST SUB SWAP3 GAS CALL DUP1 ISZERO PUSH2 0x2283 JUMPI PUSH2 0x22D2 JUMPI JUMPDEST POP DUP3 MLOAD PUSH1 0x0 NOT DUP2 ADD SWAP1 DUP2 GT PUSH2 0x224F JUMPI SWAP1 DUP11 DUP7 PUSH2 0x20D7 DUP10 SWAP5 DUP8 PUSH2 0x1E41 JUMP JUMPDEST MLOAD AND DUP11 MLOAD SWAP4 DUP5 DUP1 SWAP3 DUP8 DUP3 MSTORE ADDRESS DUP11 DUP4 ADD MSTORE GAS STATICCALL SWAP2 DUP3 ISZERO PUSH2 0x2283 JUMPI DUP13 SWAP3 PUSH2 0x229F JUMPI JUMPDEST POP DUP6 DUP6 SLOAD AND SWAP1 PUSH2 0x384 TIMESTAMP ADD DUP1 TIMESTAMP GT PUSH2 0x228D JUMPI DUP7 SWAP3 DUP15 SWAP3 DUP4 DUP13 PUSH2 0x2131 DUP16 SWAP6 DUP12 SWAP7 MLOAD SWAP9 DUP10 SWAP8 DUP9 SWAP7 DUP8 SWAP6 PUSH4 0x38ED1739 PUSH1 0xE0 SHL DUP8 MSTORE ADDRESS SWAP4 DUP8 ADD PUSH2 0x2D92 JUMP JUMPDEST SUB SWAP3 GAS CALL DUP1 ISZERO PUSH2 0x2283 JUMPI PUSH2 0x2261 JUMPI JUMPDEST POP DUP3 MLOAD PUSH1 0x0 NOT DUP2 ADD SWAP1 DUP2 GT PUSH2 0x224F JUMPI DUP6 PUSH2 0x215B DUP13 SWAP3 DUP7 PUSH2 0x1E41 JUMP JUMPDEST MLOAD AND SWAP3 DUP8 DUP11 MLOAD DUP1 SWAP6 DUP2 SWAP4 DUP3 MSTORE ADDRESS DUP10 DUP4 ADD MSTORE GAS STATICCALL DUP1 ISZERO PUSH2 0x2245 JUMPI DUP12 SWAP1 PUSH2 0x2214 JUMPI JUMPDEST PUSH2 0x2185 SWAP3 POP PUSH2 0x1B38 JUMP JUMPDEST SWAP4 DUP8 DUP11 MSTORE PUSH1 0x8 DUP10 MSTORE DUP7 DUP11 KECCAK256 PUSH2 0x219B DUP8 DUP3 SLOAD PUSH2 0x1B38 JUMP JUMPDEST SWAP1 SSTORE DUP2 MLOAD PUSH1 0x0 NOT DUP2 ADD SWAP4 SWAP1 DUP5 GT PUSH2 0x2203 JUMPI POP POP PUSH32 0xDD36740E2A012D93061A0D99EAA9107860955DE4E90027D3CF465A055026C407 SWAP6 SWAP5 SWAP4 SWAP3 SWAP2 PUSH2 0x21DD SWAP2 PUSH2 0x1E41 JUMP JUMPDEST MLOAD AND SWAP6 DUP7 DUP9 MSTORE PUSH1 0x8 DUP2 MSTORE DUP4 DUP9 KECCAK256 PUSH2 0x21F5 DUP4 DUP3 SLOAD PUSH2 0x19F2 JUMP JUMPDEST SWAP1 SSTORE DUP4 MLOAD SWAP3 DUP4 MSTORE DUP3 ADD MSTORE LOG3 SSTORE JUMP JUMPDEST PUSH4 0x4E487B71 PUSH1 0xE0 SHL DUP12 MSTORE PUSH1 0x11 SWAP1 MSTORE DUP10 REVERT JUMPDEST POP SWAP1 DUP10 DUP2 DUP2 RETURNDATASIZE DUP4 GT PUSH2 0x223E JUMPI JUMPDEST PUSH2 0x222B DUP2 DUP4 PUSH2 0x1A5B JUMP JUMPDEST DUP2 ADD SUB SLT PUSH2 0x13C9 JUMPI SWAP1 PUSH2 0x2185 SWAP2 MLOAD PUSH2 0x217B JUMP JUMPDEST POP RETURNDATASIZE PUSH2 0x2221 JUMP JUMPDEST DUP9 MLOAD RETURNDATASIZE DUP14 DUP3 RETURNDATACOPY RETURNDATASIZE SWAP1 REVERT JUMPDEST PUSH4 0x4E487B71 PUSH1 0xE0 SHL DUP13 MSTORE PUSH1 0x11 DUP6 MSTORE DUP7 DUP13 REVERT JUMPDEST PUSH2 0x227C SWAP1 RETURNDATASIZE DUP1 DUP15 DUP4 RETURNDATACOPY PUSH2 0x2274 DUP2 DUP4 PUSH2 0x1A5B JUMP JUMPDEST DUP2 ADD SWAP1 PUSH2 0x2CDB JUMP JUMPDEST POP CODESIZE PUSH2 0x2140 JUMP JUMPDEST DUP10 MLOAD RETURNDATASIZE DUP15 DUP3 RETURNDATACOPY RETURNDATASIZE SWAP1 REVERT JUMPDEST PUSH4 0x4E487B71 PUSH1 0xE0 SHL DUP15 MSTORE PUSH1 0x11 DUP8 MSTORE DUP9 DUP15 REVERT JUMPDEST SWAP1 SWAP2 POP DUP11 DUP2 DUP2 RETURNDATASIZE DUP4 GT PUSH2 0x22CB JUMPI JUMPDEST PUSH2 0x22B7 DUP2 DUP4 PUSH2 0x1A5B JUMP JUMPDEST DUP2 ADD SUB SLT PUSH2 0x22C7 JUMPI MLOAD SWAP1 CODESIZE PUSH2 0x20F7 JUMP JUMPDEST DUP12 DUP1 REVERT JUMPDEST POP RETURNDATASIZE PUSH2 0x22AD JUMP JUMPDEST PUSH2 0x22E8 SWAP1 DUP12 RETURNDATASIZE DUP14 GT PUSH2 0x45C JUMPI PUSH2 0x44D DUP2 DUP4 PUSH2 0x1A5B JUMP JUMPDEST POP CODESIZE PUSH2 0x20BA JUMP JUMPDEST SWAP5 POP POP POP POP DUP2 DUP2 RETURNDATASIZE DUP4 GT PUSH2 0x231D JUMPI JUMPDEST PUSH2 0x2308 DUP2 DUP4 PUSH2 0x1A5B JUMP JUMPDEST DUP2 ADD SUB SLT PUSH2 0x22C7 JUMPI MLOAD DUP11 DUP9 DUP12 DUP15 PUSH2 0x2075 PUSH2 0x2065 JUMP JUMPDEST POP RETURNDATASIZE PUSH2 0x22FE JUMP JUMPDEST DUP6 MLOAD PUSH3 0x461BCD PUSH1 0xE5 SHL DUP2 MSTORE DUP1 DUP4 ADD DUP10 SWAP1 MSTORE PUSH1 0x1A PUSH1 0x24 DUP3 ADD MSTORE PUSH32 0x50617468206D757374207374617274207769746820746F6B656E000000000000 PUSH1 0x44 DUP3 ADD MSTORE PUSH1 0x64 SWAP1 REVERT JUMPDEST PUSH2 0x237D SWAP3 POP DUP1 RETURNDATASIZE LT PUSH2 0x1D8D JUMPI PUSH2 0x1D7B DUP2 DUP4 PUSH2 0x1A5B JUMP JUMPDEST DUP16 DUP1 PUSH2 0x2005 JUMP JUMPDEST PUSH4 0x4E487B71 PUSH1 0xE0 SHL DUP14 MSTORE PUSH1 0x11 DUP7 MSTORE PUSH1 0x24 DUP14 REVERT JUMPDEST PUSH2 0x1FB5 SWAP4 SWAP3 SWAP7 POP PUSH2 0x1FAF PUSH2 0x23BE PUSH2 0xD64 SWAP4 DUP4 PUSH2 0x1D40 SWAP5 SWAP1 RETURNDATASIZE LT PUSH2 0x1D8D JUMPI PUSH2 0x1D7B DUP2 DUP4 PUSH2 0x1A5B JUMP JUMPDEST SWAP8 SWAP4 SWAP5 POP POP POP DUP13 PUSH2 0x1F9A JUMP JUMPDEST DUP11 MLOAD RETURNDATASIZE DUP16 DUP3 RETURNDATACOPY RETURNDATASIZE SWAP1 REVERT JUMPDEST PUSH2 0x23EC SWAP2 SWAP3 POP DUP10 RETURNDATASIZE DUP12 GT PUSH2 0x1D8D JUMPI PUSH2 0x1D7B DUP2 DUP4 PUSH2 0x1A5B JUMP JUMPDEST SWAP1 CODESIZE PUSH2 0x1F65 JUMP JUMPDEST DUP8 MLOAD RETURNDATASIZE DUP13 DUP3 RETURNDATACOPY RETURNDATASIZE SWAP1 REVERT JUMPDEST DUP2 MLOAD SWAP1 MLOAD SWAP8 SWAP9 SWAP6 SWAP8 SWAP3 SWAP4 SWAP3 PUSH2 0x2411 SWAP2 PUSH2 0x1B38 JUMP JUMPDEST DUP4 LT PUSH2 0x2424 JUMPI JUMPDEST POP POP POP POP POP POP POP POP POP POP JUMP JUMPDEST PUSH2 0x2432 SWAP3 PUSH2 0x1F35 SWAP2 MLOAD PUSH2 0x1B38 JUMP JUMPDEST DIV SWAP3 PUSH2 0x243D DUP5 PUSH2 0x2DCB JUMP JUMPDEST DUP6 DUP8 MSTORE DUP8 DUP4 MSTORE DUP4 DUP8 KECCAK256 SLOAD SWAP1 SWAP5 PUSH1 0x1 PUSH1 0x1 PUSH1 0xA0 SHL SUB SWAP2 PUSH2 0x245D SWAP1 DUP4 AND PUSH2 0x33CA JUMP JUMPDEST PUSH8 0xDE0B6B3A7640000 DUP1 DUP4 MUL SWAP1 DUP4 DUP3 DIV EQ DUP4 ISZERO OR ISZERO PUSH2 0x281C JUMPI PUSH2 0x2485 PUSH1 0x64 SWAP3 PUSH2 0x248A SWAP3 PUSH2 0x1BB4 JUMP JUMPDEST PUSH2 0x1A95 JUMP JUMPDEST DIV SWAP3 MLOAD SWAP1 PUSH2 0x2496 PUSH2 0x1B45 JUMP JUMPDEST DUP3 DUP1 PUSH2 0x24A1 DUP5 PUSH2 0x1E14 JUMP JUMPDEST MLOAD AND SWAP8 AND DUP1 SWAP8 SUB PUSH2 0x27D8 JUMPI DUP2 MLOAD PUSH1 0x0 NOT SWAP5 SWAP1 DUP6 DUP2 ADD SWAP1 DUP2 GT PUSH2 0x27C4 JUMPI DUP5 PUSH2 0x24C9 DUP12 SWAP3 DUP7 PUSH2 0x1E41 JUMP JUMPDEST MLOAD AND SUB PUSH2 0x2780 JUMPI DUP8 DUP11 MSTORE PUSH1 0x8 DUP7 MSTORE DUP1 DUP8 DUP12 KECCAK256 SLOAD LT PUSH2 0x273C JUMPI PUSH1 0x4 DUP1 SLOAD DUP9 MLOAD PUSH4 0x95EA7B3 PUSH1 0xE0 SHL DUP2 MSTORE SWAP1 DUP7 AND PUSH1 0x1 PUSH1 0x1 PUSH1 0xA0 SHL SUB AND DUP2 DUP4 ADD MSTORE PUSH1 0x24 DUP2 ADD DUP4 SWAP1 MSTORE SWAP1 SWAP7 SWAP6 SWAP5 SWAP4 SWAP3 SWAP2 SWAP1 DUP7 DUP2 PUSH1 0x44 DUP2 DUP16 DUP15 GAS CALL DUP1 ISZERO PUSH2 0x2283 JUMPI SWAP1 DUP11 SWAP5 SWAP4 SWAP3 SWAP2 PUSH2 0x271F JUMPI JUMPDEST POP DUP9 MLOAD SWAP5 DUP8 DUP7 PUSH1 0x24 DUP2 PUSH4 0x70A08231 PUSH1 0xE0 SHL SWAP9 DUP10 DUP3 MSTORE DUP14 ADDRESS SWAP1 DUP4 ADD MSTORE GAS STATICCALL SWAP6 DUP7 ISZERO PUSH2 0x23CA JUMPI DUP14 SWAP7 PUSH2 0x26EC JUMPI JUMPDEST POP DUP9 SLOAD AND SWAP2 PUSH2 0x384 TIMESTAMP ADD DUP1 TIMESTAMP GT PUSH2 0x26D9 JUMPI SWAP2 DUP14 DUP1 SWAP5 SWAP3 PUSH2 0x258F DUP13 SWAP10 SWAP9 SWAP8 SWAP6 DUP15 MLOAD SWAP11 DUP12 SWAP8 DUP9 SWAP7 DUP8 SWAP6 PUSH4 0x4401EDF7 PUSH1 0xE1 SHL DUP8 MSTORE ADDRESS SWAP4 DUP8 ADD PUSH2 0x2D92 JUMP JUMPDEST SUB SWAP3 GAS CALL SWAP3 DUP4 ISZERO PUSH2 0x23F3 JUMPI DUP11 SWAP4 PUSH2 0x26BD JUMPI JUMPDEST POP DUP7 MLOAD SWAP1 DUP2 MSTORE ADDRESS DUP7 DUP3 ADD MSTORE DUP5 DUP2 PUSH1 0x24 DUP2 DUP12 GAS STATICCALL SWAP1 DUP2 ISZERO PUSH2 0x23F3 JUMPI DUP11 SWAP2 PUSH2 0x268E JUMPI JUMPDEST POP PUSH2 0x25CC SWAP2 PUSH2 0x1B38 JUMP JUMPDEST SWAP4 DUP7 DUP10 MSTORE PUSH1 0x8 DUP5 MSTORE DUP6 DUP10 KECCAK256 PUSH2 0x25E2 DUP7 DUP3 SLOAD PUSH2 0x1B38 JUMP JUMPDEST SWAP1 SSTORE DUP2 MLOAD DUP4 DUP2 ADD SWAP1 DUP2 GT PUSH2 0x267B JUMPI PUSH2 0x25FA SWAP1 DUP4 PUSH2 0x1E41 JUMP JUMPDEST MLOAD DUP9 DUP11 MSTORE PUSH1 0x8 DUP6 MSTORE PUSH2 0x2610 DUP8 DUP12 KECCAK256 SWAP2 DUP3 SLOAD PUSH2 0x19F2 JUMP JUMPDEST SWAP1 SSTORE DUP2 MLOAD SWAP3 DUP4 ADD SWAP3 DUP4 GT PUSH2 0x2668 JUMPI POP PUSH32 0xDD36740E2A012D93061A0D99EAA9107860955DE4E90027D3CF465A055026C407 SWAP5 SWAP4 SWAP3 SWAP2 PUSH2 0x264D SWAP2 PUSH2 0x1E41 JUMP JUMPDEST MLOAD SWAP1 DUP4 MLOAD SWAP3 DUP4 MSTORE DUP3 ADD MSTORE LOG3 SSTORE CODESIZE DUP1 DUP1 DUP1 DUP1 DUP1 DUP1 DUP1 DUP1 DUP1 PUSH2 0x2418 JUMP JUMPDEST PUSH4 0x4E487B71 PUSH1 0xE0 SHL DUP10 MSTORE PUSH1 0x11 SWAP1 MSTORE PUSH1 0x24 DUP9 REVERT JUMPDEST PUSH4 0x4E487B71 PUSH1 0xE0 SHL DUP11 MSTORE PUSH1 0x11 DUP3 MSTORE PUSH1 0x24 DUP11 REVERT JUMPDEST SWAP1 POP DUP5 DUP2 DUP2 RETURNDATASIZE DUP4 GT PUSH2 0x26B6 JUMPI JUMPDEST PUSH2 0x26A5 DUP2 DUP4 PUSH2 0x1A5B JUMP JUMPDEST DUP2 ADD SUB SLT PUSH2 0x631 JUMPI MLOAD PUSH2 0x25CC PUSH2 0x25C2 JUMP JUMPDEST POP RETURNDATASIZE PUSH2 0x269B JUMP JUMPDEST PUSH2 0x26D2 SWAP2 SWAP4 POP RETURNDATASIZE DUP1 DUP13 DUP4 RETURNDATACOPY PUSH2 0x2274 DUP2 DUP4 PUSH2 0x1A5B JUMP JUMPDEST SWAP2 CODESIZE PUSH2 0x25A1 JUMP JUMPDEST PUSH4 0x4E487B71 PUSH1 0xE0 SHL DUP15 MSTORE PUSH1 0x11 DUP11 MSTORE PUSH1 0x24 DUP15 REVERT JUMPDEST SWAP1 SWAP6 POP DUP8 DUP2 DUP2 RETURNDATASIZE DUP4 GT PUSH2 0x2718 JUMPI JUMPDEST PUSH2 0x2704 DUP2 DUP4 PUSH2 0x1A5B JUMP JUMPDEST DUP2 ADD SUB SLT PUSH2 0x2714 JUMPI MLOAD SWAP5 CODESIZE PUSH2 0x2555 JUMP JUMPDEST DUP13 DUP1 REVERT JUMPDEST POP RETURNDATASIZE PUSH2 0x26FA JUMP JUMPDEST PUSH2 0x2735 SWAP1 DUP9 RETURNDATASIZE DUP11 GT PUSH2 0x45C JUMPI PUSH2 0x44D DUP2 DUP4 PUSH2 0x1A5B JUMP JUMPDEST POP CODESIZE PUSH2 0x252A JUMP JUMPDEST DUP7 MLOAD PUSH3 0x461BCD PUSH1 0xE5 SHL DUP2 MSTORE PUSH1 0x4 DUP2 ADD DUP8 SWAP1 MSTORE PUSH1 0x1B PUSH1 0x24 DUP3 ADD MSTORE PUSH32 0x496E73756666696369656E7420737461626C652062616C616E63650000000000 PUSH1 0x44 DUP3 ADD MSTORE PUSH1 0x64 SWAP1 REVERT JUMPDEST DUP7 MLOAD PUSH3 0x461BCD PUSH1 0xE5 SHL DUP2 MSTORE PUSH1 0x4 DUP2 ADD DUP8 SWAP1 MSTORE PUSH1 0x19 PUSH1 0x24 DUP3 ADD MSTORE PUSH32 0x50617468206D75737420656E6420776974682074617267657400000000000000 PUSH1 0x44 DUP3 ADD MSTORE PUSH1 0x64 SWAP1 REVERT JUMPDEST PUSH4 0x4E487B71 PUSH1 0xE0 SHL DUP12 MSTORE PUSH1 0x11 PUSH1 0x4 MSTORE PUSH1 0x24 DUP12 REVERT JUMPDEST DUP6 MLOAD PUSH3 0x461BCD PUSH1 0xE5 SHL DUP2 MSTORE PUSH1 0x4 DUP2 ADD DUP7 SWAP1 MSTORE PUSH1 0x1F PUSH1 0x24 DUP3 ADD MSTORE PUSH32 0x50617468206D757374207374617274207769746820737461626C65636F696E00 PUSH1 0x44 DUP3 ADD MSTORE PUSH1 0x64 SWAP1 REVERT JUMPDEST PUSH4 0x4E487B71 PUSH1 0xE0 SHL DUP11 MSTORE PUSH1 0x11 PUSH1 0x4 MSTORE PUSH1 0x24 DUP11 REVERT JUMPDEST DUP7 SLOAD PUSH1 0x1 PUSH1 0x1 PUSH1 0xA0 SHL SUB AND DUP6 MSTORE SWAP6 DUP2 ADD SWAP6 DUP12 SWAP6 POP SWAP1 SWAP4 ADD SWAP3 ADD DUP15 PUSH2 0x1EC1 JUMP JUMPDEST SWAP1 PUSH1 0x1 DUP1 PUSH1 0xA0 SHL SUB DUP1 DUP4 AND PUSH1 0x0 SWAP3 DUP2 DUP5 MSTORE PUSH1 0x20 SWAP3 PUSH1 0xC DUP5 MSTORE DUP4 PUSH1 0x40 SWAP3 DUP4 DUP8 KECCAK256 SWAP1 DUP5 MLOAD SWAP9 PUSH2 0x287B DUP11 PUSH2 0x1A15 JUMP JUMPDEST DUP3 SLOAD DUP11 MSTORE PUSH1 0x1 SWAP10 DUP11 DUP5 ADD SLOAD SWAP2 DUP6 DUP3 ADD SWAP3 DUP4 MSTORE DUP11 DUP13 PUSH1 0x3 PUSH1 0x2 DUP9 ADD SLOAD SWAP8 DUP12 DUP7 ADD SWAP9 DUP10 MSTORE ADD DUP11 MLOAD DUP1 SWAP10 DUP11 SWAP4 DUP2 DUP5 SLOAD SWAP4 DUP5 DUP2 MSTORE ADD SWAP4 DUP7 MSTORE DUP2 DUP7 KECCAK256 SWAP6 SWAP2 JUMPDEST DUP4 DUP4 LT PUSH2 0x2CBB JUMPI POP POP POP POP PUSH2 0x28CC SWAP3 POP SUB DUP8 PUSH2 0x1A5B JUMP JUMPDEST PUSH1 0x60 DUP3 ADD SWAP6 DUP7 MSTORE DUP2 MLOAD ISZERO PUSH2 0x2CAD JUMPI PUSH2 0x28E3 SWAP1 PUSH2 0x31D4 JUMP JUMPDEST SWAP4 PUSH2 0x2710 SWAP5 DUP6 DUP2 MUL SWAP1 DUP1 DUP3 DIV DUP8 EQ SWAP1 ISZERO OR ISZERO PUSH2 0x2C99 JUMPI PUSH2 0x1F12 DUP6 PUSH2 0x2906 SWAP3 PUSH2 0x1BB4 JUMP JUMPDEST DUP4 GT ISZERO PUSH2 0x29A5 JUMPI POP PUSH2 0x291E SWAP3 SWAP2 PUSH2 0x1F35 SWAP2 MLOAD SWAP1 PUSH2 0x1B38 JUMP JUMPDEST DIV SWAP2 DUP2 MLOAD DUP5 MLOAD PUSH4 0x313CE567 PUSH1 0xE0 SHL SWAP2 DUP3 DUP3 MSTORE PUSH1 0x4 SWAP3 DUP10 DUP4 DUP6 DUP2 DUP13 GAS STATICCALL SWAP3 DUP4 ISZERO PUSH2 0x2245 JUMPI DUP12 SWAP4 PUSH2 0x2986 JUMPI JUMPDEST POP DUP9 DUP12 MSTORE DUP12 DUP11 MSTORE DUP5 DUP9 DUP13 KECCAK256 SLOAD AND SWAP3 DUP9 MLOAD SWAP4 DUP3 DUP6 MSTORE DUP12 DUP6 DUP8 DUP2 DUP5 GAS STATICCALL SWAP5 DUP6 ISZERO PUSH2 0x23CA JUMPI DUP13 DUP15 SWAP7 PUSH2 0x2397 JUMPI POP POP SWAP1 PUSH2 0xD64 PUSH2 0x1D40 PUSH2 0x1FAF PUSH2 0x1FB5 SWAP5 PUSH2 0x33CA JUMP JUMPDEST PUSH2 0x299E SWAP2 SWAP4 POP DUP11 RETURNDATASIZE DUP13 GT PUSH2 0x1D8D JUMPI PUSH2 0x1D7B DUP2 DUP4 PUSH2 0x1A5B JUMP JUMPDEST SWAP2 CODESIZE PUSH2 0x2948 JUMP JUMPDEST DUP2 MLOAD SWAP1 MLOAD SWAP9 SWAP10 SWAP7 SWAP9 SWAP3 SWAP4 SWAP3 PUSH2 0x29B9 SWAP2 PUSH2 0x1B38 JUMP JUMPDEST DUP4 LT PUSH2 0x29CD JUMPI JUMPDEST POP POP POP POP POP POP POP POP POP POP POP JUMP JUMPDEST PUSH2 0x29DB SWAP3 PUSH2 0x1F35 SWAP2 MLOAD PUSH2 0x1B38 JUMP JUMPDEST DIV SWAP4 PUSH2 0x29E6 DUP6 PUSH2 0x2DCB JUMP JUMPDEST SWAP5 DUP7 DUP9 MSTORE DUP9 DUP5 MSTORE PUSH2 0x29FB DUP3 DUP7 DUP11 KECCAK256 SLOAD AND PUSH2 0x33CA JUMP JUMPDEST PUSH8 0xDE0B6B3A7640000 DUP1 DUP4 MUL SWAP1 DUP4 DUP3 DIV EQ DUP4 ISZERO OR ISZERO PUSH2 0x281C JUMPI PUSH2 0x2485 PUSH1 0x64 SWAP3 PUSH2 0x2A23 SWAP3 PUSH2 0x1BB4 JUMP JUMPDEST DIV SWAP3 MLOAD SWAP1 PUSH2 0x2A2F PUSH2 0x1B45 JUMP JUMPDEST DUP3 DUP1 PUSH2 0x2A3A DUP5 PUSH2 0x1E14 JUMP JUMPDEST MLOAD AND SWAP8 AND DUP1 SWAP8 SUB PUSH2 0x27D8 JUMPI DUP2 MLOAD PUSH1 0x0 NOT SWAP5 SWAP1 DUP6 DUP2 ADD SWAP1 DUP2 GT PUSH2 0x27C4 JUMPI DUP5 PUSH2 0x2A62 DUP12 SWAP3 DUP7 PUSH2 0x1E41 JUMP JUMPDEST MLOAD AND SUB PUSH2 0x2780 JUMPI DUP8 DUP11 MSTORE PUSH1 0x8 DUP7 MSTORE DUP1 DUP8 DUP12 KECCAK256 SLOAD LT PUSH2 0x273C JUMPI PUSH1 0x4 DUP1 SLOAD DUP9 MLOAD PUSH4 0x95EA7B3 PUSH1 0xE0 SHL DUP2 MSTORE SWAP1 DUP7 AND PUSH1 0x1 PUSH1 0x1 PUSH1 0xA0 SHL SUB AND DUP2 DUP4 ADD MSTORE PUSH1 0x24 DUP2 ADD DUP4 SWAP1 MSTORE SWAP1 SWAP7 SWAP6 SWAP5 SWAP4 SWAP3 SWAP2 SWAP1 DUP7 DUP2 PUSH1 0x44 DUP2 DUP16 DUP15 GAS CALL DUP1 ISZERO PUSH2 0x2283 JUMPI SWAP1 DUP11 SWAP5 SWAP4 SWAP3 SWAP2 PUSH2 0x2C7C JUMPI JUMPDEST POP DUP9 MLOAD SWAP5 DUP8 DUP7 PUSH1 0x24 DUP2 PUSH4 0x70A08231 PUSH1 0xE0 SHL SWAP9 DUP10 DUP3 MSTORE DUP14 ADDRESS SWAP1 DUP4 ADD MSTORE GAS STATICCALL SWAP6 DUP7 ISZERO PUSH2 0x23CA JUMPI DUP14 SWAP7 PUSH2 0x2C4D JUMPI JUMPDEST POP DUP9 SLOAD AND SWAP2 PUSH2 0x384 TIMESTAMP ADD DUP1 TIMESTAMP GT PUSH2 0x26D9 JUMPI SWAP2 DUP14 DUP1 SWAP5 SWAP3 PUSH2 0x2B28 DUP13 SWAP10 SWAP9 SWAP8 SWAP6 DUP15 MLOAD SWAP11 DUP12 SWAP8 DUP9 SWAP7 DUP8 SWAP6 PUSH4 0x4401EDF7 PUSH1 0xE1 SHL DUP8 MSTORE ADDRESS SWAP4 DUP8 ADD PUSH2 0x2D92 JUMP JUMPDEST SUB SWAP3 GAS CALL SWAP3 DUP4 ISZERO PUSH2 0x23F3 JUMPI DUP11 SWAP4 PUSH2 0x2C31 JUMPI JUMPDEST POP DUP7 MLOAD SWAP1 DUP2 MSTORE ADDRESS DUP7 DUP3 ADD MSTORE DUP5 DUP2 PUSH1 0x24 DUP2 DUP12 GAS STATICCALL SWAP1 DUP2 ISZERO PUSH2 0x23F3 JUMPI DUP11 SWAP2 PUSH2 0x2C02 JUMPI JUMPDEST POP PUSH2 0x2B65 SWAP2 PUSH2 0x1B38 JUMP JUMPDEST SWAP4 DUP7 DUP10 MSTORE PUSH1 0x8 DUP5 MSTORE DUP6 DUP10 KECCAK256 PUSH2 0x2B7B DUP7 DUP3 SLOAD PUSH2 0x1B38 JUMP JUMPDEST SWAP1 SSTORE DUP2 MLOAD DUP4 DUP2 ADD SWAP1 DUP2 GT PUSH2 0x267B JUMPI PUSH2 0x2B93 SWAP1 DUP4 PUSH2 0x1E41 JUMP JUMPDEST MLOAD DUP9 DUP11 MSTORE PUSH1 0x8 DUP6 MSTORE PUSH2 0x2BA9 DUP8 DUP12 KECCAK256 SWAP2 DUP3 SLOAD PUSH2 0x19F2 JUMP JUMPDEST SWAP1 SSTORE DUP2 MLOAD SWAP3 DUP4 ADD SWAP3 DUP4 GT PUSH2 0x2668 JUMPI POP PUSH32 0xDD36740E2A012D93061A0D99EAA9107860955DE4E90027D3CF465A055026C407 SWAP5 SWAP4 SWAP3 SWAP2 PUSH2 0x2BE6 SWAP2 PUSH2 0x1E41 JUMP JUMPDEST MLOAD SWAP1 DUP4 MLOAD SWAP3 DUP4 MSTORE DUP3 ADD MSTORE LOG3 SSTORE CODESIZE DUP1 DUP1 DUP1 DUP1 DUP1 DUP1 DUP1 DUP1 DUP1 DUP1 PUSH2 0x29C0 JUMP JUMPDEST SWAP1 POP DUP5 DUP2 DUP2 RETURNDATASIZE DUP4 GT PUSH2 0x2C2A JUMPI JUMPDEST PUSH2 0x2C19 DUP2 DUP4 PUSH2 0x1A5B JUMP JUMPDEST DUP2 ADD SUB SLT PUSH2 0x631 JUMPI MLOAD PUSH2 0x2B65 PUSH2 0x2B5B JUMP JUMPDEST POP RETURNDATASIZE PUSH2 0x2C0F JUMP JUMPDEST PUSH2 0x2C46 SWAP2 SWAP4 POP RETURNDATASIZE DUP1 DUP13 DUP4 RETURNDATACOPY PUSH2 0x2274 DUP2 DUP4 PUSH2 0x1A5B JUMP JUMPDEST SWAP2 CODESIZE PUSH2 0x2B3A JUMP JUMPDEST SWAP1 SWAP6 POP DUP8 DUP2 DUP2 RETURNDATASIZE DUP4 GT PUSH2 0x2C75 JUMPI JUMPDEST PUSH2 0x2C65 DUP2 DUP4 PUSH2 0x1A5B JUMP JUMPDEST DUP2 ADD SUB SLT PUSH2 0x2714 JUMPI MLOAD SWAP5 CODESIZE PUSH2 0x2AEE JUMP JUMPDEST POP RETURNDATASIZE PUSH2 0x2C5B JUMP JUMPDEST PUSH2 0x2C92 SWAP1 DUP9 RETURNDATASIZE DUP11 GT PUSH2 0x45C JUMPI PUSH2 0x44D DUP2 DUP4 PUSH2 0x1A5B JUMP JUMPDEST POP CODESIZE PUSH2 0x2AC3 JUMP JUMPDEST PUSH4 0x4E487B71 PUSH1 0xE0 SHL DUP13 MSTORE PUSH1 0x11 PUSH1 0x4 MSTORE PUSH1 0x24 DUP13 REVERT JUMPDEST POP POP POP POP POP POP POP POP POP POP POP POP JUMP JUMPDEST SWAP1 SWAP3 SWAP5 POP DUP3 SWAP2 SWAP4 DUP14 DUP8 SLOAD AND DUP2 MSTORE ADD SWAP5 ADD SWAP2 ADD SWAP2 DUP16 SWAP3 DUP11 SWAP4 DUP16 SWAP6 SWAP4 SWAP6 PUSH2 0x28B5 JUMP JUMPDEST PUSH1 0x20 SWAP1 DUP2 DUP2 DUP5 SUB SLT PUSH2 0xBC JUMPI DUP1 MLOAD SWAP1 PUSH8 0xFFFFFFFFFFFFFFFF DUP3 GT PUSH2 0xBC JUMPI ADD SWAP2 DUP1 PUSH1 0x1F DUP5 ADD SLT ISZERO PUSH2 0xBC JUMPI DUP3 MLOAD PUSH2 0x2D11 DUP2 PUSH2 0x1A7D JUMP JUMPDEST SWAP4 PUSH2 0x2D1F PUSH1 0x40 MLOAD SWAP6 DUP7 PUSH2 0x1A5B JUMP JUMPDEST DUP2 DUP6 MSTORE DUP4 DUP1 DUP7 ADD SWAP3 PUSH1 0x5 SHL DUP3 ADD ADD SWAP3 DUP4 GT PUSH2 0xBC JUMPI DUP4 ADD SWAP1 JUMPDEST DUP3 DUP3 LT PUSH2 0x2D46 JUMPI POP POP POP POP SWAP1 JUMP JUMPDEST DUP2 MLOAD DUP2 MSTORE SWAP1 DUP4 ADD SWAP1 DUP4 ADD PUSH2 0x2D38 JUMP JUMPDEST SWAP1 DUP2 MLOAD DUP1 DUP3 MSTORE PUSH1 0x20 DUP1 DUP1 SWAP4 ADD SWAP4 ADD SWAP2 PUSH1 0x0 JUMPDEST DUP3 DUP2 LT PUSH2 0x2D75 JUMPI POP POP POP POP SWAP1 JUMP JUMPDEST DUP4 MLOAD PUSH1 0x1 PUSH1 0x1 PUSH1 0xA0 SHL SUB AND DUP6 MSTORE SWAP4 DUP2 ADD SWAP4 SWAP3 DUP2 ADD SWAP3 PUSH1 0x1 ADD PUSH2 0x2D67 JUMP JUMPDEST SWAP2 SWAP3 PUSH1 0x80 SWAP4 PUSH2 0x2DB7 SWAP3 SWAP8 SWAP7 SWAP6 SWAP8 DUP5 MSTORE PUSH1 0x20 DUP5 ADD MSTORE PUSH1 0xA0 PUSH1 0x40 DUP5 ADD MSTORE PUSH1 0xA0 DUP4 ADD SWAP1 PUSH2 0x2D55 JUMP JUMPDEST PUSH1 0x1 PUSH1 0x1 PUSH1 0xA0 SHL SUB SWAP1 SWAP6 AND PUSH1 0x60 DUP3 ADD MSTORE ADD MSTORE JUMP JUMPDEST PUSH20 0xEBCC972B6B3EB15C0592BE1871838963D0B94278 DUP1 PUSH1 0x0 MSTORE PUSH1 0x8 PUSH1 0x20 MSTORE DUP2 PUSH1 0x40 PUSH1 0x0 KECCAK256 SLOAD LT ISZERO PUSH2 0x2E65 JUMPI POP PUSH20 0xE5118E47E061AB15CA972D045B35193F673BCC36 SWAP1 DUP2 PUSH1 0x0 MSTORE PUSH1 0x40 PUSH1 0x0 KECCAK256 SLOAD LT ISZERO PUSH2 0x2E62 JUMPI PUSH1 0x40 MLOAD PUSH3 0x461BCD PUSH1 0xE5 SHL DUP2 MSTORE PUSH1 0x20 PUSH1 0x4 DUP3 ADD MSTORE PUSH1 0x1D PUSH1 0x24 DUP3 ADD MSTORE PUSH32 0x496E73756666696369656E7420737461626C65206C6971756964697479000000 PUSH1 0x44 DUP3 ADD MSTORE PUSH1 0x64 SWAP1 REVERT JUMPDEST SWAP1 JUMP JUMPDEST SWAP1 POP SWAP1 JUMP JUMPDEST PUSH20 0xA1A245CC76414DC143687D9C3DE1152396F352D6 PUSH1 0x0 DUP2 DUP2 MSTORE PUSH32 0xF20BB01390725C28690ACD1018971A600597A48C38159ED84A30D1508CE2C1D0 SLOAD PUSH1 0xB PUSH1 0x20 SWAP1 DUP2 MSTORE PUSH32 0x8987D145E819DF1AD8B63CF99BC82F2C85F3DF17FEA972E1EB0D591EA3796B5B SLOAD PUSH1 0x40 SWAP4 SWAP3 PUSH1 0x1 PUSH1 0x1 PUSH1 0xA0 SHL SUB SWAP2 DUP3 AND DUP1 PUSH2 0x2F1C JUMPI JUMPDEST POP POP SWAP2 PUSH1 0x8 PUSH2 0x2F18 SWAP5 SWAP3 PUSH2 0x2F0D DUP8 SWAP6 PUSH8 0xDE0B6B3A7640000 SWAP9 DUP6 MSTORE PUSH1 0x1 DUP4 MSTORE DUP6 DUP6 KECCAK256 SLOAD AND PUSH2 0x33CA JUMP JUMPDEST SWAP5 DUP4 MSTORE MSTORE KECCAK256 SLOAD PUSH2 0x1AC1 JUMP JUMPDEST DIV SWAP1 JUMP JUMPDEST SWAP1 DUP4 PUSH1 0x24 SWAP3 DUP8 MLOAD SWAP4 DUP5 DUP1 SWAP3 PUSH4 0x70A08231 PUSH1 0xE0 SHL DUP3 MSTORE ADDRESS PUSH1 0x4 DUP4 ADD MSTORE GAS STATICCALL SWAP2 DUP3 ISZERO PUSH2 0x2FA6 JUMPI DUP6 SWAP3 PUSH2 0x2F75 JUMPI JUMPDEST POP SWAP3 PUSH2 0x2F0D PUSH8 0xDE0B6B3A7640000 SWAP8 SWAP6 SWAP4 PUSH2 0x2F68 PUSH1 0x8 SWAP5 PUSH2 0x2F18 SWAP10 SWAP8 PUSH2 0x19F2 JUMP JUMPDEST POP SWAP4 SWAP6 SWAP8 POP POP SWAP3 SWAP5 PUSH2 0x2EE4 JUMP JUMPDEST SWAP1 SWAP2 POP DUP4 DUP2 DUP2 RETURNDATASIZE DUP4 GT PUSH2 0x2F9F JUMPI JUMPDEST PUSH2 0x2F8D DUP2 DUP4 PUSH2 0x1A5B JUMP JUMPDEST DUP2 ADD SUB SLT PUSH2 0x424 JUMPI MLOAD SWAP1 PUSH2 0x2F0D PUSH2 0x2F47 JUMP JUMPDEST POP RETURNDATASIZE PUSH2 0x2F83 JUMP JUMPDEST DUP7 MLOAD RETURNDATASIZE DUP8 DUP3 RETURNDATACOPY RETURNDATASIZE SWAP1 REVERT JUMPDEST PUSH20 0xEBCC972B6B3EB15C0592BE1871838963D0B94278 PUSH1 0x0 DUP2 DUP2 MSTORE PUSH32 0xC1EBFA9E119F39D0F2B4058535707CB7C4559009232B7BAC5D6DF8DA9BBBBB90 SLOAD PUSH1 0xB PUSH1 0x20 SWAP1 DUP2 MSTORE PUSH32 0x1789710189D8AD726C0FFA590185D3C318AD757466784FF3FF59378D73F38464 SLOAD SWAP3 SWAP5 SWAP4 SWAP3 SWAP1 SWAP2 PUSH1 0x40 SWAP2 PUSH1 0x1 PUSH1 0x1 PUSH1 0xA0 SHL SUB SWAP1 DUP5 SWAP1 DUP3 AND DUP1 PUSH2 0x30BC JUMPI JUMPDEST POP POP PUSH2 0x304F SWAP2 POP DUP5 DUP8 MSTORE PUSH1 0x1 DUP5 MSTORE DUP3 DUP8 KECCAK256 SLOAD AND PUSH2 0x1CFB DUP2 ISZERO ISZERO PUSH2 0x1C00 JUMP JUMPDEST SWAP2 DUP2 MLOAD PUSH4 0x313CE567 PUSH1 0xE0 SHL DUP2 MSTORE DUP2 DUP2 PUSH1 0x4 DUP2 DUP9 GAS STATICCALL SWAP1 DUP2 ISZERO PUSH2 0x30B2 JUMPI PUSH2 0x10F7 SWAP5 SWAP4 SWAP3 PUSH2 0x308A DUP10 SWAP4 PUSH1 0x8 SWAP4 PUSH2 0x2E62 SWAP11 SWAP12 SWAP2 PUSH2 0x3095 JUMPI JUMPDEST POP PUSH2 0x1C5C JUMP JUMPDEST SWAP7 DUP4 MSTORE MSTORE KECCAK256 SLOAD PUSH2 0x1AC1 JUMP JUMPDEST PUSH2 0x30AC SWAP2 POP DUP4 RETURNDATASIZE DUP6 GT PUSH2 0x1D8D JUMPI PUSH2 0x1D7B DUP2 DUP4 PUSH2 0x1A5B JUMP JUMPDEST CODESIZE PUSH2 0x3084 JUMP JUMPDEST DUP4 MLOAD RETURNDATASIZE DUP10 DUP3 RETURNDATACOPY RETURNDATASIZE SWAP1 REVERT JUMPDEST DUP5 MLOAD PUSH4 0x70A08231 PUSH1 0xE0 SHL DUP2 MSTORE ADDRESS PUSH1 0x4 DUP3 ADD MSTORE SWAP2 SWAP1 DUP3 SWAP1 PUSH1 0x24 SWAP1 DUP3 SWAP1 GAS STATICCALL SWAP1 DUP2 ISZERO PUSH2 0x312C JUMPI DUP9 SWAP2 PUSH2 0x30FD JUMPI JUMPDEST POP PUSH2 0x30F5 SWAP1 PUSH2 0x304F SWAP4 PUSH2 0x19F2 JUMP JUMPDEST POP DUP4 CODESIZE PUSH2 0x3031 JUMP JUMPDEST SWAP1 POP DUP5 DUP2 DUP2 RETURNDATASIZE DUP4 GT PUSH2 0x3125 JUMPI JUMPDEST PUSH2 0x3114 DUP2 DUP4 PUSH2 0x1A5B JUMP JUMPDEST DUP2 ADD SUB SLT PUSH2 0x10E5 JUMPI MLOAD PUSH2 0x304F PUSH2 0x30E7 JUMP JUMPDEST POP RETURNDATASIZE PUSH2 0x310A JUMP JUMPDEST DUP5 MLOAD RETURNDATASIZE DUP11 DUP3 RETURNDATACOPY RETURNDATASIZE SWAP1 REVERT JUMPDEST PUSH20 0xE5118E47E061AB15CA972D045B35193F673BCC36 PUSH1 0x0 DUP2 DUP2 MSTORE PUSH32 0x34F46D3D44EABC4FE5C321D97614173C54824AD3EB0BBF65FFC23AEE173994B4 SLOAD PUSH1 0xB PUSH1 0x20 SWAP1 DUP2 MSTORE PUSH32 0x9E374FD2B0E993AC2AC8AFF60BB48807B33B46CE9E8FAD0C2655BDA98083425D SLOAD SWAP3 SWAP5 SWAP4 SWAP3 SWAP1 SWAP2 PUSH1 0x40 SWAP2 PUSH1 0x1 PUSH1 0x1 PUSH1 0xA0 SHL SUB SWAP1 DUP5 SWAP1 DUP3 AND DUP1 PUSH2 0x30BC JUMPI POP POP PUSH2 0x304F SWAP2 POP DUP5 DUP8 MSTORE PUSH1 0x1 DUP5 MSTORE DUP3 DUP8 KECCAK256 SLOAD AND PUSH2 0x1CFB DUP2 ISZERO ISZERO PUSH2 0x1C00 JUMP JUMPDEST SWAP1 PUSH1 0x1 DUP1 PUSH1 0xA0 SHL SUB DUP1 SWAP3 AND PUSH1 0x0 SWAP3 DUP2 DUP5 MSTORE PUSH1 0x20 SWAP1 PUSH1 0x8 DUP3 MSTORE PUSH1 0x40 SWAP1 DUP2 DUP7 KECCAK256 SLOAD PUSH1 0xB DUP5 MSTORE DUP2 DUP4 DUP9 KECCAK256 SLOAD AND SWAP1 DUP5 DUP3 PUSH2 0x3267 JUMPI JUMPDEST POP POP POP PUSH20 0xA1A245CC76414DC143687D9C3DE1152396F352D6 DUP1 DUP6 EQ PUSH2 0x3240 JUMPI POP PUSH2 0x304F SWAP1 DUP5 DUP8 MSTORE PUSH1 0x1 DUP5 MSTORE DUP3 DUP8 KECCAK256 SLOAD AND PUSH2 0x1CFB DUP2 ISZERO ISZERO PUSH2 0x1C00 JUMP JUMPDEST PUSH2 0x2F18 SWAP5 SWAP4 PUSH2 0x2F0D DUP9 SWAP4 PUSH1 0x8 SWAP4 PUSH8 0xDE0B6B3A7640000 SWAP10 SWAP11 MSTORE PUSH1 0x1 DUP4 MSTORE DUP6 DUP6 KECCAK256 SLOAD AND PUSH2 0x33CA JUMP JUMPDEST DUP5 MLOAD PUSH4 0x70A08231 PUSH1 0xE0 SHL DUP2 MSTORE ADDRESS PUSH1 0x4 DUP3 ADD MSTORE SWAP3 DUP4 SWAP1 PUSH1 0x24 SWAP1 DUP3 SWAP1 GAS STATICCALL SWAP1 DUP2 ISZERO PUSH2 0x312C JUMPI DUP9 SWAP2 PUSH2 0x32A4 JUMPI JUMPDEST PUSH2 0x329B SWAP3 POP PUSH2 0x19F2 JUMP JUMPDEST POP CODESIZE DUP1 DUP5 PUSH2 0x3205 JUMP JUMPDEST SWAP1 POP DUP5 DUP3 DUP2 RETURNDATASIZE DUP4 GT PUSH2 0x32CE JUMPI JUMPDEST PUSH2 0x32BB DUP2 DUP4 PUSH2 0x1A5B JUMP JUMPDEST DUP2 ADD SUB SLT PUSH2 0x10E5 JUMPI PUSH2 0x329B SWAP2 MLOAD SWAP1 PUSH2 0x3291 JUMP JUMPDEST POP RETURNDATASIZE PUSH2 0x32B1 JUMP JUMPDEST PUSH2 0x32DD PUSH2 0x2E6A JUMP JUMPDEST PUSH1 0x40 MLOAD PUSH1 0x60 DUP2 ADD DUP2 DUP2 LT PUSH8 0xFFFFFFFFFFFFFFFF DUP3 GT OR PUSH2 0x1A31 JUMPI PUSH1 0x40 MSTORE PUSH1 0x2 DUP2 MSTORE PUSH1 0x40 CALLDATASIZE PUSH1 0x20 DUP4 ADD CALLDATACOPY PUSH20 0xEBCC972B6B3EB15C0592BE1871838963D0B94278 PUSH2 0x3324 DUP3 PUSH2 0x1E14 JUMP JUMPDEST MSTORE PUSH20 0xE5118E47E061AB15CA972D045B35193F673BCC36 PUSH2 0x3343 DUP3 PUSH2 0x1E21 JUMP JUMPDEST MSTORE PUSH1 0x0 SWAP2 JUMPDEST DUP2 MLOAD DUP4 LT ISZERO PUSH2 0x3381 JUMPI PUSH2 0x337B SWAP1 PUSH2 0x3375 SWAP1 PUSH2 0x1D46 PUSH1 0x1 PUSH1 0x1 PUSH1 0xA0 SHL SUB PUSH2 0x336E DUP8 DUP8 PUSH2 0x1E41 JUMP JUMPDEST MLOAD AND PUSH2 0x31D4 JUMP JUMPDEST SWAP3 PUSH2 0x1BF1 JUMP JUMPDEST SWAP2 PUSH2 0x3348 JUMP JUMPDEST SWAP2 POP POP SWAP1 JUMP JUMPDEST PUSH2 0x338F PUSH2 0x2E6A JUMP JUMPDEST PUSH2 0x3397 PUSH2 0x32D5 JUMP JUMPDEST PUSH1 0x64 DUP3 MUL SWAP2 DUP1 DUP4 DIV PUSH1 0x64 EQ SWAP1 ISZERO OR ISZERO PUSH2 0x19FF JUMPI PUSH2 0x2E62 SWAP2 PUSH2 0x1BB4 JUMP JUMPDEST MLOAD SWAP1 PUSH10 0xFFFFFFFFFFFFFFFFFFFF DUP3 AND DUP3 SUB PUSH2 0xBC JUMPI JUMP JUMPDEST PUSH1 0x40 MLOAD PUSH4 0x3FABE5A3 PUSH1 0xE2 SHL DUP2 MSTORE SWAP1 PUSH1 0xA0 SWAP1 DUP3 SWAP1 PUSH1 0x4 SWAP1 DUP3 SWAP1 PUSH1 0x1 PUSH1 0x1 PUSH1 0xA0 SHL SUB AND GAS STATICCALL DUP1 ISZERO PUSH2 0x34D9 JUMPI PUSH1 0x0 SWAP2 DUP3 SWAP2 PUSH2 0x3485 JUMPI JUMPDEST POP PUSH1 0x0 DUP3 SGT ISZERO PUSH2 0x3450 JUMPI PUSH2 0x12B NOT TIMESTAMP ADD SWAP1 TIMESTAMP DUP3 GT PUSH2 0x19FF JUMPI LT PUSH2 0x341D JUMPI SWAP1 JUMP JUMPDEST PUSH1 0x40 MLOAD PUSH3 0x461BCD PUSH1 0xE5 SHL DUP2 MSTORE PUSH1 0x20 PUSH1 0x4 DUP3 ADD MSTORE PUSH1 0xB PUSH1 0x24 DUP3 ADD MSTORE PUSH11 0x5374616C65207072696365 PUSH1 0xA8 SHL PUSH1 0x44 DUP3 ADD MSTORE PUSH1 0x64 SWAP1 REVERT JUMPDEST PUSH1 0x40 MLOAD PUSH3 0x461BCD PUSH1 0xE5 SHL DUP2 MSTORE PUSH1 0x20 PUSH1 0x4 DUP3 ADD MSTORE PUSH1 0xD PUSH1 0x24 DUP3 ADD MSTORE PUSH13 0x496E76616C6964207072696365 PUSH1 0x98 SHL PUSH1 0x44 DUP3 ADD MSTORE PUSH1 0x64 SWAP1 REVERT JUMPDEST SWAP2 SWAP1 POP PUSH1 0xA0 DUP3 RETURNDATASIZE DUP3 GT PUSH2 0x34D1 JUMPI JUMPDEST DUP2 PUSH2 0x34A0 PUSH1 0xA0 SWAP4 DUP4 PUSH2 0x1A5B JUMP JUMPDEST DUP2 ADD SUB SLT PUSH2 0x769 JUMPI POP PUSH2 0x34B2 DUP2 PUSH2 0x33B3 JUMP JUMPDEST POP PUSH1 0x20 DUP2 ADD MLOAD PUSH2 0x34C9 PUSH1 0x80 PUSH1 0x60 DUP5 ADD MLOAD SWAP4 ADD PUSH2 0x33B3 JUMP JUMPDEST POP SWAP1 CODESIZE PUSH2 0x33FD JUMP JUMPDEST RETURNDATASIZE SWAP2 POP PUSH2 0x3493 JUMP JUMPDEST PUSH1 0x40 MLOAD RETURNDATASIZE PUSH1 0x0 DUP3 RETURNDATACOPY RETURNDATASIZE SWAP1 REVERT INVALID LOG2 PUSH5 0x6970667358 0x22 SLT KECCAK256 0xBA CREATE2 MSTORE8 0xF9 PUSH1 0x0 0x21 PUSH20 0xDE9E974D4488248B920695266E8BD362A013F608 0xAE ADD PUSH16 0x1164736F6C6343000814003300000000 "},"gasEstimates":{"creation":{"codeDepositCost":"2719000","executionCost":"infinite","totalCost":"infinite"},"external":{"AAVE_POOL()":"197","DAI()":"879","MAX_AAVE_EXPOSURE()":"703","MAX_SLIPPAGE()":"917","USDC()":"637","WETH()":"769","aTokenMapping(address)":"2771","aaveAssets(uint256)":"6969","aavePrincipal(address)":"2586","agentKitOperator()":"2698","assetConfigs(address)":"7174","checkAndRebalance()":"infinite","configureAsset(address,uint256,uint256,uint256,address[])":"infinite","depositToAave(address,uint256)":"infinite","emergencyWithdraw(address,uint256)":"infinite","executeTransfer(address,uint256,address)":"infinite","getAavePositionValue(address)":"infinite","getAaveTotalValue()":"infinite","getAllocations()":"infinite","getAssetValue(address)":"infinite","getBalance()":"infinite","getTotalValue()":"infinite","getWethAllocation()":"infinite","isAaveAsset(address)":"2436","owner()":"2786","priceFeeds(address)":"3013","proposalsContract()":"2522","setAgentKitOperator(address)":"26770","setProposalsContract(address)":"27298","suggestRebalance()":"infinite","tokenBalances(address)":"2718","uniswapRouter()":"2719","updatePriceFeed(address,address)":"27384","withdrawFromAave(address,uint256)":"infinite","yieldGenerated(address)":"2520"},"internal":{"_buyNeeded(address,uint256,uint256,struct Treasury.AssetConfig memory)":"infinite","_findBestStableSource(uint256)":"infinite","_getMaxInput(address,address[] memory,uint256)":"infinite","_getMinOutput(address,address[] memory,uint256)":"infinite","_rebalanceAsset(address,uint256)":"infinite","_sellExcess(address,uint256,uint256,struct Treasury.AssetConfig memory)":"infinite","_swapStableForToken(address,uint256,uint256,address,address[] memory)":"infinite","_swapTokenForStable(address,uint256,uint256,address[] memory)":"infinite","getLatestPrice(contract AggregatorV3Interface)":"infinite"}},"methodIdentifiers":{"AAVE_POOL()":"08a01675","DAI()":"e0bab4c4","MAX_AAVE_EXPOSURE()":"95a566bd","MAX_SLIPPAGE()":"f9759518","USDC()":"89a30271","WETH()":"ad5c4648","aTokenMapping(address)":"5b9f2079","aaveAssets(uint256)":"6073cb41","aavePrincipal(address)":"34dc9e32","agentKitOperator()":"6e9fff57","assetConfigs(address)":"7609d7f6","checkAndRebalance()":"3ed55f0c","configureAsset(address,uint256,uint256,uint256,address[])":"4158a94d","depositToAave(address,uint256)":"eeb149e7","emergencyWithdraw(address,uint256)":"95ccea67","executeTransfer(address,uint256,address)":"098dbf5c","getAavePositionValue(address)":"26eff0f2","getAaveTotalValue()":"56ebec88","getAllocations()":"65ed6e23","getAssetValue(address)":"93e5e90f","getBalance()":"12065fe0","getTotalValue()":"caa648b4","getWethAllocation()":"dd41d050","isAaveAsset(address)":"01f46670","owner()":"8da5cb5b","priceFeeds(address)":"9dcb511a","proposalsContract()":"4450c203","setAgentKitOperator(address)":"29ab437b","setProposalsContract(address)":"dc133e89","suggestRebalance()":"4f64d9d9","tokenBalances(address)":"523fba7f","uniswapRouter()":"735de9f7","updatePriceFeed(address,address)":"b7997da1","withdrawFromAave(address,uint256)":"487ede04","yieldGenerated(address)":"1acb5390"}},"storageLayout":{"storage":[{"astId":134,"contract":"contracts/Treasury.sol:Treasury","label":"_status","offset":0,"slot":"0","type":"t_uint256"},{"astId":662,"contract":"contracts/Treasury.sol:Treasury","label":"priceFeeds","offset":0,"slot":"1","type":"t_mapping(t_address,t_contract(AggregatorV3Interface)45)"},{"astId":664,"contract":"contracts/Treasury.sol:Treasury","label":"owner","offset":0,"slot":"2","type":"t_address"},{"astId":666,"contract":"contracts/Treasury.sol:Treasury","label":"proposalsContract","offset":0,"slot":"3","type":"t_address"},{"astId":672,"contract":"contracts/Treasury.sol:Treasury","label":"uniswapRouter","offset":0,"slot":"4","type":"t_contract(IUniswapV2Router02)588"},{"astId":674,"contract":"contracts/Treasury.sol:Treasury","label":"agentKitOperator","offset":0,"slot":"5","type":"t_address"},{"astId":677,"contract":"contracts/Treasury.sol:Treasury","label":"aaveAssets","offset":0,"slot":"6","type":"t_array(t_address)dyn_storage"},{"astId":681,"contract":"contracts/Treasury.sol:Treasury","label":"isAaveAsset","offset":0,"slot":"7","type":"t_mapping(t_address,t_bool)"},{"astId":695,"contract":"contracts/Treasury.sol:Treasury","label":"tokenBalances","offset":0,"slot":"8","type":"t_mapping(t_address,t_uint256)"},{"astId":699,"contract":"contracts/Treasury.sol:Treasury","label":"aavePrincipal","offset":0,"slot":"9","type":"t_mapping(t_address,t_uint256)"},{"astId":703,"contract":"contracts/Treasury.sol:Treasury","label":"yieldGenerated","offset":0,"slot":"10","type":"t_mapping(t_address,t_uint256)"},{"astId":707,"contract":"contracts/Treasury.sol:Treasury","label":"aTokenMapping","offset":0,"slot":"11","type":"t_mapping(t_address,t_address)"},{"astId":712,"contract":"contracts/Treasury.sol:Treasury","label":"assetConfigs","offset":0,"slot":"12","type":"t_mapping(t_address,t_struct(AssetConfig)691_storage)"}],"types":{"t_address":{"encoding":"inplace","label":"address","numberOfBytes":"20"},"t_array(t_address)dyn_storage":{"base":"t_address","encoding":"dynamic_array","label":"address[]","numberOfBytes":"32"},"t_bool":{"encoding":"inplace","label":"bool","numberOfBytes":"1"},"t_contract(AggregatorV3Interface)45":{"encoding":"inplace","label":"contract AggregatorV3Interface","numberOfBytes":"20"},"t_contract(IUniswapV2Router02)588":{"encoding":"inplace","label":"contract IUniswapV2Router02","numberOfBytes":"20"},"t_mapping(t_address,t_address)":{"encoding":"mapping","key":"t_address","label":"mapping(address => address)","numberOfBytes":"32","value":"t_address"},"t_mapping(t_address,t_bool)":{"encoding":"mapping","key":"t_address","label":"mapping(address => bool)","numberOfBytes":"32","value":"t_bool"},"t_mapping(t_address,t_contract(AggregatorV3Interface)45)":{"encoding":"mapping","key":"t_address","label":"mapping(address => contract AggregatorV3Interface)","numberOfBytes":"32","value":"t_contract(AggregatorV3Interface)45"},"t_mapping(t_address,t_struct(AssetConfig)691_storage)":{"encoding":"mapping","key":"t_address","label":"mapping(address => struct Treasury.AssetConfig)","numberOfBytes":"32","value":"t_struct(AssetConfig)691_storage"},"t_mapping(t_address,t_uint256)":{"encoding":"mapping","key":"t_address","label":"mapping(address => uint256)","numberOfBytes":"32","value":"t_uint256"},"t_struct(AssetConfig)691_storage":{"encoding":"inplace","label":"struct Treasury.AssetConfig","members":[{"astId":683,"contract":"contracts/Treasury.sol:Treasury","label":"target","offset":0,"slot":"0","type":"t_uint256"},{"astId":685,"contract":"contracts/Treasury.sol:Treasury","label":"upperThreshold","offset":0,"slot":"1","type":"t_uint256"},{"astId":687,"contract":"contracts/Treasury.sol:Treasury","label":"lowerThreshold","offset":0,"slot":"2","type":"t_uint256"},{"astId":690,"contract":"contracts/Treasury.sol:Treasury","label":"swapPath","offset":0,"slot":"3","type":"t_array(t_address)dyn_storage"}],"numberOfBytes":"128"},"t_uint256":{"encoding":"inplace","label":"uint256","numberOfBytes":"32"}}},"userdoc":{"kind":"user","methods":{},"version":1}}}}