{"contracts/Treasury.sol":{"Treasury":{"abi":[{"inputs":[],"stateMutability":"nonpayable","type":"constructor"},{"inputs":[],"name":"ReentrancyGuardReentrantCall","type":"error"},{"anonymous":false,"inputs":[{"indexed":true,"internalType":"address","name":"asset","type":"address"},{"indexed":false,"internalType":"uint256","name":"target","type":"uint256"},{"indexed":false,"internalType":"uint256","name":"upper","type":"uint256"},{"indexed":false,"internalType":"uint256","name":"lower","type":"uint256"}],"name":"AllocationConfigured","type":"event"},{"anonymous":false,"inputs":[{"indexed":true,"internalType":"address","name":"token","type":"address"},{"indexed":false,"internalType":"uint256","name":"amount","type":"uint256"}],"name":"DefiDeposit","type":"event"},{"anonymous":false,"inputs":[{"indexed":true,"internalType":"address","name":"token","type":"address"},{"indexed":false,"internalType":"uint256","name":"amount","type":"uint256"}],"name":"DefiWithdrawal","type":"event"},{"anonymous":false,"inputs":[{"indexed":true,"internalType":"address","name":"token","type":"address"},{"indexed":false,"internalType":"uint256","name":"amount","type":"uint256"}],"name":"FundsDeposited","type":"event"},{"anonymous":false,"inputs":[{"indexed":true,"internalType":"address","name":"token","type":"address"},{"indexed":false,"internalType":"uint256","name":"amount","type":"uint256"}],"name":"FundsWithdrawn","type":"event"},{"anonymous":false,"inputs":[{"indexed":true,"internalType":"address","name":"triggerer","type":"address"},{"indexed":false,"internalType":"uint256","name":"totalValueBefore","type":"uint256"},{"indexed":false,"internalType":"uint256","name":"totalValueAfter","type":"uint256"},{"indexed":false,"internalType":"uint256","name":"wethBefore","type":"uint256"},{"indexed":false,"internalType":"uint256","name":"wethAfter","type":"uint256"}],"name":"RebalanceCycle","type":"event"},{"anonymous":false,"inputs":[{"indexed":false,"internalType":"uint256","name":"timestamp","type":"uint256"},{"indexed":false,"internalType":"address[]","name":"assets","type":"address[]"},{"indexed":false,"internalType":"uint256[]","name":"allocations","type":"uint256[]"}],"name":"RebalanceSuggested","type":"event"},{"anonymous":false,"inputs":[{"indexed":true,"internalType":"address","name":"assetSold","type":"address"},{"indexed":true,"internalType":"address","name":"assetBought","type":"address"},{"indexed":false,"internalType":"uint256","name":"amountSold","type":"uint256"},{"indexed":false,"internalType":"uint256","name":"amountBought","type":"uint256"}],"name":"SwapExecuted","type":"event"},{"anonymous":false,"inputs":[{"indexed":false,"internalType":"address","name":"token","type":"address"},{"indexed":false,"internalType":"uint256","name":"amount","type":"uint256"}],"name":"YieldEarned","type":"event"},{"inputs":[],"name":"AAVE_POOL","outputs":[{"internalType":"contract IAavePool","name":"","type":"address"}],"stateMutability":"view","type":"function"},{"inputs":[],"name":"DAI","outputs":[{"internalType":"address","name":"","type":"address"}],"stateMutability":"view","type":"function"},{"inputs":[],"name":"MAX_AAVE_EXPOSURE","outputs":[{"internalType":"uint256","name":"","type":"uint256"}],"stateMutability":"view","type":"function"},{"inputs":[],"name":"MAX_SLIPPAGE","outputs":[{"internalType":"uint256","name":"","type":"uint256"}],"stateMutability":"view","type":"function"},{"inputs":[],"name":"USDC","outputs":[{"internalType":"address","name":"","type":"address"}],"stateMutability":"view","type":"function"},{"inputs":[],"name":"WETH","outputs":[{"internalType":"contract IWETH","name":"","type":"address"}],"stateMutability":"view","type":"function"},{"inputs":[{"internalType":"address","name":"","type":"address"}],"name":"aTokenMapping","outputs":[{"internalType":"address","name":"","type":"address"}],"stateMutability":"view","type":"function"},{"inputs":[{"internalType":"address","name":"","type":"address"}],"name":"aavePrincipal","outputs":[{"internalType":"uint256","name":"","type":"uint256"}],"stateMutability":"view","type":"function"},{"inputs":[],"name":"agentKitOperator","outputs":[{"internalType":"address","name":"","type":"address"}],"stateMutability":"view","type":"function"},{"inputs":[{"internalType":"address","name":"","type":"address"}],"name":"assetConfigs","outputs":[{"internalType":"uint256","name":"target","type":"uint256"},{"internalType":"uint256","name":"upperThreshold","type":"uint256"},{"internalType":"uint256","name":"lowerThreshold","type":"uint256"}],"stateMutability":"view","type":"function"},{"inputs":[],"name":"checkAndRebalance","outputs":[],"stateMutability":"nonpayable","type":"function"},{"inputs":[{"internalType":"address","name":"_asset","type":"address"},{"internalType":"uint256","name":"_target","type":"uint256"},{"internalType":"uint256","name":"_upperThreshold","type":"uint256"},{"internalType":"uint256","name":"_lowerThreshold","type":"uint256"},{"internalType":"address[]","name":"_swapPath","type":"address[]"}],"name":"configureAsset","outputs":[],"stateMutability":"nonpayable","type":"function"},{"inputs":[{"internalType":"address","name":"_token","type":"address"},{"internalType":"uint256","name":"_amount","type":"uint256"}],"name":"depositToAave","outputs":[],"stateMutability":"nonpayable","type":"function"},{"inputs":[{"internalType":"address","name":"_token","type":"address"},{"internalType":"uint256","name":"_amount","type":"uint256"}],"name":"emergencyWithdraw","outputs":[],"stateMutability":"nonpayable","type":"function"},{"inputs":[{"internalType":"address payable","name":"_to","type":"address"},{"internalType":"uint256","name":"_amount","type":"uint256"},{"internalType":"address","name":"_token","type":"address"}],"name":"executeTransfer","outputs":[],"stateMutability":"nonpayable","type":"function"},{"inputs":[{"internalType":"address","name":"_token","type":"address"}],"name":"getAavePositionValue","outputs":[{"internalType":"uint256","name":"","type":"uint256"}],"stateMutability":"view","type":"function"},{"inputs":[],"name":"getAllocations","outputs":[{"internalType":"uint256","name":"wethAllocation","type":"uint256"},{"internalType":"uint256","name":"usdcAllocation","type":"uint256"},{"internalType":"uint256","name":"daiAllocation","type":"uint256"},{"internalType":"uint256","name":"totalValue","type":"uint256"}],"stateMutability":"view","type":"function"},{"inputs":[{"internalType":"address","name":"token","type":"address"}],"name":"getAssetValue","outputs":[{"internalType":"uint256","name":"","type":"uint256"}],"stateMutability":"view","type":"function"},{"inputs":[],"name":"getBalance","outputs":[{"internalType":"uint256","name":"","type":"uint256"}],"stateMutability":"view","type":"function"},{"inputs":[],"name":"getTotalValue","outputs":[{"internalType":"uint256","name":"","type":"uint256"}],"stateMutability":"view","type":"function"},{"inputs":[],"name":"getWethAllocation","outputs":[{"internalType":"uint256","name":"","type":"uint256"}],"stateMutability":"view","type":"function"},{"inputs":[],"name":"owner","outputs":[{"internalType":"address","name":"","type":"address"}],"stateMutability":"view","type":"function"},{"inputs":[{"internalType":"address","name":"","type":"address"}],"name":"priceFeeds","outputs":[{"internalType":"contract AggregatorV3Interface","name":"","type":"address"}],"stateMutability":"view","type":"function"},{"inputs":[],"name":"proposalsContract","outputs":[{"internalType":"address","name":"","type":"address"}],"stateMutability":"view","type":"function"},{"inputs":[{"internalType":"address","name":"_operator","type":"address"}],"name":"setAgentKitOperator","outputs":[],"stateMutability":"nonpayable","type":"function"},{"inputs":[{"internalType":"address","name":"_proposals","type":"address"}],"name":"setProposalsContract","outputs":[],"stateMutability":"nonpayable","type":"function"},{"inputs":[],"name":"suggestRebalance","outputs":[],"stateMutability":"nonpayable","type":"function"},{"inputs":[{"internalType":"address","name":"","type":"address"}],"name":"tokenBalances","outputs":[{"internalType":"uint256","name":"","type":"uint256"}],"stateMutability":"view","type":"function"},{"inputs":[],"name":"uniswapRouter","outputs":[{"internalType":"contract IUniswapV2Router02","name":"","type":"address"}],"stateMutability":"view","type":"function"},{"inputs":[{"internalType":"address","name":"token","type":"address"},{"internalType":"address","name":"feed","type":"address"}],"name":"updatePriceFeed","outputs":[],"stateMutability":"nonpayable","type":"function"},{"inputs":[{"internalType":"address","name":"_token","type":"address"},{"internalType":"uint256","name":"_amount","type":"uint256"}],"name":"withdrawFromAave","outputs":[],"stateMutability":"nonpayable","type":"function"},{"inputs":[{"internalType":"address","name":"","type":"address"}],"name":"yieldGenerated","outputs":[{"internalType":"uint256","name":"","type":"uint256"}],"stateMutability":"view","type":"function"},{"stateMutability":"payable","type":"receive"}],"evm":{"bytecode":{"linkReferences":{},"object":"608034620001ec5760016000818155600480546001600160a01b031990811673c532a74256d3db42d0bf7a0400fefdbad7694008178255600280548216331790556020939093527fdd30f26761a197a30f1122555d987c7244e5928edad3f9e0fff79501608e28908054841673694aa1769357215de4fac081bf1f309adc3253061790557f473f4e406f2e237914d6364ace7626ddbaa8a1b0939171d040c31cc1ea4f21768054841673a2f78ab2355fe2f984d808b5cee7fd0a93d5270e17905573e5118e47e061ab15ca972d045b35193f673bcc368083527f10d2883cd297bc708b0e9947825807175be535a6e959b869b4704eaa831cf9fe80549094167314866185b1962b63c3ea9e03bc1da838bab34c19179093556040936060810192919073ebcc972b6b3eb15c0592be1871838963d0b9427873a1a245cc76414dc143687d9c3de1152396f352d66001600160401b03861183871017620001d957858852600283526020830188368237835115620001c65752815160011015620001b357868201525160021015620001a057505052516132079081620001f28239f35b634e487b7160e01b825260329052602490fd5b634e487b7160e01b845260328352602484fd5b634e487b7160e01b865260328552602486fd5b634e487b7160e01b855260418452602485fd5b600080fdfe60806040818152600491823610156100c1575b50361561001e57600080fd5b73a1a245cc76414dc143687d9c3de1152396f352d691823b156100bc578151630d0e30db60e41b8152600091829082908134885af180156100b2579260209281927f543ba50a5eec5e6178218e364b1d0f396157b3c8fa278522c2cb7fd99407d474956100a3575b50858152600684522061009a34825461181f565b905551348152a2005b6100ac90611874565b38610086565b83513d84823e3d90fd5b600080fd5b600090813560e01c90816308a01675146117a057508063098dbf5c1461169557806312065fe0146115fa5780631acb5390146115c257806326eff0f21461152257806329ab437b146114d757806334dc9e321461149f5780633ed55f0c146112da5780634158a94d146110a15780634450c20314611078578063487ede0414610db45780634f64d9d914610be8578063523fba7f14610bb05780635b9f207914610b7557806365ed6e2314610a8c5780636e9fff5714610a63578063735de9f714610a3b5780637609d7f6146109db57806389a30271146109ac5780638da5cb5b1461098357806393e5e90f1461095d57806395a566bd1461094057806395ccea67146107f25780639dcb511a146107b7578063ad5c464814610788578063b7997da1146106e6578063caa648b4146106c9578063dc133e891461067b578063dd41d05014610657578063e0bab4c414610628578063eeb149e7146102495763f9759518036100125790346102455781600319360112610245576020905160058152f35b5080fd5b509190346106245780600319360112610624576102646117ce565b602480359060018060a01b03809361028182600354163314611901565b610289611972565b16948451936370a0823160e01b85523082860152602094858185818b5afa801561061a5785908a906105e9575b6102c292501015611995565b6102ca612fbb565b611f40908181029181830414901517156105d757612710900484116105a3579087929187845260068652868420610302868254611965565b9055878452600986528087852054161561043c575b5085519063095ea7b360e01b825273368eedf3f56ad10b9bc57eed4dac65b26bb667f691828282015285848201528681604481888d5af1801561043257610405575b50813b156104015760848891858094888b51978896879563e8eda9df60e01b87528601528401523060448401528160648401525af180156103f7576103df575b5092847f61c74c7b35f6f1b220bb406a21982a8d0b6ec18192a649ff4aa205a3f858be6a9452600783528086206103d183825461181f565b905551908152a26001815580f35b6103e890611874565b6103f3578438610399565b8480fd5b85513d84823e3d90fd5b8380fd5b61042490873d891161042b575b61041c8183611888565b81019061194d565b5038610359565b503d610412565b88513d87823e3d90fd5b86516335ea6a7560e01b81528281018990526101008082868173368eedf3f56ad10b9bc57eed4dac65b26bb667f65afa9182156105995786926104a3575b505060e001511687845260098652868420906001600160601b0360a01b82541617905538610317565b818094959697508193503d8311610592575b6104bf8183611888565b8101031261058e57875191820182811067ffffffffffffffff82111761057a578852805182528994939291906104f6888201611a01565b88830152610505898201611a01565b8983015261051560608201611a01565b606083015261052660808201611a01565b608083015261053760a08201611a01565b60a083015260c08101519064ffffffffff821682036105765760e09160c084015201519082821682036105725760e09182820152903861047a565b8580fd5b8680fd5b85604186634e487b7160e01b600052526000fd5b8980fd5b503d6104b5565b89513d88823e3d90fd5b5060106064928587519362461bcd60e51b85528401528201526f0457863656564732041617665206361760841b6044820152fd5b634e487b7160e01b8952601183528389fd5b50508581813d8311610613575b6106008183611888565b810103126100bc57846102c291516102b6565b503d6105f6565b87513d8b823e3d90fd5b8280fd5b5090346102455781600319360112610245576020905173e5118e47e061ab15ca972d045b35193f673bcc368152f35b509034610245578160031936011261024557602090610674613073565b9051908152f35b50346106c65760203660031901126106c6576106956117ce565b6002546001600160a01b0391906106af90831633146117e4565b166001600160601b0360a01b600354161760035580f35b80fd5b509034610245578160031936011261024557602090610674612fbb565b509190346106245780600319360112610624576107016117ce565b6024356001600160a01b03818116949092918590036100bc57610729836002541633146117e4565b841561074e57501683526001602052822080546001600160a01b031916909117905580f35b606490602085519162461bcd60e51b83528201526014602482015273496e76616c69642066656564206164647265737360601b6044820152fd5b5090346102455781600319360112610245576020905173a1a245cc76414dc143687d9c3de1152396f352d68152f35b509034610245576020366003190112610245576020916001600160a01b03908290826107e16117ce565b168152600185522054169051908152f35b5080923461024557826003193601126102455761080d6117ce565b6002546001600160a01b039081169260243592829061082d3387146117e4565b1673a1a245cc76414dc143687d9c3de1152396f352d6948582146000146108d1575050833b156103f35782602486928389519788948593632e1a7d4d60e01b85528401525af19283156108c75784936108af575b5082918291600254168282156108a6575bf11561089c575080f35b51903d90823e3d90fd5b506108fc610892565b6108bb90939193611874565b61062457829138610881565b85513d86823e3d90fd5b875163a9059cbb60e01b81526001600160a01b03909116928101928352602083810195909552969593945086939092508391829060400103925af1908115610937575061091c575080f35b6109339060203d811161042b5761041c8183611888565b5080f35b513d84823e3d90fd5b50903461024557816003193601126102455760209051611f408152f35b5090346102455760203660031901126102455760209061067461097e6117ce565b612eba565b50903461024557816003193601126102455760025490516001600160a01b039091168152602090f35b5090346102455781600319360112610245576020905173ebcc972b6b3eb15c0592be1871838963d0b942788152f35b509034610245576020366003190112610245579081906001600160a01b03610a016117ce565b168152600a6020522090610a37825491600260018501549401549051938493846040919493926060820195825260208201520152565b0390f35b5091346106245782600319360112610624575490516001600160a01b03909116815260209150f35b50903461024557816003193601126102455760055490516001600160a01b039091168152602090f35b509034610245578160031936011261024557610aa6612fbb565b610aae612b15565b9160649283810290808204851490151715610b625782610acd916119e1565b92610ad6612c5b565b81810290808204831490151715610b4f5783610af1916119e1565b94610afa612e1b565b828102928184041490151715610b3c575090610b1a83610a3794936119e1565b9051948594859094939260609260808301968352602083015260408201520152565b634e487b7160e01b815260118752602490fd5b634e487b7160e01b865260118752602486fd5b634e487b7160e01b855260118652602485fd5b509034610245576020366003190112610245576020916001600160a01b0390829082610b9f6117ce565b168152600985522054169051908152f35b5090346102455760203660031901126102455760209181906001600160a01b03610bd86117ce565b1681526006845220549051908152f35b509134610624578260031936011261062457610c0f60018060a01b03600554163314611a1e565b815191610c1b83611842565b600383526020808401926060368537610c32613073565b610c3b86611a5a565b52610c44612c5b565b606481029080820460641490151715610da157610c6990610c63612fbb565b906119e1565b610c7286611a7d565b52610c7b612e1b565b90606482029180830460641490151715610d8e5750610c9f90610c63939293612fbb565b610ca885611a8d565b5281815194610cb686611842565b600386526060368388013773a1a245cc76414dc143687d9c3de1152396f352d6610cdf87611a5a565b5273ebcc972b6b3eb15c0592be1871838963d0b94278610cfe87611a7d565b5273e5118e47e061ab15ca972d045b35193f673bcc36610d1d87611a8d565b52610d378351964288526060848901526060880190612a00565b92868403908701525191828152019291855b828110610d7a57867f040415ba81f6d9a462e9c1ebaf5f5a401d1cec4f2558bf6b44a322bacf043f9587870388a180f35b835185529381019392810192600101610d49565b634e487b7160e01b875260119052602486fd5b634e487b7160e01b875260118252602487fd5b50346106c657816003193601126106c657610dcd6117ce565b6003546001600160a01b03946024359491610deb9087163314611901565b610df3611972565b8583169081855260209060078252868487205410611037578186979884602498526009825285892054168551978880926370a0823160e01b825230868301525afa958615610fd3578796611008575b508287526007825287848820548897818111610fe1575b50505073368eedf3f56ad10b9bc57eed4dac65b26bb667f690813b15610fdd5783606489928388519586948593631a4ca37b60e21b85528401528d60248401523060448401525af18015610fd357610f76575b50907f01c61f9ff609abec0166033e26ffdcb2501ae4e4ad8745b8f436ef6cf5c3b5b9610f6c939288610f01887f8e91bbd74bb7a610e4d7e6988db773510a989fa93df46b4334535b9d6b286e2e9a9b61181f565b848b5260068352610f16868c2091825461181f565b9055838a5260078252848a20610f2d828254611965565b9055838a5260088252848a20610f4489825461181f565b90558451908152a2516001600160a01b03909216825260208201929092529081906040820190565b0390a16001815580f35b610f6c9392917f8e91bbd74bb7a610e4d7e6988db773510a989fa93df46b4334535b9d6b286e2e97610fc87f01c61f9ff609abec0166033e26ffdcb2501ae4e4ad8745b8f436ef6cf5c3b5b993611874565b975091929350610eac565b84513d89823e3d90fd5b8780fd5b610fff93985090610ff583610ffa936118ee565b6119e1565b611965565b94873880610e59565b9095508181813d8311611030575b6110208183611888565b8101031261057657519438610e42565b503d611016565b60649184519162461bcd60e51b8352820152601c60248201527f5769746864726177616c2065786365656473207072696e636970616c000000006044820152fd5b50903461024557816003193601126102455760035490516001600160a01b039091168152602090f35b5082346102455760a0366003190112610245576110bc6117ce565b92602480359160443593606435926084359167ffffffffffffffff918284116112d657366023850112156112d657838201359183831161058e57818360051b860101903682116112d2576002546001600160a01b03939061112090851633146117e4565b61271061112d8c8c61181f565b1161129b57875161113d81611842565b8a8152602093848201908d82528a8301998c8b5261115a896118aa565b986111678d519a8b611888565b895284018689015b82821061127d57505050898e9f879060608501998a52169e8f8152600a87522091518255519760019889830155516002820155600301945191825196871161126c5768010000000000000000871161126c57505081908c8686549181885582821061123c575b50505001928b52808b20918b5b8581106112295787518a8152602081018c9052604081018a90528d908d907f9ab15632c1e4bba227fef32bf0d208b02ce488d7e094f36d9a40fcf1f2d0e38390606090a280f35b84518216848201559382019386016111e2565b899150878152888582209384019301905b83821061125e5790508891506111d5565b81558594508991018f61124d565b634e487b7160e01b8e52604190528cfd5b8135898116810361129557815290870190870161116f565b50508f80fd5b90601260649260208a519362461bcd60e51b855284015282015271496e76616c6964207468726573686f6c647360701b6044820152fd5b8a80fd5b8880fd5b5091346106245782600319360112610624576005546001600160a01b0391906113069083163314611a1e565b61130e611972565b611316612fbb565b9361131f612b15565b94611328612fbb565b9586156114635761133887611ac0565b85519360a0850185811067ffffffffffffffff8211176114505787528452608036602086013773a1a245cc76414dc143687d9c3de1152396f352d661137c85611a5a565b5273ebcc972b6b3eb15c0592be1871838963d0b9427861139b85611a7d565b5273e5118e47e061ab15ca972d045b35193f673bcc366113ba85611a8d565b52825b84518110156113ea57806113e089886113d96113e5958a611a9d565b51166124d0565b611ab1565b6113bd565b507feede213a34918d7c0b828ed3304be2754812c22e031ad24c7213a7224b65e24c9086611446611419612fbb565b91611422612b15565b90519384933397859094939260609260808301968352602083015260408201520152565b0390a26001815580f35b634e487b7160e01b855260418252602485fd5b855162461bcd60e51b815260208186015260166024820152754e6f2061737365747320746f20726562616c616e636560501b6044820152606490fd5b5090346102455760203660031901126102455760209181906001600160a01b036114c76117ce565b1681526007845220549051908152f35b50346106c65760203660031901126106c6576114f16117ce565b6002546001600160a01b03919061150b90831633146117e4565b166001600160601b0360a01b600554161760055580f35b509034610245576020928360031936011261062457836001600160a01b03806115496117ce565b1685526009825283852054169160248451809481936370a0823160e01b835230908301525afa9283156115b7578093611585575b505051908152f35b909192508382813d83116115b0575b61159e8183611888565b810103126106c657505190388061157d565b503d611594565b8251903d90823e3d90fd5b5090346102455760203660031901126102455760209181906001600160a01b036115ea6117ce565b1681526008845220549051908152f35b509190346106245782600319360112610624578051916370a0823160e01b8352309083015260208260248173a1a245cc76414dc143687d9c3de1152396f352d65afa91821561168b578392611654575b6020838351908152f35b9091506020813d8211611683575b8161166f60209383611888565b81010312610624576020925051903861164a565b3d9150611662565b81513d85823e3d90fd5b50919034610624576060366003190112610624576001600160a01b03823581811693908490036103f3576024359360443592808416809403610576576116e090600354163314611901565b6116e8611972565b83519063a9059cbb60e01b82528282015284602482015260208160448189875af1908115611796578691611778575b501561173d57509061173491845260066020528320918254611965565b90556001815580f35b606490602084519162461bcd60e51b83528201526015602482015274151bdad95b881d1c985b9cd9995c8819985a5b1959605a1b6044820152fd5b611790915060203d811161042b5761041c8183611888565b38611717565b84513d88823e3d90fd5b9050346102455781600319360112610245578073368eedf3f56ad10b9bc57eed4dac65b26bb667f660209252f35b600435906001600160a01b03821682036100bc57565b156117eb57565b60405162461bcd60e51b815260206004820152600c60248201526b155b985d5d1a1bdc9a5e995960a21b6044820152606490fd5b9190820180921161182c57565b634e487b7160e01b600052601160045260246000fd5b6080810190811067ffffffffffffffff82111761185e57604052565b634e487b7160e01b600052604160045260246000fd5b67ffffffffffffffff811161185e57604052565b90601f8019910116810190811067ffffffffffffffff82111761185e57604052565b67ffffffffffffffff811161185e5760051b60200190565b9060698202918083046069149015171561182c57565b90605f820291808304605f149015171561182c57565b8181029291811591840414171561182c57565b1561190857565b60405162461bcd60e51b815260206004820152601760248201527f4f6e6c792070726f706f73616c7320636f6e74726163740000000000000000006044820152606490fd5b908160209103126100bc575180151581036100bc5790565b9190820391821161182c57565b600260005414611983576002600055565b604051633ee5aeb560e01b8152600490fd5b1561199c57565b60405162461bcd60e51b815260206004820152601a60248201527f496e73756666696369656e7420746f6b656e2062616c616e63650000000000006044820152606490fd5b81156119eb570490565b634e487b7160e01b600052601260045260246000fd5b51906fffffffffffffffffffffffffffffffff821682036100bc57565b15611a2557565b60405162461bcd60e51b815260206004820152600d60248201526c13db9b1e481059d95b9d12da5d609a1b6044820152606490fd5b805115611a675760200190565b634e487b7160e01b600052603260045260246000fd5b805160011015611a675760400190565b805160021015611a675760600190565b8051821015611a675760209160051b010190565b600019811461182c5760010190565b73a1a245cc76414dc143687d9c3de1152396f352d6600090808252602090600a82526040808420815190611af382611842565b805482526001968782015486840190815260036002840154938686019485520193855180868a8298549384815201908c528a8c20928d8d905b8d8383106124b15750505050611b4492500386611888565b6060810194855280511561209957611b5a612b15565b93612710948581029080820487149015171561244557611b7d85611b88926119e1565b93835190519061181f565b83111561207e5750611ba59291611ba0915190611965565b6118ee565b0490805183519063313ce56760e01b91828152600491888284818b5afa918215612074578a92612055575b50878a528a8952868a205487518581526001600160a01b03959093909186168b858781845afa94851561204b578c8e96612018575b505090610c63611c20611c1a611c26946130b6565b8b6118ee565b91612975565b82519092600019820191821161200557611c428c928892611a9d565b511691858a518094819382525afa908115611eb65792610c63611c20611c8894611c7d8f958f98606499611c839892611fd8575b5050612975565b906118ee565b6118d8565b049251611c93611972565b8683611c9e83611a5a565b511603611f955785516370a0823160e01b808252308483015260249590918a8188818d5afa908115611ef457888b8e8e938195611f60575b50611ce683611d1c961015611995565b88548d5163095ea7b360e01b8152908b166001600160a01b0316818b019081526020810194909452948593849291839160400190565b03925af18015611ef457611f43575b5082516000198101908111611ec057908a86611d48899487611a9d565b51168a5193848092878252308a8301525afa918215611ef4578c92611f10575b5085855416906103844201804211611efe5786928e92838c611da28f958b9651988997889687956338ed173960e01b875230938701612a3d565b03925af18015611ef457611ed2575b5082516000198101908111611ec05785611dcc8c9286611a9d565b511692878a5180958193825230898301525afa8015611eb6578b90611e85575b611df69250611965565b93878a5260068952868a20611e0c878254611965565b90558151600019810193908411611e745750507fdd36740e2a012d93061a0d99eaa9107860955de4e90027d3cf465a055026c4079594939291611e4e91611a9d565b51169586885260068152838820611e6683825461181f565b90558351928352820152a355565b634e487b7160e01b8b526011905289fd5b50908981813d8311611eaf575b611e9c8183611888565b810103126112d25790611df69151611dec565b503d611e92565b88513d8d823e3d90fd5b634e487b7160e01b8c5260118552868cfd5b611eed903d808e833e611ee58183611888565b810190612986565b5038611db1565b89513d8e823e3d90fd5b634e487b7160e01b8e5260118752888efd5b9091508a81813d8311611f3c575b611f288183611888565b81010312611f3857519038611d68565b8b80fd5b503d611f1e565b611f59908b3d8d1161042b5761041c8183611888565b5038611d2b565b945050505081813d8311611f8e575b611f798183611888565b81010312611f3857518a888b8e611ce6611cd6565b503d611f6f565b855162461bcd60e51b8152808301899052601a60248201527f50617468206d757374207374617274207769746820746f6b656e0000000000006044820152606490fd5b611ff79250803d10611ffe575b611fef8183611888565b81019061295c565b8f80611c76565b503d611fe5565b634e487b7160e01b8d526011865260248dfd5b611c2693929650611c1a61203f610c639383611c2094903d10611ffe57611fef8183611888565b9793945050508c611c05565b8a513d8f823e3d90fd5b61206d919250893d8b11611ffe57611fef8183611888565b9038611bd0565b87513d8c823e3d90fd5b815190519798959792939261209291611965565b83106120a5575b50505050505050505050565b6120b392611ba09151611965565b04926120be84612a76565b8587528783528387205490946001600160a01b03916120de9083166130b6565b670de0b6b3a764000080830290838204148315171561249d5761210660649261210b926119e1565b6118c2565b04925190612117611972565b828061212284611a5a565b511697168097036124595781516000199490858101908111612445578461214a8b9286611a9d565b51160361240157878a526006865280878b2054106123bd5760048054885163095ea7b360e01b81529086166001600160a01b03168183015260248101839052909695949392919086816044818f8e5af18015611ef457908a949392916123a0575b5088519487866024816370a0823160e01b988982528d30908301525afa95861561204b578d9661236d575b5088541691610384420180421161235a57918d8094926122108c999897958e519a8b9788968795634401edf760e11b875230938701612a3d565b03925af1928315612074578a9361233e575b508651908152308682015284816024818b5afa908115612074578a9161230f575b5061224d91611965565b9386895260068452858920612263868254611965565b905581518381019081116122fc5761227b9083611a9d565b51888a5260068552612291878b2091825461181f565b905581519283019283116122e957507fdd36740e2a012d93061a0d99eaa9107860955de4e90027d3cf465a055026c407949392916122ce91611a9d565b51908351928352820152a35538808080808080808080612099565b634e487b7160e01b895260119052602488fd5b634e487b7160e01b8a526011825260248afd5b90508481813d8311612337575b6123268183611888565b8101031261058e575161224d612243565b503d61231c565b6123539193503d808c833e611ee58183611888565b9138612222565b634e487b7160e01b8e5260118a5260248efd5b9095508781813d8311612399575b6123858183611888565b81010312612395575194386121d6565b8c80fd5b503d61237b565b6123b690883d8a1161042b5761041c8183611888565b50386121ab565b865162461bcd60e51b815260048101879052601b60248201527f496e73756666696369656e7420737461626c652062616c616e636500000000006044820152606490fd5b865162461bcd60e51b815260048101879052601960248201527f50617468206d75737420656e64207769746820746172676574000000000000006044820152606490fd5b634e487b7160e01b8b52601160045260248bfd5b855162461bcd60e51b815260048101869052601f60248201527f50617468206d757374207374617274207769746820737461626c65636f696e006044820152606490fd5b634e487b7160e01b8a52601160045260248afd5b86546001600160a01b03168552958101958b955090930192018e611b2c565b9060018060a01b03808316600092818452602092600a845283604092838720908451986124fc8a611842565b82548a526001998a840154918582019283528a8c60036002880154978b8601988952018a5180998a93818454938481520193865281862095915b83831061293c575050505061254d92500387611888565b6060820195865281511561292e5761256490612eba565b93612710948581029080820487149015171561291a57611b7d85612587926119e1565b831115612626575061259f9291611ba0915190611965565b04918151845163313ce56760e01b91828252600492898385818c5afa928315611eb6578b93612607575b50888b528b8a5284888c205416928851938285528b858781845afa94851561204b578c8e9661201857505090610c63611c20611c1a611c26946130b6565b61261f9193508a3d8c11611ffe57611fef8183611888565b91386125c9565b815190519899969892939261263a91611965565b831061264e575b5050505050505050505050565b61265c92611ba09151611965565b049361266785612a76565b9486885288845261267c82868a2054166130b6565b670de0b6b3a764000080830290838204148315171561249d576121066064926126a4926119e1565b049251906126b0611972565b82806126bb84611a5a565b51169716809703612459578151600019949085810190811161244557846126e38b9286611a9d565b51160361240157878a526006865280878b2054106123bd5760048054885163095ea7b360e01b81529086166001600160a01b03168183015260248101839052909695949392919086816044818f8e5af18015611ef457908a949392916128fd575b5088519487866024816370a0823160e01b988982528d30908301525afa95861561204b578d966128ce575b5088541691610384420180421161235a57918d8094926127a98c999897958e519a8b9788968795634401edf760e11b875230938701612a3d565b03925af1928315612074578a936128b2575b508651908152308682015284816024818b5afa908115612074578a91612883575b506127e691611965565b93868952600684528589206127fc868254611965565b905581518381019081116122fc576128149083611a9d565b51888a526006855261282a878b2091825461181f565b905581519283019283116122e957507fdd36740e2a012d93061a0d99eaa9107860955de4e90027d3cf465a055026c4079493929161286791611a9d565b51908351928352820152a3553880808080808080808080612641565b90508481813d83116128ab575b61289a8183611888565b8101031261058e57516127e66127dc565b503d612890565b6128c79193503d808c833e611ee58183611888565b91386127bb565b9095508781813d83116128f6575b6128e68183611888565b810103126123955751943861276f565b503d6128dc565b61291390883d8a1161042b5761041c8183611888565b5038612744565b634e487b7160e01b8c52601160045260248cfd5b505050505050505050505050565b909294508291938d87541681520194019101918f928a938f959395612536565b908160209103126100bc575160ff811681036100bc5790565b60ff16604d811161182c57600a0a90565b60209081818403126100bc5780519067ffffffffffffffff82116100bc57019180601f840112156100bc5782516129bc816118aa565b936129ca6040519586611888565b818552838086019260051b8201019283116100bc578301905b8282106129f1575050505090565b815181529083019083016129e3565b90815180825260208080930193019160005b828110612a20575050505090565b83516001600160a01b031685529381019392810192600101612a12565b9192608093612a6292979695978452602084015260a0604084015260a0830190612a00565b6001600160a01b0390951660608201520152565b73ebcc972b6b3eb15c0592be1871838963d0b94278806000526006602052816040600020541015612b10575073e5118e47e061ab15ca972d045b35193f673bcc3690816000526040600020541015612b0d5760405162461bcd60e51b815260206004820152601d60248201527f496e73756666696369656e7420737461626c65206c69717569646974790000006044820152606490fd5b90565b905090565b73a1a245cc76414dc143687d9c3de1152396f352d660008181527fdeb45d6aabd04197ffb785653e55ff0e08a12766f8012f67a27ccad1190fa5db54600960209081527f88202418a051c9516f022fd072ab17b80308d6ed445f31f3df6074606dffdde754604093926001600160a01b0391821680612bc7575b5050916006612bc39492612bb88795670de0b6b3a76400009885526001835285852054166130b6565b9483525220546118ee565b0490565b90836024928751938480926370a0823160e01b82523060048301525afa918215612c51578592612c20575b5092612bb8670de0b6b3a7640000979593612c13600694612bc3999761181f565b5093959750509294612b8f565b9091508381813d8311612c4a575b612c388183611888565b810103126103f3575190612bb8612bf2565b503d612c2e565b86513d87823e3d90fd5b73ebcc972b6b3eb15c0592be1871838963d0b9427860008181527f707d3679de15906d97987bc7aad1e9f95aa6cb24ae471f1183cd969b89977bbe54600960209081527fd48c19247a4bce0ffe3806d0a3cc642d28b86c8f26f4d6720e4716c8f778e57f549294939290916040916001600160a01b0391908216908482612da3575b5050508386526001835281862054168015612d6857612cfb906130b6565b91815163313ce56760e01b81528181600481885afa908115612d5e57610ff5949392612d368993600693612b0d9a9b91612d41575b50612975565b9683525220546118ee565b612d589150833d8511611ffe57611fef8183611888565b38612d30565b83513d89823e3d90fd5b815162461bcd60e51b8152600481018490526014602482015273141c9a58d94819995959081b9bdd08199bdd5b9960621b6044820152606490fd5b84516370a0823160e01b815230600482015292839060249082905afa908115612e11578891612de0575b612dd7925061181f565b50388084612cdd565b90508482813d8311612e0a575b612df78183611888565b81010312610fdd57612dd7915190612dcd565b503d612ded565b84513d8a823e3d90fd5b73e5118e47e061ab15ca972d045b35193f673bcc3660008181527f0f51b1e71cf0ee20676b8c7d74395993dff171d164afe144da8bd154c7e69b2054600960209081527f6bd289ec3d3e4b7e4ac276a02cc9de823a5f2ccb75e069369327dae4ce74593d549294939290916040916001600160a01b0391908216908482612da3575050508386526001835281862054168015612d6857612cfb906130b6565b9060018060a01b03809216600092818452602090600682526040908186205460098452818388205416908482612f4d575b50505073a1a245cc76414dc143687d9c3de1152396f352d6808514612f2657508386526001835281862054168015612d6857612cfb906130b6565b612bc39493612bb88893600693670de0b6b3a7640000999a526001835285852054166130b6565b84516370a0823160e01b815230600482015292839060249082905afa908115612e11578891612f8a575b612f81925061181f565b50388084612eeb565b90508482813d8311612fb4575b612fa18183611888565b81010312610fdd57612f81915190612f77565b503d612f97565b612fc3612b15565b6040516060810181811067ffffffffffffffff82111761185e5760405260028152604036602083013773ebcc972b6b3eb15c0592be1871838963d0b9427861300a82611a5a565b5273e5118e47e061ab15ca972d045b35193f673bcc3661302982611a7d565b526000915b815183101561306d57613067906130619061305b6001600160a01b036130548787611a9d565b5116612eba565b9061181f565b92611ab1565b9161302e565b91505090565b61307b612b15565b613083612fbb565b60648202918083046064149015171561182c57612b0d916119e1565b519069ffffffffffffffffffff821682036100bc57565b604051633fabe5a360e21b81529060a090829060049082906001600160a01b03165afa80156131c5576000918291613171575b50600082131561313c57610e0f1942019042821161182c57106131095790565b60405162461bcd60e51b815260206004820152600b60248201526a5374616c6520707269636560a81b6044820152606490fd5b60405162461bcd60e51b815260206004820152600d60248201526c496e76616c696420707269636560981b6044820152606490fd5b91905060a0823d82116131bd575b8161318c60a09383611888565b810103126106c6575061319e8161309f565b5060208101516131b560806060840151930161309f565b5090386130e9565b3d915061317f565b6040513d6000823e3d90fdfea26469706673582212203af01aa68a553821f091e1b71032ab088365597c8b74232ffa24bbc6c9d804bc64736f6c63430008140033","opcodes":"PUSH1 0x80 CALLVALUE PUSH3 0x1EC JUMPI PUSH1 0x1 PUSH1 0x0 DUP2 DUP2 SSTORE PUSH1 0x4 DUP1 SLOAD PUSH1 0x1 PUSH1 0x1 PUSH1 0xA0 SHL SUB NOT SWAP1 DUP2 AND PUSH20 0xC532A74256D3DB42D0BF7A0400FEFDBAD7694008 OR DUP3 SSTORE PUSH1 0x2 DUP1 SLOAD DUP3 AND CALLER OR SWAP1 SSTORE PUSH1 0x20 SWAP4 SWAP1 SWAP4 MSTORE PUSH32 0xDD30F26761A197A30F1122555D987C7244E5928EDAD3F9E0FFF79501608E2890 DUP1 SLOAD DUP5 AND PUSH20 0x694AA1769357215DE4FAC081BF1F309ADC325306 OR SWAP1 SSTORE PUSH32 0x473F4E406F2E237914D6364ACE7626DDBAA8A1B0939171D040C31CC1EA4F2176 DUP1 SLOAD DUP5 AND PUSH20 0xA2F78AB2355FE2F984D808B5CEE7FD0A93D5270E OR SWAP1 SSTORE PUSH20 0xE5118E47E061AB15CA972D045B35193F673BCC36 DUP1 DUP4 MSTORE PUSH32 0x10D2883CD297BC708B0E9947825807175BE535A6E959B869B4704EAA831CF9FE DUP1 SLOAD SWAP1 SWAP5 AND PUSH20 0x14866185B1962B63C3EA9E03BC1DA838BAB34C19 OR SWAP1 SWAP4 SSTORE PUSH1 0x40 SWAP4 PUSH1 0x60 DUP2 ADD SWAP3 SWAP2 SWAP1 PUSH20 0xEBCC972B6B3EB15C0592BE1871838963D0B94278 PUSH20 0xA1A245CC76414DC143687D9C3DE1152396F352D6 PUSH1 0x1 PUSH1 0x1 PUSH1 0x40 SHL SUB DUP7 GT DUP4 DUP8 LT OR PUSH3 0x1D9 JUMPI DUP6 DUP9 MSTORE PUSH1 0x2 DUP4 MSTORE PUSH1 0x20 DUP4 ADD DUP9 CALLDATASIZE DUP3 CALLDATACOPY DUP4 MLOAD ISZERO PUSH3 0x1C6 JUMPI MSTORE DUP2 MLOAD PUSH1 0x1 LT ISZERO PUSH3 0x1B3 JUMPI DUP7 DUP3 ADD MSTORE MLOAD PUSH1 0x2 LT ISZERO PUSH3 0x1A0 JUMPI POP POP MSTORE MLOAD PUSH2 0x3207 SWAP1 DUP2 PUSH3 0x1F2 DUP3 CODECOPY RETURN JUMPDEST PUSH4 0x4E487B71 PUSH1 0xE0 SHL DUP3 MSTORE PUSH1 0x32 SWAP1 MSTORE PUSH1 0x24 SWAP1 REVERT JUMPDEST PUSH4 0x4E487B71 PUSH1 0xE0 SHL DUP5 MSTORE PUSH1 0x32 DUP4 MSTORE PUSH1 0x24 DUP5 REVERT JUMPDEST PUSH4 0x4E487B71 PUSH1 0xE0 SHL DUP7 MSTORE PUSH1 0x32 DUP6 MSTORE PUSH1 0x24 DUP7 REVERT JUMPDEST PUSH4 0x4E487B71 PUSH1 0xE0 SHL DUP6 MSTORE PUSH1 0x41 DUP5 MSTORE PUSH1 0x24 DUP6 REVERT JUMPDEST PUSH1 0x0 DUP1 REVERT INVALID PUSH1 0x80 PUSH1 0x40 DUP2 DUP2 MSTORE PUSH1 0x4 SWAP2 DUP3 CALLDATASIZE LT ISZERO PUSH2 0xC1 JUMPI JUMPDEST POP CALLDATASIZE ISZERO PUSH2 0x1E JUMPI PUSH1 0x0 DUP1 REVERT JUMPDEST PUSH20 0xA1A245CC76414DC143687D9C3DE1152396F352D6 SWAP2 DUP3 EXTCODESIZE ISZERO PUSH2 0xBC JUMPI DUP2 MLOAD PUSH4 0xD0E30DB PUSH1 0xE4 SHL DUP2 MSTORE PUSH1 0x0 SWAP2 DUP3 SWAP1 DUP3 SWAP1 DUP2 CALLVALUE DUP9 GAS CALL DUP1 ISZERO PUSH2 0xB2 JUMPI SWAP3 PUSH1 0x20 SWAP3 DUP2 SWAP3 PUSH32 0x543BA50A5EEC5E6178218E364B1D0F396157B3C8FA278522C2CB7FD99407D474 SWAP6 PUSH2 0xA3 JUMPI JUMPDEST POP DUP6 DUP2 MSTORE PUSH1 0x6 DUP5 MSTORE KECCAK256 PUSH2 0x9A CALLVALUE DUP3 SLOAD PUSH2 0x181F JUMP JUMPDEST SWAP1 SSTORE MLOAD CALLVALUE DUP2 MSTORE LOG2 STOP JUMPDEST PUSH2 0xAC SWAP1 PUSH2 0x1874 JUMP JUMPDEST CODESIZE PUSH2 0x86 JUMP JUMPDEST DUP4 MLOAD RETURNDATASIZE DUP5 DUP3 RETURNDATACOPY RETURNDATASIZE SWAP1 REVERT JUMPDEST PUSH1 0x0 DUP1 REVERT JUMPDEST PUSH1 0x0 SWAP1 DUP2 CALLDATALOAD PUSH1 0xE0 SHR SWAP1 DUP2 PUSH4 0x8A01675 EQ PUSH2 0x17A0 JUMPI POP DUP1 PUSH4 0x98DBF5C EQ PUSH2 0x1695 JUMPI DUP1 PUSH4 0x12065FE0 EQ PUSH2 0x15FA JUMPI DUP1 PUSH4 0x1ACB5390 EQ PUSH2 0x15C2 JUMPI DUP1 PUSH4 0x26EFF0F2 EQ PUSH2 0x1522 JUMPI DUP1 PUSH4 0x29AB437B EQ PUSH2 0x14D7 JUMPI DUP1 PUSH4 0x34DC9E32 EQ PUSH2 0x149F JUMPI DUP1 PUSH4 0x3ED55F0C EQ PUSH2 0x12DA JUMPI DUP1 PUSH4 0x4158A94D EQ PUSH2 0x10A1 JUMPI DUP1 PUSH4 0x4450C203 EQ PUSH2 0x1078 JUMPI DUP1 PUSH4 0x487EDE04 EQ PUSH2 0xDB4 JUMPI DUP1 PUSH4 0x4F64D9D9 EQ PUSH2 0xBE8 JUMPI DUP1 PUSH4 0x523FBA7F EQ PUSH2 0xBB0 JUMPI DUP1 PUSH4 0x5B9F2079 EQ PUSH2 0xB75 JUMPI DUP1 PUSH4 0x65ED6E23 EQ PUSH2 0xA8C JUMPI DUP1 PUSH4 0x6E9FFF57 EQ PUSH2 0xA63 JUMPI DUP1 PUSH4 0x735DE9F7 EQ PUSH2 0xA3B JUMPI DUP1 PUSH4 0x7609D7F6 EQ PUSH2 0x9DB JUMPI DUP1 PUSH4 0x89A30271 EQ PUSH2 0x9AC JUMPI DUP1 PUSH4 0x8DA5CB5B EQ PUSH2 0x983 JUMPI DUP1 PUSH4 0x93E5E90F EQ PUSH2 0x95D JUMPI DUP1 PUSH4 0x95A566BD EQ PUSH2 0x940 JUMPI DUP1 PUSH4 0x95CCEA67 EQ PUSH2 0x7F2 JUMPI DUP1 PUSH4 0x9DCB511A EQ PUSH2 0x7B7 JUMPI DUP1 PUSH4 0xAD5C4648 EQ PUSH2 0x788 JUMPI DUP1 PUSH4 0xB7997DA1 EQ PUSH2 0x6E6 JUMPI DUP1 PUSH4 0xCAA648B4 EQ PUSH2 0x6C9 JUMPI DUP1 PUSH4 0xDC133E89 EQ PUSH2 0x67B JUMPI DUP1 PUSH4 0xDD41D050 EQ PUSH2 0x657 JUMPI DUP1 PUSH4 0xE0BAB4C4 EQ PUSH2 0x628 JUMPI DUP1 PUSH4 0xEEB149E7 EQ PUSH2 0x249 JUMPI PUSH4 0xF9759518 SUB PUSH2 0x12 JUMPI SWAP1 CALLVALUE PUSH2 0x245 JUMPI DUP2 PUSH1 0x3 NOT CALLDATASIZE ADD SLT PUSH2 0x245 JUMPI PUSH1 0x20 SWAP1 MLOAD PUSH1 0x5 DUP2 MSTORE RETURN JUMPDEST POP DUP1 REVERT JUMPDEST POP SWAP2 SWAP1 CALLVALUE PUSH2 0x624 JUMPI DUP1 PUSH1 0x3 NOT CALLDATASIZE ADD SLT PUSH2 0x624 JUMPI PUSH2 0x264 PUSH2 0x17CE JUMP JUMPDEST PUSH1 0x24 DUP1 CALLDATALOAD SWAP1 PUSH1 0x1 DUP1 PUSH1 0xA0 SHL SUB DUP1 SWAP4 PUSH2 0x281 DUP3 PUSH1 0x3 SLOAD AND CALLER EQ PUSH2 0x1901 JUMP JUMPDEST PUSH2 0x289 PUSH2 0x1972 JUMP JUMPDEST AND SWAP5 DUP5 MLOAD SWAP4 PUSH4 0x70A08231 PUSH1 0xE0 SHL DUP6 MSTORE ADDRESS DUP3 DUP7 ADD MSTORE PUSH1 0x20 SWAP5 DUP6 DUP2 DUP6 DUP2 DUP12 GAS STATICCALL DUP1 ISZERO PUSH2 0x61A JUMPI DUP6 SWAP1 DUP11 SWAP1 PUSH2 0x5E9 JUMPI JUMPDEST PUSH2 0x2C2 SWAP3 POP LT ISZERO PUSH2 0x1995 JUMP JUMPDEST PUSH2 0x2CA PUSH2 0x2FBB JUMP JUMPDEST PUSH2 0x1F40 SWAP1 DUP2 DUP2 MUL SWAP2 DUP2 DUP4 DIV EQ SWAP1 ISZERO OR ISZERO PUSH2 0x5D7 JUMPI PUSH2 0x2710 SWAP1 DIV DUP5 GT PUSH2 0x5A3 JUMPI SWAP1 DUP8 SWAP3 SWAP2 DUP8 DUP5 MSTORE PUSH1 0x6 DUP7 MSTORE DUP7 DUP5 KECCAK256 PUSH2 0x302 DUP7 DUP3 SLOAD PUSH2 0x1965 JUMP JUMPDEST SWAP1 SSTORE DUP8 DUP5 MSTORE PUSH1 0x9 DUP7 MSTORE DUP1 DUP8 DUP6 KECCAK256 SLOAD AND ISZERO PUSH2 0x43C JUMPI JUMPDEST POP DUP6 MLOAD SWAP1 PUSH4 0x95EA7B3 PUSH1 0xE0 SHL DUP3 MSTORE PUSH20 0x368EEDF3F56AD10B9BC57EED4DAC65B26BB667F6 SWAP2 DUP3 DUP3 DUP3 ADD MSTORE DUP6 DUP5 DUP3 ADD MSTORE DUP7 DUP2 PUSH1 0x44 DUP2 DUP9 DUP14 GAS CALL DUP1 ISZERO PUSH2 0x432 JUMPI PUSH2 0x405 JUMPI JUMPDEST POP DUP2 EXTCODESIZE ISZERO PUSH2 0x401 JUMPI PUSH1 0x84 DUP9 SWAP2 DUP6 DUP1 SWAP5 DUP9 DUP12 MLOAD SWAP8 DUP9 SWAP7 DUP8 SWAP6 PUSH4 0xE8EDA9DF PUSH1 0xE0 SHL DUP8 MSTORE DUP7 ADD MSTORE DUP5 ADD MSTORE ADDRESS PUSH1 0x44 DUP5 ADD MSTORE DUP2 PUSH1 0x64 DUP5 ADD MSTORE GAS CALL DUP1 ISZERO PUSH2 0x3F7 JUMPI PUSH2 0x3DF JUMPI JUMPDEST POP SWAP3 DUP5 PUSH32 0x61C74C7B35F6F1B220BB406A21982A8D0B6EC18192A649FF4AA205A3F858BE6A SWAP5 MSTORE PUSH1 0x7 DUP4 MSTORE DUP1 DUP7 KECCAK256 PUSH2 0x3D1 DUP4 DUP3 SLOAD PUSH2 0x181F JUMP JUMPDEST SWAP1 SSTORE MLOAD SWAP1 DUP2 MSTORE LOG2 PUSH1 0x1 DUP2 SSTORE DUP1 RETURN JUMPDEST PUSH2 0x3E8 SWAP1 PUSH2 0x1874 JUMP JUMPDEST PUSH2 0x3F3 JUMPI DUP5 CODESIZE PUSH2 0x399 JUMP JUMPDEST DUP5 DUP1 REVERT JUMPDEST DUP6 MLOAD RETURNDATASIZE DUP5 DUP3 RETURNDATACOPY RETURNDATASIZE SWAP1 REVERT JUMPDEST DUP4 DUP1 REVERT JUMPDEST PUSH2 0x424 SWAP1 DUP8 RETURNDATASIZE DUP10 GT PUSH2 0x42B JUMPI JUMPDEST PUSH2 0x41C DUP2 DUP4 PUSH2 0x1888 JUMP JUMPDEST DUP2 ADD SWAP1 PUSH2 0x194D JUMP JUMPDEST POP CODESIZE PUSH2 0x359 JUMP JUMPDEST POP RETURNDATASIZE PUSH2 0x412 JUMP JUMPDEST DUP9 MLOAD RETURNDATASIZE DUP8 DUP3 RETURNDATACOPY RETURNDATASIZE SWAP1 REVERT JUMPDEST DUP7 MLOAD PUSH4 0x35EA6A75 PUSH1 0xE0 SHL DUP2 MSTORE DUP3 DUP2 ADD DUP10 SWAP1 MSTORE PUSH2 0x100 DUP1 DUP3 DUP7 DUP2 PUSH20 0x368EEDF3F56AD10B9BC57EED4DAC65B26BB667F6 GAS STATICCALL SWAP2 DUP3 ISZERO PUSH2 0x599 JUMPI DUP7 SWAP3 PUSH2 0x4A3 JUMPI JUMPDEST POP POP PUSH1 0xE0 ADD MLOAD AND DUP8 DUP5 MSTORE PUSH1 0x9 DUP7 MSTORE DUP7 DUP5 KECCAK256 SWAP1 PUSH1 0x1 PUSH1 0x1 PUSH1 0x60 SHL SUB PUSH1 0xA0 SHL DUP3 SLOAD AND OR SWAP1 SSTORE CODESIZE PUSH2 0x317 JUMP JUMPDEST DUP2 DUP1 SWAP5 SWAP6 SWAP7 SWAP8 POP DUP2 SWAP4 POP RETURNDATASIZE DUP4 GT PUSH2 0x592 JUMPI JUMPDEST PUSH2 0x4BF DUP2 DUP4 PUSH2 0x1888 JUMP JUMPDEST DUP2 ADD SUB SLT PUSH2 0x58E JUMPI DUP8 MLOAD SWAP2 DUP3 ADD DUP3 DUP2 LT PUSH8 0xFFFFFFFFFFFFFFFF DUP3 GT OR PUSH2 0x57A JUMPI DUP9 MSTORE DUP1 MLOAD DUP3 MSTORE DUP10 SWAP5 SWAP4 SWAP3 SWAP2 SWAP1 PUSH2 0x4F6 DUP9 DUP3 ADD PUSH2 0x1A01 JUMP JUMPDEST DUP9 DUP4 ADD MSTORE PUSH2 0x505 DUP10 DUP3 ADD PUSH2 0x1A01 JUMP JUMPDEST DUP10 DUP4 ADD MSTORE PUSH2 0x515 PUSH1 0x60 DUP3 ADD PUSH2 0x1A01 JUMP JUMPDEST PUSH1 0x60 DUP4 ADD MSTORE PUSH2 0x526 PUSH1 0x80 DUP3 ADD PUSH2 0x1A01 JUMP JUMPDEST PUSH1 0x80 DUP4 ADD MSTORE PUSH2 0x537 PUSH1 0xA0 DUP3 ADD PUSH2 0x1A01 JUMP JUMPDEST PUSH1 0xA0 DUP4 ADD MSTORE PUSH1 0xC0 DUP2 ADD MLOAD SWAP1 PUSH5 0xFFFFFFFFFF DUP3 AND DUP3 SUB PUSH2 0x576 JUMPI PUSH1 0xE0 SWAP2 PUSH1 0xC0 DUP5 ADD MSTORE ADD MLOAD SWAP1 DUP3 DUP3 AND DUP3 SUB PUSH2 0x572 JUMPI PUSH1 0xE0 SWAP2 DUP3 DUP3 ADD MSTORE SWAP1 CODESIZE PUSH2 0x47A JUMP JUMPDEST DUP6 DUP1 REVERT JUMPDEST DUP7 DUP1 REVERT JUMPDEST DUP6 PUSH1 0x41 DUP7 PUSH4 0x4E487B71 PUSH1 0xE0 SHL PUSH1 0x0 MSTORE MSTORE PUSH1 0x0 REVERT JUMPDEST DUP10 DUP1 REVERT JUMPDEST POP RETURNDATASIZE PUSH2 0x4B5 JUMP JUMPDEST DUP10 MLOAD RETURNDATASIZE DUP9 DUP3 RETURNDATACOPY RETURNDATASIZE SWAP1 REVERT JUMPDEST POP PUSH1 0x10 PUSH1 0x64 SWAP3 DUP6 DUP8 MLOAD SWAP4 PUSH3 0x461BCD PUSH1 0xE5 SHL DUP6 MSTORE DUP5 ADD MSTORE DUP3 ADD MSTORE PUSH16 0x4578636565647320416176652063617 PUSH1 0x84 SHL PUSH1 0x44 DUP3 ADD MSTORE REVERT JUMPDEST PUSH4 0x4E487B71 PUSH1 0xE0 SHL DUP10 MSTORE PUSH1 0x11 DUP4 MSTORE DUP4 DUP10 REVERT JUMPDEST POP POP DUP6 DUP2 DUP2 RETURNDATASIZE DUP4 GT PUSH2 0x613 JUMPI JUMPDEST PUSH2 0x600 DUP2 DUP4 PUSH2 0x1888 JUMP JUMPDEST DUP2 ADD SUB SLT PUSH2 0xBC JUMPI DUP5 PUSH2 0x2C2 SWAP2 MLOAD PUSH2 0x2B6 JUMP JUMPDEST POP RETURNDATASIZE PUSH2 0x5F6 JUMP JUMPDEST DUP8 MLOAD RETURNDATASIZE DUP12 DUP3 RETURNDATACOPY RETURNDATASIZE SWAP1 REVERT JUMPDEST DUP3 DUP1 REVERT JUMPDEST POP SWAP1 CALLVALUE PUSH2 0x245 JUMPI DUP2 PUSH1 0x3 NOT CALLDATASIZE ADD SLT PUSH2 0x245 JUMPI PUSH1 0x20 SWAP1 MLOAD PUSH20 0xE5118E47E061AB15CA972D045B35193F673BCC36 DUP2 MSTORE RETURN JUMPDEST POP SWAP1 CALLVALUE PUSH2 0x245 JUMPI DUP2 PUSH1 0x3 NOT CALLDATASIZE ADD SLT PUSH2 0x245 JUMPI PUSH1 0x20 SWAP1 PUSH2 0x674 PUSH2 0x3073 JUMP JUMPDEST SWAP1 MLOAD SWAP1 DUP2 MSTORE RETURN JUMPDEST POP CALLVALUE PUSH2 0x6C6 JUMPI PUSH1 0x20 CALLDATASIZE PUSH1 0x3 NOT ADD SLT PUSH2 0x6C6 JUMPI PUSH2 0x695 PUSH2 0x17CE JUMP JUMPDEST PUSH1 0x2 SLOAD PUSH1 0x1 PUSH1 0x1 PUSH1 0xA0 SHL SUB SWAP2 SWAP1 PUSH2 0x6AF SWAP1 DUP4 AND CALLER EQ PUSH2 0x17E4 JUMP JUMPDEST AND PUSH1 0x1 PUSH1 0x1 PUSH1 0x60 SHL SUB PUSH1 0xA0 SHL PUSH1 0x3 SLOAD AND OR PUSH1 0x3 SSTORE DUP1 RETURN JUMPDEST DUP1 REVERT JUMPDEST POP SWAP1 CALLVALUE PUSH2 0x245 JUMPI DUP2 PUSH1 0x3 NOT CALLDATASIZE ADD SLT PUSH2 0x245 JUMPI PUSH1 0x20 SWAP1 PUSH2 0x674 PUSH2 0x2FBB JUMP JUMPDEST POP SWAP2 SWAP1 CALLVALUE PUSH2 0x624 JUMPI DUP1 PUSH1 0x3 NOT CALLDATASIZE ADD SLT PUSH2 0x624 JUMPI PUSH2 0x701 PUSH2 0x17CE JUMP JUMPDEST PUSH1 0x24 CALLDATALOAD PUSH1 0x1 PUSH1 0x1 PUSH1 0xA0 SHL SUB DUP2 DUP2 AND SWAP5 SWAP1 SWAP3 SWAP2 DUP6 SWAP1 SUB PUSH2 0xBC JUMPI PUSH2 0x729 DUP4 PUSH1 0x2 SLOAD AND CALLER EQ PUSH2 0x17E4 JUMP JUMPDEST DUP5 ISZERO PUSH2 0x74E JUMPI POP AND DUP4 MSTORE PUSH1 0x1 PUSH1 0x20 MSTORE DUP3 KECCAK256 DUP1 SLOAD PUSH1 0x1 PUSH1 0x1 PUSH1 0xA0 SHL SUB NOT AND SWAP1 SWAP2 OR SWAP1 SSTORE DUP1 RETURN JUMPDEST PUSH1 0x64 SWAP1 PUSH1 0x20 DUP6 MLOAD SWAP2 PUSH3 0x461BCD PUSH1 0xE5 SHL DUP4 MSTORE DUP3 ADD MSTORE PUSH1 0x14 PUSH1 0x24 DUP3 ADD MSTORE PUSH20 0x496E76616C696420666565642061646472657373 PUSH1 0x60 SHL PUSH1 0x44 DUP3 ADD MSTORE REVERT JUMPDEST POP SWAP1 CALLVALUE PUSH2 0x245 JUMPI DUP2 PUSH1 0x3 NOT CALLDATASIZE ADD SLT PUSH2 0x245 JUMPI PUSH1 0x20 SWAP1 MLOAD PUSH20 0xA1A245CC76414DC143687D9C3DE1152396F352D6 DUP2 MSTORE RETURN JUMPDEST POP SWAP1 CALLVALUE PUSH2 0x245 JUMPI PUSH1 0x20 CALLDATASIZE PUSH1 0x3 NOT ADD SLT PUSH2 0x245 JUMPI PUSH1 0x20 SWAP2 PUSH1 0x1 PUSH1 0x1 PUSH1 0xA0 SHL SUB SWAP1 DUP3 SWAP1 DUP3 PUSH2 0x7E1 PUSH2 0x17CE JUMP JUMPDEST AND DUP2 MSTORE PUSH1 0x1 DUP6 MSTORE KECCAK256 SLOAD AND SWAP1 MLOAD SWAP1 DUP2 MSTORE RETURN JUMPDEST POP DUP1 SWAP3 CALLVALUE PUSH2 0x245 JUMPI DUP3 PUSH1 0x3 NOT CALLDATASIZE ADD SLT PUSH2 0x245 JUMPI PUSH2 0x80D PUSH2 0x17CE JUMP JUMPDEST PUSH1 0x2 SLOAD PUSH1 0x1 PUSH1 0x1 PUSH1 0xA0 SHL SUB SWAP1 DUP2 AND SWAP3 PUSH1 0x24 CALLDATALOAD SWAP3 DUP3 SWAP1 PUSH2 0x82D CALLER DUP8 EQ PUSH2 0x17E4 JUMP JUMPDEST AND PUSH20 0xA1A245CC76414DC143687D9C3DE1152396F352D6 SWAP5 DUP6 DUP3 EQ PUSH1 0x0 EQ PUSH2 0x8D1 JUMPI POP POP DUP4 EXTCODESIZE ISZERO PUSH2 0x3F3 JUMPI DUP3 PUSH1 0x24 DUP7 SWAP3 DUP4 DUP10 MLOAD SWAP8 DUP9 SWAP5 DUP6 SWAP4 PUSH4 0x2E1A7D4D PUSH1 0xE0 SHL DUP6 MSTORE DUP5 ADD MSTORE GAS CALL SWAP3 DUP4 ISZERO PUSH2 0x8C7 JUMPI DUP5 SWAP4 PUSH2 0x8AF JUMPI JUMPDEST POP DUP3 SWAP2 DUP3 SWAP2 PUSH1 0x2 SLOAD AND DUP3 DUP3 ISZERO PUSH2 0x8A6 JUMPI JUMPDEST CALL ISZERO PUSH2 0x89C JUMPI POP DUP1 RETURN JUMPDEST MLOAD SWAP1 RETURNDATASIZE SWAP1 DUP3 RETURNDATACOPY RETURNDATASIZE SWAP1 REVERT JUMPDEST POP PUSH2 0x8FC PUSH2 0x892 JUMP JUMPDEST PUSH2 0x8BB SWAP1 SWAP4 SWAP2 SWAP4 PUSH2 0x1874 JUMP JUMPDEST PUSH2 0x624 JUMPI DUP3 SWAP2 CODESIZE PUSH2 0x881 JUMP JUMPDEST DUP6 MLOAD RETURNDATASIZE DUP7 DUP3 RETURNDATACOPY RETURNDATASIZE SWAP1 REVERT JUMPDEST DUP8 MLOAD PUSH4 0xA9059CBB PUSH1 0xE0 SHL DUP2 MSTORE PUSH1 0x1 PUSH1 0x1 PUSH1 0xA0 SHL SUB SWAP1 SWAP2 AND SWAP3 DUP2 ADD SWAP3 DUP4 MSTORE PUSH1 0x20 DUP4 DUP2 ADD SWAP6 SWAP1 SWAP6 MSTORE SWAP7 SWAP6 SWAP4 SWAP5 POP DUP7 SWAP4 SWAP1 SWAP3 POP DUP4 SWAP2 DUP3 SWAP1 PUSH1 0x40 ADD SUB SWAP3 GAS CALL SWAP1 DUP2 ISZERO PUSH2 0x937 JUMPI POP PUSH2 0x91C JUMPI POP DUP1 RETURN JUMPDEST PUSH2 0x933 SWAP1 PUSH1 0x20 RETURNDATASIZE DUP2 GT PUSH2 0x42B JUMPI PUSH2 0x41C DUP2 DUP4 PUSH2 0x1888 JUMP JUMPDEST POP DUP1 RETURN JUMPDEST MLOAD RETURNDATASIZE DUP5 DUP3 RETURNDATACOPY RETURNDATASIZE SWAP1 REVERT JUMPDEST POP SWAP1 CALLVALUE PUSH2 0x245 JUMPI DUP2 PUSH1 0x3 NOT CALLDATASIZE ADD SLT PUSH2 0x245 JUMPI PUSH1 0x20 SWAP1 MLOAD PUSH2 0x1F40 DUP2 MSTORE RETURN JUMPDEST POP SWAP1 CALLVALUE PUSH2 0x245 JUMPI PUSH1 0x20 CALLDATASIZE PUSH1 0x3 NOT ADD SLT PUSH2 0x245 JUMPI PUSH1 0x20 SWAP1 PUSH2 0x674 PUSH2 0x97E PUSH2 0x17CE JUMP JUMPDEST PUSH2 0x2EBA JUMP JUMPDEST POP SWAP1 CALLVALUE PUSH2 0x245 JUMPI DUP2 PUSH1 0x3 NOT CALLDATASIZE ADD SLT PUSH2 0x245 JUMPI PUSH1 0x2 SLOAD SWAP1 MLOAD PUSH1 0x1 PUSH1 0x1 PUSH1 0xA0 SHL SUB SWAP1 SWAP2 AND DUP2 MSTORE PUSH1 0x20 SWAP1 RETURN JUMPDEST POP SWAP1 CALLVALUE PUSH2 0x245 JUMPI DUP2 PUSH1 0x3 NOT CALLDATASIZE ADD SLT PUSH2 0x245 JUMPI PUSH1 0x20 SWAP1 MLOAD PUSH20 0xEBCC972B6B3EB15C0592BE1871838963D0B94278 DUP2 MSTORE RETURN JUMPDEST POP SWAP1 CALLVALUE PUSH2 0x245 JUMPI PUSH1 0x20 CALLDATASIZE PUSH1 0x3 NOT ADD SLT PUSH2 0x245 JUMPI SWAP1 DUP2 SWAP1 PUSH1 0x1 PUSH1 0x1 PUSH1 0xA0 SHL SUB PUSH2 0xA01 PUSH2 0x17CE JUMP JUMPDEST AND DUP2 MSTORE PUSH1 0xA PUSH1 0x20 MSTORE KECCAK256 SWAP1 PUSH2 0xA37 DUP3 SLOAD SWAP2 PUSH1 0x2 PUSH1 0x1 DUP6 ADD SLOAD SWAP5 ADD SLOAD SWAP1 MLOAD SWAP4 DUP5 SWAP4 DUP5 PUSH1 0x40 SWAP2 SWAP5 SWAP4 SWAP3 PUSH1 0x60 DUP3 ADD SWAP6 DUP3 MSTORE PUSH1 0x20 DUP3 ADD MSTORE ADD MSTORE JUMP JUMPDEST SUB SWAP1 RETURN JUMPDEST POP SWAP2 CALLVALUE PUSH2 0x624 JUMPI DUP3 PUSH1 0x3 NOT CALLDATASIZE ADD SLT PUSH2 0x624 JUMPI SLOAD SWAP1 MLOAD PUSH1 0x1 PUSH1 0x1 PUSH1 0xA0 SHL SUB SWAP1 SWAP2 AND DUP2 MSTORE PUSH1 0x20 SWAP2 POP RETURN JUMPDEST POP SWAP1 CALLVALUE PUSH2 0x245 JUMPI DUP2 PUSH1 0x3 NOT CALLDATASIZE ADD SLT PUSH2 0x245 JUMPI PUSH1 0x5 SLOAD SWAP1 MLOAD PUSH1 0x1 PUSH1 0x1 PUSH1 0xA0 SHL SUB SWAP1 SWAP2 AND DUP2 MSTORE PUSH1 0x20 SWAP1 RETURN JUMPDEST POP SWAP1 CALLVALUE PUSH2 0x245 JUMPI DUP2 PUSH1 0x3 NOT CALLDATASIZE ADD SLT PUSH2 0x245 JUMPI PUSH2 0xAA6 PUSH2 0x2FBB JUMP JUMPDEST PUSH2 0xAAE PUSH2 0x2B15 JUMP JUMPDEST SWAP2 PUSH1 0x64 SWAP3 DUP4 DUP2 MUL SWAP1 DUP1 DUP3 DIV DUP6 EQ SWAP1 ISZERO OR ISZERO PUSH2 0xB62 JUMPI DUP3 PUSH2 0xACD SWAP2 PUSH2 0x19E1 JUMP JUMPDEST SWAP3 PUSH2 0xAD6 PUSH2 0x2C5B JUMP JUMPDEST DUP2 DUP2 MUL SWAP1 DUP1 DUP3 DIV DUP4 EQ SWAP1 ISZERO OR ISZERO PUSH2 0xB4F JUMPI DUP4 PUSH2 0xAF1 SWAP2 PUSH2 0x19E1 JUMP JUMPDEST SWAP5 PUSH2 0xAFA PUSH2 0x2E1B JUMP JUMPDEST DUP3 DUP2 MUL SWAP3 DUP2 DUP5 DIV EQ SWAP1 ISZERO OR ISZERO PUSH2 0xB3C JUMPI POP SWAP1 PUSH2 0xB1A DUP4 PUSH2 0xA37 SWAP5 SWAP4 PUSH2 0x19E1 JUMP JUMPDEST SWAP1 MLOAD SWAP5 DUP6 SWAP5 DUP6 SWAP1 SWAP5 SWAP4 SWAP3 PUSH1 0x60 SWAP3 PUSH1 0x80 DUP4 ADD SWAP7 DUP4 MSTORE PUSH1 0x20 DUP4 ADD MSTORE PUSH1 0x40 DUP3 ADD MSTORE ADD MSTORE JUMP JUMPDEST PUSH4 0x4E487B71 PUSH1 0xE0 SHL DUP2 MSTORE PUSH1 0x11 DUP8 MSTORE PUSH1 0x24 SWAP1 REVERT JUMPDEST PUSH4 0x4E487B71 PUSH1 0xE0 SHL DUP7 MSTORE PUSH1 0x11 DUP8 MSTORE PUSH1 0x24 DUP7 REVERT JUMPDEST PUSH4 0x4E487B71 PUSH1 0xE0 SHL DUP6 MSTORE PUSH1 0x11 DUP7 MSTORE PUSH1 0x24 DUP6 REVERT JUMPDEST POP SWAP1 CALLVALUE PUSH2 0x245 JUMPI PUSH1 0x20 CALLDATASIZE PUSH1 0x3 NOT ADD SLT PUSH2 0x245 JUMPI PUSH1 0x20 SWAP2 PUSH1 0x1 PUSH1 0x1 PUSH1 0xA0 SHL SUB SWAP1 DUP3 SWAP1 DUP3 PUSH2 0xB9F PUSH2 0x17CE JUMP JUMPDEST AND DUP2 MSTORE PUSH1 0x9 DUP6 MSTORE KECCAK256 SLOAD AND SWAP1 MLOAD SWAP1 DUP2 MSTORE RETURN JUMPDEST POP SWAP1 CALLVALUE PUSH2 0x245 JUMPI PUSH1 0x20 CALLDATASIZE PUSH1 0x3 NOT ADD SLT PUSH2 0x245 JUMPI PUSH1 0x20 SWAP2 DUP2 SWAP1 PUSH1 0x1 PUSH1 0x1 PUSH1 0xA0 SHL SUB PUSH2 0xBD8 PUSH2 0x17CE JUMP JUMPDEST AND DUP2 MSTORE PUSH1 0x6 DUP5 MSTORE KECCAK256 SLOAD SWAP1 MLOAD SWAP1 DUP2 MSTORE RETURN JUMPDEST POP SWAP2 CALLVALUE PUSH2 0x624 JUMPI DUP3 PUSH1 0x3 NOT CALLDATASIZE ADD SLT PUSH2 0x624 JUMPI PUSH2 0xC0F PUSH1 0x1 DUP1 PUSH1 0xA0 SHL SUB PUSH1 0x5 SLOAD AND CALLER EQ PUSH2 0x1A1E JUMP JUMPDEST DUP2 MLOAD SWAP2 PUSH2 0xC1B DUP4 PUSH2 0x1842 JUMP JUMPDEST PUSH1 0x3 DUP4 MSTORE PUSH1 0x20 DUP1 DUP5 ADD SWAP3 PUSH1 0x60 CALLDATASIZE DUP6 CALLDATACOPY PUSH2 0xC32 PUSH2 0x3073 JUMP JUMPDEST PUSH2 0xC3B DUP7 PUSH2 0x1A5A JUMP JUMPDEST MSTORE PUSH2 0xC44 PUSH2 0x2C5B JUMP JUMPDEST PUSH1 0x64 DUP2 MUL SWAP1 DUP1 DUP3 DIV PUSH1 0x64 EQ SWAP1 ISZERO OR ISZERO PUSH2 0xDA1 JUMPI PUSH2 0xC69 SWAP1 PUSH2 0xC63 PUSH2 0x2FBB JUMP JUMPDEST SWAP1 PUSH2 0x19E1 JUMP JUMPDEST PUSH2 0xC72 DUP7 PUSH2 0x1A7D JUMP JUMPDEST MSTORE PUSH2 0xC7B PUSH2 0x2E1B JUMP JUMPDEST SWAP1 PUSH1 0x64 DUP3 MUL SWAP2 DUP1 DUP4 DIV PUSH1 0x64 EQ SWAP1 ISZERO OR ISZERO PUSH2 0xD8E JUMPI POP PUSH2 0xC9F SWAP1 PUSH2 0xC63 SWAP4 SWAP3 SWAP4 PUSH2 0x2FBB JUMP JUMPDEST PUSH2 0xCA8 DUP6 PUSH2 0x1A8D JUMP JUMPDEST MSTORE DUP2 DUP2 MLOAD SWAP5 PUSH2 0xCB6 DUP7 PUSH2 0x1842 JUMP JUMPDEST PUSH1 0x3 DUP7 MSTORE PUSH1 0x60 CALLDATASIZE DUP4 DUP9 ADD CALLDATACOPY PUSH20 0xA1A245CC76414DC143687D9C3DE1152396F352D6 PUSH2 0xCDF DUP8 PUSH2 0x1A5A JUMP JUMPDEST MSTORE PUSH20 0xEBCC972B6B3EB15C0592BE1871838963D0B94278 PUSH2 0xCFE DUP8 PUSH2 0x1A7D JUMP JUMPDEST MSTORE PUSH20 0xE5118E47E061AB15CA972D045B35193F673BCC36 PUSH2 0xD1D DUP8 PUSH2 0x1A8D JUMP JUMPDEST MSTORE PUSH2 0xD37 DUP4 MLOAD SWAP7 TIMESTAMP DUP9 MSTORE PUSH1 0x60 DUP5 DUP10 ADD MSTORE PUSH1 0x60 DUP9 ADD SWAP1 PUSH2 0x2A00 JUMP JUMPDEST SWAP3 DUP7 DUP5 SUB SWAP1 DUP8 ADD MSTORE MLOAD SWAP2 DUP3 DUP2 MSTORE ADD SWAP3 SWAP2 DUP6 JUMPDEST DUP3 DUP2 LT PUSH2 0xD7A JUMPI DUP7 PUSH32 0x40415BA81F6D9A462E9C1EBAF5F5A401D1CEC4F2558BF6B44A322BACF043F95 DUP8 DUP8 SUB DUP9 LOG1 DUP1 RETURN JUMPDEST DUP4 MLOAD DUP6 MSTORE SWAP4 DUP2 ADD SWAP4 SWAP3 DUP2 ADD SWAP3 PUSH1 0x1 ADD PUSH2 0xD49 JUMP JUMPDEST PUSH4 0x4E487B71 PUSH1 0xE0 SHL DUP8 MSTORE PUSH1 0x11 SWAP1 MSTORE PUSH1 0x24 DUP7 REVERT JUMPDEST PUSH4 0x4E487B71 PUSH1 0xE0 SHL DUP8 MSTORE PUSH1 0x11 DUP3 MSTORE PUSH1 0x24 DUP8 REVERT JUMPDEST POP CALLVALUE PUSH2 0x6C6 JUMPI DUP2 PUSH1 0x3 NOT CALLDATASIZE ADD SLT PUSH2 0x6C6 JUMPI PUSH2 0xDCD PUSH2 0x17CE JUMP JUMPDEST PUSH1 0x3 SLOAD PUSH1 0x1 PUSH1 0x1 PUSH1 0xA0 SHL SUB SWAP5 PUSH1 0x24 CALLDATALOAD SWAP5 SWAP2 PUSH2 0xDEB SWAP1 DUP8 AND CALLER EQ PUSH2 0x1901 JUMP JUMPDEST PUSH2 0xDF3 PUSH2 0x1972 JUMP JUMPDEST DUP6 DUP4 AND SWAP1 DUP2 DUP6 MSTORE PUSH1 0x20 SWAP1 PUSH1 0x7 DUP3 MSTORE DUP7 DUP5 DUP8 KECCAK256 SLOAD LT PUSH2 0x1037 JUMPI DUP2 DUP7 SWAP8 SWAP9 DUP5 PUSH1 0x24 SWAP9 MSTORE PUSH1 0x9 DUP3 MSTORE DUP6 DUP10 KECCAK256 SLOAD AND DUP6 MLOAD SWAP8 DUP9 DUP1 SWAP3 PUSH4 0x70A08231 PUSH1 0xE0 SHL DUP3 MSTORE ADDRESS DUP7 DUP4 ADD MSTORE GAS STATICCALL SWAP6 DUP7 ISZERO PUSH2 0xFD3 JUMPI DUP8 SWAP7 PUSH2 0x1008 JUMPI JUMPDEST POP DUP3 DUP8 MSTORE PUSH1 0x7 DUP3 MSTORE DUP8 DUP5 DUP9 KECCAK256 SLOAD DUP9 SWAP8 DUP2 DUP2 GT PUSH2 0xFE1 JUMPI JUMPDEST POP POP POP PUSH20 0x368EEDF3F56AD10B9BC57EED4DAC65B26BB667F6 SWAP1 DUP2 EXTCODESIZE ISZERO PUSH2 0xFDD JUMPI DUP4 PUSH1 0x64 DUP10 SWAP3 DUP4 DUP9 MLOAD SWAP6 DUP7 SWAP5 DUP6 SWAP4 PUSH4 0x1A4CA37B PUSH1 0xE2 SHL DUP6 MSTORE DUP5 ADD MSTORE DUP14 PUSH1 0x24 DUP5 ADD MSTORE ADDRESS PUSH1 0x44 DUP5 ADD MSTORE GAS CALL DUP1 ISZERO PUSH2 0xFD3 JUMPI PUSH2 0xF76 JUMPI JUMPDEST POP SWAP1 PUSH32 0x1C61F9FF609ABEC0166033E26FFDCB2501AE4E4AD8745B8F436EF6CF5C3B5B9 PUSH2 0xF6C SWAP4 SWAP3 DUP9 PUSH2 0xF01 DUP9 PUSH32 0x8E91BBD74BB7A610E4D7E6988DB773510A989FA93DF46B4334535B9D6B286E2E SWAP11 SWAP12 PUSH2 0x181F JUMP JUMPDEST DUP5 DUP12 MSTORE PUSH1 0x6 DUP4 MSTORE PUSH2 0xF16 DUP7 DUP13 KECCAK256 SWAP2 DUP3 SLOAD PUSH2 0x181F JUMP JUMPDEST SWAP1 SSTORE DUP4 DUP11 MSTORE PUSH1 0x7 DUP3 MSTORE DUP5 DUP11 KECCAK256 PUSH2 0xF2D DUP3 DUP3 SLOAD PUSH2 0x1965 JUMP JUMPDEST SWAP1 SSTORE DUP4 DUP11 MSTORE PUSH1 0x8 DUP3 MSTORE DUP5 DUP11 KECCAK256 PUSH2 0xF44 DUP10 DUP3 SLOAD PUSH2 0x181F JUMP JUMPDEST SWAP1 SSTORE DUP5 MLOAD SWAP1 DUP2 MSTORE LOG2 MLOAD PUSH1 0x1 PUSH1 0x1 PUSH1 0xA0 SHL SUB SWAP1 SWAP3 AND DUP3 MSTORE PUSH1 0x20 DUP3 ADD SWAP3 SWAP1 SWAP3 MSTORE SWAP1 DUP2 SWAP1 PUSH1 0x40 DUP3 ADD SWAP1 JUMP JUMPDEST SUB SWAP1 LOG1 PUSH1 0x1 DUP2 SSTORE DUP1 RETURN JUMPDEST PUSH2 0xF6C SWAP4 SWAP3 SWAP2 PUSH32 0x8E91BBD74BB7A610E4D7E6988DB773510A989FA93DF46B4334535B9D6B286E2E SWAP8 PUSH2 0xFC8 PUSH32 0x1C61F9FF609ABEC0166033E26FFDCB2501AE4E4AD8745B8F436EF6CF5C3B5B9 SWAP4 PUSH2 0x1874 JUMP JUMPDEST SWAP8 POP SWAP2 SWAP3 SWAP4 POP PUSH2 0xEAC JUMP JUMPDEST DUP5 MLOAD RETURNDATASIZE DUP10 DUP3 RETURNDATACOPY RETURNDATASIZE SWAP1 REVERT JUMPDEST DUP8 DUP1 REVERT JUMPDEST PUSH2 0xFFF SWAP4 SWAP9 POP SWAP1 PUSH2 0xFF5 DUP4 PUSH2 0xFFA SWAP4 PUSH2 0x18EE JUMP JUMPDEST PUSH2 0x19E1 JUMP JUMPDEST PUSH2 0x1965 JUMP JUMPDEST SWAP5 DUP8 CODESIZE DUP1 PUSH2 0xE59 JUMP JUMPDEST SWAP1 SWAP6 POP DUP2 DUP2 DUP2 RETURNDATASIZE DUP4 GT PUSH2 0x1030 JUMPI JUMPDEST PUSH2 0x1020 DUP2 DUP4 PUSH2 0x1888 JUMP JUMPDEST DUP2 ADD SUB SLT PUSH2 0x576 JUMPI MLOAD SWAP5 CODESIZE PUSH2 0xE42 JUMP JUMPDEST POP RETURNDATASIZE PUSH2 0x1016 JUMP JUMPDEST PUSH1 0x64 SWAP2 DUP5 MLOAD SWAP2 PUSH3 0x461BCD PUSH1 0xE5 SHL DUP4 MSTORE DUP3 ADD MSTORE PUSH1 0x1C PUSH1 0x24 DUP3 ADD MSTORE PUSH32 0x5769746864726177616C2065786365656473207072696E636970616C00000000 PUSH1 0x44 DUP3 ADD MSTORE REVERT JUMPDEST POP SWAP1 CALLVALUE PUSH2 0x245 JUMPI DUP2 PUSH1 0x3 NOT CALLDATASIZE ADD SLT PUSH2 0x245 JUMPI PUSH1 0x3 SLOAD SWAP1 MLOAD PUSH1 0x1 PUSH1 0x1 PUSH1 0xA0 SHL SUB SWAP1 SWAP2 AND DUP2 MSTORE PUSH1 0x20 SWAP1 RETURN JUMPDEST POP DUP3 CALLVALUE PUSH2 0x245 JUMPI PUSH1 0xA0 CALLDATASIZE PUSH1 0x3 NOT ADD SLT PUSH2 0x245 JUMPI PUSH2 0x10BC PUSH2 0x17CE JUMP JUMPDEST SWAP3 PUSH1 0x24 DUP1 CALLDATALOAD SWAP2 PUSH1 0x44 CALLDATALOAD SWAP4 PUSH1 0x64 CALLDATALOAD SWAP3 PUSH1 0x84 CALLDATALOAD SWAP2 PUSH8 0xFFFFFFFFFFFFFFFF SWAP2 DUP3 DUP5 GT PUSH2 0x12D6 JUMPI CALLDATASIZE PUSH1 0x23 DUP6 ADD SLT ISZERO PUSH2 0x12D6 JUMPI DUP4 DUP3 ADD CALLDATALOAD SWAP2 DUP4 DUP4 GT PUSH2 0x58E JUMPI DUP2 DUP4 PUSH1 0x5 SHL DUP7 ADD ADD SWAP1 CALLDATASIZE DUP3 GT PUSH2 0x12D2 JUMPI PUSH1 0x2 SLOAD PUSH1 0x1 PUSH1 0x1 PUSH1 0xA0 SHL SUB SWAP4 SWAP1 PUSH2 0x1120 SWAP1 DUP6 AND CALLER EQ PUSH2 0x17E4 JUMP JUMPDEST PUSH2 0x2710 PUSH2 0x112D DUP13 DUP13 PUSH2 0x181F JUMP JUMPDEST GT PUSH2 0x129B JUMPI DUP8 MLOAD PUSH2 0x113D DUP2 PUSH2 0x1842 JUMP JUMPDEST DUP11 DUP2 MSTORE PUSH1 0x20 SWAP4 DUP5 DUP3 ADD SWAP1 DUP14 DUP3 MSTORE DUP11 DUP4 ADD SWAP10 DUP13 DUP12 MSTORE PUSH2 0x115A DUP10 PUSH2 0x18AA JUMP JUMPDEST SWAP9 PUSH2 0x1167 DUP14 MLOAD SWAP11 DUP12 PUSH2 0x1888 JUMP JUMPDEST DUP10 MSTORE DUP5 ADD DUP7 DUP10 ADD JUMPDEST DUP3 DUP3 LT PUSH2 0x127D JUMPI POP POP POP DUP10 DUP15 SWAP16 DUP8 SWAP1 PUSH1 0x60 DUP6 ADD SWAP10 DUP11 MSTORE AND SWAP15 DUP16 DUP2 MSTORE PUSH1 0xA DUP8 MSTORE KECCAK256 SWAP2 MLOAD DUP3 SSTORE MLOAD SWAP8 PUSH1 0x1 SWAP9 DUP10 DUP4 ADD SSTORE MLOAD PUSH1 0x2 DUP3 ADD SSTORE PUSH1 0x3 ADD SWAP5 MLOAD SWAP2 DUP3 MLOAD SWAP7 DUP8 GT PUSH2 0x126C JUMPI PUSH9 0x10000000000000000 DUP8 GT PUSH2 0x126C JUMPI POP POP DUP2 SWAP1 DUP13 DUP7 DUP7 SLOAD SWAP2 DUP2 DUP9 SSTORE DUP3 DUP3 LT PUSH2 0x123C JUMPI JUMPDEST POP POP POP ADD SWAP3 DUP12 MSTORE DUP1 DUP12 KECCAK256 SWAP2 DUP12 JUMPDEST DUP6 DUP2 LT PUSH2 0x1229 JUMPI DUP8 MLOAD DUP11 DUP2 MSTORE PUSH1 0x20 DUP2 ADD DUP13 SWAP1 MSTORE PUSH1 0x40 DUP2 ADD DUP11 SWAP1 MSTORE DUP14 SWAP1 DUP14 SWAP1 PUSH32 0x9AB15632C1E4BBA227FEF32BF0D208B02CE488D7E094F36D9A40FCF1F2D0E383 SWAP1 PUSH1 0x60 SWAP1 LOG2 DUP1 RETURN JUMPDEST DUP5 MLOAD DUP3 AND DUP5 DUP3 ADD SSTORE SWAP4 DUP3 ADD SWAP4 DUP7 ADD PUSH2 0x11E2 JUMP JUMPDEST DUP10 SWAP2 POP DUP8 DUP2 MSTORE DUP9 DUP6 DUP3 KECCAK256 SWAP4 DUP5 ADD SWAP4 ADD SWAP1 JUMPDEST DUP4 DUP3 LT PUSH2 0x125E JUMPI SWAP1 POP DUP9 SWAP2 POP PUSH2 0x11D5 JUMP JUMPDEST DUP2 SSTORE DUP6 SWAP5 POP DUP10 SWAP2 ADD DUP16 PUSH2 0x124D JUMP JUMPDEST PUSH4 0x4E487B71 PUSH1 0xE0 SHL DUP15 MSTORE PUSH1 0x41 SWAP1 MSTORE DUP13 REVERT JUMPDEST DUP2 CALLDATALOAD DUP10 DUP2 AND DUP2 SUB PUSH2 0x1295 JUMPI DUP2 MSTORE SWAP1 DUP8 ADD SWAP1 DUP8 ADD PUSH2 0x116F JUMP JUMPDEST POP POP DUP16 DUP1 REVERT JUMPDEST SWAP1 PUSH1 0x12 PUSH1 0x64 SWAP3 PUSH1 0x20 DUP11 MLOAD SWAP4 PUSH3 0x461BCD PUSH1 0xE5 SHL DUP6 MSTORE DUP5 ADD MSTORE DUP3 ADD MSTORE PUSH18 0x496E76616C6964207468726573686F6C6473 PUSH1 0x70 SHL PUSH1 0x44 DUP3 ADD MSTORE REVERT JUMPDEST DUP11 DUP1 REVERT JUMPDEST DUP9 DUP1 REVERT JUMPDEST POP SWAP2 CALLVALUE PUSH2 0x624 JUMPI DUP3 PUSH1 0x3 NOT CALLDATASIZE ADD SLT PUSH2 0x624 JUMPI PUSH1 0x5 SLOAD PUSH1 0x1 PUSH1 0x1 PUSH1 0xA0 SHL SUB SWAP2 SWAP1 PUSH2 0x1306 SWAP1 DUP4 AND CALLER EQ PUSH2 0x1A1E JUMP JUMPDEST PUSH2 0x130E PUSH2 0x1972 JUMP JUMPDEST PUSH2 0x1316 PUSH2 0x2FBB JUMP JUMPDEST SWAP4 PUSH2 0x131F PUSH2 0x2B15 JUMP JUMPDEST SWAP5 PUSH2 0x1328 PUSH2 0x2FBB JUMP JUMPDEST SWAP6 DUP7 ISZERO PUSH2 0x1463 JUMPI PUSH2 0x1338 DUP8 PUSH2 0x1AC0 JUMP JUMPDEST DUP6 MLOAD SWAP4 PUSH1 0xA0 DUP6 ADD DUP6 DUP2 LT PUSH8 0xFFFFFFFFFFFFFFFF DUP3 GT OR PUSH2 0x1450 JUMPI DUP8 MSTORE DUP5 MSTORE PUSH1 0x80 CALLDATASIZE PUSH1 0x20 DUP7 ADD CALLDATACOPY PUSH20 0xA1A245CC76414DC143687D9C3DE1152396F352D6 PUSH2 0x137C DUP6 PUSH2 0x1A5A JUMP JUMPDEST MSTORE PUSH20 0xEBCC972B6B3EB15C0592BE1871838963D0B94278 PUSH2 0x139B DUP6 PUSH2 0x1A7D JUMP JUMPDEST MSTORE PUSH20 0xE5118E47E061AB15CA972D045B35193F673BCC36 PUSH2 0x13BA DUP6 PUSH2 0x1A8D JUMP JUMPDEST MSTORE DUP3 JUMPDEST DUP5 MLOAD DUP2 LT ISZERO PUSH2 0x13EA JUMPI DUP1 PUSH2 0x13E0 DUP10 DUP9 PUSH2 0x13D9 PUSH2 0x13E5 SWAP6 DUP11 PUSH2 0x1A9D JUMP JUMPDEST MLOAD AND PUSH2 0x24D0 JUMP JUMPDEST PUSH2 0x1AB1 JUMP JUMPDEST PUSH2 0x13BD JUMP JUMPDEST POP PUSH32 0xEEDE213A34918D7C0B828ED3304BE2754812C22E031AD24C7213A7224B65E24C SWAP1 DUP7 PUSH2 0x1446 PUSH2 0x1419 PUSH2 0x2FBB JUMP JUMPDEST SWAP2 PUSH2 0x1422 PUSH2 0x2B15 JUMP JUMPDEST SWAP1 MLOAD SWAP4 DUP5 SWAP4 CALLER SWAP8 DUP6 SWAP1 SWAP5 SWAP4 SWAP3 PUSH1 0x60 SWAP3 PUSH1 0x80 DUP4 ADD SWAP7 DUP4 MSTORE PUSH1 0x20 DUP4 ADD MSTORE PUSH1 0x40 DUP3 ADD MSTORE ADD MSTORE JUMP JUMPDEST SUB SWAP1 LOG2 PUSH1 0x1 DUP2 SSTORE DUP1 RETURN JUMPDEST PUSH4 0x4E487B71 PUSH1 0xE0 SHL DUP6 MSTORE PUSH1 0x41 DUP3 MSTORE PUSH1 0x24 DUP6 REVERT JUMPDEST DUP6 MLOAD PUSH3 0x461BCD PUSH1 0xE5 SHL DUP2 MSTORE PUSH1 0x20 DUP2 DUP7 ADD MSTORE PUSH1 0x16 PUSH1 0x24 DUP3 ADD MSTORE PUSH22 0x4E6F2061737365747320746F20726562616C616E6365 PUSH1 0x50 SHL PUSH1 0x44 DUP3 ADD MSTORE PUSH1 0x64 SWAP1 REVERT JUMPDEST POP SWAP1 CALLVALUE PUSH2 0x245 JUMPI PUSH1 0x20 CALLDATASIZE PUSH1 0x3 NOT ADD SLT PUSH2 0x245 JUMPI PUSH1 0x20 SWAP2 DUP2 SWAP1 PUSH1 0x1 PUSH1 0x1 PUSH1 0xA0 SHL SUB PUSH2 0x14C7 PUSH2 0x17CE JUMP JUMPDEST AND DUP2 MSTORE PUSH1 0x7 DUP5 MSTORE KECCAK256 SLOAD SWAP1 MLOAD SWAP1 DUP2 MSTORE RETURN JUMPDEST POP CALLVALUE PUSH2 0x6C6 JUMPI PUSH1 0x20 CALLDATASIZE PUSH1 0x3 NOT ADD SLT PUSH2 0x6C6 JUMPI PUSH2 0x14F1 PUSH2 0x17CE JUMP JUMPDEST PUSH1 0x2 SLOAD PUSH1 0x1 PUSH1 0x1 PUSH1 0xA0 SHL SUB SWAP2 SWAP1 PUSH2 0x150B SWAP1 DUP4 AND CALLER EQ PUSH2 0x17E4 JUMP JUMPDEST AND PUSH1 0x1 PUSH1 0x1 PUSH1 0x60 SHL SUB PUSH1 0xA0 SHL PUSH1 0x5 SLOAD AND OR PUSH1 0x5 SSTORE DUP1 RETURN JUMPDEST POP SWAP1 CALLVALUE PUSH2 0x245 JUMPI PUSH1 0x20 SWAP3 DUP4 PUSH1 0x3 NOT CALLDATASIZE ADD SLT PUSH2 0x624 JUMPI DUP4 PUSH1 0x1 PUSH1 0x1 PUSH1 0xA0 SHL SUB DUP1 PUSH2 0x1549 PUSH2 0x17CE JUMP JUMPDEST AND DUP6 MSTORE PUSH1 0x9 DUP3 MSTORE DUP4 DUP6 KECCAK256 SLOAD AND SWAP2 PUSH1 0x24 DUP5 MLOAD DUP1 SWAP5 DUP2 SWAP4 PUSH4 0x70A08231 PUSH1 0xE0 SHL DUP4 MSTORE ADDRESS SWAP1 DUP4 ADD MSTORE GAS STATICCALL SWAP3 DUP4 ISZERO PUSH2 0x15B7 JUMPI DUP1 SWAP4 PUSH2 0x1585 JUMPI JUMPDEST POP POP MLOAD SWAP1 DUP2 MSTORE RETURN JUMPDEST SWAP1 SWAP2 SWAP3 POP DUP4 DUP3 DUP2 RETURNDATASIZE DUP4 GT PUSH2 0x15B0 JUMPI JUMPDEST PUSH2 0x159E DUP2 DUP4 PUSH2 0x1888 JUMP JUMPDEST DUP2 ADD SUB SLT PUSH2 0x6C6 JUMPI POP MLOAD SWAP1 CODESIZE DUP1 PUSH2 0x157D JUMP JUMPDEST POP RETURNDATASIZE PUSH2 0x1594 JUMP JUMPDEST DUP3 MLOAD SWAP1 RETURNDATASIZE SWAP1 DUP3 RETURNDATACOPY RETURNDATASIZE SWAP1 REVERT JUMPDEST POP SWAP1 CALLVALUE PUSH2 0x245 JUMPI PUSH1 0x20 CALLDATASIZE PUSH1 0x3 NOT ADD SLT PUSH2 0x245 JUMPI PUSH1 0x20 SWAP2 DUP2 SWAP1 PUSH1 0x1 PUSH1 0x1 PUSH1 0xA0 SHL SUB PUSH2 0x15EA PUSH2 0x17CE JUMP JUMPDEST AND DUP2 MSTORE PUSH1 0x8 DUP5 MSTORE KECCAK256 SLOAD SWAP1 MLOAD SWAP1 DUP2 MSTORE RETURN JUMPDEST POP SWAP2 SWAP1 CALLVALUE PUSH2 0x624 JUMPI DUP3 PUSH1 0x3 NOT CALLDATASIZE ADD SLT PUSH2 0x624 JUMPI DUP1 MLOAD SWAP2 PUSH4 0x70A08231 PUSH1 0xE0 SHL DUP4 MSTORE ADDRESS SWAP1 DUP4 ADD MSTORE PUSH1 0x20 DUP3 PUSH1 0x24 DUP2 PUSH20 0xA1A245CC76414DC143687D9C3DE1152396F352D6 GAS STATICCALL SWAP2 DUP3 ISZERO PUSH2 0x168B JUMPI DUP4 SWAP3 PUSH2 0x1654 JUMPI JUMPDEST PUSH1 0x20 DUP4 DUP4 MLOAD SWAP1 DUP2 MSTORE RETURN JUMPDEST SWAP1 SWAP2 POP PUSH1 0x20 DUP2 RETURNDATASIZE DUP3 GT PUSH2 0x1683 JUMPI JUMPDEST DUP2 PUSH2 0x166F PUSH1 0x20 SWAP4 DUP4 PUSH2 0x1888 JUMP JUMPDEST DUP2 ADD SUB SLT PUSH2 0x624 JUMPI PUSH1 0x20 SWAP3 POP MLOAD SWAP1 CODESIZE PUSH2 0x164A JUMP JUMPDEST RETURNDATASIZE SWAP2 POP PUSH2 0x1662 JUMP JUMPDEST DUP2 MLOAD RETURNDATASIZE DUP6 DUP3 RETURNDATACOPY RETURNDATASIZE SWAP1 REVERT JUMPDEST POP SWAP2 SWAP1 CALLVALUE PUSH2 0x624 JUMPI PUSH1 0x60 CALLDATASIZE PUSH1 0x3 NOT ADD SLT PUSH2 0x624 JUMPI PUSH1 0x1 PUSH1 0x1 PUSH1 0xA0 SHL SUB DUP3 CALLDATALOAD DUP2 DUP2 AND SWAP4 SWAP1 DUP5 SWAP1 SUB PUSH2 0x3F3 JUMPI PUSH1 0x24 CALLDATALOAD SWAP4 PUSH1 0x44 CALLDATALOAD SWAP3 DUP1 DUP5 AND DUP1 SWAP5 SUB PUSH2 0x576 JUMPI PUSH2 0x16E0 SWAP1 PUSH1 0x3 SLOAD AND CALLER EQ PUSH2 0x1901 JUMP JUMPDEST PUSH2 0x16E8 PUSH2 0x1972 JUMP JUMPDEST DUP4 MLOAD SWAP1 PUSH4 0xA9059CBB PUSH1 0xE0 SHL DUP3 MSTORE DUP3 DUP3 ADD MSTORE DUP5 PUSH1 0x24 DUP3 ADD MSTORE PUSH1 0x20 DUP2 PUSH1 0x44 DUP2 DUP10 DUP8 GAS CALL SWAP1 DUP2 ISZERO PUSH2 0x1796 JUMPI DUP7 SWAP2 PUSH2 0x1778 JUMPI JUMPDEST POP ISZERO PUSH2 0x173D JUMPI POP SWAP1 PUSH2 0x1734 SWAP2 DUP5 MSTORE PUSH1 0x6 PUSH1 0x20 MSTORE DUP4 KECCAK256 SWAP2 DUP3 SLOAD PUSH2 0x1965 JUMP JUMPDEST SWAP1 SSTORE PUSH1 0x1 DUP2 SSTORE DUP1 RETURN JUMPDEST PUSH1 0x64 SWAP1 PUSH1 0x20 DUP5 MLOAD SWAP2 PUSH3 0x461BCD PUSH1 0xE5 SHL DUP4 MSTORE DUP3 ADD MSTORE PUSH1 0x15 PUSH1 0x24 DUP3 ADD MSTORE PUSH21 0x151BDAD95B881D1C985B9CD9995C8819985A5B1959 PUSH1 0x5A SHL PUSH1 0x44 DUP3 ADD MSTORE REVERT JUMPDEST PUSH2 0x1790 SWAP2 POP PUSH1 0x20 RETURNDATASIZE DUP2 GT PUSH2 0x42B JUMPI PUSH2 0x41C DUP2 DUP4 PUSH2 0x1888 JUMP JUMPDEST CODESIZE PUSH2 0x1717 JUMP JUMPDEST DUP5 MLOAD RETURNDATASIZE DUP9 DUP3 RETURNDATACOPY RETURNDATASIZE SWAP1 REVERT JUMPDEST SWAP1 POP CALLVALUE PUSH2 0x245 JUMPI DUP2 PUSH1 0x3 NOT CALLDATASIZE ADD SLT PUSH2 0x245 JUMPI DUP1 PUSH20 0x368EEDF3F56AD10B9BC57EED4DAC65B26BB667F6 PUSH1 0x20 SWAP3 MSTORE RETURN JUMPDEST PUSH1 0x4 CALLDATALOAD SWAP1 PUSH1 0x1 PUSH1 0x1 PUSH1 0xA0 SHL SUB DUP3 AND DUP3 SUB PUSH2 0xBC JUMPI JUMP JUMPDEST ISZERO PUSH2 0x17EB JUMPI JUMP JUMPDEST PUSH1 0x40 MLOAD PUSH3 0x461BCD PUSH1 0xE5 SHL DUP2 MSTORE PUSH1 0x20 PUSH1 0x4 DUP3 ADD MSTORE PUSH1 0xC PUSH1 0x24 DUP3 ADD MSTORE PUSH12 0x155B985D5D1A1BDC9A5E9959 PUSH1 0xA2 SHL PUSH1 0x44 DUP3 ADD MSTORE PUSH1 0x64 SWAP1 REVERT JUMPDEST SWAP2 SWAP1 DUP3 ADD DUP1 SWAP3 GT PUSH2 0x182C JUMPI JUMP JUMPDEST PUSH4 0x4E487B71 PUSH1 0xE0 SHL PUSH1 0x0 MSTORE PUSH1 0x11 PUSH1 0x4 MSTORE PUSH1 0x24 PUSH1 0x0 REVERT JUMPDEST PUSH1 0x80 DUP2 ADD SWAP1 DUP2 LT PUSH8 0xFFFFFFFFFFFFFFFF DUP3 GT OR PUSH2 0x185E JUMPI PUSH1 0x40 MSTORE JUMP JUMPDEST PUSH4 0x4E487B71 PUSH1 0xE0 SHL PUSH1 0x0 MSTORE PUSH1 0x41 PUSH1 0x4 MSTORE PUSH1 0x24 PUSH1 0x0 REVERT JUMPDEST PUSH8 0xFFFFFFFFFFFFFFFF DUP2 GT PUSH2 0x185E JUMPI PUSH1 0x40 MSTORE JUMP JUMPDEST SWAP1 PUSH1 0x1F DUP1 NOT SWAP2 ADD AND DUP2 ADD SWAP1 DUP2 LT PUSH8 0xFFFFFFFFFFFFFFFF DUP3 GT OR PUSH2 0x185E JUMPI PUSH1 0x40 MSTORE JUMP JUMPDEST PUSH8 0xFFFFFFFFFFFFFFFF DUP2 GT PUSH2 0x185E JUMPI PUSH1 0x5 SHL PUSH1 0x20 ADD SWAP1 JUMP JUMPDEST SWAP1 PUSH1 0x69 DUP3 MUL SWAP2 DUP1 DUP4 DIV PUSH1 0x69 EQ SWAP1 ISZERO OR ISZERO PUSH2 0x182C JUMPI JUMP JUMPDEST SWAP1 PUSH1 0x5F DUP3 MUL SWAP2 DUP1 DUP4 DIV PUSH1 0x5F EQ SWAP1 ISZERO OR ISZERO PUSH2 0x182C JUMPI JUMP JUMPDEST DUP2 DUP2 MUL SWAP3 SWAP2 DUP2 ISZERO SWAP2 DUP5 DIV EQ OR ISZERO PUSH2 0x182C JUMPI JUMP JUMPDEST ISZERO PUSH2 0x1908 JUMPI JUMP JUMPDEST PUSH1 0x40 MLOAD PUSH3 0x461BCD PUSH1 0xE5 SHL DUP2 MSTORE PUSH1 0x20 PUSH1 0x4 DUP3 ADD MSTORE PUSH1 0x17 PUSH1 0x24 DUP3 ADD MSTORE PUSH32 0x4F6E6C792070726F706F73616C7320636F6E7472616374000000000000000000 PUSH1 0x44 DUP3 ADD MSTORE PUSH1 0x64 SWAP1 REVERT JUMPDEST SWAP1 DUP2 PUSH1 0x20 SWAP2 SUB SLT PUSH2 0xBC JUMPI MLOAD DUP1 ISZERO ISZERO DUP2 SUB PUSH2 0xBC JUMPI SWAP1 JUMP JUMPDEST SWAP2 SWAP1 DUP3 SUB SWAP2 DUP3 GT PUSH2 0x182C JUMPI JUMP JUMPDEST PUSH1 0x2 PUSH1 0x0 SLOAD EQ PUSH2 0x1983 JUMPI PUSH1 0x2 PUSH1 0x0 SSTORE JUMP JUMPDEST PUSH1 0x40 MLOAD PUSH4 0x3EE5AEB5 PUSH1 0xE0 SHL DUP2 MSTORE PUSH1 0x4 SWAP1 REVERT JUMPDEST ISZERO PUSH2 0x199C JUMPI JUMP JUMPDEST PUSH1 0x40 MLOAD PUSH3 0x461BCD PUSH1 0xE5 SHL DUP2 MSTORE PUSH1 0x20 PUSH1 0x4 DUP3 ADD MSTORE PUSH1 0x1A PUSH1 0x24 DUP3 ADD MSTORE PUSH32 0x496E73756666696369656E7420746F6B656E2062616C616E6365000000000000 PUSH1 0x44 DUP3 ADD MSTORE PUSH1 0x64 SWAP1 REVERT JUMPDEST DUP2 ISZERO PUSH2 0x19EB JUMPI DIV SWAP1 JUMP JUMPDEST PUSH4 0x4E487B71 PUSH1 0xE0 SHL PUSH1 0x0 MSTORE PUSH1 0x12 PUSH1 0x4 MSTORE PUSH1 0x24 PUSH1 0x0 REVERT JUMPDEST MLOAD SWAP1 PUSH16 0xFFFFFFFFFFFFFFFFFFFFFFFFFFFFFFFF DUP3 AND DUP3 SUB PUSH2 0xBC JUMPI JUMP JUMPDEST ISZERO PUSH2 0x1A25 JUMPI JUMP JUMPDEST PUSH1 0x40 MLOAD PUSH3 0x461BCD PUSH1 0xE5 SHL DUP2 MSTORE PUSH1 0x20 PUSH1 0x4 DUP3 ADD MSTORE PUSH1 0xD PUSH1 0x24 DUP3 ADD MSTORE PUSH13 0x13DB9B1E481059D95B9D12DA5D PUSH1 0x9A SHL PUSH1 0x44 DUP3 ADD MSTORE PUSH1 0x64 SWAP1 REVERT JUMPDEST DUP1 MLOAD ISZERO PUSH2 0x1A67 JUMPI PUSH1 0x20 ADD SWAP1 JUMP JUMPDEST PUSH4 0x4E487B71 PUSH1 0xE0 SHL PUSH1 0x0 MSTORE PUSH1 0x32 PUSH1 0x4 MSTORE PUSH1 0x24 PUSH1 0x0 REVERT JUMPDEST DUP1 MLOAD PUSH1 0x1 LT ISZERO PUSH2 0x1A67 JUMPI PUSH1 0x40 ADD SWAP1 JUMP JUMPDEST DUP1 MLOAD PUSH1 0x2 LT ISZERO PUSH2 0x1A67 JUMPI PUSH1 0x60 ADD SWAP1 JUMP JUMPDEST DUP1 MLOAD DUP3 LT ISZERO PUSH2 0x1A67 JUMPI PUSH1 0x20 SWAP2 PUSH1 0x5 SHL ADD ADD SWAP1 JUMP JUMPDEST PUSH1 0x0 NOT DUP2 EQ PUSH2 0x182C JUMPI PUSH1 0x1 ADD SWAP1 JUMP JUMPDEST PUSH20 0xA1A245CC76414DC143687D9C3DE1152396F352D6 PUSH1 0x0 SWAP1 DUP1 DUP3 MSTORE PUSH1 0x20 SWAP1 PUSH1 0xA DUP3 MSTORE PUSH1 0x40 DUP1 DUP5 KECCAK256 DUP2 MLOAD SWAP1 PUSH2 0x1AF3 DUP3 PUSH2 0x1842 JUMP JUMPDEST DUP1 SLOAD DUP3 MSTORE PUSH1 0x1 SWAP7 DUP8 DUP3 ADD SLOAD DUP7 DUP5 ADD SWAP1 DUP2 MSTORE PUSH1 0x3 PUSH1 0x2 DUP5 ADD SLOAD SWAP4 DUP7 DUP7 ADD SWAP5 DUP6 MSTORE ADD SWAP4 DUP6 MLOAD DUP1 DUP7 DUP11 DUP3 SWAP9 SLOAD SWAP4 DUP5 DUP2 MSTORE ADD SWAP1 DUP13 MSTORE DUP11 DUP13 KECCAK256 SWAP3 DUP14 DUP14 SWAP1 JUMPDEST DUP14 DUP4 DUP4 LT PUSH2 0x24B1 JUMPI POP POP POP POP PUSH2 0x1B44 SWAP3 POP SUB DUP7 PUSH2 0x1888 JUMP JUMPDEST PUSH1 0x60 DUP2 ADD SWAP5 DUP6 MSTORE DUP1 MLOAD ISZERO PUSH2 0x2099 JUMPI PUSH2 0x1B5A PUSH2 0x2B15 JUMP JUMPDEST SWAP4 PUSH2 0x2710 SWAP5 DUP6 DUP2 MUL SWAP1 DUP1 DUP3 DIV DUP8 EQ SWAP1 ISZERO OR ISZERO PUSH2 0x2445 JUMPI PUSH2 0x1B7D DUP6 PUSH2 0x1B88 SWAP3 PUSH2 0x19E1 JUMP JUMPDEST SWAP4 DUP4 MLOAD SWAP1 MLOAD SWAP1 PUSH2 0x181F JUMP JUMPDEST DUP4 GT ISZERO PUSH2 0x207E JUMPI POP PUSH2 0x1BA5 SWAP3 SWAP2 PUSH2 0x1BA0 SWAP2 MLOAD SWAP1 PUSH2 0x1965 JUMP JUMPDEST PUSH2 0x18EE JUMP JUMPDEST DIV SWAP1 DUP1 MLOAD DUP4 MLOAD SWAP1 PUSH4 0x313CE567 PUSH1 0xE0 SHL SWAP2 DUP3 DUP2 MSTORE PUSH1 0x4 SWAP2 DUP9 DUP3 DUP5 DUP2 DUP12 GAS STATICCALL SWAP2 DUP3 ISZERO PUSH2 0x2074 JUMPI DUP11 SWAP3 PUSH2 0x2055 JUMPI JUMPDEST POP DUP8 DUP11 MSTORE DUP11 DUP10 MSTORE DUP7 DUP11 KECCAK256 SLOAD DUP8 MLOAD DUP6 DUP2 MSTORE PUSH1 0x1 PUSH1 0x1 PUSH1 0xA0 SHL SUB SWAP6 SWAP1 SWAP4 SWAP1 SWAP2 DUP7 AND DUP12 DUP6 DUP8 DUP2 DUP5 GAS STATICCALL SWAP5 DUP6 ISZERO PUSH2 0x204B JUMPI DUP13 DUP15 SWAP7 PUSH2 0x2018 JUMPI JUMPDEST POP POP SWAP1 PUSH2 0xC63 PUSH2 0x1C20 PUSH2 0x1C1A PUSH2 0x1C26 SWAP5 PUSH2 0x30B6 JUMP JUMPDEST DUP12 PUSH2 0x18EE JUMP JUMPDEST SWAP2 PUSH2 0x2975 JUMP JUMPDEST DUP3 MLOAD SWAP1 SWAP3 PUSH1 0x0 NOT DUP3 ADD SWAP2 DUP3 GT PUSH2 0x2005 JUMPI PUSH2 0x1C42 DUP13 SWAP3 DUP9 SWAP3 PUSH2 0x1A9D JUMP JUMPDEST MLOAD AND SWAP2 DUP6 DUP11 MLOAD DUP1 SWAP5 DUP2 SWAP4 DUP3 MSTORE GAS STATICCALL SWAP1 DUP2 ISZERO PUSH2 0x1EB6 JUMPI SWAP3 PUSH2 0xC63 PUSH2 0x1C20 PUSH2 0x1C88 SWAP5 PUSH2 0x1C7D DUP16 SWAP6 DUP16 SWAP9 PUSH1 0x64 SWAP10 PUSH2 0x1C83 SWAP9 SWAP3 PUSH2 0x1FD8 JUMPI JUMPDEST POP POP PUSH2 0x2975 JUMP JUMPDEST SWAP1 PUSH2 0x18EE JUMP JUMPDEST PUSH2 0x18D8 JUMP JUMPDEST DIV SWAP3 MLOAD PUSH2 0x1C93 PUSH2 0x1972 JUMP JUMPDEST DUP7 DUP4 PUSH2 0x1C9E DUP4 PUSH2 0x1A5A JUMP JUMPDEST MLOAD AND SUB PUSH2 0x1F95 JUMPI DUP6 MLOAD PUSH4 0x70A08231 PUSH1 0xE0 SHL DUP1 DUP3 MSTORE ADDRESS DUP5 DUP4 ADD MSTORE PUSH1 0x24 SWAP6 SWAP1 SWAP2 DUP11 DUP2 DUP9 DUP2 DUP14 GAS STATICCALL SWAP1 DUP2 ISZERO PUSH2 0x1EF4 JUMPI DUP9 DUP12 DUP15 DUP15 SWAP4 DUP2 SWAP6 PUSH2 0x1F60 JUMPI JUMPDEST POP PUSH2 0x1CE6 DUP4 PUSH2 0x1D1C SWAP7 LT ISZERO PUSH2 0x1995 JUMP JUMPDEST DUP9 SLOAD DUP14 MLOAD PUSH4 0x95EA7B3 PUSH1 0xE0 SHL DUP2 MSTORE SWAP1 DUP12 AND PUSH1 0x1 PUSH1 0x1 PUSH1 0xA0 SHL SUB AND DUP2 DUP12 ADD SWAP1 DUP2 MSTORE PUSH1 0x20 DUP2 ADD SWAP5 SWAP1 SWAP5 MSTORE SWAP5 DUP6 SWAP4 DUP5 SWAP3 SWAP2 DUP4 SWAP2 PUSH1 0x40 ADD SWAP1 JUMP JUMPDEST SUB SWAP3 GAS CALL DUP1 ISZERO PUSH2 0x1EF4 JUMPI PUSH2 0x1F43 JUMPI JUMPDEST POP DUP3 MLOAD PUSH1 0x0 NOT DUP2 ADD SWAP1 DUP2 GT PUSH2 0x1EC0 JUMPI SWAP1 DUP11 DUP7 PUSH2 0x1D48 DUP10 SWAP5 DUP8 PUSH2 0x1A9D JUMP JUMPDEST MLOAD AND DUP11 MLOAD SWAP4 DUP5 DUP1 SWAP3 DUP8 DUP3 MSTORE ADDRESS DUP11 DUP4 ADD MSTORE GAS STATICCALL SWAP2 DUP3 ISZERO PUSH2 0x1EF4 JUMPI DUP13 SWAP3 PUSH2 0x1F10 JUMPI JUMPDEST POP DUP6 DUP6 SLOAD AND SWAP1 PUSH2 0x384 TIMESTAMP ADD DUP1 TIMESTAMP GT PUSH2 0x1EFE JUMPI DUP7 SWAP3 DUP15 SWAP3 DUP4 DUP13 PUSH2 0x1DA2 DUP16 SWAP6 DUP12 SWAP7 MLOAD SWAP9 DUP10 SWAP8 DUP9 SWAP7 DUP8 SWAP6 PUSH4 0x38ED1739 PUSH1 0xE0 SHL DUP8 MSTORE ADDRESS SWAP4 DUP8 ADD PUSH2 0x2A3D JUMP JUMPDEST SUB SWAP3 GAS CALL DUP1 ISZERO PUSH2 0x1EF4 JUMPI PUSH2 0x1ED2 JUMPI JUMPDEST POP DUP3 MLOAD PUSH1 0x0 NOT DUP2 ADD SWAP1 DUP2 GT PUSH2 0x1EC0 JUMPI DUP6 PUSH2 0x1DCC DUP13 SWAP3 DUP7 PUSH2 0x1A9D JUMP JUMPDEST MLOAD AND SWAP3 DUP8 DUP11 MLOAD DUP1 SWAP6 DUP2 SWAP4 DUP3 MSTORE ADDRESS DUP10 DUP4 ADD MSTORE GAS STATICCALL DUP1 ISZERO PUSH2 0x1EB6 JUMPI DUP12 SWAP1 PUSH2 0x1E85 JUMPI JUMPDEST PUSH2 0x1DF6 SWAP3 POP PUSH2 0x1965 JUMP JUMPDEST SWAP4 DUP8 DUP11 MSTORE PUSH1 0x6 DUP10 MSTORE DUP7 DUP11 KECCAK256 PUSH2 0x1E0C DUP8 DUP3 SLOAD PUSH2 0x1965 JUMP JUMPDEST SWAP1 SSTORE DUP2 MLOAD PUSH1 0x0 NOT DUP2 ADD SWAP4 SWAP1 DUP5 GT PUSH2 0x1E74 JUMPI POP POP PUSH32 0xDD36740E2A012D93061A0D99EAA9107860955DE4E90027D3CF465A055026C407 SWAP6 SWAP5 SWAP4 SWAP3 SWAP2 PUSH2 0x1E4E SWAP2 PUSH2 0x1A9D JUMP JUMPDEST MLOAD AND SWAP6 DUP7 DUP9 MSTORE PUSH1 0x6 DUP2 MSTORE DUP4 DUP9 KECCAK256 PUSH2 0x1E66 DUP4 DUP3 SLOAD PUSH2 0x181F JUMP JUMPDEST SWAP1 SSTORE DUP4 MLOAD SWAP3 DUP4 MSTORE DUP3 ADD MSTORE LOG3 SSTORE JUMP JUMPDEST PUSH4 0x4E487B71 PUSH1 0xE0 SHL DUP12 MSTORE PUSH1 0x11 SWAP1 MSTORE DUP10 REVERT JUMPDEST POP SWAP1 DUP10 DUP2 DUP2 RETURNDATASIZE DUP4 GT PUSH2 0x1EAF JUMPI JUMPDEST PUSH2 0x1E9C DUP2 DUP4 PUSH2 0x1888 JUMP JUMPDEST DUP2 ADD SUB SLT PUSH2 0x12D2 JUMPI SWAP1 PUSH2 0x1DF6 SWAP2 MLOAD PUSH2 0x1DEC JUMP JUMPDEST POP RETURNDATASIZE PUSH2 0x1E92 JUMP JUMPDEST DUP9 MLOAD RETURNDATASIZE DUP14 DUP3 RETURNDATACOPY RETURNDATASIZE SWAP1 REVERT JUMPDEST PUSH4 0x4E487B71 PUSH1 0xE0 SHL DUP13 MSTORE PUSH1 0x11 DUP6 MSTORE DUP7 DUP13 REVERT JUMPDEST PUSH2 0x1EED SWAP1 RETURNDATASIZE DUP1 DUP15 DUP4 RETURNDATACOPY PUSH2 0x1EE5 DUP2 DUP4 PUSH2 0x1888 JUMP JUMPDEST DUP2 ADD SWAP1 PUSH2 0x2986 JUMP JUMPDEST POP CODESIZE PUSH2 0x1DB1 JUMP JUMPDEST DUP10 MLOAD RETURNDATASIZE DUP15 DUP3 RETURNDATACOPY RETURNDATASIZE SWAP1 REVERT JUMPDEST PUSH4 0x4E487B71 PUSH1 0xE0 SHL DUP15 MSTORE PUSH1 0x11 DUP8 MSTORE DUP9 DUP15 REVERT JUMPDEST SWAP1 SWAP2 POP DUP11 DUP2 DUP2 RETURNDATASIZE DUP4 GT PUSH2 0x1F3C JUMPI JUMPDEST PUSH2 0x1F28 DUP2 DUP4 PUSH2 0x1888 JUMP JUMPDEST DUP2 ADD SUB SLT PUSH2 0x1F38 JUMPI MLOAD SWAP1 CODESIZE PUSH2 0x1D68 JUMP JUMPDEST DUP12 DUP1 REVERT JUMPDEST POP RETURNDATASIZE PUSH2 0x1F1E JUMP JUMPDEST PUSH2 0x1F59 SWAP1 DUP12 RETURNDATASIZE DUP14 GT PUSH2 0x42B JUMPI PUSH2 0x41C DUP2 DUP4 PUSH2 0x1888 JUMP JUMPDEST POP CODESIZE PUSH2 0x1D2B JUMP JUMPDEST SWAP5 POP POP POP POP DUP2 DUP2 RETURNDATASIZE DUP4 GT PUSH2 0x1F8E JUMPI JUMPDEST PUSH2 0x1F79 DUP2 DUP4 PUSH2 0x1888 JUMP JUMPDEST DUP2 ADD SUB SLT PUSH2 0x1F38 JUMPI MLOAD DUP11 DUP9 DUP12 DUP15 PUSH2 0x1CE6 PUSH2 0x1CD6 JUMP JUMPDEST POP RETURNDATASIZE PUSH2 0x1F6F JUMP JUMPDEST DUP6 MLOAD PUSH3 0x461BCD PUSH1 0xE5 SHL DUP2 MSTORE DUP1 DUP4 ADD DUP10 SWAP1 MSTORE PUSH1 0x1A PUSH1 0x24 DUP3 ADD MSTORE PUSH32 0x50617468206D757374207374617274207769746820746F6B656E000000000000 PUSH1 0x44 DUP3 ADD MSTORE PUSH1 0x64 SWAP1 REVERT JUMPDEST PUSH2 0x1FF7 SWAP3 POP DUP1 RETURNDATASIZE LT PUSH2 0x1FFE JUMPI JUMPDEST PUSH2 0x1FEF DUP2 DUP4 PUSH2 0x1888 JUMP JUMPDEST DUP2 ADD SWAP1 PUSH2 0x295C JUMP JUMPDEST DUP16 DUP1 PUSH2 0x1C76 JUMP JUMPDEST POP RETURNDATASIZE PUSH2 0x1FE5 JUMP JUMPDEST PUSH4 0x4E487B71 PUSH1 0xE0 SHL DUP14 MSTORE PUSH1 0x11 DUP7 MSTORE PUSH1 0x24 DUP14 REVERT JUMPDEST PUSH2 0x1C26 SWAP4 SWAP3 SWAP7 POP PUSH2 0x1C1A PUSH2 0x203F PUSH2 0xC63 SWAP4 DUP4 PUSH2 0x1C20 SWAP5 SWAP1 RETURNDATASIZE LT PUSH2 0x1FFE JUMPI PUSH2 0x1FEF DUP2 DUP4 PUSH2 0x1888 JUMP JUMPDEST SWAP8 SWAP4 SWAP5 POP POP POP DUP13 PUSH2 0x1C05 JUMP JUMPDEST DUP11 MLOAD RETURNDATASIZE DUP16 DUP3 RETURNDATACOPY RETURNDATASIZE SWAP1 REVERT JUMPDEST PUSH2 0x206D SWAP2 SWAP3 POP DUP10 RETURNDATASIZE DUP12 GT PUSH2 0x1FFE JUMPI PUSH2 0x1FEF DUP2 DUP4 PUSH2 0x1888 JUMP JUMPDEST SWAP1 CODESIZE PUSH2 0x1BD0 JUMP JUMPDEST DUP8 MLOAD RETURNDATASIZE DUP13 DUP3 RETURNDATACOPY RETURNDATASIZE SWAP1 REVERT JUMPDEST DUP2 MLOAD SWAP1 MLOAD SWAP8 SWAP9 SWAP6 SWAP8 SWAP3 SWAP4 SWAP3 PUSH2 0x2092 SWAP2 PUSH2 0x1965 JUMP JUMPDEST DUP4 LT PUSH2 0x20A5 JUMPI JUMPDEST POP POP POP POP POP POP POP POP POP POP JUMP JUMPDEST PUSH2 0x20B3 SWAP3 PUSH2 0x1BA0 SWAP2 MLOAD PUSH2 0x1965 JUMP JUMPDEST DIV SWAP3 PUSH2 0x20BE DUP5 PUSH2 0x2A76 JUMP JUMPDEST DUP6 DUP8 MSTORE DUP8 DUP4 MSTORE DUP4 DUP8 KECCAK256 SLOAD SWAP1 SWAP5 PUSH1 0x1 PUSH1 0x1 PUSH1 0xA0 SHL SUB SWAP2 PUSH2 0x20DE SWAP1 DUP4 AND PUSH2 0x30B6 JUMP JUMPDEST PUSH8 0xDE0B6B3A7640000 DUP1 DUP4 MUL SWAP1 DUP4 DUP3 DIV EQ DUP4 ISZERO OR ISZERO PUSH2 0x249D JUMPI PUSH2 0x2106 PUSH1 0x64 SWAP3 PUSH2 0x210B SWAP3 PUSH2 0x19E1 JUMP JUMPDEST PUSH2 0x18C2 JUMP JUMPDEST DIV SWAP3 MLOAD SWAP1 PUSH2 0x2117 PUSH2 0x1972 JUMP JUMPDEST DUP3 DUP1 PUSH2 0x2122 DUP5 PUSH2 0x1A5A JUMP JUMPDEST MLOAD AND SWAP8 AND DUP1 SWAP8 SUB PUSH2 0x2459 JUMPI DUP2 MLOAD PUSH1 0x0 NOT SWAP5 SWAP1 DUP6 DUP2 ADD SWAP1 DUP2 GT PUSH2 0x2445 JUMPI DUP5 PUSH2 0x214A DUP12 SWAP3 DUP7 PUSH2 0x1A9D JUMP JUMPDEST MLOAD AND SUB PUSH2 0x2401 JUMPI DUP8 DUP11 MSTORE PUSH1 0x6 DUP7 MSTORE DUP1 DUP8 DUP12 KECCAK256 SLOAD LT PUSH2 0x23BD JUMPI PUSH1 0x4 DUP1 SLOAD DUP9 MLOAD PUSH4 0x95EA7B3 PUSH1 0xE0 SHL DUP2 MSTORE SWAP1 DUP7 AND PUSH1 0x1 PUSH1 0x1 PUSH1 0xA0 SHL SUB AND DUP2 DUP4 ADD MSTORE PUSH1 0x24 DUP2 ADD DUP4 SWAP1 MSTORE SWAP1 SWAP7 SWAP6 SWAP5 SWAP4 SWAP3 SWAP2 SWAP1 DUP7 DUP2 PUSH1 0x44 DUP2 DUP16 DUP15 GAS CALL DUP1 ISZERO PUSH2 0x1EF4 JUMPI SWAP1 DUP11 SWAP5 SWAP4 SWAP3 SWAP2 PUSH2 0x23A0 JUMPI JUMPDEST POP DUP9 MLOAD SWAP5 DUP8 DUP7 PUSH1 0x24 DUP2 PUSH4 0x70A08231 PUSH1 0xE0 SHL SWAP9 DUP10 DUP3 MSTORE DUP14 ADDRESS SWAP1 DUP4 ADD MSTORE GAS STATICCALL SWAP6 DUP7 ISZERO PUSH2 0x204B JUMPI DUP14 SWAP7 PUSH2 0x236D JUMPI JUMPDEST POP DUP9 SLOAD AND SWAP2 PUSH2 0x384 TIMESTAMP ADD DUP1 TIMESTAMP GT PUSH2 0x235A JUMPI SWAP2 DUP14 DUP1 SWAP5 SWAP3 PUSH2 0x2210 DUP13 SWAP10 SWAP9 SWAP8 SWAP6 DUP15 MLOAD SWAP11 DUP12 SWAP8 DUP9 SWAP7 DUP8 SWAP6 PUSH4 0x4401EDF7 PUSH1 0xE1 SHL DUP8 MSTORE ADDRESS SWAP4 DUP8 ADD PUSH2 0x2A3D JUMP JUMPDEST SUB SWAP3 GAS CALL SWAP3 DUP4 ISZERO PUSH2 0x2074 JUMPI DUP11 SWAP4 PUSH2 0x233E JUMPI JUMPDEST POP DUP7 MLOAD SWAP1 DUP2 MSTORE ADDRESS DUP7 DUP3 ADD MSTORE DUP5 DUP2 PUSH1 0x24 DUP2 DUP12 GAS STATICCALL SWAP1 DUP2 ISZERO PUSH2 0x2074 JUMPI DUP11 SWAP2 PUSH2 0x230F JUMPI JUMPDEST POP PUSH2 0x224D SWAP2 PUSH2 0x1965 JUMP JUMPDEST SWAP4 DUP7 DUP10 MSTORE PUSH1 0x6 DUP5 MSTORE DUP6 DUP10 KECCAK256 PUSH2 0x2263 DUP7 DUP3 SLOAD PUSH2 0x1965 JUMP JUMPDEST SWAP1 SSTORE DUP2 MLOAD DUP4 DUP2 ADD SWAP1 DUP2 GT PUSH2 0x22FC JUMPI PUSH2 0x227B SWAP1 DUP4 PUSH2 0x1A9D JUMP JUMPDEST MLOAD DUP9 DUP11 MSTORE PUSH1 0x6 DUP6 MSTORE PUSH2 0x2291 DUP8 DUP12 KECCAK256 SWAP2 DUP3 SLOAD PUSH2 0x181F JUMP JUMPDEST SWAP1 SSTORE DUP2 MLOAD SWAP3 DUP4 ADD SWAP3 DUP4 GT PUSH2 0x22E9 JUMPI POP PUSH32 0xDD36740E2A012D93061A0D99EAA9107860955DE4E90027D3CF465A055026C407 SWAP5 SWAP4 SWAP3 SWAP2 PUSH2 0x22CE SWAP2 PUSH2 0x1A9D JUMP JUMPDEST MLOAD SWAP1 DUP4 MLOAD SWAP3 DUP4 MSTORE DUP3 ADD MSTORE LOG3 SSTORE CODESIZE DUP1 DUP1 DUP1 DUP1 DUP1 DUP1 DUP1 DUP1 DUP1 PUSH2 0x2099 JUMP JUMPDEST PUSH4 0x4E487B71 PUSH1 0xE0 SHL DUP10 MSTORE PUSH1 0x11 SWAP1 MSTORE PUSH1 0x24 DUP9 REVERT JUMPDEST PUSH4 0x4E487B71 PUSH1 0xE0 SHL DUP11 MSTORE PUSH1 0x11 DUP3 MSTORE PUSH1 0x24 DUP11 REVERT JUMPDEST SWAP1 POP DUP5 DUP2 DUP2 RETURNDATASIZE DUP4 GT PUSH2 0x2337 JUMPI JUMPDEST PUSH2 0x2326 DUP2 DUP4 PUSH2 0x1888 JUMP JUMPDEST DUP2 ADD SUB SLT PUSH2 0x58E JUMPI MLOAD PUSH2 0x224D PUSH2 0x2243 JUMP JUMPDEST POP RETURNDATASIZE PUSH2 0x231C JUMP JUMPDEST PUSH2 0x2353 SWAP2 SWAP4 POP RETURNDATASIZE DUP1 DUP13 DUP4 RETURNDATACOPY PUSH2 0x1EE5 DUP2 DUP4 PUSH2 0x1888 JUMP JUMPDEST SWAP2 CODESIZE PUSH2 0x2222 JUMP JUMPDEST PUSH4 0x4E487B71 PUSH1 0xE0 SHL DUP15 MSTORE PUSH1 0x11 DUP11 MSTORE PUSH1 0x24 DUP15 REVERT JUMPDEST SWAP1 SWAP6 POP DUP8 DUP2 DUP2 RETURNDATASIZE DUP4 GT PUSH2 0x2399 JUMPI JUMPDEST PUSH2 0x2385 DUP2 DUP4 PUSH2 0x1888 JUMP JUMPDEST DUP2 ADD SUB SLT PUSH2 0x2395 JUMPI MLOAD SWAP5 CODESIZE PUSH2 0x21D6 JUMP JUMPDEST DUP13 DUP1 REVERT JUMPDEST POP RETURNDATASIZE PUSH2 0x237B JUMP JUMPDEST PUSH2 0x23B6 SWAP1 DUP9 RETURNDATASIZE DUP11 GT PUSH2 0x42B JUMPI PUSH2 0x41C DUP2 DUP4 PUSH2 0x1888 JUMP JUMPDEST POP CODESIZE PUSH2 0x21AB JUMP JUMPDEST DUP7 MLOAD PUSH3 0x461BCD PUSH1 0xE5 SHL DUP2 MSTORE PUSH1 0x4 DUP2 ADD DUP8 SWAP1 MSTORE PUSH1 0x1B PUSH1 0x24 DUP3 ADD MSTORE PUSH32 0x496E73756666696369656E7420737461626C652062616C616E63650000000000 PUSH1 0x44 DUP3 ADD MSTORE PUSH1 0x64 SWAP1 REVERT JUMPDEST DUP7 MLOAD PUSH3 0x461BCD PUSH1 0xE5 SHL DUP2 MSTORE PUSH1 0x4 DUP2 ADD DUP8 SWAP1 MSTORE PUSH1 0x19 PUSH1 0x24 DUP3 ADD MSTORE PUSH32 0x50617468206D75737420656E6420776974682074617267657400000000000000 PUSH1 0x44 DUP3 ADD MSTORE PUSH1 0x64 SWAP1 REVERT JUMPDEST PUSH4 0x4E487B71 PUSH1 0xE0 SHL DUP12 MSTORE PUSH1 0x11 PUSH1 0x4 MSTORE PUSH1 0x24 DUP12 REVERT JUMPDEST DUP6 MLOAD PUSH3 0x461BCD PUSH1 0xE5 SHL DUP2 MSTORE PUSH1 0x4 DUP2 ADD DUP7 SWAP1 MSTORE PUSH1 0x1F PUSH1 0x24 DUP3 ADD MSTORE PUSH32 0x50617468206D757374207374617274207769746820737461626C65636F696E00 PUSH1 0x44 DUP3 ADD MSTORE PUSH1 0x64 SWAP1 REVERT JUMPDEST PUSH4 0x4E487B71 PUSH1 0xE0 SHL DUP11 MSTORE PUSH1 0x11 PUSH1 0x4 MSTORE PUSH1 0x24 DUP11 REVERT JUMPDEST DUP7 SLOAD PUSH1 0x1 PUSH1 0x1 PUSH1 0xA0 SHL SUB AND DUP6 MSTORE SWAP6 DUP2 ADD SWAP6 DUP12 SWAP6 POP SWAP1 SWAP4 ADD SWAP3 ADD DUP15 PUSH2 0x1B2C JUMP JUMPDEST SWAP1 PUSH1 0x1 DUP1 PUSH1 0xA0 SHL SUB DUP1 DUP4 AND PUSH1 0x0 SWAP3 DUP2 DUP5 MSTORE PUSH1 0x20 SWAP3 PUSH1 0xA DUP5 MSTORE DUP4 PUSH1 0x40 SWAP3 DUP4 DUP8 KECCAK256 SWAP1 DUP5 MLOAD SWAP9 PUSH2 0x24FC DUP11 PUSH2 0x1842 JUMP JUMPDEST DUP3 SLOAD DUP11 MSTORE PUSH1 0x1 SWAP10 DUP11 DUP5 ADD SLOAD SWAP2 DUP6 DUP3 ADD SWAP3 DUP4 MSTORE DUP11 DUP13 PUSH1 0x3 PUSH1 0x2 DUP9 ADD SLOAD SWAP8 DUP12 DUP7 ADD SWAP9 DUP10 MSTORE ADD DUP11 MLOAD DUP1 SWAP10 DUP11 SWAP4 DUP2 DUP5 SLOAD SWAP4 DUP5 DUP2 MSTORE ADD SWAP4 DUP7 MSTORE DUP2 DUP7 KECCAK256 SWAP6 SWAP2 JUMPDEST DUP4 DUP4 LT PUSH2 0x293C JUMPI POP POP POP POP PUSH2 0x254D SWAP3 POP SUB DUP8 PUSH2 0x1888 JUMP JUMPDEST PUSH1 0x60 DUP3 ADD SWAP6 DUP7 MSTORE DUP2 MLOAD ISZERO PUSH2 0x292E JUMPI PUSH2 0x2564 SWAP1 PUSH2 0x2EBA JUMP JUMPDEST SWAP4 PUSH2 0x2710 SWAP5 DUP6 DUP2 MUL SWAP1 DUP1 DUP3 DIV DUP8 EQ SWAP1 ISZERO OR ISZERO PUSH2 0x291A JUMPI PUSH2 0x1B7D DUP6 PUSH2 0x2587 SWAP3 PUSH2 0x19E1 JUMP JUMPDEST DUP4 GT ISZERO PUSH2 0x2626 JUMPI POP PUSH2 0x259F SWAP3 SWAP2 PUSH2 0x1BA0 SWAP2 MLOAD SWAP1 PUSH2 0x1965 JUMP JUMPDEST DIV SWAP2 DUP2 MLOAD DUP5 MLOAD PUSH4 0x313CE567 PUSH1 0xE0 SHL SWAP2 DUP3 DUP3 MSTORE PUSH1 0x4 SWAP3 DUP10 DUP4 DUP6 DUP2 DUP13 GAS STATICCALL SWAP3 DUP4 ISZERO PUSH2 0x1EB6 JUMPI DUP12 SWAP4 PUSH2 0x2607 JUMPI JUMPDEST POP DUP9 DUP12 MSTORE DUP12 DUP11 MSTORE DUP5 DUP9 DUP13 KECCAK256 SLOAD AND SWAP3 DUP9 MLOAD SWAP4 DUP3 DUP6 MSTORE DUP12 DUP6 DUP8 DUP2 DUP5 GAS STATICCALL SWAP5 DUP6 ISZERO PUSH2 0x204B JUMPI DUP13 DUP15 SWAP7 PUSH2 0x2018 JUMPI POP POP SWAP1 PUSH2 0xC63 PUSH2 0x1C20 PUSH2 0x1C1A PUSH2 0x1C26 SWAP5 PUSH2 0x30B6 JUMP JUMPDEST PUSH2 0x261F SWAP2 SWAP4 POP DUP11 RETURNDATASIZE DUP13 GT PUSH2 0x1FFE JUMPI PUSH2 0x1FEF DUP2 DUP4 PUSH2 0x1888 JUMP JUMPDEST SWAP2 CODESIZE PUSH2 0x25C9 JUMP JUMPDEST DUP2 MLOAD SWAP1 MLOAD SWAP9 SWAP10 SWAP7 SWAP9 SWAP3 SWAP4 SWAP3 PUSH2 0x263A SWAP2 PUSH2 0x1965 JUMP JUMPDEST DUP4 LT PUSH2 0x264E JUMPI JUMPDEST POP POP POP POP POP POP POP POP POP POP POP JUMP JUMPDEST PUSH2 0x265C SWAP3 PUSH2 0x1BA0 SWAP2 MLOAD PUSH2 0x1965 JUMP JUMPDEST DIV SWAP4 PUSH2 0x2667 DUP6 PUSH2 0x2A76 JUMP JUMPDEST SWAP5 DUP7 DUP9 MSTORE DUP9 DUP5 MSTORE PUSH2 0x267C DUP3 DUP7 DUP11 KECCAK256 SLOAD AND PUSH2 0x30B6 JUMP JUMPDEST PUSH8 0xDE0B6B3A7640000 DUP1 DUP4 MUL SWAP1 DUP4 DUP3 DIV EQ DUP4 ISZERO OR ISZERO PUSH2 0x249D JUMPI PUSH2 0x2106 PUSH1 0x64 SWAP3 PUSH2 0x26A4 SWAP3 PUSH2 0x19E1 JUMP JUMPDEST DIV SWAP3 MLOAD SWAP1 PUSH2 0x26B0 PUSH2 0x1972 JUMP JUMPDEST DUP3 DUP1 PUSH2 0x26BB DUP5 PUSH2 0x1A5A JUMP JUMPDEST MLOAD AND SWAP8 AND DUP1 SWAP8 SUB PUSH2 0x2459 JUMPI DUP2 MLOAD PUSH1 0x0 NOT SWAP5 SWAP1 DUP6 DUP2 ADD SWAP1 DUP2 GT PUSH2 0x2445 JUMPI DUP5 PUSH2 0x26E3 DUP12 SWAP3 DUP7 PUSH2 0x1A9D JUMP JUMPDEST MLOAD AND SUB PUSH2 0x2401 JUMPI DUP8 DUP11 MSTORE PUSH1 0x6 DUP7 MSTORE DUP1 DUP8 DUP12 KECCAK256 SLOAD LT PUSH2 0x23BD JUMPI PUSH1 0x4 DUP1 SLOAD DUP9 MLOAD PUSH4 0x95EA7B3 PUSH1 0xE0 SHL DUP2 MSTORE SWAP1 DUP7 AND PUSH1 0x1 PUSH1 0x1 PUSH1 0xA0 SHL SUB AND DUP2 DUP4 ADD MSTORE PUSH1 0x24 DUP2 ADD DUP4 SWAP1 MSTORE SWAP1 SWAP7 SWAP6 SWAP5 SWAP4 SWAP3 SWAP2 SWAP1 DUP7 DUP2 PUSH1 0x44 DUP2 DUP16 DUP15 GAS CALL DUP1 ISZERO PUSH2 0x1EF4 JUMPI SWAP1 DUP11 SWAP5 SWAP4 SWAP3 SWAP2 PUSH2 0x28FD JUMPI JUMPDEST POP DUP9 MLOAD SWAP5 DUP8 DUP7 PUSH1 0x24 DUP2 PUSH4 0x70A08231 PUSH1 0xE0 SHL SWAP9 DUP10 DUP3 MSTORE DUP14 ADDRESS SWAP1 DUP4 ADD MSTORE GAS STATICCALL SWAP6 DUP7 ISZERO PUSH2 0x204B JUMPI DUP14 SWAP7 PUSH2 0x28CE JUMPI JUMPDEST POP DUP9 SLOAD AND SWAP2 PUSH2 0x384 TIMESTAMP ADD DUP1 TIMESTAMP GT PUSH2 0x235A JUMPI SWAP2 DUP14 DUP1 SWAP5 SWAP3 PUSH2 0x27A9 DUP13 SWAP10 SWAP9 SWAP8 SWAP6 DUP15 MLOAD SWAP11 DUP12 SWAP8 DUP9 SWAP7 DUP8 SWAP6 PUSH4 0x4401EDF7 PUSH1 0xE1 SHL DUP8 MSTORE ADDRESS SWAP4 DUP8 ADD PUSH2 0x2A3D JUMP JUMPDEST SUB SWAP3 GAS CALL SWAP3 DUP4 ISZERO PUSH2 0x2074 JUMPI DUP11 SWAP4 PUSH2 0x28B2 JUMPI JUMPDEST POP DUP7 MLOAD SWAP1 DUP2 MSTORE ADDRESS DUP7 DUP3 ADD MSTORE DUP5 DUP2 PUSH1 0x24 DUP2 DUP12 GAS STATICCALL SWAP1 DUP2 ISZERO PUSH2 0x2074 JUMPI DUP11 SWAP2 PUSH2 0x2883 JUMPI JUMPDEST POP PUSH2 0x27E6 SWAP2 PUSH2 0x1965 JUMP JUMPDEST SWAP4 DUP7 DUP10 MSTORE PUSH1 0x6 DUP5 MSTORE DUP6 DUP10 KECCAK256 PUSH2 0x27FC DUP7 DUP3 SLOAD PUSH2 0x1965 JUMP JUMPDEST SWAP1 SSTORE DUP2 MLOAD DUP4 DUP2 ADD SWAP1 DUP2 GT PUSH2 0x22FC JUMPI PUSH2 0x2814 SWAP1 DUP4 PUSH2 0x1A9D JUMP JUMPDEST MLOAD DUP9 DUP11 MSTORE PUSH1 0x6 DUP6 MSTORE PUSH2 0x282A DUP8 DUP12 KECCAK256 SWAP2 DUP3 SLOAD PUSH2 0x181F JUMP JUMPDEST SWAP1 SSTORE DUP2 MLOAD SWAP3 DUP4 ADD SWAP3 DUP4 GT PUSH2 0x22E9 JUMPI POP PUSH32 0xDD36740E2A012D93061A0D99EAA9107860955DE4E90027D3CF465A055026C407 SWAP5 SWAP4 SWAP3 SWAP2 PUSH2 0x2867 SWAP2 PUSH2 0x1A9D JUMP JUMPDEST MLOAD SWAP1 DUP4 MLOAD SWAP3 DUP4 MSTORE DUP3 ADD MSTORE LOG3 SSTORE CODESIZE DUP1 DUP1 DUP1 DUP1 DUP1 DUP1 DUP1 DUP1 DUP1 DUP1 PUSH2 0x2641 JUMP JUMPDEST SWAP1 POP DUP5 DUP2 DUP2 RETURNDATASIZE DUP4 GT PUSH2 0x28AB JUMPI JUMPDEST PUSH2 0x289A DUP2 DUP4 PUSH2 0x1888 JUMP JUMPDEST DUP2 ADD SUB SLT PUSH2 0x58E JUMPI MLOAD PUSH2 0x27E6 PUSH2 0x27DC JUMP JUMPDEST POP RETURNDATASIZE PUSH2 0x2890 JUMP JUMPDEST PUSH2 0x28C7 SWAP2 SWAP4 POP RETURNDATASIZE DUP1 DUP13 DUP4 RETURNDATACOPY PUSH2 0x1EE5 DUP2 DUP4 PUSH2 0x1888 JUMP JUMPDEST SWAP2 CODESIZE PUSH2 0x27BB JUMP JUMPDEST SWAP1 SWAP6 POP DUP8 DUP2 DUP2 RETURNDATASIZE DUP4 GT PUSH2 0x28F6 JUMPI JUMPDEST PUSH2 0x28E6 DUP2 DUP4 PUSH2 0x1888 JUMP JUMPDEST DUP2 ADD SUB SLT PUSH2 0x2395 JUMPI MLOAD SWAP5 CODESIZE PUSH2 0x276F JUMP JUMPDEST POP RETURNDATASIZE PUSH2 0x28DC JUMP JUMPDEST PUSH2 0x2913 SWAP1 DUP9 RETURNDATASIZE DUP11 GT PUSH2 0x42B JUMPI PUSH2 0x41C DUP2 DUP4 PUSH2 0x1888 JUMP JUMPDEST POP CODESIZE PUSH2 0x2744 JUMP JUMPDEST PUSH4 0x4E487B71 PUSH1 0xE0 SHL DUP13 MSTORE PUSH1 0x11 PUSH1 0x4 MSTORE PUSH1 0x24 DUP13 REVERT JUMPDEST POP POP POP POP POP POP POP POP POP POP POP POP JUMP JUMPDEST SWAP1 SWAP3 SWAP5 POP DUP3 SWAP2 SWAP4 DUP14 DUP8 SLOAD AND DUP2 MSTORE ADD SWAP5 ADD SWAP2 ADD SWAP2 DUP16 SWAP3 DUP11 SWAP4 DUP16 SWAP6 SWAP4 SWAP6 PUSH2 0x2536 JUMP JUMPDEST SWAP1 DUP2 PUSH1 0x20 SWAP2 SUB SLT PUSH2 0xBC JUMPI MLOAD PUSH1 0xFF DUP2 AND DUP2 SUB PUSH2 0xBC JUMPI SWAP1 JUMP JUMPDEST PUSH1 0xFF AND PUSH1 0x4D DUP2 GT PUSH2 0x182C JUMPI PUSH1 0xA EXP SWAP1 JUMP JUMPDEST PUSH1 0x20 SWAP1 DUP2 DUP2 DUP5 SUB SLT PUSH2 0xBC JUMPI DUP1 MLOAD SWAP1 PUSH8 0xFFFFFFFFFFFFFFFF DUP3 GT PUSH2 0xBC JUMPI ADD SWAP2 DUP1 PUSH1 0x1F DUP5 ADD SLT ISZERO PUSH2 0xBC JUMPI DUP3 MLOAD PUSH2 0x29BC DUP2 PUSH2 0x18AA JUMP JUMPDEST SWAP4 PUSH2 0x29CA PUSH1 0x40 MLOAD SWAP6 DUP7 PUSH2 0x1888 JUMP JUMPDEST DUP2 DUP6 MSTORE DUP4 DUP1 DUP7 ADD SWAP3 PUSH1 0x5 SHL DUP3 ADD ADD SWAP3 DUP4 GT PUSH2 0xBC JUMPI DUP4 ADD SWAP1 JUMPDEST DUP3 DUP3 LT PUSH2 0x29F1 JUMPI POP POP POP POP SWAP1 JUMP JUMPDEST DUP2 MLOAD DUP2 MSTORE SWAP1 DUP4 ADD SWAP1 DUP4 ADD PUSH2 0x29E3 JUMP JUMPDEST SWAP1 DUP2 MLOAD DUP1 DUP3 MSTORE PUSH1 0x20 DUP1 DUP1 SWAP4 ADD SWAP4 ADD SWAP2 PUSH1 0x0 JUMPDEST DUP3 DUP2 LT PUSH2 0x2A20 JUMPI POP POP POP POP SWAP1 JUMP JUMPDEST DUP4 MLOAD PUSH1 0x1 PUSH1 0x1 PUSH1 0xA0 SHL SUB AND DUP6 MSTORE SWAP4 DUP2 ADD SWAP4 SWAP3 DUP2 ADD SWAP3 PUSH1 0x1 ADD PUSH2 0x2A12 JUMP JUMPDEST SWAP2 SWAP3 PUSH1 0x80 SWAP4 PUSH2 0x2A62 SWAP3 SWAP8 SWAP7 SWAP6 SWAP8 DUP5 MSTORE PUSH1 0x20 DUP5 ADD MSTORE PUSH1 0xA0 PUSH1 0x40 DUP5 ADD MSTORE PUSH1 0xA0 DUP4 ADD SWAP1 PUSH2 0x2A00 JUMP JUMPDEST PUSH1 0x1 PUSH1 0x1 PUSH1 0xA0 SHL SUB SWAP1 SWAP6 AND PUSH1 0x60 DUP3 ADD MSTORE ADD MSTORE JUMP JUMPDEST PUSH20 0xEBCC972B6B3EB15C0592BE1871838963D0B94278 DUP1 PUSH1 0x0 MSTORE PUSH1 0x6 PUSH1 0x20 MSTORE DUP2 PUSH1 0x40 PUSH1 0x0 KECCAK256 SLOAD LT ISZERO PUSH2 0x2B10 JUMPI POP PUSH20 0xE5118E47E061AB15CA972D045B35193F673BCC36 SWAP1 DUP2 PUSH1 0x0 MSTORE PUSH1 0x40 PUSH1 0x0 KECCAK256 SLOAD LT ISZERO PUSH2 0x2B0D JUMPI PUSH1 0x40 MLOAD PUSH3 0x461BCD PUSH1 0xE5 SHL DUP2 MSTORE PUSH1 0x20 PUSH1 0x4 DUP3 ADD MSTORE PUSH1 0x1D PUSH1 0x24 DUP3 ADD MSTORE PUSH32 0x496E73756666696369656E7420737461626C65206C6971756964697479000000 PUSH1 0x44 DUP3 ADD MSTORE PUSH1 0x64 SWAP1 REVERT JUMPDEST SWAP1 JUMP JUMPDEST SWAP1 POP SWAP1 JUMP JUMPDEST PUSH20 0xA1A245CC76414DC143687D9C3DE1152396F352D6 PUSH1 0x0 DUP2 DUP2 MSTORE PUSH32 0xDEB45D6AABD04197FFB785653E55FF0E08A12766F8012F67A27CCAD1190FA5DB SLOAD PUSH1 0x9 PUSH1 0x20 SWAP1 DUP2 MSTORE PUSH32 0x88202418A051C9516F022FD072AB17B80308D6ED445F31F3DF6074606DFFDDE7 SLOAD PUSH1 0x40 SWAP4 SWAP3 PUSH1 0x1 PUSH1 0x1 PUSH1 0xA0 SHL SUB SWAP2 DUP3 AND DUP1 PUSH2 0x2BC7 JUMPI JUMPDEST POP POP SWAP2 PUSH1 0x6 PUSH2 0x2BC3 SWAP5 SWAP3 PUSH2 0x2BB8 DUP8 SWAP6 PUSH8 0xDE0B6B3A7640000 SWAP9 DUP6 MSTORE PUSH1 0x1 DUP4 MSTORE DUP6 DUP6 KECCAK256 SLOAD AND PUSH2 0x30B6 JUMP JUMPDEST SWAP5 DUP4 MSTORE MSTORE KECCAK256 SLOAD PUSH2 0x18EE JUMP JUMPDEST DIV SWAP1 JUMP JUMPDEST SWAP1 DUP4 PUSH1 0x24 SWAP3 DUP8 MLOAD SWAP4 DUP5 DUP1 SWAP3 PUSH4 0x70A08231 PUSH1 0xE0 SHL DUP3 MSTORE ADDRESS PUSH1 0x4 DUP4 ADD MSTORE GAS STATICCALL SWAP2 DUP3 ISZERO PUSH2 0x2C51 JUMPI DUP6 SWAP3 PUSH2 0x2C20 JUMPI JUMPDEST POP SWAP3 PUSH2 0x2BB8 PUSH8 0xDE0B6B3A7640000 SWAP8 SWAP6 SWAP4 PUSH2 0x2C13 PUSH1 0x6 SWAP5 PUSH2 0x2BC3 SWAP10 SWAP8 PUSH2 0x181F JUMP JUMPDEST POP SWAP4 SWAP6 SWAP8 POP POP SWAP3 SWAP5 PUSH2 0x2B8F JUMP JUMPDEST SWAP1 SWAP2 POP DUP4 DUP2 DUP2 RETURNDATASIZE DUP4 GT PUSH2 0x2C4A JUMPI JUMPDEST PUSH2 0x2C38 DUP2 DUP4 PUSH2 0x1888 JUMP JUMPDEST DUP2 ADD SUB SLT PUSH2 0x3F3 JUMPI MLOAD SWAP1 PUSH2 0x2BB8 PUSH2 0x2BF2 JUMP JUMPDEST POP RETURNDATASIZE PUSH2 0x2C2E JUMP JUMPDEST DUP7 MLOAD RETURNDATASIZE DUP8 DUP3 RETURNDATACOPY RETURNDATASIZE SWAP1 REVERT JUMPDEST PUSH20 0xEBCC972B6B3EB15C0592BE1871838963D0B94278 PUSH1 0x0 DUP2 DUP2 MSTORE PUSH32 0x707D3679DE15906D97987BC7AAD1E9F95AA6CB24AE471F1183CD969B89977BBE SLOAD PUSH1 0x9 PUSH1 0x20 SWAP1 DUP2 MSTORE PUSH32 0xD48C19247A4BCE0FFE3806D0A3CC642D28B86C8F26F4D6720E4716C8F778E57F SLOAD SWAP3 SWAP5 SWAP4 SWAP3 SWAP1 SWAP2 PUSH1 0x40 SWAP2 PUSH1 0x1 PUSH1 0x1 PUSH1 0xA0 SHL SUB SWAP2 SWAP1 DUP3 AND SWAP1 DUP5 DUP3 PUSH2 0x2DA3 JUMPI JUMPDEST POP POP POP DUP4 DUP7 MSTORE PUSH1 0x1 DUP4 MSTORE DUP2 DUP7 KECCAK256 SLOAD AND DUP1 ISZERO PUSH2 0x2D68 JUMPI PUSH2 0x2CFB SWAP1 PUSH2 0x30B6 JUMP JUMPDEST SWAP2 DUP2 MLOAD PUSH4 0x313CE567 PUSH1 0xE0 SHL DUP2 MSTORE DUP2 DUP2 PUSH1 0x4 DUP2 DUP9 GAS STATICCALL SWAP1 DUP2 ISZERO PUSH2 0x2D5E JUMPI PUSH2 0xFF5 SWAP5 SWAP4 SWAP3 PUSH2 0x2D36 DUP10 SWAP4 PUSH1 0x6 SWAP4 PUSH2 0x2B0D SWAP11 SWAP12 SWAP2 PUSH2 0x2D41 JUMPI JUMPDEST POP PUSH2 0x2975 JUMP JUMPDEST SWAP7 DUP4 MSTORE MSTORE KECCAK256 SLOAD PUSH2 0x18EE JUMP JUMPDEST PUSH2 0x2D58 SWAP2 POP DUP4 RETURNDATASIZE DUP6 GT PUSH2 0x1FFE JUMPI PUSH2 0x1FEF DUP2 DUP4 PUSH2 0x1888 JUMP JUMPDEST CODESIZE PUSH2 0x2D30 JUMP JUMPDEST DUP4 MLOAD RETURNDATASIZE DUP10 DUP3 RETURNDATACOPY RETURNDATASIZE SWAP1 REVERT JUMPDEST DUP2 MLOAD PUSH3 0x461BCD PUSH1 0xE5 SHL DUP2 MSTORE PUSH1 0x4 DUP2 ADD DUP5 SWAP1 MSTORE PUSH1 0x14 PUSH1 0x24 DUP3 ADD MSTORE PUSH20 0x141C9A58D94819995959081B9BDD08199BDD5B99 PUSH1 0x62 SHL PUSH1 0x44 DUP3 ADD MSTORE PUSH1 0x64 SWAP1 REVERT JUMPDEST DUP5 MLOAD PUSH4 0x70A08231 PUSH1 0xE0 SHL DUP2 MSTORE ADDRESS PUSH1 0x4 DUP3 ADD MSTORE SWAP3 DUP4 SWAP1 PUSH1 0x24 SWAP1 DUP3 SWAP1 GAS STATICCALL SWAP1 DUP2 ISZERO PUSH2 0x2E11 JUMPI DUP9 SWAP2 PUSH2 0x2DE0 JUMPI JUMPDEST PUSH2 0x2DD7 SWAP3 POP PUSH2 0x181F JUMP JUMPDEST POP CODESIZE DUP1 DUP5 PUSH2 0x2CDD JUMP JUMPDEST SWAP1 POP DUP5 DUP3 DUP2 RETURNDATASIZE DUP4 GT PUSH2 0x2E0A JUMPI JUMPDEST PUSH2 0x2DF7 DUP2 DUP4 PUSH2 0x1888 JUMP JUMPDEST DUP2 ADD SUB SLT PUSH2 0xFDD JUMPI PUSH2 0x2DD7 SWAP2 MLOAD SWAP1 PUSH2 0x2DCD JUMP JUMPDEST POP RETURNDATASIZE PUSH2 0x2DED JUMP JUMPDEST DUP5 MLOAD RETURNDATASIZE DUP11 DUP3 RETURNDATACOPY RETURNDATASIZE SWAP1 REVERT JUMPDEST PUSH20 0xE5118E47E061AB15CA972D045B35193F673BCC36 PUSH1 0x0 DUP2 DUP2 MSTORE PUSH32 0xF51B1E71CF0EE20676B8C7D74395993DFF171D164AFE144DA8BD154C7E69B20 SLOAD PUSH1 0x9 PUSH1 0x20 SWAP1 DUP2 MSTORE PUSH32 0x6BD289EC3D3E4B7E4AC276A02CC9DE823A5F2CCB75E069369327DAE4CE74593D SLOAD SWAP3 SWAP5 SWAP4 SWAP3 SWAP1 SWAP2 PUSH1 0x40 SWAP2 PUSH1 0x1 PUSH1 0x1 PUSH1 0xA0 SHL SUB SWAP2 SWAP1 DUP3 AND SWAP1 DUP5 DUP3 PUSH2 0x2DA3 JUMPI POP POP POP DUP4 DUP7 MSTORE PUSH1 0x1 DUP4 MSTORE DUP2 DUP7 KECCAK256 SLOAD AND DUP1 ISZERO PUSH2 0x2D68 JUMPI PUSH2 0x2CFB SWAP1 PUSH2 0x30B6 JUMP JUMPDEST SWAP1 PUSH1 0x1 DUP1 PUSH1 0xA0 SHL SUB DUP1 SWAP3 AND PUSH1 0x0 SWAP3 DUP2 DUP5 MSTORE PUSH1 0x20 SWAP1 PUSH1 0x6 DUP3 MSTORE PUSH1 0x40 SWAP1 DUP2 DUP7 KECCAK256 SLOAD PUSH1 0x9 DUP5 MSTORE DUP2 DUP4 DUP9 KECCAK256 SLOAD AND SWAP1 DUP5 DUP3 PUSH2 0x2F4D JUMPI JUMPDEST POP POP POP PUSH20 0xA1A245CC76414DC143687D9C3DE1152396F352D6 DUP1 DUP6 EQ PUSH2 0x2F26 JUMPI POP DUP4 DUP7 MSTORE PUSH1 0x1 DUP4 MSTORE DUP2 DUP7 KECCAK256 SLOAD AND DUP1 ISZERO PUSH2 0x2D68 JUMPI PUSH2 0x2CFB SWAP1 PUSH2 0x30B6 JUMP JUMPDEST PUSH2 0x2BC3 SWAP5 SWAP4 PUSH2 0x2BB8 DUP9 SWAP4 PUSH1 0x6 SWAP4 PUSH8 0xDE0B6B3A7640000 SWAP10 SWAP11 MSTORE PUSH1 0x1 DUP4 MSTORE DUP6 DUP6 KECCAK256 SLOAD AND PUSH2 0x30B6 JUMP JUMPDEST DUP5 MLOAD PUSH4 0x70A08231 PUSH1 0xE0 SHL DUP2 MSTORE ADDRESS PUSH1 0x4 DUP3 ADD MSTORE SWAP3 DUP4 SWAP1 PUSH1 0x24 SWAP1 DUP3 SWAP1 GAS STATICCALL SWAP1 DUP2 ISZERO PUSH2 0x2E11 JUMPI DUP9 SWAP2 PUSH2 0x2F8A JUMPI JUMPDEST PUSH2 0x2F81 SWAP3 POP PUSH2 0x181F JUMP JUMPDEST POP CODESIZE DUP1 DUP5 PUSH2 0x2EEB JUMP JUMPDEST SWAP1 POP DUP5 DUP3 DUP2 RETURNDATASIZE DUP4 GT PUSH2 0x2FB4 JUMPI JUMPDEST PUSH2 0x2FA1 DUP2 DUP4 PUSH2 0x1888 JUMP JUMPDEST DUP2 ADD SUB SLT PUSH2 0xFDD JUMPI PUSH2 0x2F81 SWAP2 MLOAD SWAP1 PUSH2 0x2F77 JUMP JUMPDEST POP RETURNDATASIZE PUSH2 0x2F97 JUMP JUMPDEST PUSH2 0x2FC3 PUSH2 0x2B15 JUMP JUMPDEST PUSH1 0x40 MLOAD PUSH1 0x60 DUP2 ADD DUP2 DUP2 LT PUSH8 0xFFFFFFFFFFFFFFFF DUP3 GT OR PUSH2 0x185E JUMPI PUSH1 0x40 MSTORE PUSH1 0x2 DUP2 MSTORE PUSH1 0x40 CALLDATASIZE PUSH1 0x20 DUP4 ADD CALLDATACOPY PUSH20 0xEBCC972B6B3EB15C0592BE1871838963D0B94278 PUSH2 0x300A DUP3 PUSH2 0x1A5A JUMP JUMPDEST MSTORE PUSH20 0xE5118E47E061AB15CA972D045B35193F673BCC36 PUSH2 0x3029 DUP3 PUSH2 0x1A7D JUMP JUMPDEST MSTORE PUSH1 0x0 SWAP2 JUMPDEST DUP2 MLOAD DUP4 LT ISZERO PUSH2 0x306D JUMPI PUSH2 0x3067 SWAP1 PUSH2 0x3061 SWAP1 PUSH2 0x305B PUSH1 0x1 PUSH1 0x1 PUSH1 0xA0 SHL SUB PUSH2 0x3054 DUP8 DUP8 PUSH2 0x1A9D JUMP JUMPDEST MLOAD AND PUSH2 0x2EBA JUMP JUMPDEST SWAP1 PUSH2 0x181F JUMP JUMPDEST SWAP3 PUSH2 0x1AB1 JUMP JUMPDEST SWAP2 PUSH2 0x302E JUMP JUMPDEST SWAP2 POP POP SWAP1 JUMP JUMPDEST PUSH2 0x307B PUSH2 0x2B15 JUMP JUMPDEST PUSH2 0x3083 PUSH2 0x2FBB JUMP JUMPDEST PUSH1 0x64 DUP3 MUL SWAP2 DUP1 DUP4 DIV PUSH1 0x64 EQ SWAP1 ISZERO OR ISZERO PUSH2 0x182C JUMPI PUSH2 0x2B0D SWAP2 PUSH2 0x19E1 JUMP JUMPDEST MLOAD SWAP1 PUSH10 0xFFFFFFFFFFFFFFFFFFFF DUP3 AND DUP3 SUB PUSH2 0xBC JUMPI JUMP JUMPDEST PUSH1 0x40 MLOAD PUSH4 0x3FABE5A3 PUSH1 0xE2 SHL DUP2 MSTORE SWAP1 PUSH1 0xA0 SWAP1 DUP3 SWAP1 PUSH1 0x4 SWAP1 DUP3 SWAP1 PUSH1 0x1 PUSH1 0x1 PUSH1 0xA0 SHL SUB AND GAS STATICCALL DUP1 ISZERO PUSH2 0x31C5 JUMPI PUSH1 0x0 SWAP2 DUP3 SWAP2 PUSH2 0x3171 JUMPI JUMPDEST POP PUSH1 0x0 DUP3 SGT ISZERO PUSH2 0x313C JUMPI PUSH2 0xE0F NOT TIMESTAMP ADD SWAP1 TIMESTAMP DUP3 GT PUSH2 0x182C JUMPI LT PUSH2 0x3109 JUMPI SWAP1 JUMP JUMPDEST PUSH1 0x40 MLOAD PUSH3 0x461BCD PUSH1 0xE5 SHL DUP2 MSTORE PUSH1 0x20 PUSH1 0x4 DUP3 ADD MSTORE PUSH1 0xB PUSH1 0x24 DUP3 ADD MSTORE PUSH11 0x5374616C65207072696365 PUSH1 0xA8 SHL PUSH1 0x44 DUP3 ADD MSTORE PUSH1 0x64 SWAP1 REVERT JUMPDEST PUSH1 0x40 MLOAD PUSH3 0x461BCD PUSH1 0xE5 SHL DUP2 MSTORE PUSH1 0x20 PUSH1 0x4 DUP3 ADD MSTORE PUSH1 0xD PUSH1 0x24 DUP3 ADD MSTORE PUSH13 0x496E76616C6964207072696365 PUSH1 0x98 SHL PUSH1 0x44 DUP3 ADD MSTORE PUSH1 0x64 SWAP1 REVERT JUMPDEST SWAP2 SWAP1 POP PUSH1 0xA0 DUP3 RETURNDATASIZE DUP3 GT PUSH2 0x31BD JUMPI JUMPDEST DUP2 PUSH2 0x318C PUSH1 0xA0 SWAP4 DUP4 PUSH2 0x1888 JUMP JUMPDEST DUP2 ADD SUB SLT PUSH2 0x6C6 JUMPI POP PUSH2 0x319E DUP2 PUSH2 0x309F JUMP JUMPDEST POP PUSH1 0x20 DUP2 ADD MLOAD PUSH2 0x31B5 PUSH1 0x80 PUSH1 0x60 DUP5 ADD MLOAD SWAP4 ADD PUSH2 0x309F JUMP JUMPDEST POP SWAP1 CODESIZE PUSH2 0x30E9 JUMP JUMPDEST RETURNDATASIZE SWAP2 POP PUSH2 0x317F JUMP JUMPDEST PUSH1 0x40 MLOAD RETURNDATASIZE PUSH1 0x0 DUP3 RETURNDATACOPY RETURNDATASIZE SWAP1 REVERT INVALID LOG2 PUSH5 0x6970667358 0x22 SLT KECCAK256 GASPRICE CREATE BYTE 0xA6 DUP11 SSTORE CODESIZE 0x21 CREATE SWAP2 0xE1 0xB7 LT ORIGIN 0xAB ADDMOD DUP4 PUSH6 0x597C8B74232F STATICCALL 0x24 0xBB 0xC6 0xC9 0xD8 DIV 0xBC PUSH5 0x736F6C6343 STOP ADDMOD EQ STOP CALLER "},"methodIdentifiers":{"AAVE_POOL()":"08a01675","DAI()":"e0bab4c4","MAX_AAVE_EXPOSURE()":"95a566bd","MAX_SLIPPAGE()":"f9759518","USDC()":"89a30271","WETH()":"ad5c4648","aTokenMapping(address)":"5b9f2079","aavePrincipal(address)":"34dc9e32","agentKitOperator()":"6e9fff57","assetConfigs(address)":"7609d7f6","checkAndRebalance()":"3ed55f0c","configureAsset(address,uint256,uint256,uint256,address[])":"4158a94d","depositToAave(address,uint256)":"eeb149e7","emergencyWithdraw(address,uint256)":"95ccea67","executeTransfer(address,uint256,address)":"098dbf5c","getAavePositionValue(address)":"26eff0f2","getAllocations()":"65ed6e23","getAssetValue(address)":"93e5e90f","getBalance()":"12065fe0","getTotalValue()":"caa648b4","getWethAllocation()":"dd41d050","owner()":"8da5cb5b","priceFeeds(address)":"9dcb511a","proposalsContract()":"4450c203","setAgentKitOperator(address)":"29ab437b","setProposalsContract(address)":"dc133e89","suggestRebalance()":"4f64d9d9","tokenBalances(address)":"523fba7f","uniswapRouter()":"735de9f7","updatePriceFeed(address,address)":"b7997da1","withdrawFromAave(address,uint256)":"487ede04","yieldGenerated(address)":"1acb5390"}}}}}