{"contracts/SynapseProposals.sol":{"SynapseProposals":{"abi":[{"inputs":[{"internalType":"address","name":"_treasury","type":"address"}],"stateMutability":"nonpayable","type":"constructor"},{"inputs":[],"name":"ReentrancyGuardReentrantCall","type":"error"},{"anonymous":false,"inputs":[{"indexed":true,"internalType":"uint256","name":"id","type":"uint256"},{"indexed":true,"internalType":"address","name":"proposer","type":"address"},{"indexed":false,"internalType":"enum SynapseProposals.ProposalType","name":"pType","type":"uint8"},{"indexed":false,"internalType":"uint256","name":"amount","type":"uint256"},{"indexed":false,"internalType":"bool","name":"isAgentProposal","type":"bool"},{"indexed":false,"internalType":"string","name":"metadataCID","type":"string"}],"name":"ProposalCreated","type":"event"},{"anonymous":false,"inputs":[{"indexed":true,"internalType":"uint256","name":"proposalId","type":"uint256"},{"indexed":false,"internalType":"address","name":"executor","type":"address"},{"indexed":false,"internalType":"uint256","name":"amount","type":"uint256"},{"indexed":false,"internalType":"address","name":"recipient","type":"address"}],"name":"ProposalExecuted","type":"event"},{"anonymous":false,"inputs":[{"indexed":true,"internalType":"uint256","name":"proposalId","type":"uint256"},{"indexed":true,"internalType":"address","name":"voter","type":"address"},{"indexed":false,"internalType":"enum SynapseProposals.VoteOption","name":"vote","type":"uint8"},{"indexed":false,"internalType":"bool","name":"isAgentVote","type":"bool"},{"indexed":false,"internalType":"uint256","name":"powerUsed","type":"uint256"}],"name":"Voted","type":"event"},{"inputs":[],"name":"EXECUTION_WINDOW","outputs":[{"internalType":"uint256","name":"","type":"uint256"}],"stateMutability":"view","type":"function"},{"inputs":[],"name":"MAX_TREASURY_PERCENT","outputs":[{"internalType":"uint256","name":"","type":"uint256"}],"stateMutability":"view","type":"function"},{"inputs":[],"name":"QUORUM_PERCENT","outputs":[{"internalType":"uint256","name":"","type":"uint256"}],"stateMutability":"view","type":"function"},{"inputs":[],"name":"VOTE_DURATION","outputs":[{"internalType":"uint256","name":"","type":"uint256"}],"stateMutability":"view","type":"function"},{"inputs":[{"internalType":"address","name":"_agent","type":"address"},{"internalType":"uint256","name":"_votingPower","type":"uint256"}],"name":"addAgent","outputs":[],"stateMutability":"nonpayable","type":"function"},{"inputs":[{"internalType":"address","name":"_proposer","type":"address"},{"internalType":"uint256","name":"_votingPower","type":"uint256"}],"name":"addProposer","outputs":[],"stateMutability":"nonpayable","type":"function"},{"inputs":[{"internalType":"enum SynapseProposals.ProposalType","name":"_type","type":"uint8"},{"internalType":"uint256","name":"_amount","type":"uint256"},{"internalType":"string","name":"_metadataCID","type":"string"},{"internalType":"address","name":"_recipient","type":"address"},{"internalType":"address","name":"_token","type":"address"}],"name":"agentCreateProposal","outputs":[{"internalType":"uint256","name":"","type":"uint256"}],"stateMutability":"nonpayable","type":"function"},{"inputs":[{"internalType":"uint256","name":"_proposalId","type":"uint256"},{"internalType":"enum SynapseProposals.VoteOption","name":"_vote","type":"uint8"}],"name":"agentVote","outputs":[],"stateMutability":"nonpayable","type":"function"},{"inputs":[{"internalType":"address","name":"","type":"address"}],"name":"authorizedAgents","outputs":[{"internalType":"bool","name":"","type":"bool"}],"stateMutability":"view","type":"function"},{"inputs":[{"internalType":"address","name":"","type":"address"}],"name":"authorizedProposers","outputs":[{"internalType":"bool","name":"","type":"bool"}],"stateMutability":"view","type":"function"},{"inputs":[{"internalType":"enum SynapseProposals.ProposalType","name":"_type","type":"uint8"},{"internalType":"uint256","name":"_amount","type":"uint256"},{"internalType":"bool","name":"_isAgentProposal","type":"bool"},{"internalType":"string","name":"_metadataCID","type":"string"},{"internalType":"address","name":"_recipient","type":"address"},{"internalType":"address","name":"_token","type":"address"}],"name":"createProposal","outputs":[{"internalType":"uint256","name":"","type":"uint256"}],"stateMutability":"nonpayable","type":"function"},{"inputs":[{"internalType":"uint256","name":"_proposalId","type":"uint256"}],"name":"executeProposal","outputs":[],"stateMutability":"nonpayable","type":"function"},{"inputs":[{"internalType":"uint256","name":"","type":"uint256"},{"internalType":"address","name":"","type":"address"}],"name":"hasVoted","outputs":[{"internalType":"bool","name":"","type":"bool"}],"stateMutability":"view","type":"function"},{"inputs":[],"name":"owner","outputs":[{"internalType":"address","name":"","type":"address"}],"stateMutability":"view","type":"function"},{"inputs":[],"name":"proposalCount","outputs":[{"internalType":"uint256","name":"","type":"uint256"}],"stateMutability":"view","type":"function"},{"inputs":[{"internalType":"uint256","name":"","type":"uint256"}],"name":"proposals","outputs":[{"internalType":"address","name":"proposer","type":"address"},{"internalType":"enum SynapseProposals.ProposalType","name":"pType","type":"uint8"},{"internalType":"uint256","name":"amount","type":"uint256"},{"internalType":"uint256","name":"createdAt","type":"uint256"},{"internalType":"uint256","name":"deadline","type":"uint256"},{"internalType":"uint256","name":"yesVotes","type":"uint256"},{"internalType":"uint256","name":"noVotes","type":"uint256"},{"internalType":"uint256","name":"abstainVotes","type":"uint256"},{"internalType":"bool","name":"executed","type":"bool"},{"internalType":"bool","name":"isAgentProposal","type":"bool"},{"internalType":"string","name":"metadataCID","type":"string"},{"internalType":"address","name":"recipient","type":"address"},{"internalType":"address","name":"token","type":"address"}],"stateMutability":"view","type":"function"},{"inputs":[{"internalType":"address","name":"_address","type":"address"}],"name":"removeVotingPower","outputs":[],"stateMutability":"nonpayable","type":"function"},{"inputs":[],"name":"totalVotingPower","outputs":[{"internalType":"uint256","name":"","type":"uint256"}],"stateMutability":"view","type":"function"},{"inputs":[],"name":"treasury","outputs":[{"internalType":"contract ITreasury","name":"","type":"address"}],"stateMutability":"view","type":"function"},{"inputs":[{"internalType":"address","name":"_newTreasury","type":"address"}],"name":"updateTreasury","outputs":[],"stateMutability":"nonpayable","type":"function"},{"inputs":[{"internalType":"address","name":"_address","type":"address"},{"internalType":"uint256","name":"_newPower","type":"uint256"}],"name":"updateVotingPower","outputs":[],"stateMutability":"nonpayable","type":"function"},{"inputs":[{"internalType":"uint256","name":"_proposalId","type":"uint256"},{"internalType":"enum SynapseProposals.VoteOption","name":"_vote","type":"uint8"},{"internalType":"bool","name":"_isAgentVote","type":"bool"}],"name":"vote","outputs":[],"stateMutability":"nonpayable","type":"function"},{"inputs":[{"internalType":"address","name":"","type":"address"}],"name":"votingPower","outputs":[{"internalType":"uint256","name":"","type":"uint256"}],"stateMutability":"view","type":"function"}],"evm":{"bytecode":{"linkReferences":{},"object":"60803461007f57601f611cf138819003918201601f19168301916001600160401b038311848410176100845780849260209460405283398101031261007f57516001600160a01b0381169081900361007f57600160005560018060a01b0319338160025416176002556001541617600155604051611c56908161009b8239f35b600080fd5b634e487b7160e01b600052604160045260246000fdfe60a080604052600436101561001357600080fd5b600090813560e01c908163013cf08b146118b7575080630d61b519146114e45780631d58011f14610f725780631eba3b1e14610f56578063208fb59014610f3a57806322ffdc6114610a455780633588b4b21461081b5780633e65164a146107fd57806343859632146107a65780634654ff0514610788578063596939f5146106d957806361d027b3146106b0578063671b3793146106925780637f51bb1f146106475780638da5cb5b1461061e5780639442f472146105be578063b0a45b0c14610506578063c07473f6146104cd578063ce6366c414610294578063da35c66414610276578063eadc29c71461019e578063efd760651461015f5763f6cf0ac61461011e57600080fd5b3461015c57602036600319011261015c5760209060ff906040906001600160a01b03610148611b72565b168152600384522054166040519015158152f35b80fd5b503461015c57602036600319011261015c5760209060ff906040906001600160a01b0361018a611b72565b168152600484522054166040519015158152f35b503461015c57604036600319011261015c576101b8611b72565b600254602435916001600160a01b03916101d59083163314611b88565b16808352600360205260ff6040842054168015610263575b156102255780835260076020526102138261020e6040862054600854611c13565b611bc3565b60085582526007602052604082205580f35b60405162461bcd60e51b81526020600482015260166024820152751059191c995cdcc81b9bdd08185d5d1a1bdc9a5e995960521b6044820152606490fd5b50600460205260ff6040842054166101ed565b503461015c578060031936011261015c576020600954604051908152f35b503461015c57606036600319011261015c576024600435813560038110156104c9576102be611af6565b90826000526020906005825260406000209460038601544211610490578460005260068352604060002033600052835260ff6040600020541661045d57336000526007835260406000205415610428579083913360005260078452604060002054946103da575b600086815260068552604080822033835286528120805460ff1916600117905596826103af57600401610359868254611bc3565b90555b6040519661039b5750855215159084015260408301527f7dda6376598bc78bef200277d99b4ac90c445c930dbb0b86fe9cc59c1efe954e60603393a380f35b634e487b7160e01b60009081526021600452fd5b600183036103cc576005016103c5868254611bc3565b905561035c565b6006016103c5868254611bc3565b6004845260ff60406000205416610325578360176064926040519262461bcd60e51b8452600484015282015276556e617574686f72697a6564206167656e7420766f746560481b6044820152fd5b82600f6064926040519262461bcd60e51b845260048401528201526e2737903b37ba34b733903837bbb2b960891b6044820152fd5b82600d6064926040519262461bcd60e51b845260048401528201526c105b1c9958591e481d9bdd1959609a1b6044820152fd5b8260136064926040519262461bcd60e51b8452600484015282015272159bdd1a5b99c81c195c9a5bd908195b991959606a1b6044820152fd5b8380fd5b503461015c57602036600319011261015c576020906040906001600160a01b036104f5611b72565b168152600783522054604051908152f35b503461015c57604036600319011261015c57610520611b72565b600254602435916001600160a01b039161053d9083163314611b88565b1690818352600360205260ff60408420541661058657610580918352600360205260408320600160ff198254161790556007602052806040842055600854611bc3565b60085580f35b60405162461bcd60e51b815260206004820152601060248201526f20b63932b0b23c90383937b837b9b2b960811b6044820152606490fd5b503461015c57602036600319011261015c576105d8611b72565b6002546001600160a01b0391906105f29083163314611b88565b16808252600760205261060b6040832054600854611c13565b6008558152600760205280604081205580f35b503461015c578060031936011261015c576002546040516001600160a01b039091168152602090f35b503461015c57602036600319011261015c57610661611b72565b6002546001600160a01b03919061067b9083163314611b88565b166001600160601b0360a01b600154161760015580f35b503461015c578060031936011261015c576020600854604051908152f35b503461015c578060031936011261015c576001546040516001600160a01b039091168152602090f35b503461015c57604036600319011261015c576106f3611b72565b600254602435916001600160a01b03916107109083163314611b88565b1690818352600460205260ff60408420541661075357610580918352600460205260408320600160ff198254161790556007602052806040842055600854611bc3565b60405162461bcd60e51b815260206004820152600d60248201526c105b1c9958591e481859d95b9d609a1b6044820152606490fd5b503461015c578060031936011261015c57602060405162093a808152f35b503461015c57604036600319011261015c576024356001600160a01b03811691908290036107f857604090600435815260066020522090600052602052602060ff604060002054166040519015158152f35b600080fd5b503461015c578060031936011261015c5760206040516203f4808152f35b503461015c57604036600319011261015c5760043560249081359160038310156104c95733845260206004815261085860ff604087205416611bd0565b826000526005815260406000209360038501544211610a0c578360005260068252604060002033600052825260ff604060002054166109d9573360005260078252604060002054156109a4573360005260078252604060002054926004835260ff604060002054161561096757600085815260068452604080822033835285528120805460ff19166001179055958261093c576004016108f9858254611bc3565b90555b6040519561039b575090600191855284015260408301527f7dda6376598bc78bef200277d99b4ac90c445c930dbb0b86fe9cc59c1efe954e60603393a380f35b6001830361095957600501610952858254611bc3565b90556108fc565b600601610952858254611bc3565b8260176064926040519262461bcd60e51b8452600484015282015276556e617574686f72697a6564206167656e7420766f746560481b6044820152fd5b50600f6064926040519262461bcd60e51b845260048401528201526e2737903b37ba34b733903837bbb2b960891b6044820152fd5b50600d6064926040519262461bcd60e51b845260048401528201526c105b1c9958591e481d9bdd1959609a1b6044820152fd5b5060136064926040519262461bcd60e51b8452600484015282015272159bdd1a5b99c81c195c9a5bd908195b991959606a1b6044820152fd5b503461015c5760a036600319011261015c576004356006811015610f365767ffffffffffffffff91602480356044358581116104c957610a89903690600401611b05565b90606493843560018060a01b038082168092036107f857600498610ac360ff6040610ab2611b5c565b9633815260209d8e52205416611bd0565b3360005260038a5260ff604060002054168015610f23575b610ae490611b88565b855115610eec573360005260048a5260ff6040600020541615610eb25760009060038a148015610ea8575b610e4c575b60019860048c858c541660405192838092629032ff60e51b82525afa908115610e4057600091610e13575b50600a810290808204600a1490151715610dfe578190048711610dbd575060095460005260058b52604060002091825490610da8576001600160a81b0319163360ff60a01b19161760a08b901b60ff60a01b16178255888201869055426002830181905562093a808101908110610d9357600383015560078201805461ff001916610100179055865160088301918111610d7e578b610bde8354611a39565b601f8111610d33575b50508b8c601f8311600114610cc857509080600a949392600091610cbd575b50600019600383901b1c1916908b1b1790555b600981016001600160601b0360a01b9485825416179055019216908254161790557fb9a96d75a15a49d5ba01f917782f27ab8b41292775deaa733cc34f432f42d283600954958692610c6e6040518093611aa9565b888201528560408201526080606082015280610c8f33956080830190611ab6565b0390a36000198314610ca957508101600955604051908152f35b634e487b7160e01b60009081526011600452fd5b905089015138610c06565b918b91949392601f1982168460005281600020916000905b8d838310610d1b575050509582600a9710610d02575b5050811b019055610c19565b8b015160001960f88460031b161c191690553880610cf6565b8901518455978801978f959093019290810190610ce0565b836000528160002090601f840160051c8201928410610d74575b601f0160051c01908b905b828110610d6857508d9150610be7565b60008155018b90610d58565b9091508190610d4d565b88634e487b7160e01b60005260416004526000fd5b88634e487b7160e01b60005260116004526000fd5b88634e487b7160e01b60005260216004526000fd5b60405162461bcd60e51b8152600481018d9052601d818b01527f416d6f756e742065786365656473206d61782070657263656e746167650000006044820152fd5b89634e487b7160e01b60005260116004526000fd5b908d82813d8311610e39575b610e298183611a87565b8101031261015c57505138610b3f565b503d610e1f565b6040513d6000823e3d90fd5b828516610b145760405162461bcd60e51b8152600481018c90526029818a01527f546f6b656e206d7573742062652070726f766964656420666f7220444546492060448201526870726f706f73616c7360b81b818b0152608490fd5b5060048a14610b0f565b60405162461bcd60e51b8152600481018b9052601481890152731059d95b9d081b9bdd08185d5d1a1bdc9a5e995960621b60448201528890fd5b60405162461bcd60e51b8152600481018b90526011818901527013595d1859185d18481c995c5d5a5c9959607a1b60448201528890fd5b5060048a5260406000205460ff16610adb565b5080fd5b503461015c578060031936011261015c57602060405160148152f35b503461015c578060031936011261015c576020604051600a8152f35b503461015c5760c036600319011261015c576006600435101561015c57610f97611af6565b90606491823567ffffffffffffffff9283821161015c5750610fbd903690600401611b05565b91610fc6611b5c565b60a435916001600160a01b03831683036107f85733600052600360205260ff6040600020541680156114d0575b610ffc90611b88565b84511561149857831561143e5733600052600460205260ff6040600020541615611403575b60009560036004351480156113f8575b611394575b600154604051629032ff60e51b815290602090829060049082906001600160a01b03165afa908115610e4057600091611362575b50600a810290808204600a14901517156111fb57819004602435116113205750600954600052600560205260406000209586549061130a576001600160a81b0319163360ff60a01b19161760043560a01b60ff60a01b161786556024356001870155426002870181905562093a8081019081106111fb57600387015560078601805461ff00191685151560081b61ff001617905584519081116112f4576111146008870154611a39565b601f81116112ad575b506020601f821160011461121c579581600a927fb9a96d75a15a49d5ba01f917782f27ab8b41292775deaa733cc34f432f42d28398600091611211575b508160011b916000199060031b1c19161760088201555b600981016001600160601b0360a01b9360018060a01b031684825416179055019160018060a01b031690825416179055600954928391604051906111b782600435611aa9565b60243560208301521515604082015260806060820152806111dd33956080830190611ab6565b0390a360001981146111fb5780600160209201600955604051908152f35b634e487b7160e01b600052601160045260246000fd5b90508701513861115a565b6008870160005260206000209060005b601f19841681106112955750827fb9a96d75a15a49d5ba01f917782f27ab8b41292775deaa733cc34f432f42d2839892600192600a95601f1981161061127c575b5050811b016008820155611171565b89015160001960f88460031b161c19169055388061126d565b9091602060018192858b01518155019301910161122c565b600887016000526020600020601f830160051c8101602084106112ed575b601f830160051c820181106112e157505061111d565b600081556001016112cb565b50806112cb565b634e487b7160e01b600052604160045260246000fd5b634e487b7160e01b600052602160045260246000fd5b60405162461bcd60e51b815260206004820152601d60248201527f416d6f756e742065786365656473206d61782070657263656e746167650000006044820152fd5b906020823d60201161138c575b8161137c60209383611a87565b8101031261015c5750513861106a565b3d915061136f565b6001600160a01b038416611036576084906870726f706f73616c7360b81b6040519162461bcd60e51b835260206004840152602960248401527f546f6b656e206d7573742062652070726f766964656420666f722044454649206044840152820152fd5b506004803514611031565b60405162461bcd60e51b81526020600482015260146024820152731059d95b9d081b9bdd08185d5d1a1bdc9a5e995960621b60448201528690fd5b33600052600360205260ff604060002054166110215760405162461bcd60e51b815260206004820152601760248201527f50726f706f736572206e6f7420617574686f72697a656400000000000000000060448201528690fd5b60405162461bcd60e51b815260206004820152601160248201527013595d1859185d18481c995c5d5a5c9959607a1b60448201528690fd5b50600460205260406000205460ff16610ff3565b503461015c57602080600319360112610f365760043560028354146118a5576002835580835260058252604083206003810154926203f480840180851161189157421161184d57600782019081549460ff8616611815574211156117e057600483015460058401549061156561155a8383611bc3565b600687015490611bc3565b6008546014810290808204601414901517156117cc57606490041161179657111561175e57506001809460ff191617905560ff815460a01c16600681101561174a57600303611673578254600a8201548285015486926001600160a01b03908116921690823b156104c9576044849283604051958694859363eeb149e760e01b8552600485015260248401525af1801561166857611654575b50507f3fb8665e50a1e284631acc76d721090605355356a5e26e9c2301c02a02add27a905b808401546009909101546040805133815260208101939093526001600160a01b0390911690820152606090a2815580f35b61165d90611a73565b6104c95783386115fe565b6040513d84823e3d90fd5b8254600982015482850154600a8401546001600160a01b0392831693889391821692911690813b156104c9576040516302636fd760e21b81526001600160a01b0395861660048201526024810191909152919093166044820152918290606490829084905af1801561173f5761170c575b507f3fb8665e50a1e284631acc76d721090605355356a5e26e9c2301c02a02add27a90611623565b936117387f3fb8665e50a1e284631acc76d721090605355356a5e26e9c2301c02a02add27a9295611a73565b93906116e4565b6040513d87823e3d90fd5b634e487b7160e01b85526021600452602485fd5b6064906040519062461bcd60e51b825260048201526011602482015270141c9bdc1bdcd85b081c995a9958dd1959607a1b6044820152fd5b60405162461bcd60e51b815260048101849052600e60248201526d145d5bdc9d5b481b9bdd081b595d60921b6044820152606490fd5b634e487b7160e01b8a52601160045260248afd5b6064906040519062461bcd60e51b82526004820152600e60248201526d566f74696e67206f6e676f696e6760901b6044820152fd5b60405162461bcd60e51b815260048101839052601060248201526f105b1c9958591e48195e1958dd5d195960821b6044820152606490fd5b6064906040519062461bcd60e51b82526004820152601860248201527f457865637574696f6e2077696e646f77206578706972656400000000000000006044820152fd5b634e487b7160e01b86526011600452602486fd5b604051633ee5aeb560e01b8152600490fd5b823461015c5760809060208252602060031936011261015c576004358152600560205260408120908154936001808401549260028501549560038601546004870154906005880154928660068a01549560078b01549760088c01908282549261191f84611a39565b80875293838116908115611a1557506001146119d9575b50505050036119459088611a87565b600160a01b60019003998a8060098c0154169a600a015416986040519c8d9c81168d5283518d019060a01c60ff169061197d91611aa9565b60408c015260608b015289015260a088015260c087015260e086015260ff8116151561010086015260081c60ff1615156101208501526101a08061014086015284016119c891611ab6565b916101608401526101808301520390f35b9080945052845183205b8284106119fc575050508251908201018d808080611936565b805486518d8601015285518c95509093019281016119e3565b9495505050505060ff19168351830152825190151560051b8201018d808080611936565b90600182811c92168015611a69575b6020831014611a5357565b634e487b7160e01b600052602260045260246000fd5b91607f1691611a48565b67ffffffffffffffff81116112f457604052565b90601f8019910116810190811067ffffffffffffffff8211176112f457604052565b90600682101561130a5752565b919082519283825260005b848110611ae2575050826000602080949584010152601f8019910116010190565b602081830181015184830182015201611ac1565b6044359081151582036107f857565b81601f820112156107f85780359067ffffffffffffffff82116112f45760405192611b3a601f8401601f191660200185611a87565b828452602083830101116107f857816000926020809301838601378301015290565b608435906001600160a01b03821682036107f857565b600435906001600160a01b03821682036107f857565b15611b8f57565b60405162461bcd60e51b815260206004820152600c60248201526b155b985d5d1a1bdc9a5e995960a21b6044820152606490fd5b919082018092116111fb57565b15611bd757565b60405162461bcd60e51b8152602060048201526014602482015273139bdd08185d5d1a1bdc9a5e9959081859d95b9d60621b6044820152606490fd5b919082039182116111fb5756fea26469706673582212200efed15f7259c956fa0274d5f50a1a215b7c74a2b14c4aff2b3d977e7540556364736f6c63430008140033","opcodes":"PUSH1 0x80 CALLVALUE PUSH2 0x7F JUMPI PUSH1 0x1F PUSH2 0x1CF1 CODESIZE DUP2 SWAP1 SUB SWAP2 DUP3 ADD PUSH1 0x1F NOT AND DUP4 ADD SWAP2 PUSH1 0x1 PUSH1 0x1 PUSH1 0x40 SHL SUB DUP4 GT DUP5 DUP5 LT OR PUSH2 0x84 JUMPI DUP1 DUP5 SWAP3 PUSH1 0x20 SWAP5 PUSH1 0x40 MSTORE DUP4 CODECOPY DUP2 ADD SUB SLT PUSH2 0x7F JUMPI MLOAD PUSH1 0x1 PUSH1 0x1 PUSH1 0xA0 SHL SUB DUP2 AND SWAP1 DUP2 SWAP1 SUB PUSH2 0x7F JUMPI PUSH1 0x1 PUSH1 0x0 SSTORE PUSH1 0x1 DUP1 PUSH1 0xA0 SHL SUB NOT CALLER DUP2 PUSH1 0x2 SLOAD AND OR PUSH1 0x2 SSTORE PUSH1 0x1 SLOAD AND OR PUSH1 0x1 SSTORE PUSH1 0x40 MLOAD PUSH2 0x1C56 SWAP1 DUP2 PUSH2 0x9B DUP3 CODECOPY RETURN JUMPDEST PUSH1 0x0 DUP1 REVERT JUMPDEST PUSH4 0x4E487B71 PUSH1 0xE0 SHL PUSH1 0x0 MSTORE PUSH1 0x41 PUSH1 0x4 MSTORE PUSH1 0x24 PUSH1 0x0 REVERT INVALID PUSH1 0xA0 DUP1 PUSH1 0x40 MSTORE PUSH1 0x4 CALLDATASIZE LT ISZERO PUSH2 0x13 JUMPI PUSH1 0x0 DUP1 REVERT JUMPDEST PUSH1 0x0 SWAP1 DUP2 CALLDATALOAD PUSH1 0xE0 SHR SWAP1 DUP2 PUSH4 0x13CF08B EQ PUSH2 0x18B7 JUMPI POP DUP1 PUSH4 0xD61B519 EQ PUSH2 0x14E4 JUMPI DUP1 PUSH4 0x1D58011F EQ PUSH2 0xF72 JUMPI DUP1 PUSH4 0x1EBA3B1E EQ PUSH2 0xF56 JUMPI DUP1 PUSH4 0x208FB590 EQ PUSH2 0xF3A JUMPI DUP1 PUSH4 0x22FFDC61 EQ PUSH2 0xA45 JUMPI DUP1 PUSH4 0x3588B4B2 EQ PUSH2 0x81B JUMPI DUP1 PUSH4 0x3E65164A EQ PUSH2 0x7FD JUMPI DUP1 PUSH4 0x43859632 EQ PUSH2 0x7A6 JUMPI DUP1 PUSH4 0x4654FF05 EQ PUSH2 0x788 JUMPI DUP1 PUSH4 0x596939F5 EQ PUSH2 0x6D9 JUMPI DUP1 PUSH4 0x61D027B3 EQ PUSH2 0x6B0 JUMPI DUP1 PUSH4 0x671B3793 EQ PUSH2 0x692 JUMPI DUP1 PUSH4 0x7F51BB1F EQ PUSH2 0x647 JUMPI DUP1 PUSH4 0x8DA5CB5B EQ PUSH2 0x61E JUMPI DUP1 PUSH4 0x9442F472 EQ PUSH2 0x5BE JUMPI DUP1 PUSH4 0xB0A45B0C EQ PUSH2 0x506 JUMPI DUP1 PUSH4 0xC07473F6 EQ PUSH2 0x4CD JUMPI DUP1 PUSH4 0xCE6366C4 EQ PUSH2 0x294 JUMPI DUP1 PUSH4 0xDA35C664 EQ PUSH2 0x276 JUMPI DUP1 PUSH4 0xEADC29C7 EQ PUSH2 0x19E JUMPI DUP1 PUSH4 0xEFD76065 EQ PUSH2 0x15F JUMPI PUSH4 0xF6CF0AC6 EQ PUSH2 0x11E JUMPI PUSH1 0x0 DUP1 REVERT JUMPDEST CALLVALUE PUSH2 0x15C JUMPI PUSH1 0x20 CALLDATASIZE PUSH1 0x3 NOT ADD SLT PUSH2 0x15C JUMPI PUSH1 0x20 SWAP1 PUSH1 0xFF SWAP1 PUSH1 0x40 SWAP1 PUSH1 0x1 PUSH1 0x1 PUSH1 0xA0 SHL SUB PUSH2 0x148 PUSH2 0x1B72 JUMP JUMPDEST AND DUP2 MSTORE PUSH1 0x3 DUP5 MSTORE KECCAK256 SLOAD AND PUSH1 0x40 MLOAD SWAP1 ISZERO ISZERO DUP2 MSTORE RETURN JUMPDEST DUP1 REVERT JUMPDEST POP CALLVALUE PUSH2 0x15C JUMPI PUSH1 0x20 CALLDATASIZE PUSH1 0x3 NOT ADD SLT PUSH2 0x15C JUMPI PUSH1 0x20 SWAP1 PUSH1 0xFF SWAP1 PUSH1 0x40 SWAP1 PUSH1 0x1 PUSH1 0x1 PUSH1 0xA0 SHL SUB PUSH2 0x18A PUSH2 0x1B72 JUMP JUMPDEST AND DUP2 MSTORE PUSH1 0x4 DUP5 MSTORE KECCAK256 SLOAD AND PUSH1 0x40 MLOAD SWAP1 ISZERO ISZERO DUP2 MSTORE RETURN JUMPDEST POP CALLVALUE PUSH2 0x15C JUMPI PUSH1 0x40 CALLDATASIZE PUSH1 0x3 NOT ADD SLT PUSH2 0x15C JUMPI PUSH2 0x1B8 PUSH2 0x1B72 JUMP JUMPDEST PUSH1 0x2 SLOAD PUSH1 0x24 CALLDATALOAD SWAP2 PUSH1 0x1 PUSH1 0x1 PUSH1 0xA0 SHL SUB SWAP2 PUSH2 0x1D5 SWAP1 DUP4 AND CALLER EQ PUSH2 0x1B88 JUMP JUMPDEST AND DUP1 DUP4 MSTORE PUSH1 0x3 PUSH1 0x20 MSTORE PUSH1 0xFF PUSH1 0x40 DUP5 KECCAK256 SLOAD AND DUP1 ISZERO PUSH2 0x263 JUMPI JUMPDEST ISZERO PUSH2 0x225 JUMPI DUP1 DUP4 MSTORE PUSH1 0x7 PUSH1 0x20 MSTORE PUSH2 0x213 DUP3 PUSH2 0x20E PUSH1 0x40 DUP7 KECCAK256 SLOAD PUSH1 0x8 SLOAD PUSH2 0x1C13 JUMP JUMPDEST PUSH2 0x1BC3 JUMP JUMPDEST PUSH1 0x8 SSTORE DUP3 MSTORE PUSH1 0x7 PUSH1 0x20 MSTORE PUSH1 0x40 DUP3 KECCAK256 SSTORE DUP1 RETURN JUMPDEST PUSH1 0x40 MLOAD PUSH3 0x461BCD PUSH1 0xE5 SHL DUP2 MSTORE PUSH1 0x20 PUSH1 0x4 DUP3 ADD MSTORE PUSH1 0x16 PUSH1 0x24 DUP3 ADD MSTORE PUSH22 0x1059191C995CDCC81B9BDD08185D5D1A1BDC9A5E9959 PUSH1 0x52 SHL PUSH1 0x44 DUP3 ADD MSTORE PUSH1 0x64 SWAP1 REVERT JUMPDEST POP PUSH1 0x4 PUSH1 0x20 MSTORE PUSH1 0xFF PUSH1 0x40 DUP5 KECCAK256 SLOAD AND PUSH2 0x1ED JUMP JUMPDEST POP CALLVALUE PUSH2 0x15C JUMPI DUP1 PUSH1 0x3 NOT CALLDATASIZE ADD SLT PUSH2 0x15C JUMPI PUSH1 0x20 PUSH1 0x9 SLOAD PUSH1 0x40 MLOAD SWAP1 DUP2 MSTORE RETURN JUMPDEST POP CALLVALUE PUSH2 0x15C JUMPI PUSH1 0x60 CALLDATASIZE PUSH1 0x3 NOT ADD SLT PUSH2 0x15C JUMPI PUSH1 0x24 PUSH1 0x4 CALLDATALOAD DUP2 CALLDATALOAD PUSH1 0x3 DUP2 LT ISZERO PUSH2 0x4C9 JUMPI PUSH2 0x2BE PUSH2 0x1AF6 JUMP JUMPDEST SWAP1 DUP3 PUSH1 0x0 MSTORE PUSH1 0x20 SWAP1 PUSH1 0x5 DUP3 MSTORE PUSH1 0x40 PUSH1 0x0 KECCAK256 SWAP5 PUSH1 0x3 DUP7 ADD SLOAD TIMESTAMP GT PUSH2 0x490 JUMPI DUP5 PUSH1 0x0 MSTORE PUSH1 0x6 DUP4 MSTORE PUSH1 0x40 PUSH1 0x0 KECCAK256 CALLER PUSH1 0x0 MSTORE DUP4 MSTORE PUSH1 0xFF PUSH1 0x40 PUSH1 0x0 KECCAK256 SLOAD AND PUSH2 0x45D JUMPI CALLER PUSH1 0x0 MSTORE PUSH1 0x7 DUP4 MSTORE PUSH1 0x40 PUSH1 0x0 KECCAK256 SLOAD ISZERO PUSH2 0x428 JUMPI SWAP1 DUP4 SWAP2 CALLER PUSH1 0x0 MSTORE PUSH1 0x7 DUP5 MSTORE PUSH1 0x40 PUSH1 0x0 KECCAK256 SLOAD SWAP5 PUSH2 0x3DA JUMPI JUMPDEST PUSH1 0x0 DUP7 DUP2 MSTORE PUSH1 0x6 DUP6 MSTORE PUSH1 0x40 DUP1 DUP3 KECCAK256 CALLER DUP4 MSTORE DUP7 MSTORE DUP2 KECCAK256 DUP1 SLOAD PUSH1 0xFF NOT AND PUSH1 0x1 OR SWAP1 SSTORE SWAP7 DUP3 PUSH2 0x3AF JUMPI PUSH1 0x4 ADD PUSH2 0x359 DUP7 DUP3 SLOAD PUSH2 0x1BC3 JUMP JUMPDEST SWAP1 SSTORE JUMPDEST PUSH1 0x40 MLOAD SWAP7 PUSH2 0x39B JUMPI POP DUP6 MSTORE ISZERO ISZERO SWAP1 DUP5 ADD MSTORE PUSH1 0x40 DUP4 ADD MSTORE PUSH32 0x7DDA6376598BC78BEF200277D99B4AC90C445C930DBB0B86FE9CC59C1EFE954E PUSH1 0x60 CALLER SWAP4 LOG3 DUP1 RETURN JUMPDEST PUSH4 0x4E487B71 PUSH1 0xE0 SHL PUSH1 0x0 SWAP1 DUP2 MSTORE PUSH1 0x21 PUSH1 0x4 MSTORE REVERT JUMPDEST PUSH1 0x1 DUP4 SUB PUSH2 0x3CC JUMPI PUSH1 0x5 ADD PUSH2 0x3C5 DUP7 DUP3 SLOAD PUSH2 0x1BC3 JUMP JUMPDEST SWAP1 SSTORE PUSH2 0x35C JUMP JUMPDEST PUSH1 0x6 ADD PUSH2 0x3C5 DUP7 DUP3 SLOAD PUSH2 0x1BC3 JUMP JUMPDEST PUSH1 0x4 DUP5 MSTORE PUSH1 0xFF PUSH1 0x40 PUSH1 0x0 KECCAK256 SLOAD AND PUSH2 0x325 JUMPI DUP4 PUSH1 0x17 PUSH1 0x64 SWAP3 PUSH1 0x40 MLOAD SWAP3 PUSH3 0x461BCD PUSH1 0xE5 SHL DUP5 MSTORE PUSH1 0x4 DUP5 ADD MSTORE DUP3 ADD MSTORE PUSH23 0x556E617574686F72697A6564206167656E7420766F7465 PUSH1 0x48 SHL PUSH1 0x44 DUP3 ADD MSTORE REVERT JUMPDEST DUP3 PUSH1 0xF PUSH1 0x64 SWAP3 PUSH1 0x40 MLOAD SWAP3 PUSH3 0x461BCD PUSH1 0xE5 SHL DUP5 MSTORE PUSH1 0x4 DUP5 ADD MSTORE DUP3 ADD MSTORE PUSH15 0x2737903B37BA34B733903837BBB2B9 PUSH1 0x89 SHL PUSH1 0x44 DUP3 ADD MSTORE REVERT JUMPDEST DUP3 PUSH1 0xD PUSH1 0x64 SWAP3 PUSH1 0x40 MLOAD SWAP3 PUSH3 0x461BCD PUSH1 0xE5 SHL DUP5 MSTORE PUSH1 0x4 DUP5 ADD MSTORE DUP3 ADD MSTORE PUSH13 0x105B1C9958591E481D9BDD1959 PUSH1 0x9A SHL PUSH1 0x44 DUP3 ADD MSTORE REVERT JUMPDEST DUP3 PUSH1 0x13 PUSH1 0x64 SWAP3 PUSH1 0x40 MLOAD SWAP3 PUSH3 0x461BCD PUSH1 0xE5 SHL DUP5 MSTORE PUSH1 0x4 DUP5 ADD MSTORE DUP3 ADD MSTORE PUSH19 0x159BDD1A5B99C81C195C9A5BD908195B991959 PUSH1 0x6A SHL PUSH1 0x44 DUP3 ADD MSTORE REVERT JUMPDEST DUP4 DUP1 REVERT JUMPDEST POP CALLVALUE PUSH2 0x15C JUMPI PUSH1 0x20 CALLDATASIZE PUSH1 0x3 NOT ADD SLT PUSH2 0x15C JUMPI PUSH1 0x20 SWAP1 PUSH1 0x40 SWAP1 PUSH1 0x1 PUSH1 0x1 PUSH1 0xA0 SHL SUB PUSH2 0x4F5 PUSH2 0x1B72 JUMP JUMPDEST AND DUP2 MSTORE PUSH1 0x7 DUP4 MSTORE KECCAK256 SLOAD PUSH1 0x40 MLOAD SWAP1 DUP2 MSTORE RETURN JUMPDEST POP CALLVALUE PUSH2 0x15C JUMPI PUSH1 0x40 CALLDATASIZE PUSH1 0x3 NOT ADD SLT PUSH2 0x15C JUMPI PUSH2 0x520 PUSH2 0x1B72 JUMP JUMPDEST PUSH1 0x2 SLOAD PUSH1 0x24 CALLDATALOAD SWAP2 PUSH1 0x1 PUSH1 0x1 PUSH1 0xA0 SHL SUB SWAP2 PUSH2 0x53D SWAP1 DUP4 AND CALLER EQ PUSH2 0x1B88 JUMP JUMPDEST AND SWAP1 DUP2 DUP4 MSTORE PUSH1 0x3 PUSH1 0x20 MSTORE PUSH1 0xFF PUSH1 0x40 DUP5 KECCAK256 SLOAD AND PUSH2 0x586 JUMPI PUSH2 0x580 SWAP2 DUP4 MSTORE PUSH1 0x3 PUSH1 0x20 MSTORE PUSH1 0x40 DUP4 KECCAK256 PUSH1 0x1 PUSH1 0xFF NOT DUP3 SLOAD AND OR SWAP1 SSTORE PUSH1 0x7 PUSH1 0x20 MSTORE DUP1 PUSH1 0x40 DUP5 KECCAK256 SSTORE PUSH1 0x8 SLOAD PUSH2 0x1BC3 JUMP JUMPDEST PUSH1 0x8 SSTORE DUP1 RETURN JUMPDEST PUSH1 0x40 MLOAD PUSH3 0x461BCD PUSH1 0xE5 SHL DUP2 MSTORE PUSH1 0x20 PUSH1 0x4 DUP3 ADD MSTORE PUSH1 0x10 PUSH1 0x24 DUP3 ADD MSTORE PUSH16 0x20B63932B0B23C90383937B837B9B2B9 PUSH1 0x81 SHL PUSH1 0x44 DUP3 ADD MSTORE PUSH1 0x64 SWAP1 REVERT JUMPDEST POP CALLVALUE PUSH2 0x15C JUMPI PUSH1 0x20 CALLDATASIZE PUSH1 0x3 NOT ADD SLT PUSH2 0x15C JUMPI PUSH2 0x5D8 PUSH2 0x1B72 JUMP JUMPDEST PUSH1 0x2 SLOAD PUSH1 0x1 PUSH1 0x1 PUSH1 0xA0 SHL SUB SWAP2 SWAP1 PUSH2 0x5F2 SWAP1 DUP4 AND CALLER EQ PUSH2 0x1B88 JUMP JUMPDEST AND DUP1 DUP3 MSTORE PUSH1 0x7 PUSH1 0x20 MSTORE PUSH2 0x60B PUSH1 0x40 DUP4 KECCAK256 SLOAD PUSH1 0x8 SLOAD PUSH2 0x1C13 JUMP JUMPDEST PUSH1 0x8 SSTORE DUP2 MSTORE PUSH1 0x7 PUSH1 0x20 MSTORE DUP1 PUSH1 0x40 DUP2 KECCAK256 SSTORE DUP1 RETURN JUMPDEST POP CALLVALUE PUSH2 0x15C JUMPI DUP1 PUSH1 0x3 NOT CALLDATASIZE ADD SLT PUSH2 0x15C JUMPI PUSH1 0x2 SLOAD PUSH1 0x40 MLOAD PUSH1 0x1 PUSH1 0x1 PUSH1 0xA0 SHL SUB SWAP1 SWAP2 AND DUP2 MSTORE PUSH1 0x20 SWAP1 RETURN JUMPDEST POP CALLVALUE PUSH2 0x15C JUMPI PUSH1 0x20 CALLDATASIZE PUSH1 0x3 NOT ADD SLT PUSH2 0x15C JUMPI PUSH2 0x661 PUSH2 0x1B72 JUMP JUMPDEST PUSH1 0x2 SLOAD PUSH1 0x1 PUSH1 0x1 PUSH1 0xA0 SHL SUB SWAP2 SWAP1 PUSH2 0x67B SWAP1 DUP4 AND CALLER EQ PUSH2 0x1B88 JUMP JUMPDEST AND PUSH1 0x1 PUSH1 0x1 PUSH1 0x60 SHL SUB PUSH1 0xA0 SHL PUSH1 0x1 SLOAD AND OR PUSH1 0x1 SSTORE DUP1 RETURN JUMPDEST POP CALLVALUE PUSH2 0x15C JUMPI DUP1 PUSH1 0x3 NOT CALLDATASIZE ADD SLT PUSH2 0x15C JUMPI PUSH1 0x20 PUSH1 0x8 SLOAD PUSH1 0x40 MLOAD SWAP1 DUP2 MSTORE RETURN JUMPDEST POP CALLVALUE PUSH2 0x15C JUMPI DUP1 PUSH1 0x3 NOT CALLDATASIZE ADD SLT PUSH2 0x15C JUMPI PUSH1 0x1 SLOAD PUSH1 0x40 MLOAD PUSH1 0x1 PUSH1 0x1 PUSH1 0xA0 SHL SUB SWAP1 SWAP2 AND DUP2 MSTORE PUSH1 0x20 SWAP1 RETURN JUMPDEST POP CALLVALUE PUSH2 0x15C JUMPI PUSH1 0x40 CALLDATASIZE PUSH1 0x3 NOT ADD SLT PUSH2 0x15C JUMPI PUSH2 0x6F3 PUSH2 0x1B72 JUMP JUMPDEST PUSH1 0x2 SLOAD PUSH1 0x24 CALLDATALOAD SWAP2 PUSH1 0x1 PUSH1 0x1 PUSH1 0xA0 SHL SUB SWAP2 PUSH2 0x710 SWAP1 DUP4 AND CALLER EQ PUSH2 0x1B88 JUMP JUMPDEST AND SWAP1 DUP2 DUP4 MSTORE PUSH1 0x4 PUSH1 0x20 MSTORE PUSH1 0xFF PUSH1 0x40 DUP5 KECCAK256 SLOAD AND PUSH2 0x753 JUMPI PUSH2 0x580 SWAP2 DUP4 MSTORE PUSH1 0x4 PUSH1 0x20 MSTORE PUSH1 0x40 DUP4 KECCAK256 PUSH1 0x1 PUSH1 0xFF NOT DUP3 SLOAD AND OR SWAP1 SSTORE PUSH1 0x7 PUSH1 0x20 MSTORE DUP1 PUSH1 0x40 DUP5 KECCAK256 SSTORE PUSH1 0x8 SLOAD PUSH2 0x1BC3 JUMP JUMPDEST PUSH1 0x40 MLOAD PUSH3 0x461BCD PUSH1 0xE5 SHL DUP2 MSTORE PUSH1 0x20 PUSH1 0x4 DUP3 ADD MSTORE PUSH1 0xD PUSH1 0x24 DUP3 ADD MSTORE PUSH13 0x105B1C9958591E481859D95B9D PUSH1 0x9A SHL PUSH1 0x44 DUP3 ADD MSTORE PUSH1 0x64 SWAP1 REVERT JUMPDEST POP CALLVALUE PUSH2 0x15C JUMPI DUP1 PUSH1 0x3 NOT CALLDATASIZE ADD SLT PUSH2 0x15C JUMPI PUSH1 0x20 PUSH1 0x40 MLOAD PUSH3 0x93A80 DUP2 MSTORE RETURN JUMPDEST POP CALLVALUE PUSH2 0x15C JUMPI PUSH1 0x40 CALLDATASIZE PUSH1 0x3 NOT ADD SLT PUSH2 0x15C JUMPI PUSH1 0x24 CALLDATALOAD PUSH1 0x1 PUSH1 0x1 PUSH1 0xA0 SHL SUB DUP2 AND SWAP2 SWAP1 DUP3 SWAP1 SUB PUSH2 0x7F8 JUMPI PUSH1 0x40 SWAP1 PUSH1 0x4 CALLDATALOAD DUP2 MSTORE PUSH1 0x6 PUSH1 0x20 MSTORE KECCAK256 SWAP1 PUSH1 0x0 MSTORE PUSH1 0x20 MSTORE PUSH1 0x20 PUSH1 0xFF PUSH1 0x40 PUSH1 0x0 KECCAK256 SLOAD AND PUSH1 0x40 MLOAD SWAP1 ISZERO ISZERO DUP2 MSTORE RETURN JUMPDEST PUSH1 0x0 DUP1 REVERT JUMPDEST POP CALLVALUE PUSH2 0x15C JUMPI DUP1 PUSH1 0x3 NOT CALLDATASIZE ADD SLT PUSH2 0x15C JUMPI PUSH1 0x20 PUSH1 0x40 MLOAD PUSH3 0x3F480 DUP2 MSTORE RETURN JUMPDEST POP CALLVALUE PUSH2 0x15C JUMPI PUSH1 0x40 CALLDATASIZE PUSH1 0x3 NOT ADD SLT PUSH2 0x15C JUMPI PUSH1 0x4 CALLDATALOAD PUSH1 0x24 SWAP1 DUP2 CALLDATALOAD SWAP2 PUSH1 0x3 DUP4 LT ISZERO PUSH2 0x4C9 JUMPI CALLER DUP5 MSTORE PUSH1 0x20 PUSH1 0x4 DUP2 MSTORE PUSH2 0x858 PUSH1 0xFF PUSH1 0x40 DUP8 KECCAK256 SLOAD AND PUSH2 0x1BD0 JUMP JUMPDEST DUP3 PUSH1 0x0 MSTORE PUSH1 0x5 DUP2 MSTORE PUSH1 0x40 PUSH1 0x0 KECCAK256 SWAP4 PUSH1 0x3 DUP6 ADD SLOAD TIMESTAMP GT PUSH2 0xA0C JUMPI DUP4 PUSH1 0x0 MSTORE PUSH1 0x6 DUP3 MSTORE PUSH1 0x40 PUSH1 0x0 KECCAK256 CALLER PUSH1 0x0 MSTORE DUP3 MSTORE PUSH1 0xFF PUSH1 0x40 PUSH1 0x0 KECCAK256 SLOAD AND PUSH2 0x9D9 JUMPI CALLER PUSH1 0x0 MSTORE PUSH1 0x7 DUP3 MSTORE PUSH1 0x40 PUSH1 0x0 KECCAK256 SLOAD ISZERO PUSH2 0x9A4 JUMPI CALLER PUSH1 0x0 MSTORE PUSH1 0x7 DUP3 MSTORE PUSH1 0x40 PUSH1 0x0 KECCAK256 SLOAD SWAP3 PUSH1 0x4 DUP4 MSTORE PUSH1 0xFF PUSH1 0x40 PUSH1 0x0 KECCAK256 SLOAD AND ISZERO PUSH2 0x967 JUMPI PUSH1 0x0 DUP6 DUP2 MSTORE PUSH1 0x6 DUP5 MSTORE PUSH1 0x40 DUP1 DUP3 KECCAK256 CALLER DUP4 MSTORE DUP6 MSTORE DUP2 KECCAK256 DUP1 SLOAD PUSH1 0xFF NOT AND PUSH1 0x1 OR SWAP1 SSTORE SWAP6 DUP3 PUSH2 0x93C JUMPI PUSH1 0x4 ADD PUSH2 0x8F9 DUP6 DUP3 SLOAD PUSH2 0x1BC3 JUMP JUMPDEST SWAP1 SSTORE JUMPDEST PUSH1 0x40 MLOAD SWAP6 PUSH2 0x39B JUMPI POP SWAP1 PUSH1 0x1 SWAP2 DUP6 MSTORE DUP5 ADD MSTORE PUSH1 0x40 DUP4 ADD MSTORE PUSH32 0x7DDA6376598BC78BEF200277D99B4AC90C445C930DBB0B86FE9CC59C1EFE954E PUSH1 0x60 CALLER SWAP4 LOG3 DUP1 RETURN JUMPDEST PUSH1 0x1 DUP4 SUB PUSH2 0x959 JUMPI PUSH1 0x5 ADD PUSH2 0x952 DUP6 DUP3 SLOAD PUSH2 0x1BC3 JUMP JUMPDEST SWAP1 SSTORE PUSH2 0x8FC JUMP JUMPDEST PUSH1 0x6 ADD PUSH2 0x952 DUP6 DUP3 SLOAD PUSH2 0x1BC3 JUMP JUMPDEST DUP3 PUSH1 0x17 PUSH1 0x64 SWAP3 PUSH1 0x40 MLOAD SWAP3 PUSH3 0x461BCD PUSH1 0xE5 SHL DUP5 MSTORE PUSH1 0x4 DUP5 ADD MSTORE DUP3 ADD MSTORE PUSH23 0x556E617574686F72697A6564206167656E7420766F7465 PUSH1 0x48 SHL PUSH1 0x44 DUP3 ADD MSTORE REVERT JUMPDEST POP PUSH1 0xF PUSH1 0x64 SWAP3 PUSH1 0x40 MLOAD SWAP3 PUSH3 0x461BCD PUSH1 0xE5 SHL DUP5 MSTORE PUSH1 0x4 DUP5 ADD MSTORE DUP3 ADD MSTORE PUSH15 0x2737903B37BA34B733903837BBB2B9 PUSH1 0x89 SHL PUSH1 0x44 DUP3 ADD MSTORE REVERT JUMPDEST POP PUSH1 0xD PUSH1 0x64 SWAP3 PUSH1 0x40 MLOAD SWAP3 PUSH3 0x461BCD PUSH1 0xE5 SHL DUP5 MSTORE PUSH1 0x4 DUP5 ADD MSTORE DUP3 ADD MSTORE PUSH13 0x105B1C9958591E481D9BDD1959 PUSH1 0x9A SHL PUSH1 0x44 DUP3 ADD MSTORE REVERT JUMPDEST POP PUSH1 0x13 PUSH1 0x64 SWAP3 PUSH1 0x40 MLOAD SWAP3 PUSH3 0x461BCD PUSH1 0xE5 SHL DUP5 MSTORE PUSH1 0x4 DUP5 ADD MSTORE DUP3 ADD MSTORE PUSH19 0x159BDD1A5B99C81C195C9A5BD908195B991959 PUSH1 0x6A SHL PUSH1 0x44 DUP3 ADD MSTORE REVERT JUMPDEST POP CALLVALUE PUSH2 0x15C JUMPI PUSH1 0xA0 CALLDATASIZE PUSH1 0x3 NOT ADD SLT PUSH2 0x15C JUMPI PUSH1 0x4 CALLDATALOAD PUSH1 0x6 DUP2 LT ISZERO PUSH2 0xF36 JUMPI PUSH8 0xFFFFFFFFFFFFFFFF SWAP2 PUSH1 0x24 DUP1 CALLDATALOAD PUSH1 0x44 CALLDATALOAD DUP6 DUP2 GT PUSH2 0x4C9 JUMPI PUSH2 0xA89 SWAP1 CALLDATASIZE SWAP1 PUSH1 0x4 ADD PUSH2 0x1B05 JUMP JUMPDEST SWAP1 PUSH1 0x64 SWAP4 DUP5 CALLDATALOAD PUSH1 0x1 DUP1 PUSH1 0xA0 SHL SUB DUP1 DUP3 AND DUP1 SWAP3 SUB PUSH2 0x7F8 JUMPI PUSH1 0x4 SWAP9 PUSH2 0xAC3 PUSH1 0xFF PUSH1 0x40 PUSH2 0xAB2 PUSH2 0x1B5C JUMP JUMPDEST SWAP7 CALLER DUP2 MSTORE PUSH1 0x20 SWAP14 DUP15 MSTORE KECCAK256 SLOAD AND PUSH2 0x1BD0 JUMP JUMPDEST CALLER PUSH1 0x0 MSTORE PUSH1 0x3 DUP11 MSTORE PUSH1 0xFF PUSH1 0x40 PUSH1 0x0 KECCAK256 SLOAD AND DUP1 ISZERO PUSH2 0xF23 JUMPI JUMPDEST PUSH2 0xAE4 SWAP1 PUSH2 0x1B88 JUMP JUMPDEST DUP6 MLOAD ISZERO PUSH2 0xEEC JUMPI CALLER PUSH1 0x0 MSTORE PUSH1 0x4 DUP11 MSTORE PUSH1 0xFF PUSH1 0x40 PUSH1 0x0 KECCAK256 SLOAD AND ISZERO PUSH2 0xEB2 JUMPI PUSH1 0x0 SWAP1 PUSH1 0x3 DUP11 EQ DUP1 ISZERO PUSH2 0xEA8 JUMPI JUMPDEST PUSH2 0xE4C JUMPI JUMPDEST PUSH1 0x1 SWAP9 PUSH1 0x4 DUP13 DUP6 DUP13 SLOAD AND PUSH1 0x40 MLOAD SWAP3 DUP4 DUP1 SWAP3 PUSH3 0x9032FF PUSH1 0xE5 SHL DUP3 MSTORE GAS STATICCALL SWAP1 DUP2 ISZERO PUSH2 0xE40 JUMPI PUSH1 0x0 SWAP2 PUSH2 0xE13 JUMPI JUMPDEST POP PUSH1 0xA DUP2 MUL SWAP1 DUP1 DUP3 DIV PUSH1 0xA EQ SWAP1 ISZERO OR ISZERO PUSH2 0xDFE JUMPI DUP2 SWAP1 DIV DUP8 GT PUSH2 0xDBD JUMPI POP PUSH1 0x9 SLOAD PUSH1 0x0 MSTORE PUSH1 0x5 DUP12 MSTORE PUSH1 0x40 PUSH1 0x0 KECCAK256 SWAP2 DUP3 SLOAD SWAP1 PUSH2 0xDA8 JUMPI PUSH1 0x1 PUSH1 0x1 PUSH1 0xA8 SHL SUB NOT AND CALLER PUSH1 0xFF PUSH1 0xA0 SHL NOT AND OR PUSH1 0xA0 DUP12 SWAP1 SHL PUSH1 0xFF PUSH1 0xA0 SHL AND OR DUP3 SSTORE DUP9 DUP3 ADD DUP7 SWAP1 SSTORE TIMESTAMP PUSH1 0x2 DUP4 ADD DUP2 SWAP1 SSTORE PUSH3 0x93A80 DUP2 ADD SWAP1 DUP2 LT PUSH2 0xD93 JUMPI PUSH1 0x3 DUP4 ADD SSTORE PUSH1 0x7 DUP3 ADD DUP1 SLOAD PUSH2 0xFF00 NOT AND PUSH2 0x100 OR SWAP1 SSTORE DUP7 MLOAD PUSH1 0x8 DUP4 ADD SWAP2 DUP2 GT PUSH2 0xD7E JUMPI DUP12 PUSH2 0xBDE DUP4 SLOAD PUSH2 0x1A39 JUMP JUMPDEST PUSH1 0x1F DUP2 GT PUSH2 0xD33 JUMPI JUMPDEST POP POP DUP12 DUP13 PUSH1 0x1F DUP4 GT PUSH1 0x1 EQ PUSH2 0xCC8 JUMPI POP SWAP1 DUP1 PUSH1 0xA SWAP5 SWAP4 SWAP3 PUSH1 0x0 SWAP2 PUSH2 0xCBD JUMPI JUMPDEST POP PUSH1 0x0 NOT PUSH1 0x3 DUP4 SWAP1 SHL SHR NOT AND SWAP1 DUP12 SHL OR SWAP1 SSTORE JUMPDEST PUSH1 0x9 DUP2 ADD PUSH1 0x1 PUSH1 0x1 PUSH1 0x60 SHL SUB PUSH1 0xA0 SHL SWAP5 DUP6 DUP3 SLOAD AND OR SWAP1 SSTORE ADD SWAP3 AND SWAP1 DUP3 SLOAD AND OR SWAP1 SSTORE PUSH32 0xB9A96D75A15A49D5BA01F917782F27AB8B41292775DEAA733CC34F432F42D283 PUSH1 0x9 SLOAD SWAP6 DUP7 SWAP3 PUSH2 0xC6E PUSH1 0x40 MLOAD DUP1 SWAP4 PUSH2 0x1AA9 JUMP JUMPDEST DUP9 DUP3 ADD MSTORE DUP6 PUSH1 0x40 DUP3 ADD MSTORE PUSH1 0x80 PUSH1 0x60 DUP3 ADD MSTORE DUP1 PUSH2 0xC8F CALLER SWAP6 PUSH1 0x80 DUP4 ADD SWAP1 PUSH2 0x1AB6 JUMP JUMPDEST SUB SWAP1 LOG3 PUSH1 0x0 NOT DUP4 EQ PUSH2 0xCA9 JUMPI POP DUP2 ADD PUSH1 0x9 SSTORE PUSH1 0x40 MLOAD SWAP1 DUP2 MSTORE RETURN JUMPDEST PUSH4 0x4E487B71 PUSH1 0xE0 SHL PUSH1 0x0 SWAP1 DUP2 MSTORE PUSH1 0x11 PUSH1 0x4 MSTORE REVERT JUMPDEST SWAP1 POP DUP10 ADD MLOAD CODESIZE PUSH2 0xC06 JUMP JUMPDEST SWAP2 DUP12 SWAP2 SWAP5 SWAP4 SWAP3 PUSH1 0x1F NOT DUP3 AND DUP5 PUSH1 0x0 MSTORE DUP2 PUSH1 0x0 KECCAK256 SWAP2 PUSH1 0x0 SWAP1 JUMPDEST DUP14 DUP4 DUP4 LT PUSH2 0xD1B JUMPI POP POP POP SWAP6 DUP3 PUSH1 0xA SWAP8 LT PUSH2 0xD02 JUMPI JUMPDEST POP POP DUP2 SHL ADD SWAP1 SSTORE PUSH2 0xC19 JUMP JUMPDEST DUP12 ADD MLOAD PUSH1 0x0 NOT PUSH1 0xF8 DUP5 PUSH1 0x3 SHL AND SHR NOT AND SWAP1 SSTORE CODESIZE DUP1 PUSH2 0xCF6 JUMP JUMPDEST DUP10 ADD MLOAD DUP5 SSTORE SWAP8 DUP9 ADD SWAP8 DUP16 SWAP6 SWAP1 SWAP4 ADD SWAP3 SWAP1 DUP2 ADD SWAP1 PUSH2 0xCE0 JUMP JUMPDEST DUP4 PUSH1 0x0 MSTORE DUP2 PUSH1 0x0 KECCAK256 SWAP1 PUSH1 0x1F DUP5 ADD PUSH1 0x5 SHR DUP3 ADD SWAP3 DUP5 LT PUSH2 0xD74 JUMPI JUMPDEST PUSH1 0x1F ADD PUSH1 0x5 SHR ADD SWAP1 DUP12 SWAP1 JUMPDEST DUP3 DUP2 LT PUSH2 0xD68 JUMPI POP DUP14 SWAP2 POP PUSH2 0xBE7 JUMP JUMPDEST PUSH1 0x0 DUP2 SSTORE ADD DUP12 SWAP1 PUSH2 0xD58 JUMP JUMPDEST SWAP1 SWAP2 POP DUP2 SWAP1 PUSH2 0xD4D JUMP JUMPDEST DUP9 PUSH4 0x4E487B71 PUSH1 0xE0 SHL PUSH1 0x0 MSTORE PUSH1 0x41 PUSH1 0x4 MSTORE PUSH1 0x0 REVERT JUMPDEST DUP9 PUSH4 0x4E487B71 PUSH1 0xE0 SHL PUSH1 0x0 MSTORE PUSH1 0x11 PUSH1 0x4 MSTORE PUSH1 0x0 REVERT JUMPDEST DUP9 PUSH4 0x4E487B71 PUSH1 0xE0 SHL PUSH1 0x0 MSTORE PUSH1 0x21 PUSH1 0x4 MSTORE PUSH1 0x0 REVERT JUMPDEST PUSH1 0x40 MLOAD PUSH3 0x461BCD PUSH1 0xE5 SHL DUP2 MSTORE PUSH1 0x4 DUP2 ADD DUP14 SWAP1 MSTORE PUSH1 0x1D DUP2 DUP12 ADD MSTORE PUSH32 0x416D6F756E742065786365656473206D61782070657263656E74616765000000 PUSH1 0x44 DUP3 ADD MSTORE REVERT JUMPDEST DUP10 PUSH4 0x4E487B71 PUSH1 0xE0 SHL PUSH1 0x0 MSTORE PUSH1 0x11 PUSH1 0x4 MSTORE PUSH1 0x0 REVERT JUMPDEST SWAP1 DUP14 DUP3 DUP2 RETURNDATASIZE DUP4 GT PUSH2 0xE39 JUMPI JUMPDEST PUSH2 0xE29 DUP2 DUP4 PUSH2 0x1A87 JUMP JUMPDEST DUP2 ADD SUB SLT PUSH2 0x15C JUMPI POP MLOAD CODESIZE PUSH2 0xB3F JUMP JUMPDEST POP RETURNDATASIZE PUSH2 0xE1F JUMP JUMPDEST PUSH1 0x40 MLOAD RETURNDATASIZE PUSH1 0x0 DUP3 RETURNDATACOPY RETURNDATASIZE SWAP1 REVERT JUMPDEST DUP3 DUP6 AND PUSH2 0xB14 JUMPI PUSH1 0x40 MLOAD PUSH3 0x461BCD PUSH1 0xE5 SHL DUP2 MSTORE PUSH1 0x4 DUP2 ADD DUP13 SWAP1 MSTORE PUSH1 0x29 DUP2 DUP11 ADD MSTORE PUSH32 0x546F6B656E206D7573742062652070726F766964656420666F72204445464920 PUSH1 0x44 DUP3 ADD MSTORE PUSH9 0x70726F706F73616C73 PUSH1 0xB8 SHL DUP2 DUP12 ADD MSTORE PUSH1 0x84 SWAP1 REVERT JUMPDEST POP PUSH1 0x4 DUP11 EQ PUSH2 0xB0F JUMP JUMPDEST PUSH1 0x40 MLOAD PUSH3 0x461BCD PUSH1 0xE5 SHL DUP2 MSTORE PUSH1 0x4 DUP2 ADD DUP12 SWAP1 MSTORE PUSH1 0x14 DUP2 DUP10 ADD MSTORE PUSH20 0x1059D95B9D081B9BDD08185D5D1A1BDC9A5E9959 PUSH1 0x62 SHL PUSH1 0x44 DUP3 ADD MSTORE DUP9 SWAP1 REVERT JUMPDEST PUSH1 0x40 MLOAD PUSH3 0x461BCD PUSH1 0xE5 SHL DUP2 MSTORE PUSH1 0x4 DUP2 ADD DUP12 SWAP1 MSTORE PUSH1 0x11 DUP2 DUP10 ADD MSTORE PUSH17 0x13595D1859185D18481C995C5D5A5C9959 PUSH1 0x7A SHL PUSH1 0x44 DUP3 ADD MSTORE DUP9 SWAP1 REVERT JUMPDEST POP PUSH1 0x4 DUP11 MSTORE PUSH1 0x40 PUSH1 0x0 KECCAK256 SLOAD PUSH1 0xFF AND PUSH2 0xADB JUMP JUMPDEST POP DUP1 REVERT JUMPDEST POP CALLVALUE PUSH2 0x15C JUMPI DUP1 PUSH1 0x3 NOT CALLDATASIZE ADD SLT PUSH2 0x15C JUMPI PUSH1 0x20 PUSH1 0x40 MLOAD PUSH1 0x14 DUP2 MSTORE RETURN JUMPDEST POP CALLVALUE PUSH2 0x15C JUMPI DUP1 PUSH1 0x3 NOT CALLDATASIZE ADD SLT PUSH2 0x15C JUMPI PUSH1 0x20 PUSH1 0x40 MLOAD PUSH1 0xA DUP2 MSTORE RETURN JUMPDEST POP CALLVALUE PUSH2 0x15C JUMPI PUSH1 0xC0 CALLDATASIZE PUSH1 0x3 NOT ADD SLT PUSH2 0x15C JUMPI PUSH1 0x6 PUSH1 0x4 CALLDATALOAD LT ISZERO PUSH2 0x15C JUMPI PUSH2 0xF97 PUSH2 0x1AF6 JUMP JUMPDEST SWAP1 PUSH1 0x64 SWAP2 DUP3 CALLDATALOAD PUSH8 0xFFFFFFFFFFFFFFFF SWAP3 DUP4 DUP3 GT PUSH2 0x15C JUMPI POP PUSH2 0xFBD SWAP1 CALLDATASIZE SWAP1 PUSH1 0x4 ADD PUSH2 0x1B05 JUMP JUMPDEST SWAP2 PUSH2 0xFC6 PUSH2 0x1B5C JUMP JUMPDEST PUSH1 0xA4 CALLDATALOAD SWAP2 PUSH1 0x1 PUSH1 0x1 PUSH1 0xA0 SHL SUB DUP4 AND DUP4 SUB PUSH2 0x7F8 JUMPI CALLER PUSH1 0x0 MSTORE PUSH1 0x3 PUSH1 0x20 MSTORE PUSH1 0xFF PUSH1 0x40 PUSH1 0x0 KECCAK256 SLOAD AND DUP1 ISZERO PUSH2 0x14D0 JUMPI JUMPDEST PUSH2 0xFFC SWAP1 PUSH2 0x1B88 JUMP JUMPDEST DUP5 MLOAD ISZERO PUSH2 0x1498 JUMPI DUP4 ISZERO PUSH2 0x143E JUMPI CALLER PUSH1 0x0 MSTORE PUSH1 0x4 PUSH1 0x20 MSTORE PUSH1 0xFF PUSH1 0x40 PUSH1 0x0 KECCAK256 SLOAD AND ISZERO PUSH2 0x1403 JUMPI JUMPDEST PUSH1 0x0 SWAP6 PUSH1 0x3 PUSH1 0x4 CALLDATALOAD EQ DUP1 ISZERO PUSH2 0x13F8 JUMPI JUMPDEST PUSH2 0x1394 JUMPI JUMPDEST PUSH1 0x1 SLOAD PUSH1 0x40 MLOAD PUSH3 0x9032FF PUSH1 0xE5 SHL DUP2 MSTORE SWAP1 PUSH1 0x20 SWAP1 DUP3 SWAP1 PUSH1 0x4 SWAP1 DUP3 SWAP1 PUSH1 0x1 PUSH1 0x1 PUSH1 0xA0 SHL SUB AND GAS STATICCALL SWAP1 DUP2 ISZERO PUSH2 0xE40 JUMPI PUSH1 0x0 SWAP2 PUSH2 0x1362 JUMPI JUMPDEST POP PUSH1 0xA DUP2 MUL SWAP1 DUP1 DUP3 DIV PUSH1 0xA EQ SWAP1 ISZERO OR ISZERO PUSH2 0x11FB JUMPI DUP2 SWAP1 DIV PUSH1 0x24 CALLDATALOAD GT PUSH2 0x1320 JUMPI POP PUSH1 0x9 SLOAD PUSH1 0x0 MSTORE PUSH1 0x5 PUSH1 0x20 MSTORE PUSH1 0x40 PUSH1 0x0 KECCAK256 SWAP6 DUP7 SLOAD SWAP1 PUSH2 0x130A JUMPI PUSH1 0x1 PUSH1 0x1 PUSH1 0xA8 SHL SUB NOT AND CALLER PUSH1 0xFF PUSH1 0xA0 SHL NOT AND OR PUSH1 0x4 CALLDATALOAD PUSH1 0xA0 SHL PUSH1 0xFF PUSH1 0xA0 SHL AND OR DUP7 SSTORE PUSH1 0x24 CALLDATALOAD PUSH1 0x1 DUP8 ADD SSTORE TIMESTAMP PUSH1 0x2 DUP8 ADD DUP2 SWAP1 SSTORE PUSH3 0x93A80 DUP2 ADD SWAP1 DUP2 LT PUSH2 0x11FB JUMPI PUSH1 0x3 DUP8 ADD SSTORE PUSH1 0x7 DUP7 ADD DUP1 SLOAD PUSH2 0xFF00 NOT AND DUP6 ISZERO ISZERO PUSH1 0x8 SHL PUSH2 0xFF00 AND OR SWAP1 SSTORE DUP5 MLOAD SWAP1 DUP2 GT PUSH2 0x12F4 JUMPI PUSH2 0x1114 PUSH1 0x8 DUP8 ADD SLOAD PUSH2 0x1A39 JUMP JUMPDEST PUSH1 0x1F DUP2 GT PUSH2 0x12AD JUMPI JUMPDEST POP PUSH1 0x20 PUSH1 0x1F DUP3 GT PUSH1 0x1 EQ PUSH2 0x121C JUMPI SWAP6 DUP2 PUSH1 0xA SWAP3 PUSH32 0xB9A96D75A15A49D5BA01F917782F27AB8B41292775DEAA733CC34F432F42D283 SWAP9 PUSH1 0x0 SWAP2 PUSH2 0x1211 JUMPI JUMPDEST POP DUP2 PUSH1 0x1 SHL SWAP2 PUSH1 0x0 NOT SWAP1 PUSH1 0x3 SHL SHR NOT AND OR PUSH1 0x8 DUP3 ADD SSTORE JUMPDEST PUSH1 0x9 DUP2 ADD PUSH1 0x1 PUSH1 0x1 PUSH1 0x60 SHL SUB PUSH1 0xA0 SHL SWAP4 PUSH1 0x1 DUP1 PUSH1 0xA0 SHL SUB AND DUP5 DUP3 SLOAD AND OR SWAP1 SSTORE ADD SWAP2 PUSH1 0x1 DUP1 PUSH1 0xA0 SHL SUB AND SWAP1 DUP3 SLOAD AND OR SWAP1 SSTORE PUSH1 0x9 SLOAD SWAP3 DUP4 SWAP2 PUSH1 0x40 MLOAD SWAP1 PUSH2 0x11B7 DUP3 PUSH1 0x4 CALLDATALOAD PUSH2 0x1AA9 JUMP JUMPDEST PUSH1 0x24 CALLDATALOAD PUSH1 0x20 DUP4 ADD MSTORE ISZERO ISZERO PUSH1 0x40 DUP3 ADD MSTORE PUSH1 0x80 PUSH1 0x60 DUP3 ADD MSTORE DUP1 PUSH2 0x11DD CALLER SWAP6 PUSH1 0x80 DUP4 ADD SWAP1 PUSH2 0x1AB6 JUMP JUMPDEST SUB SWAP1 LOG3 PUSH1 0x0 NOT DUP2 EQ PUSH2 0x11FB JUMPI DUP1 PUSH1 0x1 PUSH1 0x20 SWAP3 ADD PUSH1 0x9 SSTORE PUSH1 0x40 MLOAD SWAP1 DUP2 MSTORE RETURN JUMPDEST PUSH4 0x4E487B71 PUSH1 0xE0 SHL PUSH1 0x0 MSTORE PUSH1 0x11 PUSH1 0x4 MSTORE PUSH1 0x24 PUSH1 0x0 REVERT JUMPDEST SWAP1 POP DUP8 ADD MLOAD CODESIZE PUSH2 0x115A JUMP JUMPDEST PUSH1 0x8 DUP8 ADD PUSH1 0x0 MSTORE PUSH1 0x20 PUSH1 0x0 KECCAK256 SWAP1 PUSH1 0x0 JUMPDEST PUSH1 0x1F NOT DUP5 AND DUP2 LT PUSH2 0x1295 JUMPI POP DUP3 PUSH32 0xB9A96D75A15A49D5BA01F917782F27AB8B41292775DEAA733CC34F432F42D283 SWAP9 SWAP3 PUSH1 0x1 SWAP3 PUSH1 0xA SWAP6 PUSH1 0x1F NOT DUP2 AND LT PUSH2 0x127C JUMPI JUMPDEST POP POP DUP2 SHL ADD PUSH1 0x8 DUP3 ADD SSTORE PUSH2 0x1171 JUMP JUMPDEST DUP10 ADD MLOAD PUSH1 0x0 NOT PUSH1 0xF8 DUP5 PUSH1 0x3 SHL AND SHR NOT AND SWAP1 SSTORE CODESIZE DUP1 PUSH2 0x126D JUMP JUMPDEST SWAP1 SWAP2 PUSH1 0x20 PUSH1 0x1 DUP2 SWAP3 DUP6 DUP12 ADD MLOAD DUP2 SSTORE ADD SWAP4 ADD SWAP2 ADD PUSH2 0x122C JUMP JUMPDEST PUSH1 0x8 DUP8 ADD PUSH1 0x0 MSTORE PUSH1 0x20 PUSH1 0x0 KECCAK256 PUSH1 0x1F DUP4 ADD PUSH1 0x5 SHR DUP2 ADD PUSH1 0x20 DUP5 LT PUSH2 0x12ED JUMPI JUMPDEST PUSH1 0x1F DUP4 ADD PUSH1 0x5 SHR DUP3 ADD DUP2 LT PUSH2 0x12E1 JUMPI POP POP PUSH2 0x111D JUMP JUMPDEST PUSH1 0x0 DUP2 SSTORE PUSH1 0x1 ADD PUSH2 0x12CB JUMP JUMPDEST POP DUP1 PUSH2 0x12CB JUMP JUMPDEST PUSH4 0x4E487B71 PUSH1 0xE0 SHL PUSH1 0x0 MSTORE PUSH1 0x41 PUSH1 0x4 MSTORE PUSH1 0x24 PUSH1 0x0 REVERT JUMPDEST PUSH4 0x4E487B71 PUSH1 0xE0 SHL PUSH1 0x0 MSTORE PUSH1 0x21 PUSH1 0x4 MSTORE PUSH1 0x24 PUSH1 0x0 REVERT JUMPDEST PUSH1 0x40 MLOAD PUSH3 0x461BCD PUSH1 0xE5 SHL DUP2 MSTORE PUSH1 0x20 PUSH1 0x4 DUP3 ADD MSTORE PUSH1 0x1D PUSH1 0x24 DUP3 ADD MSTORE PUSH32 0x416D6F756E742065786365656473206D61782070657263656E74616765000000 PUSH1 0x44 DUP3 ADD MSTORE REVERT JUMPDEST SWAP1 PUSH1 0x20 DUP3 RETURNDATASIZE PUSH1 0x20 GT PUSH2 0x138C JUMPI JUMPDEST DUP2 PUSH2 0x137C PUSH1 0x20 SWAP4 DUP4 PUSH2 0x1A87 JUMP JUMPDEST DUP2 ADD SUB SLT PUSH2 0x15C JUMPI POP MLOAD CODESIZE PUSH2 0x106A JUMP JUMPDEST RETURNDATASIZE SWAP2 POP PUSH2 0x136F JUMP JUMPDEST PUSH1 0x1 PUSH1 0x1 PUSH1 0xA0 SHL SUB DUP5 AND PUSH2 0x1036 JUMPI PUSH1 0x84 SWAP1 PUSH9 0x70726F706F73616C73 PUSH1 0xB8 SHL PUSH1 0x40 MLOAD SWAP2 PUSH3 0x461BCD PUSH1 0xE5 SHL DUP4 MSTORE PUSH1 0x20 PUSH1 0x4 DUP5 ADD MSTORE PUSH1 0x29 PUSH1 0x24 DUP5 ADD MSTORE PUSH32 0x546F6B656E206D7573742062652070726F766964656420666F72204445464920 PUSH1 0x44 DUP5 ADD MSTORE DUP3 ADD MSTORE REVERT JUMPDEST POP PUSH1 0x4 DUP1 CALLDATALOAD EQ PUSH2 0x1031 JUMP JUMPDEST PUSH1 0x40 MLOAD PUSH3 0x461BCD PUSH1 0xE5 SHL DUP2 MSTORE PUSH1 0x20 PUSH1 0x4 DUP3 ADD MSTORE PUSH1 0x14 PUSH1 0x24 DUP3 ADD MSTORE PUSH20 0x1059D95B9D081B9BDD08185D5D1A1BDC9A5E9959 PUSH1 0x62 SHL PUSH1 0x44 DUP3 ADD MSTORE DUP7 SWAP1 REVERT JUMPDEST CALLER PUSH1 0x0 MSTORE PUSH1 0x3 PUSH1 0x20 MSTORE PUSH1 0xFF PUSH1 0x40 PUSH1 0x0 KECCAK256 SLOAD AND PUSH2 0x1021 JUMPI PUSH1 0x40 MLOAD PUSH3 0x461BCD PUSH1 0xE5 SHL DUP2 MSTORE PUSH1 0x20 PUSH1 0x4 DUP3 ADD MSTORE PUSH1 0x17 PUSH1 0x24 DUP3 ADD MSTORE PUSH32 0x50726F706F736572206E6F7420617574686F72697A6564000000000000000000 PUSH1 0x44 DUP3 ADD MSTORE DUP7 SWAP1 REVERT JUMPDEST PUSH1 0x40 MLOAD PUSH3 0x461BCD PUSH1 0xE5 SHL DUP2 MSTORE PUSH1 0x20 PUSH1 0x4 DUP3 ADD MSTORE PUSH1 0x11 PUSH1 0x24 DUP3 ADD MSTORE PUSH17 0x13595D1859185D18481C995C5D5A5C9959 PUSH1 0x7A SHL PUSH1 0x44 DUP3 ADD MSTORE DUP7 SWAP1 REVERT JUMPDEST POP PUSH1 0x4 PUSH1 0x20 MSTORE PUSH1 0x40 PUSH1 0x0 KECCAK256 SLOAD PUSH1 0xFF AND PUSH2 0xFF3 JUMP JUMPDEST POP CALLVALUE PUSH2 0x15C JUMPI PUSH1 0x20 DUP1 PUSH1 0x3 NOT CALLDATASIZE ADD SLT PUSH2 0xF36 JUMPI PUSH1 0x4 CALLDATALOAD PUSH1 0x2 DUP4 SLOAD EQ PUSH2 0x18A5 JUMPI PUSH1 0x2 DUP4 SSTORE DUP1 DUP4 MSTORE PUSH1 0x5 DUP3 MSTORE PUSH1 0x40 DUP4 KECCAK256 PUSH1 0x3 DUP2 ADD SLOAD SWAP3 PUSH3 0x3F480 DUP5 ADD DUP1 DUP6 GT PUSH2 0x1891 JUMPI TIMESTAMP GT PUSH2 0x184D JUMPI PUSH1 0x7 DUP3 ADD SWAP1 DUP2 SLOAD SWAP5 PUSH1 0xFF DUP7 AND PUSH2 0x1815 JUMPI TIMESTAMP GT ISZERO PUSH2 0x17E0 JUMPI PUSH1 0x4 DUP4 ADD SLOAD PUSH1 0x5 DUP5 ADD SLOAD SWAP1 PUSH2 0x1565 PUSH2 0x155A DUP4 DUP4 PUSH2 0x1BC3 JUMP JUMPDEST PUSH1 0x6 DUP8 ADD SLOAD SWAP1 PUSH2 0x1BC3 JUMP JUMPDEST PUSH1 0x8 SLOAD PUSH1 0x14 DUP2 MUL SWAP1 DUP1 DUP3 DIV PUSH1 0x14 EQ SWAP1 ISZERO OR ISZERO PUSH2 0x17CC JUMPI PUSH1 0x64 SWAP1 DIV GT PUSH2 0x1796 JUMPI GT ISZERO PUSH2 0x175E JUMPI POP PUSH1 0x1 DUP1 SWAP5 PUSH1 0xFF NOT AND OR SWAP1 SSTORE PUSH1 0xFF DUP2 SLOAD PUSH1 0xA0 SHR AND PUSH1 0x6 DUP2 LT ISZERO PUSH2 0x174A JUMPI PUSH1 0x3 SUB PUSH2 0x1673 JUMPI DUP3 SLOAD PUSH1 0xA DUP3 ADD SLOAD DUP3 DUP6 ADD SLOAD DUP7 SWAP3 PUSH1 0x1 PUSH1 0x1 PUSH1 0xA0 SHL SUB SWAP1 DUP2 AND SWAP3 AND SWAP1 DUP3 EXTCODESIZE ISZERO PUSH2 0x4C9 JUMPI PUSH1 0x44 DUP5 SWAP3 DUP4 PUSH1 0x40 MLOAD SWAP6 DUP7 SWAP5 DUP6 SWAP4 PUSH4 0xEEB149E7 PUSH1 0xE0 SHL DUP6 MSTORE PUSH1 0x4 DUP6 ADD MSTORE PUSH1 0x24 DUP5 ADD MSTORE GAS CALL DUP1 ISZERO PUSH2 0x1668 JUMPI PUSH2 0x1654 JUMPI JUMPDEST POP POP PUSH32 0x3FB8665E50A1E284631ACC76D721090605355356A5E26E9C2301C02A02ADD27A SWAP1 JUMPDEST DUP1 DUP5 ADD SLOAD PUSH1 0x9 SWAP1 SWAP2 ADD SLOAD PUSH1 0x40 DUP1 MLOAD CALLER DUP2 MSTORE PUSH1 0x20 DUP2 ADD SWAP4 SWAP1 SWAP4 MSTORE PUSH1 0x1 PUSH1 0x1 PUSH1 0xA0 SHL SUB SWAP1 SWAP2 AND SWAP1 DUP3 ADD MSTORE PUSH1 0x60 SWAP1 LOG2 DUP2 SSTORE DUP1 RETURN JUMPDEST PUSH2 0x165D SWAP1 PUSH2 0x1A73 JUMP JUMPDEST PUSH2 0x4C9 JUMPI DUP4 CODESIZE PUSH2 0x15FE JUMP JUMPDEST PUSH1 0x40 MLOAD RETURNDATASIZE DUP5 DUP3 RETURNDATACOPY RETURNDATASIZE SWAP1 REVERT JUMPDEST DUP3 SLOAD PUSH1 0x9 DUP3 ADD SLOAD DUP3 DUP6 ADD SLOAD PUSH1 0xA DUP5 ADD SLOAD PUSH1 0x1 PUSH1 0x1 PUSH1 0xA0 SHL SUB SWAP3 DUP4 AND SWAP4 DUP9 SWAP4 SWAP2 DUP3 AND SWAP3 SWAP2 AND SWAP1 DUP2 EXTCODESIZE ISZERO PUSH2 0x4C9 JUMPI PUSH1 0x40 MLOAD PUSH4 0x2636FD7 PUSH1 0xE2 SHL DUP2 MSTORE PUSH1 0x1 PUSH1 0x1 PUSH1 0xA0 SHL SUB SWAP6 DUP7 AND PUSH1 0x4 DUP3 ADD MSTORE PUSH1 0x24 DUP2 ADD SWAP2 SWAP1 SWAP2 MSTORE SWAP2 SWAP1 SWAP4 AND PUSH1 0x44 DUP3 ADD MSTORE SWAP2 DUP3 SWAP1 PUSH1 0x64 SWAP1 DUP3 SWAP1 DUP5 SWAP1 GAS CALL DUP1 ISZERO PUSH2 0x173F JUMPI PUSH2 0x170C JUMPI JUMPDEST POP PUSH32 0x3FB8665E50A1E284631ACC76D721090605355356A5E26E9C2301C02A02ADD27A SWAP1 PUSH2 0x1623 JUMP JUMPDEST SWAP4 PUSH2 0x1738 PUSH32 0x3FB8665E50A1E284631ACC76D721090605355356A5E26E9C2301C02A02ADD27A SWAP3 SWAP6 PUSH2 0x1A73 JUMP JUMPDEST SWAP4 SWAP1 PUSH2 0x16E4 JUMP JUMPDEST PUSH1 0x40 MLOAD RETURNDATASIZE DUP8 DUP3 RETURNDATACOPY RETURNDATASIZE SWAP1 REVERT JUMPDEST PUSH4 0x4E487B71 PUSH1 0xE0 SHL DUP6 MSTORE PUSH1 0x21 PUSH1 0x4 MSTORE PUSH1 0x24 DUP6 REVERT JUMPDEST PUSH1 0x64 SWAP1 PUSH1 0x40 MLOAD SWAP1 PUSH3 0x461BCD PUSH1 0xE5 SHL DUP3 MSTORE PUSH1 0x4 DUP3 ADD MSTORE PUSH1 0x11 PUSH1 0x24 DUP3 ADD MSTORE PUSH17 0x141C9BDC1BDCD85B081C995A9958DD1959 PUSH1 0x7A SHL PUSH1 0x44 DUP3 ADD MSTORE REVERT JUMPDEST PUSH1 0x40 MLOAD PUSH3 0x461BCD PUSH1 0xE5 SHL DUP2 MSTORE PUSH1 0x4 DUP2 ADD DUP5 SWAP1 MSTORE PUSH1 0xE PUSH1 0x24 DUP3 ADD MSTORE PUSH14 0x145D5BDC9D5B481B9BDD081B595D PUSH1 0x92 SHL PUSH1 0x44 DUP3 ADD MSTORE PUSH1 0x64 SWAP1 REVERT JUMPDEST PUSH4 0x4E487B71 PUSH1 0xE0 SHL DUP11 MSTORE PUSH1 0x11 PUSH1 0x4 MSTORE PUSH1 0x24 DUP11 REVERT JUMPDEST PUSH1 0x64 SWAP1 PUSH1 0x40 MLOAD SWAP1 PUSH3 0x461BCD PUSH1 0xE5 SHL DUP3 MSTORE PUSH1 0x4 DUP3 ADD MSTORE PUSH1 0xE PUSH1 0x24 DUP3 ADD MSTORE PUSH14 0x566F74696E67206F6E676F696E67 PUSH1 0x90 SHL PUSH1 0x44 DUP3 ADD MSTORE REVERT JUMPDEST PUSH1 0x40 MLOAD PUSH3 0x461BCD PUSH1 0xE5 SHL DUP2 MSTORE PUSH1 0x4 DUP2 ADD DUP4 SWAP1 MSTORE PUSH1 0x10 PUSH1 0x24 DUP3 ADD MSTORE PUSH16 0x105B1C9958591E48195E1958DD5D1959 PUSH1 0x82 SHL PUSH1 0x44 DUP3 ADD MSTORE PUSH1 0x64 SWAP1 REVERT JUMPDEST PUSH1 0x64 SWAP1 PUSH1 0x40 MLOAD SWAP1 PUSH3 0x461BCD PUSH1 0xE5 SHL DUP3 MSTORE PUSH1 0x4 DUP3 ADD MSTORE PUSH1 0x18 PUSH1 0x24 DUP3 ADD MSTORE PUSH32 0x457865637574696F6E2077696E646F7720657870697265640000000000000000 PUSH1 0x44 DUP3 ADD MSTORE REVERT JUMPDEST PUSH4 0x4E487B71 PUSH1 0xE0 SHL DUP7 MSTORE PUSH1 0x11 PUSH1 0x4 MSTORE PUSH1 0x24 DUP7 REVERT JUMPDEST PUSH1 0x40 MLOAD PUSH4 0x3EE5AEB5 PUSH1 0xE0 SHL DUP2 MSTORE PUSH1 0x4 SWAP1 REVERT JUMPDEST DUP3 CALLVALUE PUSH2 0x15C JUMPI PUSH1 0x80 SWAP1 PUSH1 0x20 DUP3 MSTORE PUSH1 0x20 PUSH1 0x3 NOT CALLDATASIZE ADD SLT PUSH2 0x15C JUMPI PUSH1 0x4 CALLDATALOAD DUP2 MSTORE PUSH1 0x5 PUSH1 0x20 MSTORE PUSH1 0x40 DUP2 KECCAK256 SWAP1 DUP2 SLOAD SWAP4 PUSH1 0x1 DUP1 DUP5 ADD SLOAD SWAP3 PUSH1 0x2 DUP6 ADD SLOAD SWAP6 PUSH1 0x3 DUP7 ADD SLOAD PUSH1 0x4 DUP8 ADD SLOAD SWAP1 PUSH1 0x5 DUP9 ADD SLOAD SWAP3 DUP7 PUSH1 0x6 DUP11 ADD SLOAD SWAP6 PUSH1 0x7 DUP12 ADD SLOAD SWAP8 PUSH1 0x8 DUP13 ADD SWAP1 DUP3 DUP3 SLOAD SWAP3 PUSH2 0x191F DUP5 PUSH2 0x1A39 JUMP JUMPDEST DUP1 DUP8 MSTORE SWAP4 DUP4 DUP2 AND SWAP1 DUP2 ISZERO PUSH2 0x1A15 JUMPI POP PUSH1 0x1 EQ PUSH2 0x19D9 JUMPI JUMPDEST POP POP POP POP SUB PUSH2 0x1945 SWAP1 DUP9 PUSH2 0x1A87 JUMP JUMPDEST PUSH1 0x1 PUSH1 0xA0 SHL PUSH1 0x1 SWAP1 SUB SWAP10 DUP11 DUP1 PUSH1 0x9 DUP13 ADD SLOAD AND SWAP11 PUSH1 0xA ADD SLOAD AND SWAP9 PUSH1 0x40 MLOAD SWAP13 DUP14 SWAP13 DUP2 AND DUP14 MSTORE DUP4 MLOAD DUP14 ADD SWAP1 PUSH1 0xA0 SHR PUSH1 0xFF AND SWAP1 PUSH2 0x197D SWAP2 PUSH2 0x1AA9 JUMP JUMPDEST PUSH1 0x40 DUP13 ADD MSTORE PUSH1 0x60 DUP12 ADD MSTORE DUP10 ADD MSTORE PUSH1 0xA0 DUP9 ADD MSTORE PUSH1 0xC0 DUP8 ADD MSTORE PUSH1 0xE0 DUP7 ADD MSTORE PUSH1 0xFF DUP2 AND ISZERO ISZERO PUSH2 0x100 DUP7 ADD MSTORE PUSH1 0x8 SHR PUSH1 0xFF AND ISZERO ISZERO PUSH2 0x120 DUP6 ADD MSTORE PUSH2 0x1A0 DUP1 PUSH2 0x140 DUP7 ADD MSTORE DUP5 ADD PUSH2 0x19C8 SWAP2 PUSH2 0x1AB6 JUMP JUMPDEST SWAP2 PUSH2 0x160 DUP5 ADD MSTORE PUSH2 0x180 DUP4 ADD MSTORE SUB SWAP1 RETURN JUMPDEST SWAP1 DUP1 SWAP5 POP MSTORE DUP5 MLOAD DUP4 KECCAK256 JUMPDEST DUP3 DUP5 LT PUSH2 0x19FC JUMPI POP POP POP DUP3 MLOAD SWAP1 DUP3 ADD ADD DUP14 DUP1 DUP1 DUP1 PUSH2 0x1936 JUMP JUMPDEST DUP1 SLOAD DUP7 MLOAD DUP14 DUP7 ADD ADD MSTORE DUP6 MLOAD DUP13 SWAP6 POP SWAP1 SWAP4 ADD SWAP3 DUP2 ADD PUSH2 0x19E3 JUMP JUMPDEST SWAP5 SWAP6 POP POP POP POP POP PUSH1 0xFF NOT AND DUP4 MLOAD DUP4 ADD MSTORE DUP3 MLOAD SWAP1 ISZERO ISZERO PUSH1 0x5 SHL DUP3 ADD ADD DUP14 DUP1 DUP1 DUP1 PUSH2 0x1936 JUMP JUMPDEST SWAP1 PUSH1 0x1 DUP3 DUP2 SHR SWAP3 AND DUP1 ISZERO PUSH2 0x1A69 JUMPI JUMPDEST PUSH1 0x20 DUP4 LT EQ PUSH2 0x1A53 JUMPI JUMP JUMPDEST PUSH4 0x4E487B71 PUSH1 0xE0 SHL PUSH1 0x0 MSTORE PUSH1 0x22 PUSH1 0x4 MSTORE PUSH1 0x24 PUSH1 0x0 REVERT JUMPDEST SWAP2 PUSH1 0x7F AND SWAP2 PUSH2 0x1A48 JUMP JUMPDEST PUSH8 0xFFFFFFFFFFFFFFFF DUP2 GT PUSH2 0x12F4 JUMPI PUSH1 0x40 MSTORE JUMP JUMPDEST SWAP1 PUSH1 0x1F DUP1 NOT SWAP2 ADD AND DUP2 ADD SWAP1 DUP2 LT PUSH8 0xFFFFFFFFFFFFFFFF DUP3 GT OR PUSH2 0x12F4 JUMPI PUSH1 0x40 MSTORE JUMP JUMPDEST SWAP1 PUSH1 0x6 DUP3 LT ISZERO PUSH2 0x130A JUMPI MSTORE JUMP JUMPDEST SWAP2 SWAP1 DUP3 MLOAD SWAP3 DUP4 DUP3 MSTORE PUSH1 0x0 JUMPDEST DUP5 DUP2 LT PUSH2 0x1AE2 JUMPI POP POP DUP3 PUSH1 0x0 PUSH1 0x20 DUP1 SWAP5 SWAP6 DUP5 ADD ADD MSTORE PUSH1 0x1F DUP1 NOT SWAP2 ADD AND ADD ADD SWAP1 JUMP JUMPDEST PUSH1 0x20 DUP2 DUP4 ADD DUP2 ADD MLOAD DUP5 DUP4 ADD DUP3 ADD MSTORE ADD PUSH2 0x1AC1 JUMP JUMPDEST PUSH1 0x44 CALLDATALOAD SWAP1 DUP2 ISZERO ISZERO DUP3 SUB PUSH2 0x7F8 JUMPI JUMP JUMPDEST DUP2 PUSH1 0x1F DUP3 ADD SLT ISZERO PUSH2 0x7F8 JUMPI DUP1 CALLDATALOAD SWAP1 PUSH8 0xFFFFFFFFFFFFFFFF DUP3 GT PUSH2 0x12F4 JUMPI PUSH1 0x40 MLOAD SWAP3 PUSH2 0x1B3A PUSH1 0x1F DUP5 ADD PUSH1 0x1F NOT AND PUSH1 0x20 ADD DUP6 PUSH2 0x1A87 JUMP JUMPDEST DUP3 DUP5 MSTORE PUSH1 0x20 DUP4 DUP4 ADD ADD GT PUSH2 0x7F8 JUMPI DUP2 PUSH1 0x0 SWAP3 PUSH1 0x20 DUP1 SWAP4 ADD DUP4 DUP7 ADD CALLDATACOPY DUP4 ADD ADD MSTORE SWAP1 JUMP JUMPDEST PUSH1 0x84 CALLDATALOAD SWAP1 PUSH1 0x1 PUSH1 0x1 PUSH1 0xA0 SHL SUB DUP3 AND DUP3 SUB PUSH2 0x7F8 JUMPI JUMP JUMPDEST PUSH1 0x4 CALLDATALOAD SWAP1 PUSH1 0x1 PUSH1 0x1 PUSH1 0xA0 SHL SUB DUP3 AND DUP3 SUB PUSH2 0x7F8 JUMPI JUMP JUMPDEST ISZERO PUSH2 0x1B8F JUMPI JUMP JUMPDEST PUSH1 0x40 MLOAD PUSH3 0x461BCD PUSH1 0xE5 SHL DUP2 MSTORE PUSH1 0x20 PUSH1 0x4 DUP3 ADD MSTORE PUSH1 0xC PUSH1 0x24 DUP3 ADD MSTORE PUSH12 0x155B985D5D1A1BDC9A5E9959 PUSH1 0xA2 SHL PUSH1 0x44 DUP3 ADD MSTORE PUSH1 0x64 SWAP1 REVERT JUMPDEST SWAP2 SWAP1 DUP3 ADD DUP1 SWAP3 GT PUSH2 0x11FB JUMPI JUMP JUMPDEST ISZERO PUSH2 0x1BD7 JUMPI JUMP JUMPDEST PUSH1 0x40 MLOAD PUSH3 0x461BCD PUSH1 0xE5 SHL DUP2 MSTORE PUSH1 0x20 PUSH1 0x4 DUP3 ADD MSTORE PUSH1 0x14 PUSH1 0x24 DUP3 ADD MSTORE PUSH20 0x139BDD08185D5D1A1BDC9A5E9959081859D95B9D PUSH1 0x62 SHL PUSH1 0x44 DUP3 ADD MSTORE PUSH1 0x64 SWAP1 REVERT JUMPDEST SWAP2 SWAP1 DUP3 SUB SWAP2 DUP3 GT PUSH2 0x11FB JUMPI JUMP INVALID LOG2 PUSH5 0x6970667358 0x22 SLT KECCAK256 0xE INVALID 0xD1 PUSH0 PUSH19 0x59C956FA0274D5F50A1A215B7C74A2B14C4AFF 0x2B RETURNDATASIZE SWAP8 PUSH31 0x7540556364736F6C6343000814003300000000000000000000000000000000 "},"methodIdentifiers":{"EXECUTION_WINDOW()":"3e65164a","MAX_TREASURY_PERCENT()":"1eba3b1e","QUORUM_PERCENT()":"208fb590","VOTE_DURATION()":"4654ff05","addAgent(address,uint256)":"596939f5","addProposer(address,uint256)":"b0a45b0c","agentCreateProposal(uint8,uint256,string,address,address)":"22ffdc61","agentVote(uint256,uint8)":"3588b4b2","authorizedAgents(address)":"efd76065","authorizedProposers(address)":"f6cf0ac6","createProposal(uint8,uint256,bool,string,address,address)":"1d58011f","executeProposal(uint256)":"0d61b519","hasVoted(uint256,address)":"43859632","owner()":"8da5cb5b","proposalCount()":"da35c664","proposals(uint256)":"013cf08b","removeVotingPower(address)":"9442f472","totalVotingPower()":"671b3793","treasury()":"61d027b3","updateTreasury(address)":"7f51bb1f","updateVotingPower(address,uint256)":"eadc29c7","vote(uint256,uint8,bool)":"ce6366c4","votingPower(address)":"c07473f6"}}}}}