{
  "_format": "hh-sol-artifact-1",
  "contractName": "SynapseProposals",
  "sourceName": "contracts/SynapseProposals.sol",
  "abi": [
    {
      "inputs": [
        {
          "internalType": "address",
          "name": "_treasury",
          "type": "address"
        }
      ],
      "stateMutability": "nonpayable",
      "type": "constructor"
    },
    {
      "inputs": [],
      "name": "ReentrancyGuardReentrantCall",
      "type": "error"
    },
    {
      "anonymous": false,
      "inputs": [
        {
          "indexed": true,
          "internalType": "uint256",
          "name": "id",
          "type": "uint256"
        },
        {
          "indexed": true,
          "internalType": "address",
          "name": "proposer",
          "type": "address"
        },
        {
          "indexed": false,
          "internalType": "enum SynapseProposals.ProposalType",
          "name": "pType",
          "type": "uint8"
        },
        {
          "indexed": false,
          "internalType": "uint256",
          "name": "amount",
          "type": "uint256"
        },
        {
          "indexed": false,
          "internalType": "bool",
          "name": "isAgentProposal",
          "type": "bool"
        },
        {
          "indexed": false,
          "internalType": "string",
          "name": "metadataCID",
          "type": "string"
        }
      ],
      "name": "ProposalCreated",
      "type": "event"
    },
    {
      "anonymous": false,
      "inputs": [
        {
          "indexed": true,
          "internalType": "uint256",
          "name": "proposalId",
          "type": "uint256"
        },
        {
          "indexed": false,
          "internalType": "address",
          "name": "executor",
          "type": "address"
        },
        {
          "indexed": false,
          "internalType": "uint256",
          "name": "amount",
          "type": "uint256"
        },
        {
          "indexed": false,
          "internalType": "address",
          "name": "recipient",
          "type": "address"
        }
      ],
      "name": "ProposalExecuted",
      "type": "event"
    },
    {
      "anonymous": false,
      "inputs": [
        {
          "indexed": true,
          "internalType": "uint256",
          "name": "proposalId",
          "type": "uint256"
        },
        {
          "indexed": true,
          "internalType": "address",
          "name": "voter",
          "type": "address"
        },
        {
          "indexed": false,
          "internalType": "enum SynapseProposals.VoteOption",
          "name": "vote",
          "type": "uint8"
        },
        {
          "indexed": false,
          "internalType": "bool",
          "name": "isAgentVote",
          "type": "bool"
        },
        {
          "indexed": false,
          "internalType": "uint256",
          "name": "powerUsed",
          "type": "uint256"
        }
      ],
      "name": "Voted",
      "type": "event"
    },
    {
      "inputs": [],
      "name": "EXECUTION_WINDOW",
      "outputs": [
        {
          "internalType": "uint256",
          "name": "",
          "type": "uint256"
        }
      ],
      "stateMutability": "view",
      "type": "function"
    },
    {
      "inputs": [],
      "name": "MAX_TREASURY_PERCENT",
      "outputs": [
        {
          "internalType": "uint256",
          "name": "",
          "type": "uint256"
        }
      ],
      "stateMutability": "view",
      "type": "function"
    },
    {
      "inputs": [],
      "name": "QUORUM_PERCENT",
      "outputs": [
        {
          "internalType": "uint256",
          "name": "",
          "type": "uint256"
        }
      ],
      "stateMutability": "view",
      "type": "function"
    },
    {
      "inputs": [],
      "name": "VOTE_DURATION",
      "outputs": [
        {
          "internalType": "uint256",
          "name": "",
          "type": "uint256"
        }
      ],
      "stateMutability": "view",
      "type": "function"
    },
    {
      "inputs": [
        {
          "internalType": "address",
          "name": "_agent",
          "type": "address"
        },
        {
          "internalType": "uint256",
          "name": "_votingPower",
          "type": "uint256"
        }
      ],
      "name": "addAgent",
      "outputs": [],
      "stateMutability": "nonpayable",
      "type": "function"
    },
    {
      "inputs": [
        {
          "internalType": "address",
          "name": "_proposer",
          "type": "address"
        },
        {
          "internalType": "uint256",
          "name": "_votingPower",
          "type": "uint256"
        }
      ],
      "name": "addProposer",
      "outputs": [],
      "stateMutability": "nonpayable",
      "type": "function"
    },
    {
      "inputs": [
        {
          "internalType": "enum SynapseProposals.ProposalType",
          "name": "_type",
          "type": "uint8"
        },
        {
          "internalType": "uint256",
          "name": "_amount",
          "type": "uint256"
        },
        {
          "internalType": "string",
          "name": "_metadataCID",
          "type": "string"
        },
        {
          "internalType": "address",
          "name": "_recipient",
          "type": "address"
        },
        {
          "internalType": "address",
          "name": "_token",
          "type": "address"
        }
      ],
      "name": "agentCreateProposal",
      "outputs": [
        {
          "internalType": "uint256",
          "name": "",
          "type": "uint256"
        }
      ],
      "stateMutability": "nonpayable",
      "type": "function"
    },
    {
      "inputs": [
        {
          "internalType": "uint256",
          "name": "_proposalId",
          "type": "uint256"
        },
        {
          "internalType": "enum SynapseProposals.VoteOption",
          "name": "_vote",
          "type": "uint8"
        }
      ],
      "name": "agentVote",
      "outputs": [],
      "stateMutability": "nonpayable",
      "type": "function"
    },
    {
      "inputs": [
        {
          "internalType": "address",
          "name": "",
          "type": "address"
        }
      ],
      "name": "authorizedAgents",
      "outputs": [
        {
          "internalType": "bool",
          "name": "",
          "type": "bool"
        }
      ],
      "stateMutability": "view",
      "type": "function"
    },
    {
      "inputs": [
        {
          "internalType": "address",
          "name": "",
          "type": "address"
        }
      ],
      "name": "authorizedProposers",
      "outputs": [
        {
          "internalType": "bool",
          "name": "",
          "type": "bool"
        }
      ],
      "stateMutability": "view",
      "type": "function"
    },
    {
      "inputs": [
        {
          "internalType": "enum SynapseProposals.ProposalType",
          "name": "_type",
          "type": "uint8"
        },
        {
          "internalType": "uint256",
          "name": "_amount",
          "type": "uint256"
        },
        {
          "internalType": "bool",
          "name": "_isAgentProposal",
          "type": "bool"
        },
        {
          "internalType": "string",
          "name": "_metadataCID",
          "type": "string"
        },
        {
          "internalType": "address",
          "name": "_recipient",
          "type": "address"
        },
        {
          "internalType": "address",
          "name": "_token",
          "type": "address"
        }
      ],
      "name": "createProposal",
      "outputs": [
        {
          "internalType": "uint256",
          "name": "",
          "type": "uint256"
        }
      ],
      "stateMutability": "nonpayable",
      "type": "function"
    },
    {
      "inputs": [
        {
          "internalType": "uint256",
          "name": "_proposalId",
          "type": "uint256"
        }
      ],
      "name": "executeProposal",
      "outputs": [],
      "stateMutability": "nonpayable",
      "type": "function"
    },
    {
      "inputs": [
        {
          "internalType": "uint256",
          "name": "",
          "type": "uint256"
        },
        {
          "internalType": "address",
          "name": "",
          "type": "address"
        }
      ],
      "name": "hasVoted",
      "outputs": [
        {
          "internalType": "bool",
          "name": "",
          "type": "bool"
        }
      ],
      "stateMutability": "view",
      "type": "function"
    },
    {
      "inputs": [],
      "name": "owner",
      "outputs": [
        {
          "internalType": "address",
          "name": "",
          "type": "address"
        }
      ],
      "stateMutability": "view",
      "type": "function"
    },
    {
      "inputs": [],
      "name": "proposalCount",
      "outputs": [
        {
          "internalType": "uint256",
          "name": "",
          "type": "uint256"
        }
      ],
      "stateMutability": "view",
      "type": "function"
    },
    {
      "inputs": [
        {
          "internalType": "uint256",
          "name": "",
          "type": "uint256"
        }
      ],
      "name": "proposals",
      "outputs": [
        {
          "internalType": "address",
          "name": "proposer",
          "type": "address"
        },
        {
          "internalType": "enum SynapseProposals.ProposalType",
          "name": "pType",
          "type": "uint8"
        },
        {
          "internalType": "uint256",
          "name": "amount",
          "type": "uint256"
        },
        {
          "internalType": "uint256",
          "name": "createdAt",
          "type": "uint256"
        },
        {
          "internalType": "uint256",
          "name": "deadline",
          "type": "uint256"
        },
        {
          "internalType": "uint256",
          "name": "yesVotes",
          "type": "uint256"
        },
        {
          "internalType": "uint256",
          "name": "noVotes",
          "type": "uint256"
        },
        {
          "internalType": "uint256",
          "name": "abstainVotes",
          "type": "uint256"
        },
        {
          "internalType": "bool",
          "name": "executed",
          "type": "bool"
        },
        {
          "internalType": "bool",
          "name": "isAgentProposal",
          "type": "bool"
        },
        {
          "internalType": "string",
          "name": "metadataCID",
          "type": "string"
        },
        {
          "internalType": "address",
          "name": "recipient",
          "type": "address"
        },
        {
          "internalType": "address",
          "name": "token",
          "type": "address"
        }
      ],
      "stateMutability": "view",
      "type": "function"
    },
    {
      "inputs": [
        {
          "internalType": "address",
          "name": "_address",
          "type": "address"
        }
      ],
      "name": "removeVotingPower",
      "outputs": [],
      "stateMutability": "nonpayable",
      "type": "function"
    },
    {
      "inputs": [],
      "name": "totalVotingPower",
      "outputs": [
        {
          "internalType": "uint256",
          "name": "",
          "type": "uint256"
        }
      ],
      "stateMutability": "view",
      "type": "function"
    },
    {
      "inputs": [],
      "name": "treasury",
      "outputs": [
        {
          "internalType": "contract ITreasury",
          "name": "",
          "type": "address"
        }
      ],
      "stateMutability": "view",
      "type": "function"
    },
    {
      "inputs": [
        {
          "internalType": "address",
          "name": "_newTreasury",
          "type": "address"
        }
      ],
      "name": "updateTreasury",
      "outputs": [],
      "stateMutability": "nonpayable",
      "type": "function"
    },
    {
      "inputs": [
        {
          "internalType": "address",
          "name": "_address",
          "type": "address"
        },
        {
          "internalType": "uint256",
          "name": "_newPower",
          "type": "uint256"
        }
      ],
      "name": "updateVotingPower",
      "outputs": [],
      "stateMutability": "nonpayable",
      "type": "function"
    },
    {
      "inputs": [
        {
          "internalType": "uint256",
          "name": "_proposalId",
          "type": "uint256"
        },
        {
          "internalType": "enum SynapseProposals.VoteOption",
          "name": "_vote",
          "type": "uint8"
        },
        {
          "internalType": "bool",
          "name": "_isAgentVote",
          "type": "bool"
        }
      ],
      "name": "vote",
      "outputs": [],
      "stateMutability": "nonpayable",
      "type": "function"
    },
    {
      "inputs": [
        {
          "internalType": "address",
          "name": "",
          "type": "address"
        }
      ],
      "name": "votingPower",
      "outputs": [
        {
          "internalType": "uint256",
          "name": "",
          "type": "uint256"
        }
      ],
      "stateMutability": "view",
      "type": "function"
    }
  ],
  "bytecode": "0x60803461007f57601f611cf138819003918201601f19168301916001600160401b038311848410176100845780849260209460405283398101031261007f57516001600160a01b0381169081900361007f57600160005560018060a01b0319338160025416176002556001541617600155604051611c56908161009b8239f35b600080fd5b634e487b7160e01b600052604160045260246000fdfe60a080604052600436101561001357600080fd5b600090813560e01c908163013cf08b146118b7575080630d61b519146114e45780631d58011f14610f725780631eba3b1e14610f56578063208fb59014610f3a57806322ffdc6114610a455780633588b4b21461081b5780633e65164a146107fd57806343859632146107a65780634654ff0514610788578063596939f5146106d957806361d027b3146106b0578063671b3793146106925780637f51bb1f146106475780638da5cb5b1461061e5780639442f472146105be578063b0a45b0c14610506578063c07473f6146104cd578063ce6366c414610294578063da35c66414610276578063eadc29c71461019e578063efd760651461015f5763f6cf0ac61461011e57600080fd5b3461015c57602036600319011261015c5760209060ff906040906001600160a01b03610148611b72565b168152600384522054166040519015158152f35b80fd5b503461015c57602036600319011261015c5760209060ff906040906001600160a01b0361018a611b72565b168152600484522054166040519015158152f35b503461015c57604036600319011261015c576101b8611b72565b600254602435916001600160a01b03916101d59083163314611b88565b16808352600360205260ff6040842054168015610263575b156102255780835260076020526102138261020e6040862054600854611c13565b611bc3565b60085582526007602052604082205580f35b60405162461bcd60e51b81526020600482015260166024820152751059191c995cdcc81b9bdd08185d5d1a1bdc9a5e995960521b6044820152606490fd5b50600460205260ff6040842054166101ed565b503461015c578060031936011261015c576020600954604051908152f35b503461015c57606036600319011261015c576024600435813560038110156104c9576102be611af6565b90826000526020906005825260406000209460038601544211610490578460005260068352604060002033600052835260ff6040600020541661045d57336000526007835260406000205415610428579083913360005260078452604060002054946103da575b600086815260068552604080822033835286528120805460ff1916600117905596826103af57600401610359868254611bc3565b90555b6040519661039b5750855215159084015260408301527f7dda6376598bc78bef200277d99b4ac90c445c930dbb0b86fe9cc59c1efe954e60603393a380f35b634e487b7160e01b60009081526021600452fd5b600183036103cc576005016103c5868254611bc3565b905561035c565b6006016103c5868254611bc3565b6004845260ff60406000205416610325578360176064926040519262461bcd60e51b8452600484015282015276556e617574686f72697a6564206167656e7420766f746560481b6044820152fd5b82600f6064926040519262461bcd60e51b845260048401528201526e2737903b37ba34b733903837bbb2b960891b6044820152fd5b82600d6064926040519262461bcd60e51b845260048401528201526c105b1c9958591e481d9bdd1959609a1b6044820152fd5b8260136064926040519262461bcd60e51b8452600484015282015272159bdd1a5b99c81c195c9a5bd908195b991959606a1b6044820152fd5b8380fd5b503461015c57602036600319011261015c576020906040906001600160a01b036104f5611b72565b168152600783522054604051908152f35b503461015c57604036600319011261015c57610520611b72565b600254602435916001600160a01b039161053d9083163314611b88565b1690818352600360205260ff60408420541661058657610580918352600360205260408320600160ff198254161790556007602052806040842055600854611bc3565b60085580f35b60405162461bcd60e51b815260206004820152601060248201526f20b63932b0b23c90383937b837b9b2b960811b6044820152606490fd5b503461015c57602036600319011261015c576105d8611b72565b6002546001600160a01b0391906105f29083163314611b88565b16808252600760205261060b6040832054600854611c13565b6008558152600760205280604081205580f35b503461015c578060031936011261015c576002546040516001600160a01b039091168152602090f35b503461015c57602036600319011261015c57610661611b72565b6002546001600160a01b03919061067b9083163314611b88565b166001600160601b0360a01b600154161760015580f35b503461015c578060031936011261015c576020600854604051908152f35b503461015c578060031936011261015c576001546040516001600160a01b039091168152602090f35b503461015c57604036600319011261015c576106f3611b72565b600254602435916001600160a01b03916107109083163314611b88565b1690818352600460205260ff60408420541661075357610580918352600460205260408320600160ff198254161790556007602052806040842055600854611bc3565b60405162461bcd60e51b815260206004820152600d60248201526c105b1c9958591e481859d95b9d609a1b6044820152606490fd5b503461015c578060031936011261015c57602060405162093a808152f35b503461015c57604036600319011261015c576024356001600160a01b03811691908290036107f857604090600435815260066020522090600052602052602060ff604060002054166040519015158152f35b600080fd5b503461015c578060031936011261015c5760206040516203f4808152f35b503461015c57604036600319011261015c5760043560249081359160038310156104c95733845260206004815261085860ff604087205416611bd0565b826000526005815260406000209360038501544211610a0c578360005260068252604060002033600052825260ff604060002054166109d9573360005260078252604060002054156109a4573360005260078252604060002054926004835260ff604060002054161561096757600085815260068452604080822033835285528120805460ff19166001179055958261093c576004016108f9858254611bc3565b90555b6040519561039b575090600191855284015260408301527f7dda6376598bc78bef200277d99b4ac90c445c930dbb0b86fe9cc59c1efe954e60603393a380f35b6001830361095957600501610952858254611bc3565b90556108fc565b600601610952858254611bc3565b8260176064926040519262461bcd60e51b8452600484015282015276556e617574686f72697a6564206167656e7420766f746560481b6044820152fd5b50600f6064926040519262461bcd60e51b845260048401528201526e2737903b37ba34b733903837bbb2b960891b6044820152fd5b50600d6064926040519262461bcd60e51b845260048401528201526c105b1c9958591e481d9bdd1959609a1b6044820152fd5b5060136064926040519262461bcd60e51b8452600484015282015272159bdd1a5b99c81c195c9a5bd908195b991959606a1b6044820152fd5b503461015c5760a036600319011261015c576004356006811015610f365767ffffffffffffffff91602480356044358581116104c957610a89903690600401611b05565b90606493843560018060a01b038082168092036107f857600498610ac360ff6040610ab2611b5c565b9633815260209d8e52205416611bd0565b3360005260038a5260ff604060002054168015610f23575b610ae490611b88565b855115610eec573360005260048a5260ff6040600020541615610eb25760009060038a148015610ea8575b610e4c575b60019860048c858c541660405192838092629032ff60e51b82525afa908115610e4057600091610e13575b50600a810290808204600a1490151715610dfe578190048711610dbd575060095460005260058b52604060002091825490610da8576001600160a81b0319163360ff60a01b19161760a08b901b60ff60a01b16178255888201869055426002830181905562093a808101908110610d9357600383015560078201805461ff001916610100179055865160088301918111610d7e578b610bde8354611a39565b601f8111610d33575b50508b8c601f8311600114610cc857509080600a949392600091610cbd575b50600019600383901b1c1916908b1b1790555b600981016001600160601b0360a01b9485825416179055019216908254161790557fb9a96d75a15a49d5ba01f917782f27ab8b41292775deaa733cc34f432f42d283600954958692610c6e6040518093611aa9565b888201528560408201526080606082015280610c8f33956080830190611ab6565b0390a36000198314610ca957508101600955604051908152f35b634e487b7160e01b60009081526011600452fd5b905089015138610c06565b918b91949392601f1982168460005281600020916000905b8d838310610d1b575050509582600a9710610d02575b5050811b019055610c19565b8b015160001960f88460031b161c191690553880610cf6565b8901518455978801978f959093019290810190610ce0565b836000528160002090601f840160051c8201928410610d74575b601f0160051c01908b905b828110610d6857508d9150610be7565b60008155018b90610d58565b9091508190610d4d565b88634e487b7160e01b60005260416004526000fd5b88634e487b7160e01b60005260116004526000fd5b88634e487b7160e01b60005260216004526000fd5b60405162461bcd60e51b8152600481018d9052601d818b01527f416d6f756e742065786365656473206d61782070657263656e746167650000006044820152fd5b89634e487b7160e01b60005260116004526000fd5b908d82813d8311610e39575b610e298183611a87565b8101031261015c57505138610b3f565b503d610e1f565b6040513d6000823e3d90fd5b828516610b145760405162461bcd60e51b8152600481018c90526029818a01527f546f6b656e206d7573742062652070726f766964656420666f7220444546492060448201526870726f706f73616c7360b81b818b0152608490fd5b5060048a14610b0f565b60405162461bcd60e51b8152600481018b9052601481890152731059d95b9d081b9bdd08185d5d1a1bdc9a5e995960621b60448201528890fd5b60405162461bcd60e51b8152600481018b90526011818901527013595d1859185d18481c995c5d5a5c9959607a1b60448201528890fd5b5060048a5260406000205460ff16610adb565b5080fd5b503461015c578060031936011261015c57602060405160148152f35b503461015c578060031936011261015c576020604051600a8152f35b503461015c5760c036600319011261015c576006600435101561015c57610f97611af6565b90606491823567ffffffffffffffff9283821161015c5750610fbd903690600401611b05565b91610fc6611b5c565b60a435916001600160a01b03831683036107f85733600052600360205260ff6040600020541680156114d0575b610ffc90611b88565b84511561149857831561143e5733600052600460205260ff6040600020541615611403575b60009560036004351480156113f8575b611394575b600154604051629032ff60e51b815290602090829060049082906001600160a01b03165afa908115610e4057600091611362575b50600a810290808204600a14901517156111fb57819004602435116113205750600954600052600560205260406000209586549061130a576001600160a81b0319163360ff60a01b19161760043560a01b60ff60a01b161786556024356001870155426002870181905562093a8081019081106111fb57600387015560078601805461ff00191685151560081b61ff001617905584519081116112f4576111146008870154611a39565b601f81116112ad575b506020601f821160011461121c579581600a927fb9a96d75a15a49d5ba01f917782f27ab8b41292775deaa733cc34f432f42d28398600091611211575b508160011b916000199060031b1c19161760088201555b600981016001600160601b0360a01b9360018060a01b031684825416179055019160018060a01b031690825416179055600954928391604051906111b782600435611aa9565b60243560208301521515604082015260806060820152806111dd33956080830190611ab6565b0390a360001981146111fb5780600160209201600955604051908152f35b634e487b7160e01b600052601160045260246000fd5b90508701513861115a565b6008870160005260206000209060005b601f19841681106112955750827fb9a96d75a15a49d5ba01f917782f27ab8b41292775deaa733cc34f432f42d2839892600192600a95601f1981161061127c575b5050811b016008820155611171565b89015160001960f88460031b161c19169055388061126d565b9091602060018192858b01518155019301910161122c565b600887016000526020600020601f830160051c8101602084106112ed575b601f830160051c820181106112e157505061111d565b600081556001016112cb565b50806112cb565b634e487b7160e01b600052604160045260246000fd5b634e487b7160e01b600052602160045260246000fd5b60405162461bcd60e51b815260206004820152601d60248201527f416d6f756e742065786365656473206d61782070657263656e746167650000006044820152fd5b906020823d60201161138c575b8161137c60209383611a87565b8101031261015c5750513861106a565b3d915061136f565b6001600160a01b038416611036576084906870726f706f73616c7360b81b6040519162461bcd60e51b835260206004840152602960248401527f546f6b656e206d7573742062652070726f766964656420666f722044454649206044840152820152fd5b506004803514611031565b60405162461bcd60e51b81526020600482015260146024820152731059d95b9d081b9bdd08185d5d1a1bdc9a5e995960621b60448201528690fd5b33600052600360205260ff604060002054166110215760405162461bcd60e51b815260206004820152601760248201527f50726f706f736572206e6f7420617574686f72697a656400000000000000000060448201528690fd5b60405162461bcd60e51b815260206004820152601160248201527013595d1859185d18481c995c5d5a5c9959607a1b60448201528690fd5b50600460205260406000205460ff16610ff3565b503461015c57602080600319360112610f365760043560028354146118a5576002835580835260058252604083206003810154926203f480840180851161189157421161184d57600782019081549460ff8616611815574211156117e057600483015460058401549061156561155a8383611bc3565b600687015490611bc3565b6008546014810290808204601414901517156117cc57606490041161179657111561175e57506001809460ff191617905560ff815460a01c16600681101561174a57600303611673578254600a8201548285015486926001600160a01b03908116921690823b156104c9576044849283604051958694859363eeb149e760e01b8552600485015260248401525af1801561166857611654575b50507f3fb8665e50a1e284631acc76d721090605355356a5e26e9c2301c02a02add27a905b808401546009909101546040805133815260208101939093526001600160a01b0390911690820152606090a2815580f35b61165d90611a73565b6104c95783386115fe565b6040513d84823e3d90fd5b8254600982015482850154600a8401546001600160a01b0392831693889391821692911690813b156104c9576040516302636fd760e21b81526001600160a01b0395861660048201526024810191909152919093166044820152918290606490829084905af1801561173f5761170c575b507f3fb8665e50a1e284631acc76d721090605355356a5e26e9c2301c02a02add27a90611623565b936117387f3fb8665e50a1e284631acc76d721090605355356a5e26e9c2301c02a02add27a9295611a73565b93906116e4565b6040513d87823e3d90fd5b634e487b7160e01b85526021600452602485fd5b6064906040519062461bcd60e51b825260048201526011602482015270141c9bdc1bdcd85b081c995a9958dd1959607a1b6044820152fd5b60405162461bcd60e51b815260048101849052600e60248201526d145d5bdc9d5b481b9bdd081b595d60921b6044820152606490fd5b634e487b7160e01b8a52601160045260248afd5b6064906040519062461bcd60e51b82526004820152600e60248201526d566f74696e67206f6e676f696e6760901b6044820152fd5b60405162461bcd60e51b815260048101839052601060248201526f105b1c9958591e48195e1958dd5d195960821b6044820152606490fd5b6064906040519062461bcd60e51b82526004820152601860248201527f457865637574696f6e2077696e646f77206578706972656400000000000000006044820152fd5b634e487b7160e01b86526011600452602486fd5b604051633ee5aeb560e01b8152600490fd5b823461015c5760809060208252602060031936011261015c576004358152600560205260408120908154936001808401549260028501549560038601546004870154906005880154928660068a01549560078b01549760088c01908282549261191f84611a39565b80875293838116908115611a1557506001146119d9575b50505050036119459088611a87565b600160a01b60019003998a8060098c0154169a600a015416986040519c8d9c81168d5283518d019060a01c60ff169061197d91611aa9565b60408c015260608b015289015260a088015260c087015260e086015260ff8116151561010086015260081c60ff1615156101208501526101a08061014086015284016119c891611ab6565b916101608401526101808301520390f35b9080945052845183205b8284106119fc575050508251908201018d808080611936565b805486518d8601015285518c95509093019281016119e3565b9495505050505060ff19168351830152825190151560051b8201018d808080611936565b90600182811c92168015611a69575b6020831014611a5357565b634e487b7160e01b600052602260045260246000fd5b91607f1691611a48565b67ffffffffffffffff81116112f457604052565b90601f8019910116810190811067ffffffffffffffff8211176112f457604052565b90600682101561130a5752565b919082519283825260005b848110611ae2575050826000602080949584010152601f8019910116010190565b602081830181015184830182015201611ac1565b6044359081151582036107f857565b81601f820112156107f85780359067ffffffffffffffff82116112f45760405192611b3a601f8401601f191660200185611a87565b828452602083830101116107f857816000926020809301838601378301015290565b608435906001600160a01b03821682036107f857565b600435906001600160a01b03821682036107f857565b15611b8f57565b60405162461bcd60e51b815260206004820152600c60248201526b155b985d5d1a1bdc9a5e995960a21b6044820152606490fd5b919082018092116111fb57565b15611bd757565b60405162461bcd60e51b8152602060048201526014602482015273139bdd08185d5d1a1bdc9a5e9959081859d95b9d60621b6044820152606490fd5b919082039182116111fb5756fea2646970667358221220d2262c425bfc77d1afe609ca438a65f1c470c259f6ab0c1c0805558c85bace5a64736f6c63430008140033",
  "linkReferences": {},
  "deployedLinkReferences": {}
}