{
  "_format": "hh-sol-artifact-1",
  "contractName": "Treasury",
  "sourceName": "contracts/Treasury.sol",
  "abi": [
    {
      "inputs": [],
      "stateMutability": "nonpayable",
      "type": "constructor"
    },
    {
      "inputs": [],
      "name": "ReentrancyGuardReentrantCall",
      "type": "error"
    },
    {
      "anonymous": false,
      "inputs": [
        {
          "indexed": true,
          "internalType": "address",
          "name": "asset",
          "type": "address"
        },
        {
          "indexed": false,
          "internalType": "uint256",
          "name": "target",
          "type": "uint256"
        },
        {
          "indexed": false,
          "internalType": "uint256",
          "name": "upper",
          "type": "uint256"
        },
        {
          "indexed": false,
          "internalType": "uint256",
          "name": "lower",
          "type": "uint256"
        }
      ],
      "name": "AllocationConfigured",
      "type": "event"
    },
    {
      "anonymous": false,
      "inputs": [
        {
          "indexed": true,
          "internalType": "address",
          "name": "token",
          "type": "address"
        },
        {
          "indexed": false,
          "internalType": "uint256",
          "name": "amount",
          "type": "uint256"
        }
      ],
      "name": "DefiDeposit",
      "type": "event"
    },
    {
      "anonymous": false,
      "inputs": [
        {
          "indexed": true,
          "internalType": "address",
          "name": "token",
          "type": "address"
        },
        {
          "indexed": false,
          "internalType": "uint256",
          "name": "amount",
          "type": "uint256"
        }
      ],
      "name": "DefiWithdrawal",
      "type": "event"
    },
    {
      "anonymous": false,
      "inputs": [
        {
          "indexed": true,
          "internalType": "address",
          "name": "token",
          "type": "address"
        },
        {
          "indexed": false,
          "internalType": "uint256",
          "name": "amount",
          "type": "uint256"
        }
      ],
      "name": "FundsDeposited",
      "type": "event"
    },
    {
      "anonymous": false,
      "inputs": [
        {
          "indexed": true,
          "internalType": "address",
          "name": "token",
          "type": "address"
        },
        {
          "indexed": false,
          "internalType": "uint256",
          "name": "amount",
          "type": "uint256"
        }
      ],
      "name": "FundsWithdrawn",
      "type": "event"
    },
    {
      "anonymous": false,
      "inputs": [
        {
          "indexed": true,
          "internalType": "address",
          "name": "triggerer",
          "type": "address"
        },
        {
          "indexed": false,
          "internalType": "uint256",
          "name": "totalValueBefore",
          "type": "uint256"
        },
        {
          "indexed": false,
          "internalType": "uint256",
          "name": "totalValueAfter",
          "type": "uint256"
        },
        {
          "indexed": false,
          "internalType": "uint256",
          "name": "wethBefore",
          "type": "uint256"
        },
        {
          "indexed": false,
          "internalType": "uint256",
          "name": "wethAfter",
          "type": "uint256"
        }
      ],
      "name": "RebalanceCycle",
      "type": "event"
    },
    {
      "anonymous": false,
      "inputs": [
        {
          "indexed": false,
          "internalType": "uint256",
          "name": "timestamp",
          "type": "uint256"
        },
        {
          "indexed": false,
          "internalType": "address[]",
          "name": "assets",
          "type": "address[]"
        },
        {
          "indexed": false,
          "internalType": "uint256[]",
          "name": "allocations",
          "type": "uint256[]"
        }
      ],
      "name": "RebalanceSuggested",
      "type": "event"
    },
    {
      "anonymous": false,
      "inputs": [
        {
          "indexed": true,
          "internalType": "address",
          "name": "assetSold",
          "type": "address"
        },
        {
          "indexed": true,
          "internalType": "address",
          "name": "assetBought",
          "type": "address"
        },
        {
          "indexed": false,
          "internalType": "uint256",
          "name": "amountSold",
          "type": "uint256"
        },
        {
          "indexed": false,
          "internalType": "uint256",
          "name": "amountBought",
          "type": "uint256"
        }
      ],
      "name": "SwapExecuted",
      "type": "event"
    },
    {
      "anonymous": false,
      "inputs": [
        {
          "indexed": false,
          "internalType": "address",
          "name": "token",
          "type": "address"
        },
        {
          "indexed": false,
          "internalType": "uint256",
          "name": "amount",
          "type": "uint256"
        }
      ],
      "name": "YieldEarned",
      "type": "event"
    },
    {
      "inputs": [],
      "name": "AAVE_POOL",
      "outputs": [
        {
          "internalType": "contract IAavePool",
          "name": "",
          "type": "address"
        }
      ],
      "stateMutability": "view",
      "type": "function"
    },
    {
      "inputs": [],
      "name": "DAI",
      "outputs": [
        {
          "internalType": "address",
          "name": "",
          "type": "address"
        }
      ],
      "stateMutability": "view",
      "type": "function"
    },
    {
      "inputs": [],
      "name": "MAX_AAVE_EXPOSURE",
      "outputs": [
        {
          "internalType": "uint256",
          "name": "",
          "type": "uint256"
        }
      ],
      "stateMutability": "view",
      "type": "function"
    },
    {
      "inputs": [],
      "name": "MAX_SLIPPAGE",
      "outputs": [
        {
          "internalType": "uint256",
          "name": "",
          "type": "uint256"
        }
      ],
      "stateMutability": "view",
      "type": "function"
    },
    {
      "inputs": [],
      "name": "USDC",
      "outputs": [
        {
          "internalType": "address",
          "name": "",
          "type": "address"
        }
      ],
      "stateMutability": "view",
      "type": "function"
    },
    {
      "inputs": [],
      "name": "WETH",
      "outputs": [
        {
          "internalType": "contract IWETH",
          "name": "",
          "type": "address"
        }
      ],
      "stateMutability": "view",
      "type": "function"
    },
    {
      "inputs": [
        {
          "internalType": "address",
          "name": "",
          "type": "address"
        }
      ],
      "name": "aTokenMapping",
      "outputs": [
        {
          "internalType": "address",
          "name": "",
          "type": "address"
        }
      ],
      "stateMutability": "view",
      "type": "function"
    },
    {
      "inputs": [
        {
          "internalType": "uint256",
          "name": "",
          "type": "uint256"
        }
      ],
      "name": "aaveAssets",
      "outputs": [
        {
          "internalType": "address",
          "name": "",
          "type": "address"
        }
      ],
      "stateMutability": "view",
      "type": "function"
    },
    {
      "inputs": [
        {
          "internalType": "address",
          "name": "",
          "type": "address"
        }
      ],
      "name": "aavePrincipal",
      "outputs": [
        {
          "internalType": "uint256",
          "name": "",
          "type": "uint256"
        }
      ],
      "stateMutability": "view",
      "type": "function"
    },
    {
      "inputs": [],
      "name": "agentKitOperator",
      "outputs": [
        {
          "internalType": "address",
          "name": "",
          "type": "address"
        }
      ],
      "stateMutability": "view",
      "type": "function"
    },
    {
      "inputs": [
        {
          "internalType": "address",
          "name": "",
          "type": "address"
        }
      ],
      "name": "assetConfigs",
      "outputs": [
        {
          "internalType": "uint256",
          "name": "target",
          "type": "uint256"
        },
        {
          "internalType": "uint256",
          "name": "upperThreshold",
          "type": "uint256"
        },
        {
          "internalType": "uint256",
          "name": "lowerThreshold",
          "type": "uint256"
        }
      ],
      "stateMutability": "view",
      "type": "function"
    },
    {
      "inputs": [],
      "name": "checkAndRebalance",
      "outputs": [],
      "stateMutability": "nonpayable",
      "type": "function"
    },
    {
      "inputs": [
        {
          "internalType": "address",
          "name": "_asset",
          "type": "address"
        },
        {
          "internalType": "uint256",
          "name": "_target",
          "type": "uint256"
        },
        {
          "internalType": "uint256",
          "name": "_upperThreshold",
          "type": "uint256"
        },
        {
          "internalType": "uint256",
          "name": "_lowerThreshold",
          "type": "uint256"
        },
        {
          "internalType": "address[]",
          "name": "_swapPath",
          "type": "address[]"
        }
      ],
      "name": "configureAsset",
      "outputs": [],
      "stateMutability": "nonpayable",
      "type": "function"
    },
    {
      "inputs": [
        {
          "internalType": "address",
          "name": "_token",
          "type": "address"
        },
        {
          "internalType": "uint256",
          "name": "_amount",
          "type": "uint256"
        }
      ],
      "name": "depositToAave",
      "outputs": [],
      "stateMutability": "nonpayable",
      "type": "function"
    },
    {
      "inputs": [
        {
          "internalType": "address",
          "name": "_token",
          "type": "address"
        },
        {
          "internalType": "uint256",
          "name": "_amount",
          "type": "uint256"
        }
      ],
      "name": "emergencyWithdraw",
      "outputs": [],
      "stateMutability": "nonpayable",
      "type": "function"
    },
    {
      "inputs": [
        {
          "internalType": "address payable",
          "name": "_to",
          "type": "address"
        },
        {
          "internalType": "uint256",
          "name": "_amount",
          "type": "uint256"
        },
        {
          "internalType": "address",
          "name": "_token",
          "type": "address"
        }
      ],
      "name": "executeTransfer",
      "outputs": [],
      "stateMutability": "nonpayable",
      "type": "function"
    },
    {
      "inputs": [
        {
          "internalType": "address",
          "name": "_token",
          "type": "address"
        }
      ],
      "name": "getAavePositionValue",
      "outputs": [
        {
          "internalType": "uint256",
          "name": "",
          "type": "uint256"
        }
      ],
      "stateMutability": "view",
      "type": "function"
    },
    {
      "inputs": [],
      "name": "getAaveTotalValue",
      "outputs": [
        {
          "internalType": "uint256",
          "name": "total",
          "type": "uint256"
        }
      ],
      "stateMutability": "view",
      "type": "function"
    },
    {
      "inputs": [],
      "name": "getAllocations",
      "outputs": [
        {
          "internalType": "uint256",
          "name": "wethAllocation",
          "type": "uint256"
        },
        {
          "internalType": "uint256",
          "name": "usdcAllocation",
          "type": "uint256"
        },
        {
          "internalType": "uint256",
          "name": "daiAllocation",
          "type": "uint256"
        },
        {
          "internalType": "uint256",
          "name": "totalValue",
          "type": "uint256"
        }
      ],
      "stateMutability": "view",
      "type": "function"
    },
    {
      "inputs": [
        {
          "internalType": "address",
          "name": "token",
          "type": "address"
        }
      ],
      "name": "getAssetValue",
      "outputs": [
        {
          "internalType": "uint256",
          "name": "",
          "type": "uint256"
        }
      ],
      "stateMutability": "view",
      "type": "function"
    },
    {
      "inputs": [],
      "name": "getBalance",
      "outputs": [
        {
          "internalType": "uint256",
          "name": "",
          "type": "uint256"
        }
      ],
      "stateMutability": "view",
      "type": "function"
    },
    {
      "inputs": [],
      "name": "getTotalValue",
      "outputs": [
        {
          "internalType": "uint256",
          "name": "",
          "type": "uint256"
        }
      ],
      "stateMutability": "view",
      "type": "function"
    },
    {
      "inputs": [],
      "name": "getWethAllocation",
      "outputs": [
        {
          "internalType": "uint256",
          "name": "",
          "type": "uint256"
        }
      ],
      "stateMutability": "view",
      "type": "function"
    },
    {
      "inputs": [
        {
          "internalType": "address",
          "name": "",
          "type": "address"
        }
      ],
      "name": "isAaveAsset",
      "outputs": [
        {
          "internalType": "bool",
          "name": "",
          "type": "bool"
        }
      ],
      "stateMutability": "view",
      "type": "function"
    },
    {
      "inputs": [],
      "name": "owner",
      "outputs": [
        {
          "internalType": "address",
          "name": "",
          "type": "address"
        }
      ],
      "stateMutability": "view",
      "type": "function"
    },
    {
      "inputs": [
        {
          "internalType": "address",
          "name": "",
          "type": "address"
        }
      ],
      "name": "priceFeeds",
      "outputs": [
        {
          "internalType": "contract AggregatorV3Interface",
          "name": "",
          "type": "address"
        }
      ],
      "stateMutability": "view",
      "type": "function"
    },
    {
      "inputs": [],
      "name": "proposalsContract",
      "outputs": [
        {
          "internalType": "address",
          "name": "",
          "type": "address"
        }
      ],
      "stateMutability": "view",
      "type": "function"
    },
    {
      "inputs": [
        {
          "internalType": "address",
          "name": "_operator",
          "type": "address"
        }
      ],
      "name": "setAgentKitOperator",
      "outputs": [],
      "stateMutability": "nonpayable",
      "type": "function"
    },
    {
      "inputs": [
        {
          "internalType": "address",
          "name": "_proposals",
          "type": "address"
        }
      ],
      "name": "setProposalsContract",
      "outputs": [],
      "stateMutability": "nonpayable",
      "type": "function"
    },
    {
      "inputs": [],
      "name": "suggestRebalance",
      "outputs": [],
      "stateMutability": "nonpayable",
      "type": "function"
    },
    {
      "inputs": [
        {
          "internalType": "address",
          "name": "",
          "type": "address"
        }
      ],
      "name": "tokenBalances",
      "outputs": [
        {
          "internalType": "uint256",
          "name": "",
          "type": "uint256"
        }
      ],
      "stateMutability": "view",
      "type": "function"
    },
    {
      "inputs": [],
      "name": "uniswapRouter",
      "outputs": [
        {
          "internalType": "contract IUniswapV2Router02",
          "name": "",
          "type": "address"
        }
      ],
      "stateMutability": "view",
      "type": "function"
    },
    {
      "inputs": [
        {
          "internalType": "address",
          "name": "token",
          "type": "address"
        },
        {
          "internalType": "address",
          "name": "feed",
          "type": "address"
        }
      ],
      "name": "updatePriceFeed",
      "outputs": [],
      "stateMutability": "nonpayable",
      "type": "function"
    },
    {
      "inputs": [
        {
          "internalType": "address",
          "name": "_token",
          "type": "address"
        },
        {
          "internalType": "uint256",
          "name": "_amount",
          "type": "uint256"
        }
      ],
      "name": "withdrawFromAave",
      "outputs": [],
      "stateMutability": "nonpayable",
      "type": "function"
    },
    {
      "inputs": [
        {
          "internalType": "address",
          "name": "",
          "type": "address"
        }
      ],
      "name": "yieldGenerated",
      "outputs": [
        {
          "internalType": "uint256",
          "name": "",
          "type": "uint256"
        }
      ],
      "stateMutability": "view",
      "type": "function"
    },
    {
      "stateMutability": "payable",
      "type": "receive"
    }
  ],
  "bytecode": "0x608034620001ef5760016000818155600480546001600160a01b031990811673c532a74256d3db42d0bf7a0400fefdbad7694008178255600280548216331790556020939093527fdd30f26761a197a30f1122555d987c7244e5928edad3f9e0fff79501608e28908054841673694aa1769357215de4fac081bf1f309adc3253061790557f473f4e406f2e237914d6364ace7626ddbaa8a1b0939171d040c31cc1ea4f21768054841673a2f78ab2355fe2f984d808b5cee7fd0a93d5270e17905573e5118e47e061ab15ca972d045b35193f673bcc368083527f10d2883cd297bc708b0e9947825807175be535a6e959b869b4704eaa831cf9fe80549094167314866185b1962b63c3ea9e03bc1da838bab34c1917909355604093919073ebcc972b6b3eb15c0592be1871838963d0b9427873a1a245cc76414dc143687d9c3de1152396f352d6608085016001600160401b03811186821017620001dc57875260038552602085016060368237855115620001c95752835160011015620001b65785840152825160021015620001a3575050606001525161351b9081620001f58239f35b634e487b7160e01b825260329052602490fd5b634e487b7160e01b835260328252602483fd5b634e487b7160e01b855260328452602485fd5b634e487b7160e01b855260418452602485fd5b600080fdfe60806040818152600491823610156100c1575b50361561001e57600080fd5b73a1a245cc76414dc143687d9c3de1152396f352d691823b156100bc578151630d0e30db60e41b8152600091829082908134885af180156100b2579260209281927f543ba50a5eec5e6178218e364b1d0f396157b3c8fa278522c2cb7fd99407d474956100a3575b50858152600884522061009a3482546119f2565b905551348152a2005b6100ac90611a47565b38610086565b83513d84823e3d90fd5b600080fd5b600090813560e01c90816301f46670146119195750806308a01675146118ea578063098dbf5c1461178c57806312065fe0146116f15780631acb5390146116b957806326eff0f21461161957806329ab437b146115ce57806334dc9e32146115965780633ed55f0c146113d15780634158a94d1461119d5780634450c20314611174578063487ede0414610eb55780634f64d9d914610ce9578063523fba7f14610cb157806356ebec8814610c945780635b9f207914610c595780636073cb4114610c1857806365ed6e2314610b2f5780636e9fff5714610b06578063735de9f714610ade5780637609d7f614610a7e57806389a3027114610a4f5780638da5cb5b14610a2657806393e5e90f14610a0057806395a566bd146109e357806395ccea67146108955780639dcb511a1461085a578063ad5c46481461082b578063b7997da114610789578063caa648b41461076c578063dc133e891461071e578063dd41d050146106fa578063e0bab4c4146106cb578063eeb149e71461026a5763f9759518036100125790346102665781600319360112610266576020905160058152f35b5080fd5b509190346106c757806003193601126106c757610285611954565b602480359060018060a01b0380936102a282600354163314611ad4565b6102aa611b45565b16948451936370a0823160e01b85523082860152602094858185818b5afa80156106bd5785908a9061068c575b6102e392501015611b68565b6102eb6132d5565b611f409081810291818304149015171561067a57612710900461031585610310611c6d565b6119f2565b11610646579087929187845260088652868420610333868254611b38565b9055878452600b86528087852054161561046d575b5085519063095ea7b360e01b825273368eedf3f56ad10b9bc57eed4dac65b26bb667f691828282015285848201528681604481888d5af1801561046357610436575b50813b156104325760848891858094888b51978896879563e8eda9df60e01b87528601528401523060448401528160648401525af1801561042857610410575b5092847f61c74c7b35f6f1b220bb406a21982a8d0b6ec18192a649ff4aa205a3f858be6a9452600983528086206104028382546119f2565b905551908152a26001815580f35b61041990611a47565b6104245784386103ca565b8480fd5b85513d84823e3d90fd5b8380fd5b61045590873d891161045c575b61044d8183611a5b565b810190611b20565b503861038a565b503d610443565b88513d87823e3d90fd5b86516335ea6a7560e01b81528281018990526101008082868173368eedf3f56ad10b9bc57eed4dac65b26bb667f65afa91821561063c578692610546575b505060e08291015116888552600b8752878520906001600160601b0360a01b8254161790556007865260ff87852054166103485790919250600654600160401b81101561053457906105068260018b9695940160065561196a565b819291549060031b918a831b921b191617905586835260078552858320600160ff1982541617905538610348565b634e487b7160e01b8952604183528389fd5b818094959697508193503d8311610635575b6105628183611a5b565b8101031261063157875191820182811067ffffffffffffffff82111761061d57885280518252899493929190610599888201611bd4565b888301526105a8898201611bd4565b898301526105b860608201611bd4565b60608301526105c960808201611bd4565b60808301526105da60a08201611bd4565b60a083015260c08101519064ffffffffff821682036106195760e09160c084015201518281168103610615578160e0918285940152916104ab565b8580fd5b8680fd5b85604186634e487b7160e01b600052526000fd5b8980fd5b503d610558565b89513d88823e3d90fd5b5060106064928587519362461bcd60e51b85528401528201526f0457863656564732041617665206361760841b6044820152fd5b634e487b7160e01b8952601183528389fd5b50508581813d83116106b6575b6106a38183611a5b565b810103126100bc57846102e391516102d7565b503d610699565b87513d8b823e3d90fd5b8280fd5b5090346102665781600319360112610266576020905173e5118e47e061ab15ca972d045b35193f673bcc368152f35b509034610266578160031936011261026657602090610717613387565b9051908152f35b503461076957602036600319011261076957610738611954565b6002546001600160a01b03919061075290831633146119b7565b166001600160601b0360a01b600354161760035580f35b80fd5b5090346102665781600319360112610266576020906107176132d5565b509190346106c757806003193601126106c7576107a4611954565b6024356001600160a01b03818116949092918590036100bc576107cc836002541633146119b7565b84156107f157501683526001602052822080546001600160a01b031916909117905580f35b606490602085519162461bcd60e51b83528201526014602482015273496e76616c69642066656564206164647265737360601b6044820152fd5b5090346102665781600319360112610266576020905173a1a245cc76414dc143687d9c3de1152396f352d68152f35b509034610266576020366003190112610266576020916001600160a01b0390829082610884611954565b168152600185522054169051908152f35b508092346102665782600319360112610266576108b0611954565b6002546001600160a01b03908116926024359282906108d03387146119b7565b1673a1a245cc76414dc143687d9c3de1152396f352d694858214600014610974575050833b156104245782602486928389519788948593632e1a7d4d60e01b85528401525af192831561096a578493610952575b508291829160025416828215610949575bf11561093f575080f35b51903d90823e3d90fd5b506108fc610935565b61095e90939193611a47565b6106c757829138610924565b85513d86823e3d90fd5b875163a9059cbb60e01b81526001600160a01b03909116928101928352602083810195909552969593945086939092508391829060400103925af19081156109da57506109bf575080f35b6109d69060203d811161045c5761044d8183611a5b565b5080f35b513d84823e3d90fd5b50903461026657816003193601126102665760209051611f408152f35b50903461026657602036600319011261026657602090610717610a21611954565b6131d4565b50903461026657816003193601126102665760025490516001600160a01b039091168152602090f35b5090346102665781600319360112610266576020905173ebcc972b6b3eb15c0592be1871838963d0b942788152f35b509034610266576020366003190112610266579081906001600160a01b03610aa4611954565b168152600c6020522090610ada825491600260018501549401549051938493846040919493926060820195825260208201520152565b0390f35b5091346106c757826003193601126106c7575490516001600160a01b03909116815260209150f35b50903461026657816003193601126102665760055490516001600160a01b039091168152602090f35b509034610266578160031936011261026657610b496132d5565b610b51612e6a565b9160649283810290808204851490151715610c055782610b7091611bb4565b92610b79612fb0565b81810290808204831490151715610bf25783610b9491611bb4565b94610b9d613136565b828102928184041490151715610bdf575090610bbd83610ada9493611bb4565b9051948594859094939260609260808301968352602083015260408201520152565b634e487b7160e01b815260118752602490fd5b634e487b7160e01b865260118752602486fd5b634e487b7160e01b855260118652602485fd5b5091346106c75760203660031901126106c75735916006548310156107695750610c4360209261196a565b905491519160018060a01b039160031b1c168152f35b509034610266576020366003190112610266576020916001600160a01b0390829082610c83611954565b168152600b85522054169051908152f35b509034610266578160031936011261026657602090610717611c6d565b5090346102665760203660031901126102665760209181906001600160a01b03610cd9611954565b1681526008845220549051908152f35b5091346106c757826003193601126106c757610d1060018060a01b03600554163314611dd8565b815191610d1c83611a15565b600383526020808401926060368537610d33613387565b610d3c86611e14565b52610d45612fb0565b606481029080820460641490151715610ea257610d6a90610d646132d5565b90611bb4565b610d7386611e21565b52610d7c613136565b90606482029180830460641490151715610e8f5750610da090610d649392936132d5565b610da985611e31565b5281815194610db786611a15565b600386526060368388013773a1a245cc76414dc143687d9c3de1152396f352d6610de087611e14565b5273ebcc972b6b3eb15c0592be1871838963d0b94278610dff87611e21565b5273e5118e47e061ab15ca972d045b35193f673bcc36610e1e87611e31565b52610e388351964288526060848901526060880190612d55565b92868403908701525191828152019291855b828110610e7b57867f040415ba81f6d9a462e9c1ebaf5f5a401d1cec4f2558bf6b44a322bacf043f9587870388a180f35b835185529381019392810192600101610e4a565b634e487b7160e01b875260119052602486fd5b634e487b7160e01b875260118252602487fd5b5034610769578160031936011261076957610ece611954565b6003546001600160a01b03946024359491610eec9087163314611ad4565b610ef4611b45565b858316908185526020906009825286848720541061113357818697988460249852600b825285892054168551978880926370a0823160e01b825230868301525afa9586156110db578796611104575b5082875260098252838720548881610f5b818a611b38565b98116110e9575b505073368eedf3f56ad10b9bc57eed4dac65b26bb667f690813b156110e55783606489928388519586948593631a4ca37b60e21b85528401528d60248401523060448401525af180156110db5761107e575b50907f01c61f9ff609abec0166033e26ffdcb2501ae4e4ad8745b8f436ef6cf5c3b5b9611074939288611009887f8e91bbd74bb7a610e4d7e6988db773510a989fa93df46b4334535b9d6b286e2e9a9b6119f2565b848b526008835261101e868c209182546119f2565b9055838a5260098252848a20611035828254611b38565b9055838a52600a8252848a2061104c8982546119f2565b90558451908152a2516001600160a01b03909216825260208201929092529081906040820190565b0390a16001815580f35b6110749392917f8e91bbd74bb7a610e4d7e6988db773510a989fa93df46b4334535b9d6b286e2e976110d07f01c61f9ff609abec0166033e26ffdcb2501ae4e4ad8745b8f436ef6cf5c3b5b993611a47565b975091929350610fb4565b84513d89823e3d90fd5b8780fd5b6110f7906110fc9398611ac1565b611bb4565b943888610f62565b9095508181813d831161112c575b61111c8183611a5b565b8101031261061957519438610f43565b503d611112565b60649184519162461bcd60e51b8352820152601c60248201527f5769746864726177616c2065786365656473207072696e636970616c000000006044820152fd5b50903461026657816003193601126102665760035490516001600160a01b039091168152602090f35b5082346102665760a0366003190112610266576111b8611954565b92602480359160443593606435926084359167ffffffffffffffff918284116113cd57366023850112156113cd57838201359183831161063157818360051b860101903682116113c9576002546001600160a01b03939061121c90851633146119b7565b6127106112298c8c6119f2565b1161139257875161123981611a15565b8a8152602093848201908d82528a8301998c8b5261125689611a7d565b986112638d519a8b611a5b565b895284018689015b82821061137457505050898e9f879060608501998a52169e8f8152600c87522091518255519760019889830155516002820155600301945191825196871161136357600160401b871161136357505081908c86865491818855828210611333575b50505001928b52808b20918b5b8581106113205787518a8152602081018c9052604081018a90528d908d907f9ab15632c1e4bba227fef32bf0d208b02ce488d7e094f36d9a40fcf1f2d0e38390606090a280f35b84518216848201559382019386016112d9565b899150878152888582209384019301905b8382106113555790508891506112cc565b81558594508991018f611344565b634e487b7160e01b8e52604190528cfd5b8135898116810361138c57815290870190870161126b565b50508f80fd5b90601260649260208a519362461bcd60e51b855284015282015271496e76616c6964207468726573686f6c647360701b6044820152fd5b8a80fd5b8880fd5b5091346106c757826003193601126106c7576005546001600160a01b0391906113fd9083163314611dd8565b611405611b45565b61140d6132d5565b93611416612e6a565b9461141f6132d5565b95861561155a5761142f87611e55565b85519360a0850185811067ffffffffffffffff8211176115475787528452608036602086013773a1a245cc76414dc143687d9c3de1152396f352d661147385611e14565b5273ebcc972b6b3eb15c0592be1871838963d0b9427861149285611e21565b5273e5118e47e061ab15ca972d045b35193f673bcc366114b185611e31565b52825b84518110156114e157806114d789886114d06114dc958a611e41565b511661284f565b611bf1565b6114b4565b507feede213a34918d7c0b828ed3304be2754812c22e031ad24c7213a7224b65e24c908661153d6115106132d5565b91611519612e6a565b90519384933397859094939260609260808301968352602083015260408201520152565b0390a26001815580f35b634e487b7160e01b855260418252602485fd5b855162461bcd60e51b815260208186015260166024820152754e6f2061737365747320746f20726562616c616e636560501b6044820152606490fd5b5090346102665760203660031901126102665760209181906001600160a01b036115be611954565b1681526009845220549051908152f35b5034610769576020366003190112610769576115e8611954565b6002546001600160a01b03919061160290831633146119b7565b166001600160601b0360a01b600554161760055580f35b50903461026657602092836003193601126106c757836001600160a01b0380611640611954565b168552600b825283852054169160248451809481936370a0823160e01b835230908301525afa9283156116ae57809361167c575b505051908152f35b909192508382813d83116116a7575b6116958183611a5b565b81010312610769575051903880611674565b503d61168b565b8251903d90823e3d90fd5b5090346102665760203660031901126102665760209181906001600160a01b036116e1611954565b168152600a845220549051908152f35b509190346106c757826003193601126106c7578051916370a0823160e01b8352309083015260208260248173a1a245cc76414dc143687d9c3de1152396f352d65afa91821561178257839261174b575b6020838351908152f35b9091506020813d821161177a575b8161176660209383611a5b565b810103126106c75760209250519038611741565b3d9150611759565b81513d85823e3d90fd5b509190346106c75760603660031901126106c75781356001600160a01b0381811691829003610424576024359360443591808316809303610619576117d690600354163314611ad4565b6117de611b45565b818652602092600884528585882054106118a75784519063a9059cbb60e01b82528282015285602482015283816044818a875af190811561189d578791611880575b5015611845575061183c92916008918652528320918254611b38565b90556001815580f35b835162461bcd60e51b81529081018390526015602482015274151bdad95b881d1c985b9cd9995c8819985a5b1959605a1b6044820152606490fd5b6118979150843d861161045c5761044d8183611a5b565b38611820565b85513d89823e3d90fd5b845162461bcd60e51b8152808301859052601b60248201527f496e73756666696369656e74206c69717569642062616c616e636500000000006044820152606490fd5b5090346102665781600319360112610266576020905173368eedf3f56ad10b9bc57eed4dac65b26bb667f68152f35b905082346106c75760203660031901126106c75760209260ff91906001600160a01b03611944611954565b1681526007855220541615158152f35b600435906001600160a01b03821682036100bc57565b6006548110156119a15760066000527ff652222313e28459528d920b65115c16c04f3efc82aaedc97be59f3f377c0d3f0190600090565b634e487b7160e01b600052603260045260246000fd5b156119be57565b60405162461bcd60e51b815260206004820152600c60248201526b155b985d5d1a1bdc9a5e995960a21b6044820152606490fd5b919082018092116119ff57565b634e487b7160e01b600052601160045260246000fd5b6080810190811067ffffffffffffffff821117611a3157604052565b634e487b7160e01b600052604160045260246000fd5b67ffffffffffffffff8111611a3157604052565b90601f8019910116810190811067ffffffffffffffff821117611a3157604052565b67ffffffffffffffff8111611a315760051b60200190565b906069820291808304606914901517156119ff57565b90605f820291808304605f14901517156119ff57565b818102929181159184041417156119ff57565b15611adb57565b60405162461bcd60e51b815260206004820152601760248201527f4f6e6c792070726f706f73616c7320636f6e74726163740000000000000000006044820152606490fd5b908160209103126100bc575180151581036100bc5790565b919082039182116119ff57565b600260005414611b56576002600055565b604051633ee5aeb560e01b8152600490fd5b15611b6f57565b60405162461bcd60e51b815260206004820152601a60248201527f496e73756666696369656e7420746f6b656e2062616c616e63650000000000006044820152606490fd5b8115611bbe570490565b634e487b7160e01b600052601260045260246000fd5b51906fffffffffffffffffffffffffffffffff821682036100bc57565b60001981146119ff5760010190565b15611c0757565b60405162461bcd60e51b8152602060048201526014602482015273141c9a58d94819995959081b9bdd08199bdd5b9960621b6044820152606490fd5b908160209103126100bc575160ff811681036100bc5790565b60ff16604d81116119ff57600a0a90565b600080806006545b808310611c825750505090565b909192611c8e8461196a565b9060018060a01b03918291549060031b1c16808552602091600b8352604092818488205416908451926370a0823160e01b8452818460248160049630888301525afa938415611dce578994611d9d575b50611d008291868b5260018352878b205416611cfb811515611c00565b6133ca565b9486519384809263313ce56760e01b82525afa948515611d94575092611d4692611d4c9592611d5297958a94611d59575b5050610d6491611d4091611ac1565b91611c5c565b906119f2565b93611bf1565b9190611c75565b611d40929450610d64939181611d8392903d10611d8d575b611d7b8183611a5b565b810190611c43565b9391819350611d31565b503d611d71565b513d89823e3d90fd5b9093508181813d8311611dc7575b611db58183611a5b565b810103126113cd575192611d00611cde565b503d611dab565b86513d8b823e3d90fd5b15611ddf57565b60405162461bcd60e51b815260206004820152600d60248201526c13db9b1e481059d95b9d12da5d609a1b6044820152606490fd5b8051156119a15760200190565b8051600110156119a15760400190565b8051600210156119a15760600190565b80518210156119a15760209160051b010190565b73a1a245cc76414dc143687d9c3de1152396f352d6600090808252602090600c82526040808420815190611e8882611a15565b805482526001968782015486840190815260036002840154938686019485520193855180868a8298549384815201908c528a8c20928d8d905b8d8383106128305750505050611ed992500386611a5b565b6060810194855280511561241857611eef612e6a565b9361271094858102908082048714901517156127c457611f1285611f1d92611bb4565b9383519051906119f2565b8311156123fd5750611f3a9291611f35915190611b38565b611ac1565b0490805183519063313ce56760e01b91828152600491888284818b5afa9182156123f3578a926123d4575b50878a528a8952868a205487518581526001600160a01b03959093909186168b858781845afa9485156123ca578c8e96612397575b505090610d64611d40611faf611fb5946133ca565b8b611ac1565b82519092600019820191821161238457611fd18c928892611e41565b511691858a518094819382525afa9081156122455792610d64611d406120179461200c8f958f986064996120129892612367575b5050611c5c565b90611ac1565b611aab565b049251612022611b45565b868361202d83611e14565b5116036123245785516370a0823160e01b808252308483015260249590918a8188818d5afa90811561228357888b8e8e9381956122ef575b50612075836120ab961015611b68565b88548d5163095ea7b360e01b8152908b166001600160a01b0316818b019081526020810194909452948593849291839160400190565b03925af18015612283576122d2575b508251600019810190811161224f57908a866120d7899487611e41565b51168a5193848092878252308a8301525afa918215612283578c9261229f575b508585541690610384420180421161228d5786928e92838c6121318f958b9651988997889687956338ed173960e01b875230938701612d92565b03925af1801561228357612261575b508251600019810190811161224f578561215b8c9286611e41565b511692878a5180958193825230898301525afa8015612245578b90612214575b6121859250611b38565b93878a5260088952868a2061219b878254611b38565b905581516000198101939084116122035750507fdd36740e2a012d93061a0d99eaa9107860955de4e90027d3cf465a055026c40795949392916121dd91611e41565b511695868852600881528388206121f58382546119f2565b90558351928352820152a355565b634e487b7160e01b8b526011905289fd5b50908981813d831161223e575b61222b8183611a5b565b810103126113c95790612185915161217b565b503d612221565b88513d8d823e3d90fd5b634e487b7160e01b8c5260118552868cfd5b61227c903d808e833e6122748183611a5b565b810190612cdb565b5038612140565b89513d8e823e3d90fd5b634e487b7160e01b8e5260118752888efd5b9091508a81813d83116122cb575b6122b78183611a5b565b810103126122c7575190386120f7565b8b80fd5b503d6122ad565b6122e8908b3d8d1161045c5761044d8183611a5b565b50386120ba565b945050505081813d831161231d575b6123088183611a5b565b810103126122c757518a888b8e612075612065565b503d6122fe565b855162461bcd60e51b8152808301899052601a60248201527f50617468206d757374207374617274207769746820746f6b656e0000000000006044820152606490fd5b61237d9250803d10611d8d57611d7b8183611a5b565b8f80612005565b634e487b7160e01b8d526011865260248dfd5b611fb593929650611faf6123be610d649383611d4094903d10611d8d57611d7b8183611a5b565b9793945050508c611f9a565b8a513d8f823e3d90fd5b6123ec919250893d8b11611d8d57611d7b8183611a5b565b9038611f65565b87513d8c823e3d90fd5b815190519798959792939261241191611b38565b8310612424575b50505050505050505050565b61243292611f359151611b38565b049261243d84612dcb565b8587528783528387205490946001600160a01b039161245d9083166133ca565b670de0b6b3a764000080830290838204148315171561281c5761248560649261248a92611bb4565b611a95565b04925190612496611b45565b82806124a184611e14565b511697168097036127d857815160001994908581019081116127c457846124c98b9286611e41565b51160361278057878a526008865280878b20541061273c5760048054885163095ea7b360e01b81529086166001600160a01b03168183015260248101839052909695949392919086816044818f8e5af1801561228357908a9493929161271f575b5088519487866024816370a0823160e01b988982528d30908301525afa9586156123ca578d966126ec575b508854169161038442018042116126d957918d80949261258f8c999897958e519a8b9788968795634401edf760e11b875230938701612d92565b03925af19283156123f3578a936126bd575b508651908152308682015284816024818b5afa9081156123f3578a9161268e575b506125cc91611b38565b93868952600884528589206125e2868254611b38565b9055815183810190811161267b576125fa9083611e41565b51888a5260088552612610878b209182546119f2565b9055815192830192831161266857507fdd36740e2a012d93061a0d99eaa9107860955de4e90027d3cf465a055026c4079493929161264d91611e41565b51908351928352820152a35538808080808080808080612418565b634e487b7160e01b895260119052602488fd5b634e487b7160e01b8a526011825260248afd5b90508481813d83116126b6575b6126a58183611a5b565b8101031261063157516125cc6125c2565b503d61269b565b6126d29193503d808c833e6122748183611a5b565b91386125a1565b634e487b7160e01b8e5260118a5260248efd5b9095508781813d8311612718575b6127048183611a5b565b8101031261271457519438612555565b8c80fd5b503d6126fa565b61273590883d8a1161045c5761044d8183611a5b565b503861252a565b865162461bcd60e51b815260048101879052601b60248201527f496e73756666696369656e7420737461626c652062616c616e636500000000006044820152606490fd5b865162461bcd60e51b815260048101879052601960248201527f50617468206d75737420656e64207769746820746172676574000000000000006044820152606490fd5b634e487b7160e01b8b52601160045260248bfd5b855162461bcd60e51b815260048101869052601f60248201527f50617468206d757374207374617274207769746820737461626c65636f696e006044820152606490fd5b634e487b7160e01b8a52601160045260248afd5b86546001600160a01b03168552958101958b955090930192018e611ec1565b9060018060a01b03808316600092818452602092600c8452836040928387209084519861287b8a611a15565b82548a526001998a840154918582019283528a8c60036002880154978b8601988952018a5180998a93818454938481520193865281862095915b838310612cbb57505050506128cc92500387611a5b565b60608201958652815115612cad576128e3906131d4565b936127109485810290808204871490151715612c9957611f128561290692611bb4565b8311156129a5575061291e9291611f35915190611b38565b04918151845163313ce56760e01b91828252600492898385818c5afa928315612245578b93612986575b50888b528b8a5284888c205416928851938285528b858781845afa9485156123ca578c8e9661239757505090610d64611d40611faf611fb5946133ca565b61299e9193508a3d8c11611d8d57611d7b8183611a5b565b9138612948565b81519051989996989293926129b991611b38565b83106129cd575b5050505050505050505050565b6129db92611f359151611b38565b04936129e685612dcb565b948688528884526129fb82868a2054166133ca565b670de0b6b3a764000080830290838204148315171561281c57612485606492612a2392611bb4565b04925190612a2f611b45565b8280612a3a84611e14565b511697168097036127d857815160001994908581019081116127c45784612a628b9286611e41565b51160361278057878a526008865280878b20541061273c5760048054885163095ea7b360e01b81529086166001600160a01b03168183015260248101839052909695949392919086816044818f8e5af1801561228357908a94939291612c7c575b5088519487866024816370a0823160e01b988982528d30908301525afa9586156123ca578d96612c4d575b508854169161038442018042116126d957918d809492612b288c999897958e519a8b9788968795634401edf760e11b875230938701612d92565b03925af19283156123f3578a93612c31575b508651908152308682015284816024818b5afa9081156123f3578a91612c02575b50612b6591611b38565b9386895260088452858920612b7b868254611b38565b9055815183810190811161267b57612b939083611e41565b51888a5260088552612ba9878b209182546119f2565b9055815192830192831161266857507fdd36740e2a012d93061a0d99eaa9107860955de4e90027d3cf465a055026c40794939291612be691611e41565b51908351928352820152a35538808080808080808080806129c0565b90508481813d8311612c2a575b612c198183611a5b565b810103126106315751612b65612b5b565b503d612c0f565b612c469193503d808c833e6122748183611a5b565b9138612b3a565b9095508781813d8311612c75575b612c658183611a5b565b8101031261271457519438612aee565b503d612c5b565b612c9290883d8a1161045c5761044d8183611a5b565b5038612ac3565b634e487b7160e01b8c52601160045260248cfd5b505050505050505050505050565b909294508291938d87541681520194019101918f928a938f9593956128b5565b60209081818403126100bc5780519067ffffffffffffffff82116100bc57019180601f840112156100bc578251612d1181611a7d565b93612d1f6040519586611a5b565b818552838086019260051b8201019283116100bc578301905b828210612d46575050505090565b81518152908301908301612d38565b90815180825260208080930193019160005b828110612d75575050505090565b83516001600160a01b031685529381019392810192600101612d67565b9192608093612db792979695978452602084015260a0604084015260a0830190612d55565b6001600160a01b0390951660608201520152565b73ebcc972b6b3eb15c0592be1871838963d0b94278806000526008602052816040600020541015612e65575073e5118e47e061ab15ca972d045b35193f673bcc3690816000526040600020541015612e625760405162461bcd60e51b815260206004820152601d60248201527f496e73756666696369656e7420737461626c65206c69717569646974790000006044820152606490fd5b90565b905090565b73a1a245cc76414dc143687d9c3de1152396f352d660008181527ff20bb01390725c28690acd1018971a600597a48c38159ed84a30d1508ce2c1d054600b60209081527f8987d145e819df1ad8b63cf99bc82f2c85f3df17fea972e1eb0d591ea3796b5b54604093926001600160a01b0391821680612f1c575b5050916008612f189492612f0d8795670de0b6b3a76400009885526001835285852054166133ca565b948352522054611ac1565b0490565b90836024928751938480926370a0823160e01b82523060048301525afa918215612fa6578592612f75575b5092612f0d670de0b6b3a7640000979593612f68600894612f1899976119f2565b5093959750509294612ee4565b9091508381813d8311612f9f575b612f8d8183611a5b565b81010312610424575190612f0d612f47565b503d612f83565b86513d87823e3d90fd5b73ebcc972b6b3eb15c0592be1871838963d0b9427860008181527fc1ebfa9e119f39d0f2b4058535707cb7c4559009232b7bac5d6df8da9bbbbb9054600b60209081527f1789710189d8ad726c0ffa590185d3c318ad757466784ff3ff59378d73f38464549294939290916040916001600160a01b039084908216806130bc575b505061304f9150848752600184528287205416611cfb811515611c00565b91815163313ce56760e01b81528181600481885afa9081156130b2576110f794939261308a8993600893612e629a9b91613095575b50611c5c565b968352522054611ac1565b6130ac9150833d8511611d8d57611d7b8183611a5b565b38613084565b83513d89823e3d90fd5b84516370a0823160e01b81523060048201529190829060249082905afa90811561312c5788916130fd575b506130f59061304f936119f2565b508338613031565b90508481813d8311613125575b6131148183611a5b565b810103126110e5575161304f6130e7565b503d61310a565b84513d8a823e3d90fd5b73e5118e47e061ab15ca972d045b35193f673bcc3660008181527f34f46d3d44eabc4fe5c321d97614173c54824ad3eb0bbf65ffc23aee173994b454600b60209081527f9e374fd2b0e993ac2ac8aff60bb48807b33b46ce9e8fad0c2655bda98083425d549294939290916040916001600160a01b039084908216806130bc57505061304f9150848752600184528287205416611cfb811515611c00565b9060018060a01b038092166000928184526020906008825260409081862054600b8452818388205416908482613267575b50505073a1a245cc76414dc143687d9c3de1152396f352d6808514613240575061304f90848752600184528287205416611cfb811515611c00565b612f189493612f0d8893600893670de0b6b3a7640000999a526001835285852054166133ca565b84516370a0823160e01b815230600482015292839060249082905afa90811561312c5788916132a4575b61329b92506119f2565b50388084613205565b90508482813d83116132ce575b6132bb8183611a5b565b810103126110e55761329b915190613291565b503d6132b1565b6132dd612e6a565b6040516060810181811067ffffffffffffffff821117611a315760405260028152604036602083013773ebcc972b6b3eb15c0592be1871838963d0b9427861332482611e14565b5273e5118e47e061ab15ca972d045b35193f673bcc3661334382611e21565b526000915b81518310156133815761337b9061337590611d466001600160a01b0361336e8787611e41565b51166131d4565b92611bf1565b91613348565b91505090565b61338f612e6a565b6133976132d5565b6064820291808304606414901517156119ff57612e6291611bb4565b519069ffffffffffffffffffff821682036100bc57565b604051633fabe5a360e21b81529060a090829060049082906001600160a01b03165afa80156134d9576000918291613485575b5060008213156134505761012b194201904282116119ff571061341d5790565b60405162461bcd60e51b815260206004820152600b60248201526a5374616c6520707269636560a81b6044820152606490fd5b60405162461bcd60e51b815260206004820152600d60248201526c496e76616c696420707269636560981b6044820152606490fd5b91905060a0823d82116134d1575b816134a060a09383611a5b565b8101031261076957506134b2816133b3565b5060208101516134c96080606084015193016133b3565b5090386133fd565b3d9150613493565b6040513d6000823e3d90fdfea2646970667358221220baf553f960002173de9e974d4488248b920695266e8bd362a013f608ae016f1164736f6c63430008140033",
  "linkReferences": {},
  "deployedLinkReferences": {}
}