{
  "_format": "hh-sol-artifact-1",
  "contractName": "Treasury",
  "sourceName": "contracts/Treasury.sol",
  "abi": [
    {
      "inputs": [],
      "stateMutability": "nonpayable",
      "type": "constructor"
    },
    {
      "inputs": [],
      "name": "ReentrancyGuardReentrantCall",
      "type": "error"
    },
    {
      "anonymous": false,
      "inputs": [
        {
          "indexed": true,
          "internalType": "address",
          "name": "asset",
          "type": "address"
        },
        {
          "indexed": false,
          "internalType": "uint256",
          "name": "target",
          "type": "uint256"
        },
        {
          "indexed": false,
          "internalType": "uint256",
          "name": "upper",
          "type": "uint256"
        },
        {
          "indexed": false,
          "internalType": "uint256",
          "name": "lower",
          "type": "uint256"
        }
      ],
      "name": "AllocationConfigured",
      "type": "event"
    },
    {
      "anonymous": false,
      "inputs": [
        {
          "indexed": true,
          "internalType": "address",
          "name": "token",
          "type": "address"
        },
        {
          "indexed": false,
          "internalType": "uint256",
          "name": "amount",
          "type": "uint256"
        }
      ],
      "name": "DefiDeposit",
      "type": "event"
    },
    {
      "anonymous": false,
      "inputs": [
        {
          "indexed": true,
          "internalType": "address",
          "name": "token",
          "type": "address"
        },
        {
          "indexed": false,
          "internalType": "uint256",
          "name": "amount",
          "type": "uint256"
        }
      ],
      "name": "DefiWithdrawal",
      "type": "event"
    },
    {
      "anonymous": false,
      "inputs": [
        {
          "indexed": true,
          "internalType": "address",
          "name": "token",
          "type": "address"
        },
        {
          "indexed": false,
          "internalType": "uint256",
          "name": "amount",
          "type": "uint256"
        }
      ],
      "name": "FundsDeposited",
      "type": "event"
    },
    {
      "anonymous": false,
      "inputs": [
        {
          "indexed": true,
          "internalType": "address",
          "name": "token",
          "type": "address"
        },
        {
          "indexed": false,
          "internalType": "uint256",
          "name": "amount",
          "type": "uint256"
        }
      ],
      "name": "FundsWithdrawn",
      "type": "event"
    },
    {
      "anonymous": false,
      "inputs": [
        {
          "indexed": true,
          "internalType": "address",
          "name": "triggerer",
          "type": "address"
        },
        {
          "indexed": false,
          "internalType": "uint256",
          "name": "totalValueBefore",
          "type": "uint256"
        },
        {
          "indexed": false,
          "internalType": "uint256",
          "name": "totalValueAfter",
          "type": "uint256"
        },
        {
          "indexed": false,
          "internalType": "uint256",
          "name": "wethBefore",
          "type": "uint256"
        },
        {
          "indexed": false,
          "internalType": "uint256",
          "name": "wethAfter",
          "type": "uint256"
        }
      ],
      "name": "RebalanceCycle",
      "type": "event"
    },
    {
      "anonymous": false,
      "inputs": [
        {
          "indexed": false,
          "internalType": "uint256",
          "name": "timestamp",
          "type": "uint256"
        },
        {
          "indexed": false,
          "internalType": "address[]",
          "name": "assets",
          "type": "address[]"
        },
        {
          "indexed": false,
          "internalType": "uint256[]",
          "name": "allocations",
          "type": "uint256[]"
        }
      ],
      "name": "RebalanceSuggested",
      "type": "event"
    },
    {
      "anonymous": false,
      "inputs": [
        {
          "indexed": true,
          "internalType": "address",
          "name": "assetSold",
          "type": "address"
        },
        {
          "indexed": true,
          "internalType": "address",
          "name": "assetBought",
          "type": "address"
        },
        {
          "indexed": false,
          "internalType": "uint256",
          "name": "amountSold",
          "type": "uint256"
        },
        {
          "indexed": false,
          "internalType": "uint256",
          "name": "amountBought",
          "type": "uint256"
        }
      ],
      "name": "SwapExecuted",
      "type": "event"
    },
    {
      "anonymous": false,
      "inputs": [
        {
          "indexed": false,
          "internalType": "address",
          "name": "token",
          "type": "address"
        },
        {
          "indexed": false,
          "internalType": "uint256",
          "name": "amount",
          "type": "uint256"
        }
      ],
      "name": "YieldEarned",
      "type": "event"
    },
    {
      "inputs": [],
      "name": "AAVE_POOL",
      "outputs": [
        {
          "internalType": "contract IAavePool",
          "name": "",
          "type": "address"
        }
      ],
      "stateMutability": "view",
      "type": "function"
    },
    {
      "inputs": [],
      "name": "DAI",
      "outputs": [
        {
          "internalType": "address",
          "name": "",
          "type": "address"
        }
      ],
      "stateMutability": "view",
      "type": "function"
    },
    {
      "inputs": [],
      "name": "MAX_AAVE_EXPOSURE",
      "outputs": [
        {
          "internalType": "uint256",
          "name": "",
          "type": "uint256"
        }
      ],
      "stateMutability": "view",
      "type": "function"
    },
    {
      "inputs": [],
      "name": "MAX_SLIPPAGE",
      "outputs": [
        {
          "internalType": "uint256",
          "name": "",
          "type": "uint256"
        }
      ],
      "stateMutability": "view",
      "type": "function"
    },
    {
      "inputs": [],
      "name": "USDC",
      "outputs": [
        {
          "internalType": "address",
          "name": "",
          "type": "address"
        }
      ],
      "stateMutability": "view",
      "type": "function"
    },
    {
      "inputs": [],
      "name": "WETH",
      "outputs": [
        {
          "internalType": "contract IWETH",
          "name": "",
          "type": "address"
        }
      ],
      "stateMutability": "view",
      "type": "function"
    },
    {
      "inputs": [
        {
          "internalType": "address",
          "name": "",
          "type": "address"
        }
      ],
      "name": "aTokenMapping",
      "outputs": [
        {
          "internalType": "address",
          "name": "",
          "type": "address"
        }
      ],
      "stateMutability": "view",
      "type": "function"
    },
    {
      "inputs": [
        {
          "internalType": "address",
          "name": "",
          "type": "address"
        }
      ],
      "name": "aavePrincipal",
      "outputs": [
        {
          "internalType": "uint256",
          "name": "",
          "type": "uint256"
        }
      ],
      "stateMutability": "view",
      "type": "function"
    },
    {
      "inputs": [],
      "name": "agentKitOperator",
      "outputs": [
        {
          "internalType": "address",
          "name": "",
          "type": "address"
        }
      ],
      "stateMutability": "view",
      "type": "function"
    },
    {
      "inputs": [
        {
          "internalType": "address",
          "name": "",
          "type": "address"
        }
      ],
      "name": "assetConfigs",
      "outputs": [
        {
          "internalType": "uint256",
          "name": "target",
          "type": "uint256"
        },
        {
          "internalType": "uint256",
          "name": "upperThreshold",
          "type": "uint256"
        },
        {
          "internalType": "uint256",
          "name": "lowerThreshold",
          "type": "uint256"
        }
      ],
      "stateMutability": "view",
      "type": "function"
    },
    {
      "inputs": [],
      "name": "checkAndRebalance",
      "outputs": [],
      "stateMutability": "nonpayable",
      "type": "function"
    },
    {
      "inputs": [
        {
          "internalType": "address",
          "name": "_asset",
          "type": "address"
        },
        {
          "internalType": "uint256",
          "name": "_target",
          "type": "uint256"
        },
        {
          "internalType": "uint256",
          "name": "_upperThreshold",
          "type": "uint256"
        },
        {
          "internalType": "uint256",
          "name": "_lowerThreshold",
          "type": "uint256"
        },
        {
          "internalType": "address[]",
          "name": "_swapPath",
          "type": "address[]"
        }
      ],
      "name": "configureAsset",
      "outputs": [],
      "stateMutability": "nonpayable",
      "type": "function"
    },
    {
      "inputs": [
        {
          "internalType": "address",
          "name": "_token",
          "type": "address"
        },
        {
          "internalType": "uint256",
          "name": "_amount",
          "type": "uint256"
        }
      ],
      "name": "depositToAave",
      "outputs": [],
      "stateMutability": "nonpayable",
      "type": "function"
    },
    {
      "inputs": [
        {
          "internalType": "address",
          "name": "_token",
          "type": "address"
        },
        {
          "internalType": "uint256",
          "name": "_amount",
          "type": "uint256"
        }
      ],
      "name": "emergencyWithdraw",
      "outputs": [],
      "stateMutability": "nonpayable",
      "type": "function"
    },
    {
      "inputs": [
        {
          "internalType": "address payable",
          "name": "_to",
          "type": "address"
        },
        {
          "internalType": "uint256",
          "name": "_amount",
          "type": "uint256"
        },
        {
          "internalType": "address",
          "name": "_token",
          "type": "address"
        }
      ],
      "name": "executeTransfer",
      "outputs": [],
      "stateMutability": "nonpayable",
      "type": "function"
    },
    {
      "inputs": [
        {
          "internalType": "address",
          "name": "_token",
          "type": "address"
        }
      ],
      "name": "getAavePositionValue",
      "outputs": [
        {
          "internalType": "uint256",
          "name": "",
          "type": "uint256"
        }
      ],
      "stateMutability": "view",
      "type": "function"
    },
    {
      "inputs": [],
      "name": "getAllocations",
      "outputs": [
        {
          "internalType": "uint256",
          "name": "wethAllocation",
          "type": "uint256"
        },
        {
          "internalType": "uint256",
          "name": "usdcAllocation",
          "type": "uint256"
        },
        {
          "internalType": "uint256",
          "name": "daiAllocation",
          "type": "uint256"
        },
        {
          "internalType": "uint256",
          "name": "totalValue",
          "type": "uint256"
        }
      ],
      "stateMutability": "view",
      "type": "function"
    },
    {
      "inputs": [
        {
          "internalType": "address",
          "name": "token",
          "type": "address"
        }
      ],
      "name": "getAssetValue",
      "outputs": [
        {
          "internalType": "uint256",
          "name": "",
          "type": "uint256"
        }
      ],
      "stateMutability": "view",
      "type": "function"
    },
    {
      "inputs": [],
      "name": "getBalance",
      "outputs": [
        {
          "internalType": "uint256",
          "name": "",
          "type": "uint256"
        }
      ],
      "stateMutability": "view",
      "type": "function"
    },
    {
      "inputs": [],
      "name": "getTotalValue",
      "outputs": [
        {
          "internalType": "uint256",
          "name": "",
          "type": "uint256"
        }
      ],
      "stateMutability": "view",
      "type": "function"
    },
    {
      "inputs": [],
      "name": "getWethAllocation",
      "outputs": [
        {
          "internalType": "uint256",
          "name": "",
          "type": "uint256"
        }
      ],
      "stateMutability": "view",
      "type": "function"
    },
    {
      "inputs": [],
      "name": "owner",
      "outputs": [
        {
          "internalType": "address",
          "name": "",
          "type": "address"
        }
      ],
      "stateMutability": "view",
      "type": "function"
    },
    {
      "inputs": [
        {
          "internalType": "address",
          "name": "",
          "type": "address"
        }
      ],
      "name": "priceFeeds",
      "outputs": [
        {
          "internalType": "contract AggregatorV3Interface",
          "name": "",
          "type": "address"
        }
      ],
      "stateMutability": "view",
      "type": "function"
    },
    {
      "inputs": [],
      "name": "proposalsContract",
      "outputs": [
        {
          "internalType": "address",
          "name": "",
          "type": "address"
        }
      ],
      "stateMutability": "view",
      "type": "function"
    },
    {
      "inputs": [
        {
          "internalType": "address",
          "name": "_operator",
          "type": "address"
        }
      ],
      "name": "setAgentKitOperator",
      "outputs": [],
      "stateMutability": "nonpayable",
      "type": "function"
    },
    {
      "inputs": [
        {
          "internalType": "address",
          "name": "_proposals",
          "type": "address"
        }
      ],
      "name": "setProposalsContract",
      "outputs": [],
      "stateMutability": "nonpayable",
      "type": "function"
    },
    {
      "inputs": [],
      "name": "suggestRebalance",
      "outputs": [],
      "stateMutability": "nonpayable",
      "type": "function"
    },
    {
      "inputs": [
        {
          "internalType": "address",
          "name": "",
          "type": "address"
        }
      ],
      "name": "tokenBalances",
      "outputs": [
        {
          "internalType": "uint256",
          "name": "",
          "type": "uint256"
        }
      ],
      "stateMutability": "view",
      "type": "function"
    },
    {
      "inputs": [],
      "name": "uniswapRouter",
      "outputs": [
        {
          "internalType": "contract IUniswapV2Router02",
          "name": "",
          "type": "address"
        }
      ],
      "stateMutability": "view",
      "type": "function"
    },
    {
      "inputs": [
        {
          "internalType": "address",
          "name": "token",
          "type": "address"
        },
        {
          "internalType": "address",
          "name": "feed",
          "type": "address"
        }
      ],
      "name": "updatePriceFeed",
      "outputs": [],
      "stateMutability": "nonpayable",
      "type": "function"
    },
    {
      "inputs": [
        {
          "internalType": "address",
          "name": "_token",
          "type": "address"
        },
        {
          "internalType": "uint256",
          "name": "_amount",
          "type": "uint256"
        }
      ],
      "name": "withdrawFromAave",
      "outputs": [],
      "stateMutability": "nonpayable",
      "type": "function"
    },
    {
      "inputs": [
        {
          "internalType": "address",
          "name": "",
          "type": "address"
        }
      ],
      "name": "yieldGenerated",
      "outputs": [
        {
          "internalType": "uint256",
          "name": "",
          "type": "uint256"
        }
      ],
      "stateMutability": "view",
      "type": "function"
    },
    {
      "stateMutability": "payable",
      "type": "receive"
    }
  ],
  "bytecode": "0x608034620001ec5760016000818155600480546001600160a01b031990811673c532a74256d3db42d0bf7a0400fefdbad7694008178255600280548216331790556020939093527fdd30f26761a197a30f1122555d987c7244e5928edad3f9e0fff79501608e28908054841673694aa1769357215de4fac081bf1f309adc3253061790557f473f4e406f2e237914d6364ace7626ddbaa8a1b0939171d040c31cc1ea4f21768054841673a2f78ab2355fe2f984d808b5cee7fd0a93d5270e17905573e5118e47e061ab15ca972d045b35193f673bcc368083527f10d2883cd297bc708b0e9947825807175be535a6e959b869b4704eaa831cf9fe80549094167314866185b1962b63c3ea9e03bc1da838bab34c19179093556040936060810192919073ebcc972b6b3eb15c0592be1871838963d0b9427873a1a245cc76414dc143687d9c3de1152396f352d66001600160401b03861183871017620001d957858852600283526020830188368237835115620001c65752815160011015620001b357868201525160021015620001a057505052516132079081620001f28239f35b634e487b7160e01b825260329052602490fd5b634e487b7160e01b845260328352602484fd5b634e487b7160e01b865260328552602486fd5b634e487b7160e01b855260418452602485fd5b600080fdfe60806040818152600491823610156100c1575b50361561001e57600080fd5b73a1a245cc76414dc143687d9c3de1152396f352d691823b156100bc578151630d0e30db60e41b8152600091829082908134885af180156100b2579260209281927f543ba50a5eec5e6178218e364b1d0f396157b3c8fa278522c2cb7fd99407d474956100a3575b50858152600684522061009a34825461181f565b905551348152a2005b6100ac90611874565b38610086565b83513d84823e3d90fd5b600080fd5b600090813560e01c90816308a01675146117a057508063098dbf5c1461169557806312065fe0146115fa5780631acb5390146115c257806326eff0f21461152257806329ab437b146114d757806334dc9e321461149f5780633ed55f0c146112da5780634158a94d146110a15780634450c20314611078578063487ede0414610db45780634f64d9d914610be8578063523fba7f14610bb05780635b9f207914610b7557806365ed6e2314610a8c5780636e9fff5714610a63578063735de9f714610a3b5780637609d7f6146109db57806389a30271146109ac5780638da5cb5b1461098357806393e5e90f1461095d57806395a566bd1461094057806395ccea67146107f25780639dcb511a146107b7578063ad5c464814610788578063b7997da1146106e6578063caa648b4146106c9578063dc133e891461067b578063dd41d05014610657578063e0bab4c414610628578063eeb149e7146102495763f9759518036100125790346102455781600319360112610245576020905160058152f35b5080fd5b509190346106245780600319360112610624576102646117ce565b602480359060018060a01b03809361028182600354163314611901565b610289611972565b16948451936370a0823160e01b85523082860152602094858185818b5afa801561061a5785908a906105e9575b6102c292501015611995565b6102ca612fbb565b611f40908181029181830414901517156105d757612710900484116105a3579087929187845260068652868420610302868254611965565b9055878452600986528087852054161561043c575b5085519063095ea7b360e01b825273368eedf3f56ad10b9bc57eed4dac65b26bb667f691828282015285848201528681604481888d5af1801561043257610405575b50813b156104015760848891858094888b51978896879563e8eda9df60e01b87528601528401523060448401528160648401525af180156103f7576103df575b5092847f61c74c7b35f6f1b220bb406a21982a8d0b6ec18192a649ff4aa205a3f858be6a9452600783528086206103d183825461181f565b905551908152a26001815580f35b6103e890611874565b6103f3578438610399565b8480fd5b85513d84823e3d90fd5b8380fd5b61042490873d891161042b575b61041c8183611888565b81019061194d565b5038610359565b503d610412565b88513d87823e3d90fd5b86516335ea6a7560e01b81528281018990526101008082868173368eedf3f56ad10b9bc57eed4dac65b26bb667f65afa9182156105995786926104a3575b505060e001511687845260098652868420906001600160601b0360a01b82541617905538610317565b818094959697508193503d8311610592575b6104bf8183611888565b8101031261058e57875191820182811067ffffffffffffffff82111761057a578852805182528994939291906104f6888201611a01565b88830152610505898201611a01565b8983015261051560608201611a01565b606083015261052660808201611a01565b608083015261053760a08201611a01565b60a083015260c08101519064ffffffffff821682036105765760e09160c084015201519082821682036105725760e09182820152903861047a565b8580fd5b8680fd5b85604186634e487b7160e01b600052526000fd5b8980fd5b503d6104b5565b89513d88823e3d90fd5b5060106064928587519362461bcd60e51b85528401528201526f0457863656564732041617665206361760841b6044820152fd5b634e487b7160e01b8952601183528389fd5b50508581813d8311610613575b6106008183611888565b810103126100bc57846102c291516102b6565b503d6105f6565b87513d8b823e3d90fd5b8280fd5b5090346102455781600319360112610245576020905173e5118e47e061ab15ca972d045b35193f673bcc368152f35b509034610245578160031936011261024557602090610674613073565b9051908152f35b50346106c65760203660031901126106c6576106956117ce565b6002546001600160a01b0391906106af90831633146117e4565b166001600160601b0360a01b600354161760035580f35b80fd5b509034610245578160031936011261024557602090610674612fbb565b509190346106245780600319360112610624576107016117ce565b6024356001600160a01b03818116949092918590036100bc57610729836002541633146117e4565b841561074e57501683526001602052822080546001600160a01b031916909117905580f35b606490602085519162461bcd60e51b83528201526014602482015273496e76616c69642066656564206164647265737360601b6044820152fd5b5090346102455781600319360112610245576020905173a1a245cc76414dc143687d9c3de1152396f352d68152f35b509034610245576020366003190112610245576020916001600160a01b03908290826107e16117ce565b168152600185522054169051908152f35b5080923461024557826003193601126102455761080d6117ce565b6002546001600160a01b039081169260243592829061082d3387146117e4565b1673a1a245cc76414dc143687d9c3de1152396f352d6948582146000146108d1575050833b156103f35782602486928389519788948593632e1a7d4d60e01b85528401525af19283156108c75784936108af575b5082918291600254168282156108a6575bf11561089c575080f35b51903d90823e3d90fd5b506108fc610892565b6108bb90939193611874565b61062457829138610881565b85513d86823e3d90fd5b875163a9059cbb60e01b81526001600160a01b03909116928101928352602083810195909552969593945086939092508391829060400103925af1908115610937575061091c575080f35b6109339060203d811161042b5761041c8183611888565b5080f35b513d84823e3d90fd5b50903461024557816003193601126102455760209051611f408152f35b5090346102455760203660031901126102455760209061067461097e6117ce565b612eba565b50903461024557816003193601126102455760025490516001600160a01b039091168152602090f35b5090346102455781600319360112610245576020905173ebcc972b6b3eb15c0592be1871838963d0b942788152f35b509034610245576020366003190112610245579081906001600160a01b03610a016117ce565b168152600a6020522090610a37825491600260018501549401549051938493846040919493926060820195825260208201520152565b0390f35b5091346106245782600319360112610624575490516001600160a01b03909116815260209150f35b50903461024557816003193601126102455760055490516001600160a01b039091168152602090f35b509034610245578160031936011261024557610aa6612fbb565b610aae612b15565b9160649283810290808204851490151715610b625782610acd916119e1565b92610ad6612c5b565b81810290808204831490151715610b4f5783610af1916119e1565b94610afa612e1b565b828102928184041490151715610b3c575090610b1a83610a3794936119e1565b9051948594859094939260609260808301968352602083015260408201520152565b634e487b7160e01b815260118752602490fd5b634e487b7160e01b865260118752602486fd5b634e487b7160e01b855260118652602485fd5b509034610245576020366003190112610245576020916001600160a01b0390829082610b9f6117ce565b168152600985522054169051908152f35b5090346102455760203660031901126102455760209181906001600160a01b03610bd86117ce565b1681526006845220549051908152f35b509134610624578260031936011261062457610c0f60018060a01b03600554163314611a1e565b815191610c1b83611842565b600383526020808401926060368537610c32613073565b610c3b86611a5a565b52610c44612c5b565b606481029080820460641490151715610da157610c6990610c63612fbb565b906119e1565b610c7286611a7d565b52610c7b612e1b565b90606482029180830460641490151715610d8e5750610c9f90610c63939293612fbb565b610ca885611a8d565b5281815194610cb686611842565b600386526060368388013773a1a245cc76414dc143687d9c3de1152396f352d6610cdf87611a5a565b5273ebcc972b6b3eb15c0592be1871838963d0b94278610cfe87611a7d565b5273e5118e47e061ab15ca972d045b35193f673bcc36610d1d87611a8d565b52610d378351964288526060848901526060880190612a00565b92868403908701525191828152019291855b828110610d7a57867f040415ba81f6d9a462e9c1ebaf5f5a401d1cec4f2558bf6b44a322bacf043f9587870388a180f35b835185529381019392810192600101610d49565b634e487b7160e01b875260119052602486fd5b634e487b7160e01b875260118252602487fd5b50346106c657816003193601126106c657610dcd6117ce565b6003546001600160a01b03946024359491610deb9087163314611901565b610df3611972565b8583169081855260209060078252868487205410611037578186979884602498526009825285892054168551978880926370a0823160e01b825230868301525afa958615610fd3578796611008575b508287526007825287848820548897818111610fe1575b50505073368eedf3f56ad10b9bc57eed4dac65b26bb667f690813b15610fdd5783606489928388519586948593631a4ca37b60e21b85528401528d60248401523060448401525af18015610fd357610f76575b50907f01c61f9ff609abec0166033e26ffdcb2501ae4e4ad8745b8f436ef6cf5c3b5b9610f6c939288610f01887f8e91bbd74bb7a610e4d7e6988db773510a989fa93df46b4334535b9d6b286e2e9a9b61181f565b848b5260068352610f16868c2091825461181f565b9055838a5260078252848a20610f2d828254611965565b9055838a5260088252848a20610f4489825461181f565b90558451908152a2516001600160a01b03909216825260208201929092529081906040820190565b0390a16001815580f35b610f6c9392917f8e91bbd74bb7a610e4d7e6988db773510a989fa93df46b4334535b9d6b286e2e97610fc87f01c61f9ff609abec0166033e26ffdcb2501ae4e4ad8745b8f436ef6cf5c3b5b993611874565b975091929350610eac565b84513d89823e3d90fd5b8780fd5b610fff93985090610ff583610ffa936118ee565b6119e1565b611965565b94873880610e59565b9095508181813d8311611030575b6110208183611888565b8101031261057657519438610e42565b503d611016565b60649184519162461bcd60e51b8352820152601c60248201527f5769746864726177616c2065786365656473207072696e636970616c000000006044820152fd5b50903461024557816003193601126102455760035490516001600160a01b039091168152602090f35b5082346102455760a0366003190112610245576110bc6117ce565b92602480359160443593606435926084359167ffffffffffffffff918284116112d657366023850112156112d657838201359183831161058e57818360051b860101903682116112d2576002546001600160a01b03939061112090851633146117e4565b61271061112d8c8c61181f565b1161129b57875161113d81611842565b8a8152602093848201908d82528a8301998c8b5261115a896118aa565b986111678d519a8b611888565b895284018689015b82821061127d57505050898e9f879060608501998a52169e8f8152600a87522091518255519760019889830155516002820155600301945191825196871161126c5768010000000000000000871161126c57505081908c8686549181885582821061123c575b50505001928b52808b20918b5b8581106112295787518a8152602081018c9052604081018a90528d908d907f9ab15632c1e4bba227fef32bf0d208b02ce488d7e094f36d9a40fcf1f2d0e38390606090a280f35b84518216848201559382019386016111e2565b899150878152888582209384019301905b83821061125e5790508891506111d5565b81558594508991018f61124d565b634e487b7160e01b8e52604190528cfd5b8135898116810361129557815290870190870161116f565b50508f80fd5b90601260649260208a519362461bcd60e51b855284015282015271496e76616c6964207468726573686f6c647360701b6044820152fd5b8a80fd5b8880fd5b5091346106245782600319360112610624576005546001600160a01b0391906113069083163314611a1e565b61130e611972565b611316612fbb565b9361131f612b15565b94611328612fbb565b9586156114635761133887611ac0565b85519360a0850185811067ffffffffffffffff8211176114505787528452608036602086013773a1a245cc76414dc143687d9c3de1152396f352d661137c85611a5a565b5273ebcc972b6b3eb15c0592be1871838963d0b9427861139b85611a7d565b5273e5118e47e061ab15ca972d045b35193f673bcc366113ba85611a8d565b52825b84518110156113ea57806113e089886113d96113e5958a611a9d565b51166124d0565b611ab1565b6113bd565b507feede213a34918d7c0b828ed3304be2754812c22e031ad24c7213a7224b65e24c9086611446611419612fbb565b91611422612b15565b90519384933397859094939260609260808301968352602083015260408201520152565b0390a26001815580f35b634e487b7160e01b855260418252602485fd5b855162461bcd60e51b815260208186015260166024820152754e6f2061737365747320746f20726562616c616e636560501b6044820152606490fd5b5090346102455760203660031901126102455760209181906001600160a01b036114c76117ce565b1681526007845220549051908152f35b50346106c65760203660031901126106c6576114f16117ce565b6002546001600160a01b03919061150b90831633146117e4565b166001600160601b0360a01b600554161760055580f35b509034610245576020928360031936011261062457836001600160a01b03806115496117ce565b1685526009825283852054169160248451809481936370a0823160e01b835230908301525afa9283156115b7578093611585575b505051908152f35b909192508382813d83116115b0575b61159e8183611888565b810103126106c657505190388061157d565b503d611594565b8251903d90823e3d90fd5b5090346102455760203660031901126102455760209181906001600160a01b036115ea6117ce565b1681526008845220549051908152f35b509190346106245782600319360112610624578051916370a0823160e01b8352309083015260208260248173a1a245cc76414dc143687d9c3de1152396f352d65afa91821561168b578392611654575b6020838351908152f35b9091506020813d8211611683575b8161166f60209383611888565b81010312610624576020925051903861164a565b3d9150611662565b81513d85823e3d90fd5b50919034610624576060366003190112610624576001600160a01b03823581811693908490036103f3576024359360443592808416809403610576576116e090600354163314611901565b6116e8611972565b83519063a9059cbb60e01b82528282015284602482015260208160448189875af1908115611796578691611778575b501561173d57509061173491845260066020528320918254611965565b90556001815580f35b606490602084519162461bcd60e51b83528201526015602482015274151bdad95b881d1c985b9cd9995c8819985a5b1959605a1b6044820152fd5b611790915060203d811161042b5761041c8183611888565b38611717565b84513d88823e3d90fd5b9050346102455781600319360112610245578073368eedf3f56ad10b9bc57eed4dac65b26bb667f660209252f35b600435906001600160a01b03821682036100bc57565b156117eb57565b60405162461bcd60e51b815260206004820152600c60248201526b155b985d5d1a1bdc9a5e995960a21b6044820152606490fd5b9190820180921161182c57565b634e487b7160e01b600052601160045260246000fd5b6080810190811067ffffffffffffffff82111761185e57604052565b634e487b7160e01b600052604160045260246000fd5b67ffffffffffffffff811161185e57604052565b90601f8019910116810190811067ffffffffffffffff82111761185e57604052565b67ffffffffffffffff811161185e5760051b60200190565b9060698202918083046069149015171561182c57565b90605f820291808304605f149015171561182c57565b8181029291811591840414171561182c57565b1561190857565b60405162461bcd60e51b815260206004820152601760248201527f4f6e6c792070726f706f73616c7320636f6e74726163740000000000000000006044820152606490fd5b908160209103126100bc575180151581036100bc5790565b9190820391821161182c57565b600260005414611983576002600055565b604051633ee5aeb560e01b8152600490fd5b1561199c57565b60405162461bcd60e51b815260206004820152601a60248201527f496e73756666696369656e7420746f6b656e2062616c616e63650000000000006044820152606490fd5b81156119eb570490565b634e487b7160e01b600052601260045260246000fd5b51906fffffffffffffffffffffffffffffffff821682036100bc57565b15611a2557565b60405162461bcd60e51b815260206004820152600d60248201526c13db9b1e481059d95b9d12da5d609a1b6044820152606490fd5b805115611a675760200190565b634e487b7160e01b600052603260045260246000fd5b805160011015611a675760400190565b805160021015611a675760600190565b8051821015611a675760209160051b010190565b600019811461182c5760010190565b73a1a245cc76414dc143687d9c3de1152396f352d6600090808252602090600a82526040808420815190611af382611842565b805482526001968782015486840190815260036002840154938686019485520193855180868a8298549384815201908c528a8c20928d8d905b8d8383106124b15750505050611b4492500386611888565b6060810194855280511561209957611b5a612b15565b93612710948581029080820487149015171561244557611b7d85611b88926119e1565b93835190519061181f565b83111561207e5750611ba59291611ba0915190611965565b6118ee565b0490805183519063313ce56760e01b91828152600491888284818b5afa918215612074578a92612055575b50878a528a8952868a205487518581526001600160a01b03959093909186168b858781845afa94851561204b578c8e96612018575b505090610c63611c20611c1a611c26946130b6565b8b6118ee565b91612975565b82519092600019820191821161200557611c428c928892611a9d565b511691858a518094819382525afa908115611eb65792610c63611c20611c8894611c7d8f958f98606499611c839892611fd8575b5050612975565b906118ee565b6118d8565b049251611c93611972565b8683611c9e83611a5a565b511603611f955785516370a0823160e01b808252308483015260249590918a8188818d5afa908115611ef457888b8e8e938195611f60575b50611ce683611d1c961015611995565b88548d5163095ea7b360e01b8152908b166001600160a01b0316818b019081526020810194909452948593849291839160400190565b03925af18015611ef457611f43575b5082516000198101908111611ec057908a86611d48899487611a9d565b51168a5193848092878252308a8301525afa918215611ef4578c92611f10575b5085855416906103844201804211611efe5786928e92838c611da28f958b9651988997889687956338ed173960e01b875230938701612a3d565b03925af18015611ef457611ed2575b5082516000198101908111611ec05785611dcc8c9286611a9d565b511692878a5180958193825230898301525afa8015611eb6578b90611e85575b611df69250611965565b93878a5260068952868a20611e0c878254611965565b90558151600019810193908411611e745750507fdd36740e2a012d93061a0d99eaa9107860955de4e90027d3cf465a055026c4079594939291611e4e91611a9d565b51169586885260068152838820611e6683825461181f565b90558351928352820152a355565b634e487b7160e01b8b526011905289fd5b50908981813d8311611eaf575b611e9c8183611888565b810103126112d25790611df69151611dec565b503d611e92565b88513d8d823e3d90fd5b634e487b7160e01b8c5260118552868cfd5b611eed903d808e833e611ee58183611888565b810190612986565b5038611db1565b89513d8e823e3d90fd5b634e487b7160e01b8e5260118752888efd5b9091508a81813d8311611f3c575b611f288183611888565b81010312611f3857519038611d68565b8b80fd5b503d611f1e565b611f59908b3d8d1161042b5761041c8183611888565b5038611d2b565b945050505081813d8311611f8e575b611f798183611888565b81010312611f3857518a888b8e611ce6611cd6565b503d611f6f565b855162461bcd60e51b8152808301899052601a60248201527f50617468206d757374207374617274207769746820746f6b656e0000000000006044820152606490fd5b611ff79250803d10611ffe575b611fef8183611888565b81019061295c565b8f80611c76565b503d611fe5565b634e487b7160e01b8d526011865260248dfd5b611c2693929650611c1a61203f610c639383611c2094903d10611ffe57611fef8183611888565b9793945050508c611c05565b8a513d8f823e3d90fd5b61206d919250893d8b11611ffe57611fef8183611888565b9038611bd0565b87513d8c823e3d90fd5b815190519798959792939261209291611965565b83106120a5575b50505050505050505050565b6120b392611ba09151611965565b04926120be84612a76565b8587528783528387205490946001600160a01b03916120de9083166130b6565b670de0b6b3a764000080830290838204148315171561249d5761210660649261210b926119e1565b6118c2565b04925190612117611972565b828061212284611a5a565b511697168097036124595781516000199490858101908111612445578461214a8b9286611a9d565b51160361240157878a526006865280878b2054106123bd5760048054885163095ea7b360e01b81529086166001600160a01b03168183015260248101839052909695949392919086816044818f8e5af18015611ef457908a949392916123a0575b5088519487866024816370a0823160e01b988982528d30908301525afa95861561204b578d9661236d575b5088541691610384420180421161235a57918d8094926122108c999897958e519a8b9788968795634401edf760e11b875230938701612a3d565b03925af1928315612074578a9361233e575b508651908152308682015284816024818b5afa908115612074578a9161230f575b5061224d91611965565b9386895260068452858920612263868254611965565b905581518381019081116122fc5761227b9083611a9d565b51888a5260068552612291878b2091825461181f565b905581519283019283116122e957507fdd36740e2a012d93061a0d99eaa9107860955de4e90027d3cf465a055026c407949392916122ce91611a9d565b51908351928352820152a35538808080808080808080612099565b634e487b7160e01b895260119052602488fd5b634e487b7160e01b8a526011825260248afd5b90508481813d8311612337575b6123268183611888565b8101031261058e575161224d612243565b503d61231c565b6123539193503d808c833e611ee58183611888565b9138612222565b634e487b7160e01b8e5260118a5260248efd5b9095508781813d8311612399575b6123858183611888565b81010312612395575194386121d6565b8c80fd5b503d61237b565b6123b690883d8a1161042b5761041c8183611888565b50386121ab565b865162461bcd60e51b815260048101879052601b60248201527f496e73756666696369656e7420737461626c652062616c616e636500000000006044820152606490fd5b865162461bcd60e51b815260048101879052601960248201527f50617468206d75737420656e64207769746820746172676574000000000000006044820152606490fd5b634e487b7160e01b8b52601160045260248bfd5b855162461bcd60e51b815260048101869052601f60248201527f50617468206d757374207374617274207769746820737461626c65636f696e006044820152606490fd5b634e487b7160e01b8a52601160045260248afd5b86546001600160a01b03168552958101958b955090930192018e611b2c565b9060018060a01b03808316600092818452602092600a845283604092838720908451986124fc8a611842565b82548a526001998a840154918582019283528a8c60036002880154978b8601988952018a5180998a93818454938481520193865281862095915b83831061293c575050505061254d92500387611888565b6060820195865281511561292e5761256490612eba565b93612710948581029080820487149015171561291a57611b7d85612587926119e1565b831115612626575061259f9291611ba0915190611965565b04918151845163313ce56760e01b91828252600492898385818c5afa928315611eb6578b93612607575b50888b528b8a5284888c205416928851938285528b858781845afa94851561204b578c8e9661201857505090610c63611c20611c1a611c26946130b6565b61261f9193508a3d8c11611ffe57611fef8183611888565b91386125c9565b815190519899969892939261263a91611965565b831061264e575b5050505050505050505050565b61265c92611ba09151611965565b049361266785612a76565b9486885288845261267c82868a2054166130b6565b670de0b6b3a764000080830290838204148315171561249d576121066064926126a4926119e1565b049251906126b0611972565b82806126bb84611a5a565b51169716809703612459578151600019949085810190811161244557846126e38b9286611a9d565b51160361240157878a526006865280878b2054106123bd5760048054885163095ea7b360e01b81529086166001600160a01b03168183015260248101839052909695949392919086816044818f8e5af18015611ef457908a949392916128fd575b5088519487866024816370a0823160e01b988982528d30908301525afa95861561204b578d966128ce575b5088541691610384420180421161235a57918d8094926127a98c999897958e519a8b9788968795634401edf760e11b875230938701612a3d565b03925af1928315612074578a936128b2575b508651908152308682015284816024818b5afa908115612074578a91612883575b506127e691611965565b93868952600684528589206127fc868254611965565b905581518381019081116122fc576128149083611a9d565b51888a526006855261282a878b2091825461181f565b905581519283019283116122e957507fdd36740e2a012d93061a0d99eaa9107860955de4e90027d3cf465a055026c4079493929161286791611a9d565b51908351928352820152a3553880808080808080808080612641565b90508481813d83116128ab575b61289a8183611888565b8101031261058e57516127e66127dc565b503d612890565b6128c79193503d808c833e611ee58183611888565b91386127bb565b9095508781813d83116128f6575b6128e68183611888565b810103126123955751943861276f565b503d6128dc565b61291390883d8a1161042b5761041c8183611888565b5038612744565b634e487b7160e01b8c52601160045260248cfd5b505050505050505050505050565b909294508291938d87541681520194019101918f928a938f959395612536565b908160209103126100bc575160ff811681036100bc5790565b60ff16604d811161182c57600a0a90565b60209081818403126100bc5780519067ffffffffffffffff82116100bc57019180601f840112156100bc5782516129bc816118aa565b936129ca6040519586611888565b818552838086019260051b8201019283116100bc578301905b8282106129f1575050505090565b815181529083019083016129e3565b90815180825260208080930193019160005b828110612a20575050505090565b83516001600160a01b031685529381019392810192600101612a12565b9192608093612a6292979695978452602084015260a0604084015260a0830190612a00565b6001600160a01b0390951660608201520152565b73ebcc972b6b3eb15c0592be1871838963d0b94278806000526006602052816040600020541015612b10575073e5118e47e061ab15ca972d045b35193f673bcc3690816000526040600020541015612b0d5760405162461bcd60e51b815260206004820152601d60248201527f496e73756666696369656e7420737461626c65206c69717569646974790000006044820152606490fd5b90565b905090565b73a1a245cc76414dc143687d9c3de1152396f352d660008181527fdeb45d6aabd04197ffb785653e55ff0e08a12766f8012f67a27ccad1190fa5db54600960209081527f88202418a051c9516f022fd072ab17b80308d6ed445f31f3df6074606dffdde754604093926001600160a01b0391821680612bc7575b5050916006612bc39492612bb88795670de0b6b3a76400009885526001835285852054166130b6565b9483525220546118ee565b0490565b90836024928751938480926370a0823160e01b82523060048301525afa918215612c51578592612c20575b5092612bb8670de0b6b3a7640000979593612c13600694612bc3999761181f565b5093959750509294612b8f565b9091508381813d8311612c4a575b612c388183611888565b810103126103f3575190612bb8612bf2565b503d612c2e565b86513d87823e3d90fd5b73ebcc972b6b3eb15c0592be1871838963d0b9427860008181527f707d3679de15906d97987bc7aad1e9f95aa6cb24ae471f1183cd969b89977bbe54600960209081527fd48c19247a4bce0ffe3806d0a3cc642d28b86c8f26f4d6720e4716c8f778e57f549294939290916040916001600160a01b0391908216908482612da3575b5050508386526001835281862054168015612d6857612cfb906130b6565b91815163313ce56760e01b81528181600481885afa908115612d5e57610ff5949392612d368993600693612b0d9a9b91612d41575b50612975565b9683525220546118ee565b612d589150833d8511611ffe57611fef8183611888565b38612d30565b83513d89823e3d90fd5b815162461bcd60e51b8152600481018490526014602482015273141c9a58d94819995959081b9bdd08199bdd5b9960621b6044820152606490fd5b84516370a0823160e01b815230600482015292839060249082905afa908115612e11578891612de0575b612dd7925061181f565b50388084612cdd565b90508482813d8311612e0a575b612df78183611888565b81010312610fdd57612dd7915190612dcd565b503d612ded565b84513d8a823e3d90fd5b73e5118e47e061ab15ca972d045b35193f673bcc3660008181527f0f51b1e71cf0ee20676b8c7d74395993dff171d164afe144da8bd154c7e69b2054600960209081527f6bd289ec3d3e4b7e4ac276a02cc9de823a5f2ccb75e069369327dae4ce74593d549294939290916040916001600160a01b0391908216908482612da3575050508386526001835281862054168015612d6857612cfb906130b6565b9060018060a01b03809216600092818452602090600682526040908186205460098452818388205416908482612f4d575b50505073a1a245cc76414dc143687d9c3de1152396f352d6808514612f2657508386526001835281862054168015612d6857612cfb906130b6565b612bc39493612bb88893600693670de0b6b3a7640000999a526001835285852054166130b6565b84516370a0823160e01b815230600482015292839060249082905afa908115612e11578891612f8a575b612f81925061181f565b50388084612eeb565b90508482813d8311612fb4575b612fa18183611888565b81010312610fdd57612f81915190612f77565b503d612f97565b612fc3612b15565b6040516060810181811067ffffffffffffffff82111761185e5760405260028152604036602083013773ebcc972b6b3eb15c0592be1871838963d0b9427861300a82611a5a565b5273e5118e47e061ab15ca972d045b35193f673bcc3661302982611a7d565b526000915b815183101561306d57613067906130619061305b6001600160a01b036130548787611a9d565b5116612eba565b9061181f565b92611ab1565b9161302e565b91505090565b61307b612b15565b613083612fbb565b60648202918083046064149015171561182c57612b0d916119e1565b519069ffffffffffffffffffff821682036100bc57565b604051633fabe5a360e21b81529060a090829060049082906001600160a01b03165afa80156131c5576000918291613171575b50600082131561313c57610e0f1942019042821161182c57106131095790565b60405162461bcd60e51b815260206004820152600b60248201526a5374616c6520707269636560a81b6044820152606490fd5b60405162461bcd60e51b815260206004820152600d60248201526c496e76616c696420707269636560981b6044820152606490fd5b91905060a0823d82116131bd575b8161318c60a09383611888565b810103126106c6575061319e8161309f565b5060208101516131b560806060840151930161309f565b5090386130e9565b3d915061317f565b6040513d6000823e3d90fdfea26469706673582212203af01aa68a553821f091e1b71032ab088365597c8b74232ffa24bbc6c9d804bc64736f6c63430008140033",
  "linkReferences": {},
  "deployedLinkReferences": {}
}